:1000000000000320D1010000F1110000BD1100002B
:10001000BD110000BD110000BD110000BD110000A8
:10002000BD110000BD110000BD110000F111000064
:10003000F1110000BD110000B51B00004D1B0000B8
:10004000F1110000F1110000F1110000F1110000A8
:10005000F1110000F1110000F1110000F111000098
:10006000F1110000F1110000F1110000F111000088
:10007000F1110000F1110000F1110000F111000078
:10008000F1110000F1110000F1110000F111000068
:10009000F1110000F1110000F1110000F111000058
:1000A000F1110000F1110000F1110000F111000048
:1000B000F1110000F1110000F111000065250000B0
:1000C000F1110000B3100000F1110000392400000C
:1000D000F1110000C1260000F1110000F111000033
:1000E000F1110000F1110000F1110000F111000008
:1000F000F1110000F1110000F1110000F1110000F8
:10010000F1110000F1110000F1110000F1110000E7
:10011000F1110000E51C0000F1110000F1110000D8
:10012000F1110000F1110000F1110000F1110000C7
:10013000F1110000F1110000F1110000F1110000B7
:10014000F1110000F11100002D260000F111000056
:10015000F1110000F1110000F1110000F111000097
:10016000F1110000F1110000F1110000F111000087
:10017000F1110000F1110000F1110000F111000077
:10018000F1110000F1110000F1110000F111000067
:10019000F1110000F1110000C5240000F111000070
:1001A000F1110000F1110000F1110000F111000047
:1001B000F1110000F1110000F1110000F111000037
:1001C000F1110000F1110000F1110000F111000027
:1001D00008B5614B4CF220521A804DF628121A8055
:1001E00000BF00BF102223F80E2CA3F51F43DE3BF7
:1001F0004FF030621A60594A9A60594ADA60594B96
:100200004FF470021A60584B584A1A60584A1368E3
:1002100013F4807301BF57490B604FF4A853136068
:10022000554B56491A78100742BF1A7842F0080217
:100230001A70534BAA221A70524A534B8B4204D263
:1002400052F8040F43F8040BF8E7504B504A0021D2
:10025000934202D243F8041BFAE74E4A4E48002369
:1002600050F8231042F823100133742BF8D14B4B74
:100270004B4A802103F8011B9342FBD1494B454A6D
:100280001A60494B8A221A70A3F5805324225A70AF
:10029000A0221A709A799107FCD59A79D206FCD4DB
:1002A000424A937903F00C03082BFAD1404B6022A9
:1002B0001A70404A1378802BFCD13C4B00221A71F3
:1002C0004E225A719A799406FCD59979374A480694
:1002D000FBD5394B39491960082159602023137027
:1002E000937903F00C030C2BFAD1354B354A1A6085
:1002F000354B364A1A60002407225C6043F8042C10
:10030000334AC3F80C2D62B600F075FF194B1A681A
:10031000D1070AD52F4A30491C60146042F8041CEA
:1003200010221A602D4A2E4911602E4A1278520668
:100330000ED52A492A4A0868904209D12548264CF8
:1003400000221A60026040F8044C102018600A6015
:1003500002F016FF02F0DCFB0E200540823F040095
:100360000100002B88ED00E0002008E0030000857C
:1003700010D0034014D0034002D00740C011FF1F2B
:1003800000E00740F48A00003007FF1FC011FF1F84
:100390004816FF1F0002FF1F0000000000E400E0FD
:1003A00064E400E008ED00E0005006400040064034
:1003B00001E0074003E007404480044000000703D9
:1003C00004800440C010050014E000E07FA9030091
:1003D0000000202004D0034000DD68501CE00340F2
:1003E000A5C3945A00F00740FFFFFFFFFFFFFFFF88
:1003F000FFFFFFFFFFFFFFFFFFFFFFFFFFFFFFFF0D
:10040000FFFFFFFFFFFFFFFFFFFFFFFFDEF9FFFF23
:1004100010B5054C237833B9044B13B10448AFF33E
:1004200000800123237010BDC011FF1F00000000D9
:10043000F08A0000084B10B51BB108490848AFF31B
:1004400000800848036803B910BD074B002BFBD0A0
:10045000BDE81040184700BF00000000C411FF1F96
:10046000F08A0000C011FF1F000000007047002349
:100470004363836300F10C03243003C883E8030063
:10048000704700F10C03143003C883E80300704781
:10049000C26803690AB9D90709D513F0010F4FEAF9
:1004A000630318BFC158184418BF8A5810477047D3
:1004B000704710B5044607F0AFFD204610BD10B5DB
:1004C000044607F0A9FD204610BD10B5044607F00C
:1004D000A3FD204610BD10B5044607F09DFD204643
:1004E00010BD10B50446A9B1C26803699A4213D27F
:1004F0004269806803F024FCE368A269A1680133C3
:10050000E36023681A4491421CBF63695B18A360CF
:10051000002010BD012010BD072010BD2DE9F341C2
:10052000324E334F054601AC01F02EF8002802DCB4
:1005300005F1BB063CE001F005F8C1B20D29D5F884
:10054000BC3101D0802B0FD1802B08BF7F232B44DF
:10055000002283F83B2005F13B01C5F8BC21D5F80A
:10056000C001FFF7BEFFE3E7082916D1002BDBD05F
:10057000013BC5F8BC313A88BB782280A3704FF0AC
:100580000008336814F808101B68184808F10108BF
:100590009847B8F1030FF4D1C6E75A1C2B44C5F8AD
:1005A000BC2183F83B10336810481B689847BBE7B1
:1005B000D5F8C441E368B3B162696168304603F0BD
:1005C000BFFBE368A26961680848013BE3602368F8
:1005D0001A4491421CBF63695B1863603246054947
:1005E00002F0F4F8E4E702B0BDE8F081FC07FF1F79
:1005F0002C810000C481000013B541F2470001F0D6
:10060000C9F90D4C092001F0CDF800210A2001F0B4
:10061000F1F8236809495B681A2220469847084B7D
:100620001B88ADF80430236802225B6801A92046CC
:10063000984702B010BD00BFFC07FF1FC781000034
:100640002F81000070472DE9F8430D4604464FF412
:1006500080512846904602F0BBFD7F28064614D9FB
:1006600004F1BB074FF0000929467F22384607F006
:1006700029FD7F3E84F83A913946D4F8C401FFF74A
:1006800030FF7E2E05F17F05EED896B10A490B4A60
:1006900004F1BB06B8F1000F18BF0A462B468021B3
:1006A000304607F0C1FC3146D4F8C401BDE8F84338
:1006B00017E7BDE8F88300BFE2810000C4810000B5
:1006C0004A1CC379D2B29A4270B51ED0013B13F0D6
:1006D000FF0384680CD0FF291FBF110201F1FF3115
:1006E00091FBF3F39BB204BF4FF6FF7191FBF3F361
:1006F0002546291B868889B28E4205D92978594317
:10070000091205F8011BF4E7C27170BD43888B42E2
:10071000F0B52CD9C379C2F30746C2F30725D4B28A
:100720000BB9A64608E05E435D435C43C6F307266B
:10073000C5F30725C4F3072E077BC47BA742876850
:1007400003D101EB410139440AE007EB8101120EAC
:100750000C440BB9D3B202E05343C3F30723237015
:10076000037BCE54437BCD54837B01F803E0F0BD83
:100770002DE9F84383680446002B4BD001F0D8FDE7
:100780002369C01AB0F5967FF8D372B6224B94F95C
:100790000620A16853F832E0204AA088136843F08D
:1007A000807313601E4A136843F0010313601D4BEE
:1007B0001A68084402F5967298464FF0010C884278
:1007C0001FD911F8019B082580261F68BF1AB7F5AD
:1007D000967FFAD316EA090FD8F800208EF880C069
:1007E00004D01F68BF1ABF2FFBD903E01F68BF1AD0
:1007F0003B2FFBD9013D8EF800C14FEA5606E4D1EC
:10080000DDE71968891AB1F5967FFAD362B601F06F
:100810008FFD2061BDE8F88360840000FCED00E0FE
:10082000001000E0041000E07047F8B5224D6F683A
:10083000002F3FD14FF4E47007F0E6FB022206469A
:100840001E4901F0A2FF1E4B3360C6F8BC71202088
:1008500007F0DAFB40230361802304464361C7604D
:1008600007774FF4005007F0CFFB4FF4FC532060A4
:100870006060A060A36100B92061C6F8C04120207B
:1008800007F0C2FB0023C360402303618023436160
:100890000123044603774FF4005007F0B5FB4FF4F3
:1008A000FC5320606060A060A36100B92061C6F8BD
:1008B000C4416E606868F8BDDC11FF1F6C810000E8
:1008C000948100002DE9F74FDFF8BC9082464FF08D
:1008D00000084FF00C0B5FFA88F30BFB03F209EBF7
:1008E000020159F80260002E46D08A6812B901212F
:1008F0008AF83A10DAF8BC40002C3AD00192002A6B
:1009000037D0214A0BFB032338205F6807F07CFBBC
:100910000023019A436280F8283080F82930C362AE
:1009200003634363394602622022054607F0CAFB8F
:100930003146204600F0D9FA63689842074618D23B
:10094000236853F82030A3B9242007F05DFB202250
:100950000190314640F8045B07F0B4FB2268019B2C
:1009600042F82730236853F8273013B1A3680133C6
:10097000A36008F10108AEE7FFF757FF03493246CD
:1009800003B0BDE8F04F5EE63407FF1FDC830000D4
:1009900008B5FFF74AFF01220249FFF754FE002085
:1009A00008BD00BFE681000070B50B4DAE688EB982
:1009B000482007F029FB03220446084901F0E5FE20
:1009C000074B2360462384F83B6084F83C60236433
:1009D0006664AC60A86870BDDC11FF1FA4810000D4
:1009E0001C88000070B50D4E04460025FFF7DCFFA3
:1009F00056F825000135FFF7BBFE082DF6D1A36B95
:100A00000133FF2B88BF0023A36304F10C032434BC
:100A100094E8030083E8030070BD00BF7C12FF1F51
:100A20002DE9F0410446FFF7BFFF636B072B1ED88B
:100A3000174A52F823305F880025AEB2BE4216D264
:100A4000FFF7B2FFA36B626B3102B1FBF7F1194400
:100A5000C9B202F027FA8046FFF7A6FF606B0728AD
:100A600003D84246314601F003F80135E5E7636BF0
:100A70000133072B81BF0023636304F10C032C3483
:100A800086BF94E8030083E803006363BDE8F08158
:100A90007C12FF1F10B50446FFF786FF90F83B302D
:100AA000022B01BF04F10C031C3494E8030083E81B
:100AB000030010BD70472DE9F341FFF775FF324D7C
:100AC000324E2860FFF7B1FE33686860002B4ED1CC
:100AD000C82007F099FA012207462D4901F055FE7A
:100AE0002C4B3B600C2007F08FFA41248046A31E5C
:100AF000012B13D9012C0FD00323012203FB03F197
:100B00008C4208D3B4FBF3F103FB1141002908BF69
:100B100000220233F2E70AB90234E8E7B4F1FE5FDB
:100B20004FF0000394BFA0004FF0FF30C8F808302A
:100B300007F06AFA002808BF00240023C8F8000064
:100B4000C8F8044019469C4205D0D8F8002042F865
:100B500023100133F7E70023C7F8C4300E4BC7F862
:100B6000BC801B680193019BC7F8C03037603368B5
:100B7000AB60082007F048FA002303604360074B8E
:100B8000186002B0BDE8F081F815FF1FDC11FF1FEF
:100B9000318100005C810000F415FF1FF015FF1F7C
:100BA00000F10C03143003C883E803007047C268E7
:100BB00003690AB9D90709D513F0010F4FEA630396
:100BC00018BFC158184418BF8A581047704770475B
:100BD000704710B5044607F01FFA204610BD10B547
:100BE000044607F019FA204610BD2DE9F843DDF858
:100BF0002080164699460D46002900F012810422F5
:100C00009E49284603F0CAFE48B9FFF7CDFE0125EC
:100C100080F83B50FFF709FE2A46994956E0082222
:100C20009849284603F0BAFE48B9FFF7BDFE0223F3
:100C300080F83B30FFF7F9FD0122934946E0092295
:100C40009249284603F0AAFE002844D1347834F0B3
:100C50007F0418D102222146304603F09FFE90B156
:100C600021460A22304602F081FB0446FFF79CFE33
:100C7000874B186838B11C2C28BF1C24036880F8E7
:100C800040409B68984799F8004034F07F0414D1A5
:100C900002222146484603F081FE70B121460A2215
:100CA000484602F063FB0446FFF77EFE784B186867
:100CB00018B10368C4639B689847FFF775FE032368
:100CC00080F83B30FFF7B1FD72490122FFF7BBFC12
:100CD0000020BDE8F88306226F49284603F05EFE37
:100CE00078B933781A0600F19C8099F800301B0619
:100CF00000F1978098F8000030F07F0400F09480B5
:100D00008FE007226549284603F048FE20BB34786F
:100D100034F07F0440F085800A222146304602F0FC
:100D200025FB0546FFF740FE462D28BF46250564F6
:100D30005B4D064655F8240096F84010FFF7C0FCBE
:100D400055F824000134FFF713FD082CF2D1FFF70A
:100D50006CFD01225349B9E705225349284603F0A7
:100D60001DFE48B9FFF720FE072380F83B30FFF750
:100D70005CFD01224D49A9E707224D49284603F0B1
:100D80000DFE48B9FFF710FE042380F83B30FFF753
:100D90004CFD0122474999E706224749284603F0BE
:100DA000FDFD48B9FFF700FE052380F83B30FFF753
:100DB0003CFD0122414989E7FFF737FD0122404907
:100DC000FFF741FCFFF731FD01223E49FFF73BFCF5
:100DD000FFF72BFD01223C49FFF735FCFFF725FD0E
:100DE00001223A49FFF72FFCFFF71FFD0122384986
:100DF000FFF729FCFFF719FD01223649FFF723FC15
:100E0000FFF713FD01223449FFF71DFCFFF70DFD2D
:100E100001223249FFF717FCFFF707FD0122304995
:100E200054E70120BDE8F8830A222146304602F04B
:100E30009DFA0A2207462146484602F097FA0A22FE
:100E400021460546404602F091FA0646FFF7ACFD02
:100E50003F042D0207F47F0705F47F4580463D439C
:100E6000F6B2FFF7A1FD3543062388F83B30C8F8FA
:100E70004450FFF7DAFC01221A4927E738820000C4
:100E80003C820000678200004C8200006682000005
:100E90000C16FF1F6F8200008E82000094820000FB
:100EA0007C12FF1F9B820000B2820000B78200000C
:100EB000CE820000D5820000CF820000ED820000CB
:100EC000FF820000258300002E8300003B8300008A
:100ED0004983000060830000748300007E8300006B
:100EE0008A8300009583000070472DE9F041446833
:100EF00006460F464CB32021384602F069F900241B
:100F00003A46D31B984205DD12F8013B83EA4413AD
:100F10005C40F6E77568B4FBF5F34FF0010805FB9C
:100F20001344A54211D9336853F8240068B1202234
:100F30003946043003F032FD38B14444A54202D9A9
:100F400008F10208EDE7641BFAE77068844234BFD9
:100F500020464FF0FF30BDE8F0812DE9FF47054600
:100F6000C03000F071FD002863D0FFF75EFCD0F8C0
:100F7000C041E368002B5CD015F13B0659D0626993
:100F80006168304602F0DCFEE368A2696168013BFB
:100F9000E36023681A4491421CBF63695B18636075
:100FA00004AC44F8046D204601F0D4FB064620460C
:100FB00001F0D0FB8146204601F0CCFB8046204664
:100FC00001F0C8FB0746204601F0C4FBD5F8BC4041
:100FD000824674B331462046FFF787FF6368984224
:100FE00019D2236853F82030ABB11C68FFF71DFC01
:100FF00000221149FFF727FB206A0368CDF800A003
:101000001C6842463B464946A04760B1FFF70DFCCD
:1010100001220A4905E033782BB1FFF706FC0849A5
:101020000122FFF710FBFFF700FC00220549FFF744
:101030000AFB04B0BDE8F08722830000A78300000C
:10104000C8830000DB83000038B5042006F0DCFF15
:10105000064C074D04F108030360A860042006F065
:10106000D3FF1C340460686138BD00BFFC81000000
:101070003407FF1FEFF31380A8B9EFF31082A2B972
:10108000EFF3058323B10F2B05D9084A985C03E0E1
:101090004FF4807000E01046EFF311832BB19842BB
:1010A00028BF184670474FF0FF307047F0E300E06C
:1010B000FEE770B53448037913F0300F2DD072B6C7
:1010C000837D03F0FF0523B9C3794023437462B6DF
:1010D00023E062B62D490B784A78DBB2D2B25C1CB1
:1010E000402C28BF00249442C67918BF0B19F6B2D1
:1010F0001CBF9E7023466C1E14F0FF05EFD1D8B2C2
:101100000870496C49B1934236BFC2F140029B1A44
:101110009B18272BC4BF01230B701B4AD078C0B289
:10112000060621D513791D061ED5184991F8485099
:1011300091F84930EDB2DBB2AB420CD00133282B31
:1011400028BF00231479CC1894F84A40E4B2D47133
:10115000147D072CF0D9DBB281F849300A4B1A799B
:10116000140644BF7C22DA7041060CD5064B1A796E
:10117000520608D5054A002182F87210526F02B15A
:1011800011703C22DA7070BD00B00640EC11FF1FF8
:1011900003790F2B0CD8074A137072B606490279EF
:1011A000012303FA02F20B8823EA02030B8062B6E2
:1011B000704700BF1A800040BE15FF1F08B50B4DD9
:1011C0002C462B68580301D500F08CFD2368590587
:1011D00001D501F0C7F923681A0501D5FFF769FFAA
:1011E0002368DB04EDD501F027F9EAE734800440F9
:1011F00008B5FFF7E3FFF0B5914D924A9249934E3F
:10120000934F4FF000632B604FF080532B604FF0F3
:1012100000532B604FF080432B604FF000432B6056
:101220008C4B00244EF6FF701C605860282313601E
:101230009360136193611362936213639363083243
:1012400002F50122336013600B608B600B618B61D0
:101250000B628B620921396007F5805704373C60C7
:101260007860BB603B6147F8041C07F5FE2785B03A
:101270003C607860BB603B6147F8041C07F5805711
:101280003C6078603360136042F8141CA2F5E122E0
:10129000A2F5FD62283A916A41F4007191621168E9
:1012A00041F00071116002F5012247F6FF711460F0
:1012B000516093601361684B684908221A60A3F576
:1012C000AA2360221A70E1225A70A3F56333A3F5B2
:1012D0007E7339221A6013230B6001F5FF2101F29E
:1012E000FC710A605E4A13605E4BA2F5FF221C602F
:1012F00003F50023A2F5FD621C608423136002F550
:1013000000223220136001F033F872B656490B7890
:10131000802B2A4608D0554B554C702018705548E4
:101320000460802018700BE0534B5448186003F59C
:10133000573303F2BD331C700B78802BFCD0EAE7E7
:1013400018780006FCD508784D4B01281B680BD196
:1013500000F1804000F5FC206024047008788028AB
:10136000FCD145494748086062B647498B429CBF5B
:101370000A214B4301AD00210A20B3FBF0F400FB2E
:10138000143330334B5523460CB10131F5E704A833
:10139000084400F80B4C6818CC1AA34206DAEC5C3F
:1013A0000678EE5400F801490133F5E73749002388
:1013B000E85C20B101330A2B21F8020BF8D1344943
:1013C000344801335B000B70002319461D18195077
:1013D0000833882B2F4C6960F8D12F482F4B0168B8
:1013E00041F4802101602E48016841F040710160A4
:1013F000C4F307211970C4F3074119752949230E55
:101400000B70FF2301F8343C002001F82C3C01F85C
:10141000A43C012301F8203C81F84C0001F8303C49
:10142000214B702119704FF4001313601F4B1022D1
:101430004FF4AF701A7005B0BDE8F04000F098BFEF
:1014400004E100E00C8003401C900B400C900B402A
:10145000008003400480034000900C400CB0034027
:101460000CB00B4020B0034003E0074000000240F6
:1014700000000741040002404480044000001713AC
:101480000C000240000007037F9698006007FF1FD2
:101490005E07FF1F0000FF1F348004409C200740B0
:1014A00000D80040B420074035E400E008210740A0
:1014B000FEE7FEE7094908B50B6868B16A461844BB
:1014C000A2F50052904206D301F054FE0C230360B3
:1014D0004FF0FF3008BD0860184608BD5807FF1FD1
:1014E0000B4B1B681B0512D50A4BDA7802F0CB02B6
:1014F000DA7040225A74DA7842F03402DA70064B1D
:101500005A78D2B21A705B6C0BB100221A70704715
:101510003480044000B00640EC11FF1F084A1178E7
:101520005378DBB2994207D00133402B28BF002308
:1015300013449878C0B270474FF0FF30704700BF37
:10154000EC11FF1F10B50F4C23786278D9B2D2B2DC
:10155000914213D0531C402B28BF0023E2189078EF
:10156000DAB26270626CC0B252B18B4288BF403155
:10157000CB1A1A2B04DC0023137010BD4FF0FF3080
:1015800010BD00BFEC11FF1F044B18785A78C0B291
:10159000D3B2984238BF4030C01A7047EC11FF1FD9
:1015A000064B93F8480093F84920C0B2D3B2984252
:1015B0002CBF273303F1FF33181A7047EC11FF1FBC
:1015C00010B5044C94F8723013B100F07BFEF9E7CB
:1015D00010BD00BFEC11FF1F274B1B681A052DE93A
:1015E000F04147D5254C636F0BB101221A70DFF82B
:1015F000908006464718BE4239D294F8485094F875
:1016000049300135282D28BF00259D420BD0631994
:1016100016F8012B83F84A20EDB2012384F87230CA
:1016200084F84850E7E7BC2388F80330FFF722FD31
:10163000402813DC98F804301B0613D594F8493081
:101640000133282B28BF0023E218DBB292F84A208E
:10165000D2B288F8072084F8493003E0FF2801DD82
:1016600000F030FE94F849309D42DFD0CFE7044BC4
:10167000BC22DA70BDE8F08134800440EC11FF1F19
:1016800000B00640214B1B681A052DE9F0410646C3
:101690003AD51F4D6B6F0BB101221A7095F8484077
:1016A000DFF86C801B4F0134282C28BF002495F8EC
:1016B0004920174BA2421AD1FFF7DCFC402811DC6D
:1016C0003B791B06F3D598F849300133282B28BF06
:1016D0000023EA18DBB292F84A20D2B2FA7185F8F8
:1016E0004930E4E7FF28E2DD00F0ECFDDFE71A19FE
:1016F000F6B282F84A60E4B2012283F8722083F8DD
:101700004840044BBC22DA70BDE8F08134800440CC
:10171000EC11FF1F00B006400E4B1B6813F4006372
:1017200016D017280C4B03D140F202310B4A04E0CB
:101730003C2809D10A4A40F2023111605A7B42F03A
:1017400001025A73012070475A7B02F0FE025A735D
:10175000002070473480044000B0064008B00440C8
:1017600008D0044038B50C4B1B6813F400634FF0ED
:1017700000040FD03F28094B09D8094951F83050CF
:101780005D64012100F009FE2C70012038BD5C640D
:10179000204638BD184638BD34800440EC11FF1F88
:1017A000608400000F4B1A7982421AD00E490968F2
:1017B000090515D5092A04D03B2A05D100210B4A79
:1017C00001E00B4A00211160092805D03B2807D110
:1017D00040F21331054A02E0054A40F2133111602C
:1017E000187170475807FF1F3480044004D004402C
:1017F0000CB0044010B509B140F08000144A537990
:101800009842144622D0134A126812051DD503F0DF
:101810007F030A2B04D03A2B05D100220E4B01E0A6
:101820000E4B00221A60002900F07F0214BF6023D3
:1018300044230A2A05D03A2A07D143F44073064AC2
:1018400002E0064A43F440731360607110BD00BFAC
:101850005807FF1F3480044000D0044010B00440FB
:101860000B4A38B5044692F8723003F0FF05002B9E
:10187000F9D10121204600F090FD2946204600F0D4
:10188000BDFD044B53F83420014B5A6738BD00BFEF
:10189000EC11FF1F608400001B4B1B681B0510B57B
:1018A00000D410BD194C94F87230184A03F0FF01AF
:1018B00013B100F007FDF6E7154B02201860154B39
:1018C000D970154B1879092804D03B2806D1134844
:1018D000016003E0124940F2031008605B7903F0F5
:1018E0007F030A2B04D03A2B06D100210D4B02E0D6
:1018F0000D4B40F203111960002313705370536CA9
:101900000BB101221A7010BD34800440EC11FF1F8E
:1019100084E100E000B006405807FF1F04D00440F7
:101920000CB0044000D0044010B00440184B9A782A
:1019300002F0EC0100F003020A43410748BF42F005
:1019400010029A70124900F00F02042A02BF8A792D
:1019500042F040028A715A79C30602F0EF020C4B42
:1019600048BF42F010025A719A79810602F0EF02E4
:1019700048BF42F010029A71C305054906D54B785D
:101980000A78DBB242F020020A704B70704700BF49
:1019900000B00640234A136843F400631360224BEF
:1019A00000221A705A7083F8482083F8492083F87F
:1019B00072201E4B1A79092A05D03B2A07D140F222
:1019C00013311B4A02E01B4A40F2133111605B796C
:1019D0000A2B05D03A2B07D14FF45172164B02E077
:1019E000164B4FF451721A601F28154B98BF2020D8
:1019F000C0F344321A70C0F347125A700421022215
:101A000000F01F0098729970DA7459758821197462
:101A10003C21D9700B4B402119706FF447710B4476
:101A20001A60704734800440EC11FF1F5807FF1FF5
:101A300004D004400CB0044000D0044010B0044076
:101A400000B0064021E400E0436882B053B1074A89
:101A5000006812680192019A101A83422CBF00207C
:101A6000012000E0012002B0704700BFF415FF1F05
:101A7000054B03EB8000D0F8900043888B4202D9DD
:101A800089B2FEF743BE7047EC11FF1FF8B5114C49
:101A9000114E124D04F17807384600F0E2FF32464D
:101AA0002946384604F1800701F058FB384600F01B
:101AB000D8FF883432462946384601F04FFB20468D
:101AC00000F0CFFF324629462046BDE8F84001F03D
:101AD00045BB00BFEC11FF1F3007FF1F9111000035
:101AE0000368C9B21B6818470368C9B21B68184766
:101AF00015490B6830B513B98360C36009E0046809
:101B00001A68944207D20025121B8360C560D86012
:101B10001A60086015E002681C689968121B026070
:101B200061B10C68A2420B46F5D28160C968C16000
:101B3000D860C168A21A88601A6002E08160C36040
:101B400098600223037530BD9C12FF1F174A70B5C1
:101B50001368174D01332C6813600026BCB123684D
:101B600013B1013B236012E0A26802B1D360206987
:101B70002A60036826751B6822460021984763681F
:101B80001BB123602046FFF7B3FF2C68E6E7EFF3B5
:101B9000108372B6002268686A6003B962B620B129
:101BA0008468FFF7A5FF2046F9E770BDF415FF1F15
:101BB0009C12FF1F38B50A4D0024EFF3108272B655
:101BC000A86848B14369AB6003B19C6102B962B6D1
:101BD000447783689847F0E702B962B638BD00BF22
:101BE0009C12FF1F70B50C4B0C4D1A7B42F0020685
:101BF00005EBC60482F001026060587B1A7300286E
:101C000014BFC824882480F0010044EA01415873BD
:101C100045F8361070BD00BF9C12FF1F0000FF1F6B
:101C2000FFF7B2BC08B50846FFF72CFD012008BD40
:101C300008B50846FFF726FD012008BD10B5084687
:101C400014461146FFF7C8FC204610BD38B50846BB
:101C50000D4602F035FE044601462846FFF7BCFC5F
:101C6000204638BDFFF79CBCFFF73ABCFFF7A8BC85
:101C7000FFF768BCFFF752BC08B50846FFF74CFDFC
:101C8000003018BF012008BD08B50846FFF76AFDFF
:101C9000003018BF012008BD08461146FFF7AABD55
:101CA0000846FFF77FBD0846FFF7DABDFFF7F4BD32
:101CB00010B5064B144603EB5100B0FBF1F0FFF7F3
:101CC00069FE2046BDE81040FFF730BE00389C1C7E
:101CD000034B03EB5100B0FBF1F0FFF75BBE00BF1D
:101CE00000389C1C2DE9F74FDFF8B8A2D1469AF8CE
:101CF0000050AC4CEDB215F0040F2CD0AA4B1B7861
:101D000033B3AA4A917D01F0FF0321B1013BDBB25D
:101D1000937503B900BED27DA44E02F0FF03BAB1A1
:101D2000013BDBB2F3759BB9337E03F0FF077BB950
:101D3000F06928B14388038000F058FDF76107E09F
:101D400000F002FE10B100F051FD01E00123F37537
:101D5000042389F8003005F0080303F0FF01002B8D
:101D600000F05A82924B934D1B78DBB21C094FEA6C
:101D7000930740F0D38105EBC703596855F8373016
:101D8000C3F38303013B0C2B00F2C481DFE813F0A3
:101D900083018301C201C201C201C201C201C201A9
:101DA000A001C201C201C2010D000A687F4C4B684C
:101DB0002262636292B2804B45F8373040F2816014
:101DC000002301218242A3622B61AB61617326462D
:101DD00017D8B2F5D06F80F01481B2F5817F00F092
:101DE000D28006D8802A00F0BD80822A00F0BD8013
:101DF00022E140F202339A4200F0F480B2F5A06F83
:101E00001BE042F22100824200F042810DD8B2F57F
:101E1000086F00F0A280B2F5106F40F00D81624AA9
:101E200094F8221011701E460AE042F221218A42E3
:101E300000F0FA8042F221339A4200F00181FBE087
:101E4000AB191A6A170603D5586A083800F01EFD48
:101E50000836802EF4D1594FDFF864B100265BF8C4
:101E600026004FEA860830B14268009200F00EFD6D
:101E7000009A1046F7E7524B524A43F808001033D5
:101E800048F8030058F8020040B1416801920091FF
:101E900000F0FCFC0099019A0846F5E742F80800BA
:101EA000494A48F80200494A22F816003A78023AAC
:101EB000032A07D8DFE802F002040204002200E04F
:101EC00001223A700136042E07F10107C7D14049BB
:101ED000394F00230B704FF001080E463D4A3E4B30
:101EE00008EB0200434410F8010C9B0010F0080FAF
:101EF00018704FEA880B21D000F026FD38B105EBB1
:101F0000481308305860354B45F83B3004E03378CF
:101F100045F83B000133337000F016FD4BF0010330
:101F200038B105EBC30E0830CEF8040045F8337025
:101F300004E045F833003378013333704BF002008E
:101F400008F101084BF0030B0023B8F1050F45F829
:101F5000303045F83B30C1D173E0134B1B78A3738D
:101F60000B4671E0A373E3736DE0A28C02F07F0275
:101F7000042A61D8A373E3739200194B9B5C9D07FD
:101F800061D5A1735FE0A28C02F07F02042A53D8CE
:101F9000638C002B50D11249920011440A7822F030
:101FA00002022CE080200740E515FF1F9C12FF1F56
:101FB000902007400000FF1FC8004000C015FF1F11
:101FC000C812FF1FC415FF1FD415FF1FE615FF1F02
:101FD000E415FF1F7886000030C80110880040001B
:101FE000C0200740A28C02F07F02042A24D8638C10
:101FF00013BBA549920011440A7842F002020A700C
:102000001FE0628CA18CA14B5E68AEB11888904233
:1020100008D15888884205D1120A032A0CBF3378A8
:102020001B8912E00C33EFE7994A1268E26494F8D6
:10203000222084F8502004E0934B0F221A7027E0EE
:1020400000231E4601E002230E36E58C9D4228BF88
:102050001D46402D2F4628BF402730463946FFF702
:10206000C1FDED1B3E4403D1402F11D12F4603E0AB
:10207000402D2F4628BF402730463946FFF7B2FD96
:10208000ED1B3E4401D1402F02D1A662A4F852506C
:102090000122804B3DE0804B1A8C42F221039A4290
:1020A00012D100237C4ACC5C02F154001C54013351
:1020B000072BF7D1536D0021862B08BF0F2308464D
:1020C00008BF9375FFF78EFD744B45F8373021E05C
:1020D000714EB76A97B1B6F85240402C254628BFDA
:1020E000402538462946FFF77DFD601B80B2A6F8E3
:1020F000520008B9402D00D17819B062328C664B7D
:10210000B2F5A06F06D1002283F8212093F8222097
:10211000634B1A705F4B01221A7079E005EBC7061A
:10212000013C726803F00803A2F10800E4B203F076
:10213000FF0E002B36D000F0A9FB5A485A4A50F83F
:102140002410E9B14B6840F8243001F108037360B2
:10215000135D032B0BD8DFE803F00204060803230A
:1021600004E0022302E0052300E00423135516F0E7
:10217000080F0A8814BFC823882343EA024345E0B6
:10218000135D032B08D8DFE803F043430204002368
:1021900000E0012313553BE016F0080F14BF0323A2
:1021A0000223F7E755F837301B0C99B222F8081CC8
:1021B00033B3394B22F806EC42F804EC4FEA840EB4
:1021C00003EB0E0CDCF82C2012B9CCF82C0002E04A
:1021D000DCF83C2050607344344AD86332F8143041
:1021E000194422F8141000F0AFFB10B108307060F1
:1021F00006E02F4A45F8370013780133137007E0E3
:102200002C4A264B16F0080F08BF134645F8373006
:10221000082389F800306AE5E8071ED51D481E4AE4
:10222000244D02230370244B117302F15C069C328F
:102230001D60DA605E609D6019619961124B0D222C
:102240001A701E4AFF2313702370117413711C4BF4
:102250009F221A700123037012E0290604D50A4B4D
:102260000D221A7080232370AA0705D5134A13780C
:10227000DBB2137002232370EB0644BF10232370DC
:1022800003B0BDE8F08F00BFC02007400C84000001
:10229000F415FF1F942007409C12FF1FC800400048
:1022A00098200740C415FF1FC015FF1FE615FF1F2C
:1022B000E415FF1F880040000000FF1F8820074032
:1022C0008420074070B5194C94F8DC60254666BB45
:1022D00000F058FBFFF758F900F0BEFA00F06EFB73
:1022E00000F05EFB00F0C4FA84F8DC60EFF30583D5
:1022F000DBB9EFF3108372B6D4F8E00010B194F8B4
:10230000E41011B18BB962B670BD012284F8E420EB
:102310004269C4F8E02002B1916103B962B60024B9
:1023200044778368984785F8E44070BD9C12FF1F8E
:1023300072B60C4B0C4A0D491B681268096862B6EC
:10234000490102D5322B88BF0132C3F56A33F02030
:1023500003F27F13B3FBF0F34FF47A7000FB02300B
:10236000704700BF18E000E0F415FF1F04ED00E027
:1023700038B50446FFF7DCFF054624B938BD013CFB
:102380000AD005F57A75FFF7D3FF401BB0F57A7FC9
:10239000F5D2FFF797FFF6E738BD3F2810B52AD8EA
:1023A000154AC00014180129A36D01D0042910D1C9
:1023B00010440429426D4FF0010082F880024FF46E
:1023C000A2721A601A680CBF42F0200222F02002AA
:1023D00010E0606D002280F8802211B94FF4807205
:1023E00008E0022902D140F2031203E0032908BFEA
:1023F0004FF481721A6010BD0C8400003F2817D87A
:102400000C4B03EBC000436D93F880223AB10122DC
:1024100011B183F88020704783F800217047836DE5
:102420001A6811B142F0030201E022F002021A60C0
:10243000704700BF0C84000010B5204B1A7992063B
:102440000FD51F4AD9791378507801333F2BC8BF75
:102450000023834218BFD018C9B21EBFDBB28170FF
:1024600013701648C278D2B2130619D503791C0628
:1024700016D5134991F8424091F84330DBB29C42A3
:1024800002D16C23C3700BE00133282B28BF00233B
:10249000CC18DBB294F84440E4B2C47181F8433004
:1024A000510609D5054B1A79520605D5044A002173
:1024B00082F86C102C22DA7010BD00BF00C00640FC
:1024C0008413FF1F10B5234B5A68920212D5224A7B
:1024D000D96892F86D3092F86E0001333F2BC8BF77
:1024E0000023834206D0D018C9B2DBB280F86F1047
:1024F00082F86D3017498C6823021DD54B6818028D
:102500001AD5154A92F8AF0092F8B030DBB2984273
:1025100006D1124B00221A60012243F8042C0BE072
:102520000133282B28BF0023D018DBB290F8B1006C
:10253000C0B2C86082F8B030620209D5054B5B6852
:102540005B0205D5044A002382F8D930044A13609F
:1025500010BD00BF00400C408413FF1F5C01884386
:102560005801884370B52F4A137913F0300F25D0E6
:1025700072B6937D03F0FF0423B9D37940235374DB
:1025800062B61BE062B6284991F8DA3091F8DB5068
:10259000DBB2EDB2581C402828BF0020A842D679F3
:1025A00018BF0B18F6B21CBF83F8DC600346601E30
:1025B00010F0FF04EED1DBB281F8DA30194AD0789E
:1025C000C0B2060621D513791D061ED5164991F80D
:1025D0001C5191F81D31EDB2DBB2AB420CD001338E
:1025E000402B28BF00231479CC1894F81E41E4B284
:1025F000D471147D072CF0D9DBB281F81D31094B61
:102600001A79140644BF7C22DA70410609D5054BBD
:102610001A79520605D5044A002182F85E113C223F
:10262000DA7070BD00A006408413FF1F10B5224B66
:102630001A79920613D5214AD97992F85F3192F826
:10264000600101333F2BC8BF0023834218BFD0185D
:10265000C9B21EBFDBB280F8611182F85F31164843
:10266000C278D2B2130619D503791C0616D51349C0
:1026700091F8A14191F8A231DBB29C4202D16C23C6
:10268000C3700BE00133282B28BF0023CC18DBB22A
:1026900094F8A341E4B2C47181F8A231510609D57E
:1026A000054B1A79520605D5044A002182F8CB1150
:1026B0002C22DA7010BD00BF00A00E408413FF1F53
:1026C00010B5224B1A79920613D5214AD97992F87E
:1026D000CC3192F8CD0101333F2BC8BF0023834298
:1026E00018BFD018C9B21EBFDBB280F8CE1182F875
:1026F000CC311648C278D2B2130619D503791C061C
:1027000016D5134991F80E4291F80F32DBB29C4274
:1027100002D16C23C3700BE00133282B28BF0023A8
:10272000CC18DBB294F81042E4B2C47181F80F32D5
:10273000510609D5054B1A79520605D5044A0021E0
:1027400082F838122C22DA7010BD00BF00D006408B
:102750008413FF1F30B5A8B10268134602F180054B
:102760001C466BB1AB4208D013F8011B39B12029CC
:10277000F6D10021631C217002E0002300E00B462B
:10278000036000E00246104630BDF8B50E4B036012
:1027900000251423044643608560C5600561082058
:1027A00017460E4605F030FC2776056045606061EF
:1027B00084F8395084F83A502022314604F1190047
:1027C00005F080FC2046F8BD688600000EB403B515
:1027D00003AA054852F8041B019200F003FE02B060
:1027E0005DF804EB03B07047FC07FF1F72B6174A91
:1027F00092F83F32032B08D8DFE803F014021604E6
:10280000022100E00421124B10E0D2F84C120F4BD1
:1028100011B9C3F84C0202E0D3F85C325860C2F838
:102820005C0211E0032100E005210A4B82F83F120F
:1028300013F0080F00F1080201885A6014BFC82283
:10284000882242EA01421A6062B670478413FF1F71
:102850009800FF1F9000FF1F044B18785A78C0B2F1
:10286000D3B2984238BF4030C01A70478413FF1F5C
:10287000054B93F86D0093F86E20C0B2D3B2984226
:1028800038BF4030C01A70478413FF1F2DE9F04352
:10289000264D274BDFF8AC90DFF898E0AC464FF0C0
:1028A0000008C31A4822B3FBF2F60B2E3BD895F86A
:1028B00060321E4C73B395F861325BB372B601237C
:1028C00009EB030212F8012C12071CD59900194AD2
:1028D0005EF831702FB902EB431308305860164B85
:1028E00009E041F001015EF8317067B902EBC10304
:1028F00008305860114B42F8313094F86032013B97
:1029000084F860320EE00133052BD9D162B68CF821
:102910006082CAE772B60A494FF000420B69F24082
:1029200013430B6162B6BDE8F08300BF8413FF1F41
:10293000D003FF1F0000FF1F88004000C8004000B8
:10294000FC07FF1F7886000010B572B60B480269BD
:10295000B2FA82F10B2902DD62B6002010BD4FF001
:102960000043CB4022EA0302026162B6044C4823D2
:102970004B43E0180022E250426010BDFC07FF1FED
:10298000D003FF1F054B93F8DA0093F8DB20C0B2A9
:10299000D3B2984238BF4030C01A70478413FF1F2B
:1029A000054B93F85F0193F86021C0B2D3B298420F
:1029B00038BF4030C01A70478413FF1F054B93F88F
:1029C000CC0193F8CD21C0B2D3B2984238BF403089
:1029D000C01A70478413FF1F014BB3F8660270479B
:1029E0008413FF1F10B5036814465B6898472046A0
:1029F00010BD00BF08B5FFF749F800F0E9FAFEF78F
:102A000023FBFEF757F8BDE80840FEF754B8F8B5C9
:102A100001230025C37303735727022383730446DE
:102A20000570C57105614573878038460E4605F00F
:102A3000EBFA0346A06028B13A46294600F06CFB49
:102A40001D2300E0A08063802378A6713BB10121A3
:102A50003046FFF7A2FC00213046FFF7CFFC2046AE
:102A6000F8BD30B572B60168264C81B103790F2BE1
:102A70000DD8B4F83A221A41D20708D503F10073F1
:102A800003F59063B1EB431F01D162B630BDB4F8DA
:102A90003A12002341FA03F212F0010229D1012572
:102AA0009D402943A4F83A1262B6174DD9B201717C
:102AB0002C6844F002042C6055F8044C03F10073B8
:102AC00044F0020445F8044C03F590630F4C5B019D
:102AD00040F282452560A176A1772176E1770360F7
:102AE0001A605A609A60DA601A615A619A61DA6112
:102AF00030BD0133102BCDD162B6002202600371CC
:102B000030BD00BF8413FF1F4080044000800040A0
:102B100083B501210D20FFF740FC01210D20FFF7B7
:102B20006DFC204BD3F87012D3F86C220091009901
:102B300011604FF47A71516003F51C741D4654F80E
:102B4000040F18B9DFF85C80174F09E003681B68B1
:102B50009847F4E7154C54F8040FD8B9FFF7B2FBC7
:102B6000D5F86C623046FEF76FFF0028F2D03C7D4E
:102B70000D202146FFF742FCD8F87032019314F182
:102B8000FF34019B336018BF01244FF47A733C7506
:102B90007360DFE790F83A30002BDCD103685B68A4
:102BA0009847D8E78413FF1FFC07FF1FF415FF1F8A
:102BB000704790F84020013A80F841200A4A82B0DC
:102BC0001268019200234363836380F84230019AC4
:102BD000C36B8360426000F10C03243003C883E8B8
:102BE000030002B0704700BFF415FF1F10B5044684
:102BF000FDF7DAFE90F83B30032B01BF04F10C0324
:102C00001C3494E8030083E8030010BD70B590F80D
:102C10004110144E1D23B1FBF3F203FB121290F886
:102C2000421080F84120B1FBF3F203FB121304467B
:102C300080F842300025FDF7B7FE56F82500013533
:102C4000FDF796FD082DF6D1A36B0133FF2B88BF4E
:102C50000023A36304F10C03243494E8030083E805
:102C6000030070BD7C12FF1F2DE9F843DFF83880A8
:102C70000F4616460024002508EB8409D9F8000009
:102C80004388A9B28B4205F1010503D93A46FDF705
:102C90003DFDF3E70134FDF76BFD082CEBD1304629
:102CA000BDE8F843FFF764BB7C12FF1F2DE9F74F27
:102CB00090F83C3090F83B209A4204460CD0594D95
:102CC000286803689B689847686803689B6898470A
:102CD00094F83B3084F83C3094F83B30072B00F2FA
:102CE0009380DFE803F09404070A318E1016002267
:102CF00011460AE04B4B186801E04A4B58680368DC
:102D00005B68984783E0616C00222046FFF7ACFFC8
:102D10007DE00825FF224FF47F012046FFF7A4FF46
:102D2000FF224FF47F412046FFF79EFFFF2211460E
:102D30002046FFF799FFFF226FF07F412046FFF703
:102D400093FF013DE6D162E0DFF8E8A00026D3461C
:102D5000354A0092B35C1D0245EA03451D43002736
:102D60004FF000080AEB8703186801934288DFF8E8
:102D7000C4901FFA88F18A4208F1010804D92A4652
:102D8000FDF7C4FC019BEFE70137082FE8D10025D0
:102D90005BF825000135FDF7EBFC082DF8D10A2082
:102DA0000136FFF7E5FAB6F5807FD1D11F4F17F84E
:102DB000013D1E0246EA03461E4300254FF000086F
:102DC00009EB850ADAF8000043881FFA88F18B4284
:102DD00008F1010803D93246FDF798FCF2E7013506
:102DE000082DEBD1002559F825000135FDF7C0FC71
:102DF000082DF8D10A20FFF7BBFA009BBB42D6D1C1
:102E000005E000220A4980E7012384F83B3094F86A
:102E10003B30023B012B84BF002384F83B3003B0DE
:102E2000BDE8F08F0816FF1FDC860000DC8700007D
:102E300096FFFF007C12FF1F2DE9F041144C8046E5
:102E400004F12006012754F8040F98F84010FDF70C
:102E500037FC256895F90600002807DB0121C0B280
:102E6000FFF79BFA0021A879FFF7C8FA2F702068B6
:102E7000FDF77EFCB442E6D1064C206803681B686F
:102E8000984760680368BDE8F0411B68184700BFB9
:102E90007812FF1F0816FF1F10B5044605F0BCF896
:102EA000204610BDC943C9B2542909D8A1EB8100FD
:102EB000013801EB4101C9B2C0B241EA004070479C
:102EC000A92909D85539C9B201EB4100A1EB81010B
:102ED0000139C0B2C9B209E05631C9B2A1EB8100D3
:102EE00001EB41010138C9B2C0B2090441EA002036
:102EF00070472DE9F3410446FDF756FD636B072B40
:102F00003BD8314A52F823305F880026B5B2BD4223
:102F100033D294F8421094F841308AB2954201D3EA
:102F2000AB4205D2994211D9954201D29D420DD8AA
:102F3000FDF73AFDD4F83480FDF736FDB8F1070F00
:102F400019D86FF07F422946404612E0FDF72CFD6C
:102F5000FDF72AFDA26B636B2902B1FBF7F1114467
:102F6000C9B21A46FFF79EFF072B024603D829462F
:102F70001846FEF77DFD0136C8E7201DFEF764FD0B
:102F800080B194F84130114A013384F8413094F80B
:102F9000423012680192013384F84230019AE36BA7
:102FA0006260A360636B0133072B81BF00236363FF
:102FB00004F10C032C348ABF94E80300636383E8B4
:102FC000030002B0BDE8F0817C12FF1FF415FF1F63
:102FD00070B5142005F018F8444C454E0221054602
:102FE000FFF715FD1420256005F00EF80E210546AB
:102FF000FFF70DFD1420656005F006F80721054672
:10300000FFF705FD1420A56004F0FEFF082105462A
:10301000FFF7FDFC1420E56004F0F6FF06210546ED
:10302000FFF7F5FC1420256104F0EEFF142105469E
:10303000FFF7EDFC1420656104F0E6FF152105465D
:10304000FFF7E5FC1420A56104F0DEFF052105462D
:10305000FFF7DDFC3C20E56104F0D6FF254D05F5CA
:1030600084720260244A4261244AC261244A426254
:103070000024244AC262446084604463846384619F
:1030800004628462046300F11401034600F10C023F
:1030900003C982E803004420336004F0B5FF322204
:1030A000C263042280F84020174A4261174AC26175
:1030B000174A426205F59275164AC26244608460FE
:1030C00005604463846380F8414080F84240846135
:1030D00004628462046300F11401034600F10C02EF
:1030E00003C982E80300736070BD00BF7C12FF1F3C
:1030F0000816FF1FDC860000950A00006F04000020
:10310000210A0000E5090000ED2B0000B32B0000B0
:10311000F32E00000D2C000001B5EAB1102A17DBD8
:1031200000F0070333B1C3F10803D21A013B00F8E2
:10313000011BFBDCC9B241EA012141EA01418C4695
:10314000D308013BE0E8021CFBDC12F0070203D0CD
:10315000013A00F8011BFBDC01BD00BF0B46014634
:10316000184600F001B800BF13460A460146022087
:1031700000F05AB9014B1868704700BF400CFF1FA0
:1031800070B50F4E0F4D761BB61018BF002405D03A
:10319000013455F8043B9847A642F9D10A4E0B4D2D
:1031A000761B05F097FCB61018BF002406D001343A
:1031B00055F8043B9847A642F9D170BD70BD00BFD9
:1031C000E08A0000E08A0000EC8A0000E08A00004B
:1031D00099B103789BB110B40144431C03E01A7801
:1031E0005C1C32B123469942F9D1081A5DF8044BB0
:1031F0007047181A5DF8044B704708467047184628
:10320000704700BF2DE9F84FDDF828900E460746BD
:10321000154698468B4600E0A3465C46484614F89F
:1032200001AB00F0ADFA5044407800F0080000F027
:10323000FF0C0028F0D151462D2961D02B2904BF65
:103240009BF801100BF10204B8F1000F0CD0B8F19B
:10325000100F5CD04FF0FF33B3FBF8F308FB03FA19
:103260006FEA0A0AC14607E0302961D04FF00A0828
:103270003D4BC1464FF0050A4FF0000E704606E088
:103280002FD009FB00204FF0010E14F8011BA1F113
:103290003002092A05D9A1F14102192A0BD8A1F15E
:1032A000370290450FDDBEF1FF3FEED09842E7D9DF
:1032B0004FF0FF3EE9E7A1F16102192A03D8A1F11D
:1032C00057029045EFDCBEF1FF3F11D0BCF1000F7B
:1032D00000D0404255B1BEF1000F0DD12E60BDE8C7
:1032E000F88F5245CDDD4FF0FF3ECEE7BDE8F88FB9
:1032F00022233B60704645B3661E2E60BDE8F88F02
:103300000BF102049BF801104FF0010C9CE73029EF
:103310001DD1237803F0DF03582B1ED14FF0100985
:103320006178C8464FF00F0A02346FF07043A3E78C
:10333000237803F0DF03582BF0D04FF00808C14684
:103340004FF0070A6FF0604396E7BDE8F88F4FF043
:103350000F0A6FF07043C1468EE7C1464FF00F0A67
:103360006FF0704388E700BF9999991930B5084C00
:10337000084B25686C6B83B0002C08BF1C4600947A
:1033800013460A4601462846FFF73CFF03B030BD0E
:10339000400CFF1F440CFF1FF0B5ADF5057D04ADDB
:1033A00000930F4613464FF4007403AA2946039472
:1033B000064601F043FB88B1044602463946039BAA
:1033C000304600F01BF8AC42039004D03046214652
:1033D00000F0EEF803980DF5057DF0BD4FF0FF30DD
:1033E000F9E700BF10B4044C13460A4601462068B2
:1033F0005DF8044BFFF7D0BF400CFF1F70B50D46C2
:10340000084C114606461A46284600232360FFF75B
:10341000E9FA431C00D070BD2368002BFBD0336059
:1034200070BD00BF4416FF1F2DE9F047254C2568ED
:10343000D5F848410646884692469946C4B3606826
:103440001F2817DC431C76B104EB80050122C5F868
:1034500088A0D4F8881182401143022EC4F8881144
:10346000C5F808911ED00230636044F82080002027
:10347000BDE8F087144B03B34FF4C87004F0C4FDEB
:103480000446D0B1D5F84831002780E88800C5F857
:10349000484138460123C4F88871C4F88C71002E65
:1034A000E1D0D1E7D4F88C110A43C4F88C21DAE7D3
:1034B00005F5A674C5F84841C1E74FF0FF30BDE8F7
:1034C000F08700BF4888000009800000024B13B15C
:1034D000024800F005B8704700000000ED3400001D
:1034E000002301461A461846FFF79EBF38B5074D20
:1034F000074C2C1BA41005D0013C55F8043D9847FF
:10350000002CF9D1BDE8384005F0F0BA0000000009
:1035100000000000F8B5234F0C46064600F0AAFC58
:10352000BB685D6825F00305291B01F6EF7121F4E6
:103530007F6121F00F01A1F58054B4F5805F07DBB6
:103540000021304601F09CF9BB682B44984204D01E
:10355000304600F091FC0020F8BD6142304601F099
:103560008FF901300DD0104BBA6819682D1B45F04A
:1035700001053046091B5560196000F07DFC0120F3
:10358000F8BD0021304601F07BF9BA68831A0F2B91
:10359000DEDD064C0449246843F00103001B536040
:1035A0000860D5E7B00DFF1F1C16FF1FBC11FF1FE1
:1035B000002945D02DE9F0410D46804600F05AFC27
:1035C00055F8047C6A4927F00103A5F10804E218C4
:1035D0008E685068B24220F0030062D0FE0750604F
:1035E0000BD455F8087CE41B01F1080EA56875455D
:1035F0003B446FD0E768EF60BD6015186D68ED075C
:1036000042D543F001026260E350B3F5007F18D267
:10361000DB085A1C4D6851F83270A76001209B10DE
:1036200000FA03F301EBC2001D430838E0604D606F
:1036300041F83240FC604046BDE8F04100F01CBC5F
:1036400070475A0A042A53D89A0902F139077F00B1
:1036500002F1380501EB870051F82720444908386A
:1036600090424DD0516821F003018B4202D2926802
:103670009042F7D1D068E060A2608460D460404698
:10368000BDE8F04100F0F8BB95683A4FBD420344F5
:103690003FD0D068E86043F0010285606260E3508B
:1036A000B3E7FF07034407D455F8082CA41A1344C2
:1036B000A068E268C26090602F4A126843F001007F
:1036C000934260608C60B6D32C4B40461968FFF77C
:1036D00021FFB0E711184968C90744D49168D2683E
:1036E000CA60034443F0010091606060E350A2E7C8
:1036F000142A17D802F15C077F0002F15B05A9E7E5
:10370000AA104B68012505FA02F213434B600246EA
:10371000B1E743F001024C610C61E560A5606260B5
:10372000E35088E7542A06D81A0B02F16F077F008E
:1037300002F16E058EE7B2F5AA7F06D8DA0B02F128
:1037400078077F0002F1770584E740F25450824207
:1037500006D89A0C02F17D077F0002F17C0579E71B
:10376000FE277E2576E743F001026260E35062E7C0
:10377000B00DFF1FB80DFF1FB811FF1F1816FF1F58
:10378000D0F8EC00704700BF044A054B1268506B3C
:10379000002808BF1846F030704700BF400CFF1FDC
:1037A000440CFF1F2DE9F04F01F10B05162D83B0DE
:1037B000064640F29F8035F0070500F1BF80A94220
:1037C00000F2BC8000F056FBB5F5FC7FC0F09C8297
:1037D0006B0A00F0BA80042B00F28381A80900F183
:1037E000390E4FEA4E033830C44F07EB8303A3F181
:1037F00008015C68A14207D1ACE0002A80F2AC80ED
:10380000E468A14200F0A680636823F003035A1B1A
:103810000F2AF2DDB9493C6901F1080E744500F048
:10382000B381636823F003035A1B0F2A00F39981C5
:10383000002AC1F814E0C1F810E080F29E80B3F5D0
:10384000007F80F06781DB0803F1010C01229B10EF
:1038500002FA03F34A6851F83C80C4F8088001EB8F
:10386000CC091A43A9F10803E3604A6041F83C40DF
:10387000C8F80C40831001249C40944200F28A80D6
:10388000144206D120F003006400144200F1040049
:10389000FAD007EBC009CC468046DCF80C108C450A
:1038A00007D173E1002A80F28181C9688C4500F05C
:1038B0006D814B6823F003035A1B0F2AF2DD0C467F
:1038C000D1F80CC054F8088F4B1945F001054D6034
:1038D00042F00101C8F80CC03046CCF808807B618A
:1038E0003B61C3F80CE0C3F808E059609A5000F05F
:1038F000C3FA1FE0102921D800F0BCFA10250623D6
:1039000002207E4F07EB8303A3F108025C68944218
:1039100000F045816368E168A56823F00303234450
:1039200030465A68E96042F001028D605A6000F04A
:10393000A3FA0834204603B0BDE8F08F00240C231E
:103940002046336003B0BDE8F08F80234FF0400E77
:103950003F2049E770465DE72344E1685A68A5685F
:1039600042F00102E96030468D605A6000F084FA4E
:103970000834204603B0BDE8F08F234430465A682F
:1039800042F001025A6000F077FA0834204603B092
:10399000BDE8F08FBC68636823F00308A84504D332
:1039A000C5EB08030F2B00F38C80554BDFF86091BB
:1039B0001A68D9F8003001332A4404EB080A00F0F1
:1039C000608102F580520F3222F47F6222F00F02F2
:1039D00011463046019200F053FFB0F1FF3F83469D
:1039E000019A00F05881824500F2FC80454B19682D
:1039F000DA451144196000F05381D9F80000DFF86E
:103A000010E101301BBFCAEB0B0A5144CEF800B0E5
:103A100019601BF0070100F01781C1F10800C1F522
:103A20008051834408315A44C2F30B02C2EB0109AE
:103A300049463046019300F023FF431C019B00F0F0
:103A40003F81CBEB00024A4442F001021968C7F8FB
:103A500008B04944BC42CBF804201960DFF8A490B8
:103A600016D0B8F10F0F40F2FD806268A8F10C0388
:103A700023F00703E01802F001024FF0050E1A438D
:103A80000F2B6260C0F804E0C0F808E000F21C816F
:103A90001D4BBC681A68914288BF19601B4B1A689D
:103AA0009142626888BF196022F003029542A2EB3E
:103AB000050301D80F2B04DC304600F0DDF90024AB
:103AC00038E7621943F0010345F0010565603046AF
:103AD000BA60536000F0D0F90834204603B0BDE866
:103AE000F08F142B71D9542B00F2A480280B00F115
:103AF0006F0E4FEA4E036E3076E600BFB00DFF1F2B
:103B00001816FF1F1C16FF1F1416FF1F1016FF1F8D
:103B1000BC11FF1F5A0A042A5ED9142A00F2B3808E
:103B200002F15C0149005B3207EB810C57F8211070
:103B3000DFF8DC81ACF1080C8C4500F088804A6825
:103B400022F00302934202D289688C45F7D1D1F862
:103B50000CC07A68C4F80CC0A160CCF80840CC60F6
:103B600088E6631942F0010745F0010565603046BB
:103B70004B610B61C3F80CE0C3F808E05F609A503A
:103B8000083400F079F9D5E64A6873E608F10108CF
:103B900018F0030F0CF1080C7FF47FAE30E0DC6806
:103BA000A34208BF02303FF435AEB3E60B440C46E7
:103BB0005A68C96854F8085F42F001025A603046FA
:103BC000E9608D6000F058F9B4E603F15C0E03F192
:103BD0005B004FEA4E0307E69A0902F139014900FA
:103BE0003832A1E7BC424A4B3FF400AF9C686268A0
:103BF00022F003025AE759F80839994540F08280CB
:103C000010F0030F00F1FF30F5D17B6823EA0403C5
:103C10007B6064009C423FF6BDAE002C3FF4BAAE20
:103C20001C4240467FF435AE64001C4200F10400A3
:103C3000FAD02EE6B3F5AA7F18D8E80B00F1780E7B
:103C40004FEA4E037730CFE54FF48051EBE6012188
:103C5000D8F80430921001FA02F21A43C8F804208E
:103C6000614677E70123CBF8043025E740F2545250
:103C7000934220D8A80C00F17D0E4FEA4E037C3011
:103C8000B2E51032A4E6542A26D81A0B02F16F01CD
:103C900049006E3248E7BC68626822F0030205E71B
:103CA000CAF30B0000287FF4A8AE4244BB6842F080
:103CB00001025A60ECE6FE234FF07F0E7E2093E572
:103CC00001224FF00009C1E604F108013046FFF778
:103CD0006FFCD9F80010DBE6B2F5AA7F05D8DA0B45
:103CE00002F17801490077321EE740F254518A42CE
:103CF00005D89A0C02F17D0149007C3214E7FE21BF
:103D00007E2211E77B6884E7E808431C5B00F8E546
:103D1000B00DFF1F82B049B15AB16BB113780B607F
:103D20001278101C18BF012002B0704701A9002AA8
:103D3000F3D1104602B070476FF00100F4E700BF06
:103D4000844641EA000313F003036DD1403A41D3A6
:103D500051F8043B40F8043B51F8043B40F8043B65
:103D600051F8043B40F8043B51F8043B40F8043B55
:103D700051F8043B40F8043B51F8043B40F8043B45
:103D800051F8043B40F8043B51F8043B40F8043B35
:103D900051F8043B40F8043B51F8043B40F8043B25
:103DA00051F8043B40F8043B51F8043B40F8043B15
:103DB00051F8043B40F8043B51F8043B40F8043B05
:103DC00051F8043B40F8043B51F8043B40F8043BF5
:103DD000403ABDD2303211D351F8043B40F8043B95
:103DE00051F8043B40F8043B51F8043B40F8043BD5
:103DF00051F8043B40F8043B103AEDD20C3205D3A5
:103E000051F8043B40F8043B043AF9D2043208D09C
:103E1000D2071CBF11F8013B00F8013B01D30B880E
:103E200003806046704700BF082A13D38B078DD0EC
:103E300010F003038AD0C3F10403D21ADB071CBFBE
:103E400011F8013B00F8013B80D331F8023B20F828
:103E5000023B7BE7043AD9D3013A11F8013B00F861
:103E6000013BF9D20B7803704B7843708B788370E9
:103E700060467047704700BF704700BFC36C70B5A5
:103E800005460C464BB153F8240080B1026843F854
:103E9000242000230361C36070BD2122042100F0AF
:103EA0000BFEE86403460028EDD1002070BD01211F
:103EB00001FA04F6721D2846920000F0FDFD00286C
:103EC000F3D044608660E4E731B1C36C4A6853F8CC
:103ED0002200086043F82210704700BFF0B50C695B
:103EE00083B00D46064601F1140E0027DEF80000EF
:103EF00081B202FB01310B0C000C02FB003389B2D2
:103F0000013701EB0341BC424EF8041B4FEA134357
:103F1000ECDC3BB1AA68944207DA05EB8402013479
:103F200053612C61284603B0F0BD696801930131EB
:103F30003046FFF7A3FF2A69023205F10C0107465C
:103F400092000C30FFF7FCFEF26C6968019B52F89E
:103F50002100286042F821503D46DEE7030C1B0497
:103F6000B3B90004102310F07F4F04BF00020833E0
:103F700010F0704F04BF0001043310F0404F04BF35
:103F800080000233002807DB420003D42020704762
:103F90000023E8E7581C704718467047036813F081
:103FA000070207D0D90720D49A0720D49B080360C2
:103FB0000220704799B209B91B0C102213F0FF0FB1
:103FC00004BF1B0A0832190704BF1B0904329907F2
:103FD00004BF9B080232D90704D45B0801D120201A
:103FE00070470132036010467047002070475B083D
:103FF00003600120704700BF10B50C460121FFF798
:104000003DFF01224461026110BD00BF2DE9F04F68
:104010000D691769BD4283B00C46164604DA2A467C
:1040200034463D460E461746A368616805EB07080F
:104030009845C8BF0131FFF721FF00F1140C0CEBCC
:104040008809CC45009005D26346002143F8041B43
:104050009945FBD806F1140202EB870A04F1140318
:10406000524503EB850E54D2CDF80490994652F890
:10407000043B1FFA83FBBBF1000F20D000204F460A
:104080006646054600E01E4657F8044B3068A1B26C
:1040900083B20BFB0131240C000C4B190BFB040009
:1040A00000EB134099B2334641EA0041BE454FEA66
:1040B000104543F8041BE6D8756052F8043C5FEAEB
:1040C000134B20D0DCF80030674618464D460021DF
:1040D00000E037462C88000C0BFB040001449CB226
:1040E0003E4644EA014346F8043B786855F8044BE1
:1040F00083B2240C0BFB043404EB1143AE454FEAAE
:104100001341E6D87B6092450CF1040CAFD8DDF882
:104110000490B8F1000F0BDD59F8043CA9F1040933
:104120001BB105E059F8043D13B9B8F10108F9D104
:104130000098C0F8108003B0BDE8F08F12F00303C0
:104140002DE9F041144607462ED10E46A4101CD08E
:10415000BD6C95B3E3074FF0000806D4641014D08B
:104160002868A8B10546E307F8D52A4631463846FF
:10417000FFF74CFFB6B17268FB6C641053F8221065
:10418000316043F822600646EAD13046BDE8F0814E
:104190002A4629463846FFF739FF2860C0F80080D4
:1041A0000546E0E70646D9E75A1E0B4D002355F8B1
:1041B0002220FFF793FE0646C8E701213846FFF7A5
:1041C0005DFE40F27121012200234161026105463A
:1041D000B8640360BEE700BF508900002DE9F047D6
:1041E00091460A698B684FEA691404EB020808F1EA
:1041F00001059D420E468246496804DD5B009D42F2
:1042000001F10101FADC5046FFF738FE002C00F105
:10421000140238DD02EB8403002142F8041B9342B0
:10422000FBD1346906F1140119F01F0901EB840E6A
:1042300021D0C9F1200200240F6807FA09FC4CEADA
:1042400004049C4643F8044B51F8044B8E4524FA71
:1042500002F4F1D8CCF804400CB108F10205DAF808
:104260004C307268013D53F822100561316043F80B
:104270002260BDE8F087043B51F8042B43F8042F7B
:104280008E45F9D8EBE71346CBE700BF02690B690F
:10429000D21A13D19B0014301431194410B40344C2
:1042A00001E098420CD253F8044D51F8042D944289
:1042B000F7D009D301205DF8044B704710467047D2
:1042C00000205DF8044B70474FF0FF30F3E700BF6C
:1042D0002DE9F8430B690F4611695B1A002B9046D4
:1042E00017D1890007F1140208F114055318294465
:1042F00001E09A425ED253F8046D51F8044DA64293
:10430000F7D060D23B46144647464FF00109984625
:1043100006E05DDB07F1140502F114044FF000091B
:104320007968FFF7ABFDD8F810303E69C0F80C9003
:1043300004EB830CA64605EB860700F1140400236A
:104340005EF8041B55F8048B8AB213FA88F3090C43
:104350009A1AC1EB184303EB224392B242EA03429A
:10436000F44544F8042B4FEA2343E9D8AF4217D968
:10437000A446294651F804EB13FA8EF2131403EB0A
:104380001E4392B242EA03428F424CF8042B4FEA9A
:104390002343EFD8ED433D4425F0030504352C4479
:1043A000043C22B954F8043D013E002BFAD00661CA
:1043B000BDE8F8830021FFF761FD012200230261BF
:1043C0004361BDE8F8832C464FF000091546A7E786
:1043D0003B4607F1140408F1140547464FF0010964
:1043E00098469DE72DE9F04357EC106B83B0884663
:1043F00001213C46C7F30A551746FFF73FFDC4F3BA
:10440000130481460DB144F4801401941EB302A834
:1044100040F8086DFFF7C2FD002834D19DE80C007C
:10442000C9F81420002B0CBF01210221C9F8183053
:10443000C9F81010DDB909EB8103A0F23240C8F8C9
:1044400000001869FFF78AFDC0EB4110386048464C
:1044500003B0BDE8F08301A8FFF7A0FD019BC9F8F8
:10446000143001212030C9F81010002DE3D0A5F23E
:1044700033450544C0F13500C8F80050386048465F
:1044800003B0BDE8F0839DE80C00C0F1200103FA01
:1044900001F10A43C3400193C9F81420C2E700BFE9
:1044A0002DE9F04F174683B0002900F0C1800E4679
:1044B000814607F10B05FFF7DDFC56F804EC162DDD
:1044C0002EF00304A6F1080840D810221546AF428A
:1044D00041D8944275DAC94B996808EB04008842C8
:1044E000416800F0D98021F0010303445B68DB07D9
:1044F0007DD51EF0010F35D039464846FFF752F9F9
:104500000746E0B156F8043C23F001034344A0F110
:1045100008029A4200F04481221F242A00F23181CD
:10452000132A00F20481034632461168196051686B
:10453000596092689A6031464846FFF739F8484614
:10454000FFF79AFC384603B0BDE8F08F25F0070569
:10455000002D2A46BBDA0C230020C9F8003003B036
:10456000BDE8F08F56F8083CC3EB080ADAF80430CF
:1045700023F0030C04EB0C039342BDDB5746DAF83F
:104580000C1057F8080F221F242AC160886000F21F
:104590001781132A40F212813168CAF80810716835
:1045A000CAF80C101B2A00F22B8108360AF11002FF
:1045B0003168116071685160B16891603E461C4677
:1045C000D046631B0F2B1DD8D8F8043003F001032D
:1045D00023434444C8F80430636843F00103636034
:1045E0004846FFF749FC304603B0BDE8F08F21F0A4
:1045F00003012144914221DBC36882680C46D360E9
:104600009A60DEE7D8F8042008EB050102F0010209
:10461000154343F001020B44C8F804504A605A683D
:1046200042F0010208315A604846FEF7C1FFD7E761
:10463000114603B0BDE8F04FFFF7B4B81EF0010F0C
:104640007FF45AAF56F8083CC3EB080ADAF8043096
:1046500023F0030C01EB0C0E96458BDBC3688268DC
:104660005746D3609A6057F8081FDAF80C30CB60D1
:10467000221F242A996000F29980132A62D9336894
:10468000CAF808307368CAF80C301B2A00F2A08000
:1046900008360AF1100356E021F0030BA34405F19C
:1046A0001000834559DA1EF0010F7FF425AF56F84C
:1046B000081CC1EB080ADAF8041021F0030CE344EB
:1046C00058453FF757AF5746DAF80C1057F8080F20
:1046D000221F242AC160886000F2B480132A40F2AD
:1046E000A5803168CAF808107168CAF80C101B2A36
:1046F00000F2AF8008360AF110023168116071686B
:104700005160B16891600AEB0501C5EB0B0242F004
:10471000010299604A60DAF8043003F001031D4396
:104720004846CAF80450FFF7A7FB38465CE73368F1
:104730000360736843601B2A27D800F1080306F161
:104740000802F2E63B4632681A6072685A60B26844
:104750009A603E467446D04633E708EB0501C5EB48
:104760000B0B4BF0010299604A6056F8043C03F0D1
:1047700001031D43484646F8045CFFF77DFB3046C5
:1047800032E7314601F076F9D5E6B3688360F36825
:10479000C360242A28D000F1100306F11002C4E6F9
:1047A00050F8043C23F003031C440AE73146384622
:1047B0007446D04601F05EF93E4602E73A46F7E617
:1047C000314638461C46D04601F054F93E46F8E6DC
:1047D000B368CAF81030F368CAF81430242A1BD022
:1047E00010360AF11803AEE7336903617369436158
:1047F00006F1180200F1180397E600BFB00DFF1F85
:10480000B168CAF81010F168CAF81410242A0FD041
:1048100010360AF11802CBE63369CAF8183073690A
:10482000CAF81C3018360AF120038CE73A4664E7D0
:104830003269CAF818207269CAF81C2018360AF1C1
:104840002002B5E631463846019301F013F9019B89
:1048500059E7B168CAF81010F168CAF81410242A90
:1048600003D010360AF1180247E73269CAF8182057
:104870007269CAF81C2018360AF120023DE700BF11
:1048800038B5074C0023054608462360FCF712FEA6
:10489000431C00D038BD2368002BFBD02B6038BDF3
:1048A0004416FF1FFFFFFFFFFFFFFFFFFFFFFFFF9C
:1048B000FFFFFFFFFFFFFFFFFFFFFFFFFFFFFFFF08
:1048C00090F800F06DE9024520F007016FF0000C50
:1048D00010F0070491F820F040F049804FF00004F8
:1048E0006FF00700D1E9002391F840F000F10800D3
:1048F00082FA4CF2A4FA8CF283FA4CF3A2FA8CF30B
:104900004BBBD1E9022382FA4CF200F10800A4FA71
:104910008CF283FA4CF3A2FA8CF3E3B9D1E90423C5
:1049200082FA4CF200F10800A4FA8CF283FA4CF3FC
:10493000A2FA8CF37BB9D1E9062301F1200182FAB6
:104940004CF200F10800A4FA8CF283FA4CF3A2FABC
:104950008CF3002BC6D0002A04BF04301A4612BACA
:10496000B2FA82F2FDE8024500EBD2007047D1E9CD
:10497000002304F00305C4F100004FEAC50514F05C
:10498000040F91F840F00CFA05F562EA05021CBF2D
:1049900063EA050362464FF00004A9E7002A41D00C
:1049A00040EA010313F00303F0B425D1032A23D90D
:1049B00004680D68AC421FD1043A35D0A4F101352A
:1049C00025EA040414F0803F31D1071D0D1D0DE0D0
:1049D00057F8043B0E68A3F10134B34224EA030400
:1049E0000AD1043A20D014F0803F23D1032A29466B
:1049F000384605F10405EBD803780C789C4202F1A7
:104A0000FF320CD182B114B916E06AB17BB110F853
:104A1000013F11F8014FA34202F1FF32F5D0181BFC
:104A2000F0BC7047104670471046F0BC70471846FF
:104A3000F0BC70470020F3E72046F1E770B515465B
:104A40009AB0146809B1002C1AD100244FF42272D4
:104A5000ADF80C20009404941A464FF6FF761E9B86
:104A6000029469460594ADF80E6001F069F80028DB
:104A700011DB009B286000221A7004981AB070BDE8
:104A80004FF4C16200910491ADF80C20E4DA8B235D
:104A900003600020F2E70020F0E700BF21B1FF2A09
:104AA00004D80A7001207047084670478A230360C3
:104AB0004FF0FF30704700BF10B502FB01F1FEF769
:104AC00071FE0446D8B150F8042C22F00302043AD7
:104AD000242A18D8132A14D900231B2A0360436000
:104AE00016D9242A8360C36011BF00F1100203614C
:104AF000436100F118020023136053609360204665
:104B000010BD0246F7E70021FEF706FB204610BD68
:104B100000F10802EFE700BF02690B69934200F35E
:104B20008D802DE9F04F03F1FF3801F1140700F1FA
:104B3000140B57F828205BF828304FEA880483B01C
:104B40000132B3FBF2F90BEB0403009407EB040A08
:104B50000193B9F1000F39D00025BC46DE462B4643
:104B60005CF8046BDEF80020B4B209FB0455360C87
:104B70002C0C09FB0644ADB25B1BA6B213FA82F300
:104B8000C6EB124606EB23469BB243EA0643E245D8
:104B90004EF8043B4FEA14454FEA2643E0D2009B0F
:104BA0005BF8033093B9019C231F9B450CD254F84A
:104BB000043C4BB9A4F1080302E01A68043B1AB99B
:104BC0009B4508F1FF38F8D3C0F810800446FFF782
:104BD0005DFB00282EDB09F101095D46002357F833
:104BE000041B28688AB29A1A090C12FA80F2C1EBE7
:104BF000104303EB224391B241EA0341BA4545F821
:104C0000041B4FEA2343EAD25BF828200BEB88030E
:104C100082B91A1F93450BD253F8042C42B9083BB2
:104C200002E01A68043B1AB99B4508F1FF38F8D333
:104C3000C4F81080484603B0BDE8F08F00207047EC
:104C40002DE9F04F57EC106B9BB0046C249D009144
:104C500081460592039310EE10AABB4654B1426CF4
:104C6000626001239340A3602146FFF72DF90023E2
:104C7000C9F84030BBF1000F5C4634DB00232B60E9
:104C8000A14B1A462340934216D0002200235046DF
:104C9000594602F0BDFF56465F46804648B3039A28
:104CA00001231360259B002B00F0BE8097481860FD
:104CB00001381BB0BDE8F08F039A42F20F73136006
:104CC000BAF1000F00F09A809148259B002BF0D09C
:104CD000C378002B00F0AA8000F10803259A136026
:104CE0001BB0BDE8F08F01232BF000442B60A346DE
:104CF000C6E718AA19A947EC106B4846FFF772FBE4
:104D0000250D0A9040F08380189D199E2E4406F2CE
:104D10003243202B40F38882C3F1400306F2124055
:104D20009C402AFA00F0204302F094FC0123741EF8
:104D3000A1F1F8710F930022764B02F04DFB6CA3AA
:104D4000D3E9002302F0FCFC6BA3D3E9002302F0BB
:104D500045FB064620460F4602F08CFC68A3D3E9CB
:104D6000002302F0EDFC02460B463046394602F0C5
:104D700035FB06460F4602F093FF00220490002305
:104D80003046394602F04EFF002840F02882049E4B
:104D9000162E00F22182604B03EBC603D3E900011B
:104DA00052465B4602F05CFF002800F04282731E10
:104DB000049300230D932D1BB5F1010800F12A8205
:104DC00000230793049B002BC0F21B8298440C9392
:104DD00000230693009B092B2AD8052B40F3448619
:104DE000043B00930026009B023B032B00F223862A
:104DF000DFE813F02B03240236035004444B474AE8
:104E0000C4F31300002814BF184610465DE7CBF327
:104E1000130343F07F51A5F2FF345046CDF83C8098
:104E200041F44011189D86E73D4842E7C31C55E711
:104E30000021C9F8441048460C460091FFF71EF8BF
:104E40004FF0FF3308930E9301230990C9F84000F7
:104E500005940B93199B002BC0F2D080049A0E2A64
:104E600000F3CC802C4B03EBC20393ED007B059B3E
:104E7000002B8DED007BC0F2FE8256465F46DDE9D9
:104E800000AB304652465B46394602F083FD02F0E5
:104E900007FF044602F0EEFB52465B4602F050FC70
:104EA0000B4602463946304602F096FA099D04F157
:104EB00030032B70089B012B06460F4605F10105B8
:104EC00061D00022174B02F03BFC00220023064673
:104ED0000F4602F09DFE00287DD1CDF81490DDF83C
:104EE00020A0DDF824B0DDE9008928E0AFF30080E0
:104EF00061436F63A787D23FB3C8608B288AC63FE0
:104F0000FB799F501344D33F0000F07F718A00006B
:104F10006C8A00000000F83F60880000608A000092
:104F2000708A00000000244002F00AFC00220023E6
:104F300006460F4602F06CFE002840F0AE83424663
:104F40004B463046394602F025FD02F0A9FE0446E4
:104F500002F090FB42464B4602F0F2FB02460B4643
:104F60003046394602F038FA04F1300E05F801EB0C
:104F7000CBEB050ED64506460F464FF00002AE4B72
:104F8000D2D1DDF8149032463B463046394602F025
:104F900025FA06460F4602460B46DDE9000102F0FF
:104FA00041FE40B932463B46DDE9000102F030FEE9
:104FB00088B1E3070FD515F8014C099A6B1E04E080
:104FC0009A4200F0FC8313F8014D392C03F10105DE
:104FD000F6D001341C700A994846FEF775FF00228E
:104FE000049B2A70039A01331360259B002B00F069
:104FF0009B8309981D601BB0BDE8F08F0B9A002AB7
:1050000000F00E81009A012A40F35782089B069A0D
:105010005F1EBA42C0F28B83D71B089B002BC0F2E5
:105020008084079D089B079A01211A4448460792ED
:105030009844FEF7E1FF064665B1B8F1000F09DDBF
:105040004545079A2B46A8BF4346D21A0792ED1A48
:10505000C3EB0808069B002B40F3F5820B9A002A4D
:1050600000F00282002F00F0FF8131463A464846A8
:10507000FFF764F80A9A014606464846FEF7C6FF5F
:105080000A9904464846FEF71FFF069BDB1B069362
:1050900040F0E98101214846FEF7AEFF0C9B0690E7
:1050A000002B00F0158201461A464846FFF746F8E5
:1050B000009B0690012B40F3F3820027069A1369A8
:1050C00002EB83031869FEF749FFC0F1200040445A
:1050D00010F01F0000F0FA81C0F12003042B40F310
:1050E000BD84C0F11C00079B034407930544804422
:1050F000079B002B05DD21461A464846FFF76EF850
:105100000446B8F1000F05DD424606994846FFF710
:1051100065F806900D9B002B40F07A82089B002BCF
:1051200040F393820B9B002B40F0F481DDF824B018
:10513000089FDDF818805D4602E0FEF7CFFE0446CA
:1051400041462046FFF7E8FC00F1300A05F801ABC4
:10515000CBEB0503BB424FF00A024FF000032146A0
:105160004846EADB099B089A012AACBF9B18013329
:105170001D464FF0000B214601224846FFF72EF84E
:1051800006990A90FFF782F8002840F3058315F886
:10519000012C09996B1E04E08B4200F0748213F815
:1051A000012D392A03F10105F6D001321A70069952
:1051B0004846FEF789FE002E3FF40DAFBBF1000F0D
:1051C00005D0B34503D059464846FEF77DFE31462B
:1051D0004846FEF779FEFEE601230D93EBE5DDF888
:1051E0001080404602F046FA02460B4630463946E9
:1051F00002F00EFD00287FF4CAAD08F1FF330493DE
:10520000C5E5079A049BD21A5B42069300230792D6
:105210000C93DFE5C8F1000307934FF00008D1E5D8
:10522000069F079D0B9E07E7C3F120040AFA04F0CE
:105230007AE50D90BFE500BF0000244000230B93EA
:10524000049B059A13440E930133002B089340F3FB
:105250007D82089C25460021172DC9F844100BD9E2
:10526000012204235B0003F11400A842114602F15D
:105270000102F7D9C9F844104846FEF7FFFD0E2C8D
:105280000990C9F840003FF6E5AD002E3FF4E2ADCD
:1052900004990029CDE910AB40F39A82904B01F0BC
:1052A0000F020E1103EBC203F006D3E9004540F1F3
:1052B00046828C4B50465946D3E9082302F06AFBDC
:1052C000CDE9120106F00F064FF0030A86B1854FB3
:1052D000F10709D520462946D7E9002302F030FA24
:1052E0000AF1010A04460D46761007F10807EFD1CE
:1052F00022462B46DDE9120102F04CFB06460F4622
:105300000D9B43B10022784B3046394602F08AFCAF
:10531000002840F01A83504602F0ACF932463B4672
:1053200002F00EFA714B002202F058F8089B044676
:10533000A1F15075002B00F0DB81049B1693089BB4
:1053400012930B9B002B00F09482129A644B6849D5
:1053500003EBC20353E90223002002F01BFB2246A9
:105360002B4602F039F882468B463046394602F029
:1053700097FC044602F07EF902460B463046394659
:1053800002F02AF83034099DE4B206460F462C702C
:1053900002460B4650465946013502F061FC002892
:1053A00050D132463B4600204F4902F015F80246E4
:1053B0000B465046594602F053FC002840F0088343
:1053C000129A012A40F3F781129B099ACDF848807E
:1053D000134498460DE00020434901F0FDFF52467A
:1053E0005B4602F01FFC002840F0F282454500F0C9
:1053F000E0815046594600223E4B02F0A1F90022BE
:105400003C4B82468B463046394602F099F90F46AE
:10541000064602F045FC044602F02CF902460B4613
:105420003046394601F0D8FF3034E4B252465B468C
:1054300005F8014B06460F4602F0F4FB32463B46A8
:105440000028C8D0169B0493C5E500230B93059B49
:10545000002B40F380811D461C460E930893FAE60C
:1054600001230B93F3E70A94069A0A994846FEF73C
:1054700065FE04460EE6089B002B3FF7FEAC40F0AD
:105480004F8100221C4BDDE9000102F059F95B4617
:10549000524602F0DBFB089B06931E46002800F0F4
:1054A000EA80059B099DDB43049306994846FEF775
:1054B0000BFD002E3FF48FAD89E60F9A002A00F015
:1054C000388203F23343069F079DACE51C200AE6B1
:1054D000009B012B40F380820C9F0120F7E500BF69
:1054E00060880000288900000000F03F00001C4098
:1054F0000000E03F0000244000001440314600233B
:105500000A224846FEF7EAFC0E9B002B064640F3B3
:105510008D820893002D05DD31462A464846FEF768
:105520005DFE0646002F40F07C81B046089B099A3C
:10553000013BD31808930AF001030A931746DDF8DC
:1055400018B020465946FFF7E7FA3146054620468F
:10555000FEF79CFE4246594682464846FEF7B8FE94
:10556000C268834605F13003002A49D1014620462E
:105570000793FEF78BFE594605904846FEF7A4FCBC
:10558000059A079B2AB9009919B90A99002900F0D0
:105590003582BAF1000FC0F2E38005D1009919B944
:1055A0000A99002900F0DC80002A00F34E81089A55
:1055B0003B7007F1010A9742554600F0528121469F
:1055C00000230A224846FEF789FC46450446314638
:1055D0004FF000034FF00A0248460BD0FEF77EFC66
:1055E0004146064600230A224846FEF777FC574606
:1055F0008046A4E7FEF772FC5746064680469EE7C3
:10560000014648460593FEF75FFC0122059BC0E773
:1056100006992046FEF73AFE0028BFF67FAD2146E8
:10562000049C0023013C0A2248460494FEF756FCE1
:105630000B9B0446002B7FF461AF0E9B002B40F3C5
:10564000ED81089372E50A9C24E5009B022B7FF70D
:1056500069AD089B002B40F09D81069905224846C4
:10566000FEF73CFC014606902046FEF70FFE0028A0
:105670000A947FF716AF049A0999312301320492F4
:105680000B704D1C11E7049A01320492099A3123E0
:1056900013708CE501230B93D2E5DDF814909AE4A6
:1056A000BAF1000F7FF409ADCBF31303002B40F0E8
:1056B0003E812BF000473F0D3F052FB1079B013383
:1056C000079308F1010801270C9B0120002B3FF4F0
:1056D000FEACF3E4504601F0CDFF32463B4602F00B
:1056E0002FF80022BF4B01F079FE0446A1F150755E
:1056F000304639460022BC4B01F06EFE22462B4656
:1057000006460F4602F0ACFA002840F0AE80224672
:1057100005F100433046394602F084FA00284AD0A9
:10572000002306931E46BCE60998FFF7C2BA069B03
:105730000C9A0697FB1A1A440C9200276DE49DED13
:10574000107B4FF0020A8DED127BBFE51C46002155
:10575000C9F8441090E501240E9408940594F6E7E6
:10576000002A9A4611DD214601224846FEF736FD01
:1057700006990446FEF78AFD002840F34881BAF1F5
:10578000390F00F0098105F1310AB34687F800A00E
:105790007D1C46460A940AE504D11AF0010F01D097
:1057A000F5E4154615F8013C302B05F1FF32F8D031
:1057B000FDE4DDF84880DDE910ABFFF74BBB09994C
:1057C00030220A70049A15F8014C0132049200E468
:1057D000049B5C42002C00F0B380844B04F00F0269
:1057E00003EBC203D3E90023DDE9100101F0A8FFB8
:1057F000241106460F4600F016817D4D4FF0020A37
:10580000E20709D530463946D5E9002301F098FF73
:105810000AF1010A06460F46641005F10805EFD1AA
:105820006EE571684846FEF729FB33699A1C054608
:10583000920006F10C010C30FEF782FA2946012293
:105840004846FEF7CBFC804670E6392B00F0A4807A
:1058500003F1010AB34687F800A07D1C46460A946E
:10586000A5E4B3469A46464685E4002306931E46C1
:1058700001E7129B5D495A1E01EBC2012B461792AC
:10588000D1E90001224601F05BFFCDE91401394660
:10589000304602F005FA044601F0ECFE0B460246E3
:1058A0003946304601F098FD129B0F460999303475
:1058B000012B06460C7001F1010520D0129B099ABC
:1058C00013449A46AB4600224A4B3046394601F013
:1058D00037FF0F46064602F0E3F9044601F0CAFE20
:1058E000303402460B463046394601F075FD0BF860
:1058F000014BDA4506460F46E5D1179B1D440022B1
:105900003D4BDDE9140101F069FD32463B4602F0F2
:1059100089F9002848D0169B049315F8014CFFF72D
:105920004CBB079B089A9D1A0023FFF77CBB0027FE
:10593000CAE6189B069F079DC3F13603FFF773BBAA
:10594000DDE910674FF0020ADAE4089B002B3FF410
:10595000C1AE0E9B002B7FF72EAF0022254B3046A9
:10596000394601F0EDFE06460F460AF1010001F04E
:1059700081FE32463B4601F0E3FE0022194B01F066
:105980002DFD049A0E9B1293013A0446A1F1507525
:105990001692D6E40A9484E53922B3460A94464620
:1059A0003A707D1CFFF7F5BBDDE914230020124996
:1059B00001F012FD32463B4602F052F908B9FAE610
:1059C000154615F8013C302B05F1FF32F8D039E5CA
:1059D000169B0493FFF7F1BABAF1000F7FF47CAD88
:1059E00062E600BF00001C40000014406088000018
:1059F00028890000000024400000E03F392BD346F6
:105A00009A46C9D0BBF1000F3FF7BDAEBDE67FF4AB
:105A1000BCAE1AF0010F3FF4B8AEB0E6009B022B0B
:105A200025DC0E9B0DE64FF0020A69E4009B022B79
:105A30001DDC0E9B6DE50024C9F844402146484614
:105A4000FEF71CFA4FF0FF3308930E9301230990E1
:105A50000594C9F840000B93FFF7FCB93FF448AB3D
:105A6000C0F13C00FFF73FBB0126FFF7BCB90E9B1E
:105A70000893EEE58842F0B50DD98B1898420AD20A
:105A80008118002A51D09A1A13F8014D01F8014DDE
:105A90009342F9D1F0BD0F2A48D941EA00039B0790
:105AA00046D100F1100401F11003154653F8106CB3
:105AB00044F8106C53F80C6C44F80C6C53F8086CF8
:105AC00044F8086C103D53F8046C44F8046C0F2D36
:105AD00003F1100304F11004E8D8A2F1100323F03D
