:1000000000000320D1010000DD0D0000A70D00005D
:10001000A70D0000A70D0000A70D0000A70D000010
:10002000A70D0000A70D0000A70D0000DD0D0000CA
:10003000DD0D0000A70D0000491F0000E51E0000B7
:10004000DD0D0000DD0D0000DD0D0000DD0D000008
:10005000DD0D0000DD0D0000DD0D0000DD0D0000F8
:10006000DD0D0000DD0D0000DD0D0000DD0D0000E8
:10007000DD0D0000DD0D0000DD0D0000DD0D0000D8
:10008000DD0D0000DD0D0000DD0D0000DD0D0000C8
:10009000DD0D0000DD0D0000DD0D0000DD0D0000B8
:1000A000DD0D0000DD0D0000DD0D0000DD0D0000A8
:1000B000DD0D0000DD0D0000DD0D0000F128000069
:1000C000DD0D0000830C0000DD0D0000C5270000E1
:1000D000DD0D00004D2A0000DD0D0000DD0D0000EB
:1000E000DD0D0000DD0D0000DD0D0000DD0D000068
:1000F000DD0D0000DD0D0000DD0D0000DD0D000058
:10010000DD0D0000DD0D0000DD0D0000DD0D000047
:10011000DD0D000079200000DD0D0000DD0D000088
:10012000DD0D0000DD0D0000DD0D0000DD0D000027
:10013000DD0D0000DD0D0000DD0D0000DD0D000017
:10014000DD0D0000DD0D0000B9290000DD0D00000F
:10015000DD0D0000DD0D0000DD0D0000DD0D0000F7
:10016000DD0D0000DD0D0000DD0D0000DD0D0000E7
:10017000DD0D0000DD0D0000DD0D0000DD0D0000D7
:10018000DD0D0000DD0D0000DD0D0000DD0D0000C7
:10019000DD0D0000DD0D000051280000DD0D000028
:1001A000DD0D0000DD0D0000DD0D0000DD0D0000A7
:1001B000DD0D0000DD0D0000DD0D0000DD0D000097
:1001C000DD0D0000DD0D0000DD0D0000DD0D000087
:1001D00008B5614B4CF220521A804DF628121A8055
:1001E00000BF00BF102223F80E2CA3F51F43DE3BF7
:1001F0004FF030621A60594A9A60594ADA60594B96
:100200004FF470021A60584B584A1A60584A1368E3
:1002100013F4807301BF57490B604FF4A853136068
:10022000554B56491A78100742BF1A7842F0080217
:100230001A70534BAA221A70524A534B8B4204D263
:1002400052F8040F43F8040BF8E7504B504A0021D2
:10025000934202D243F8041BFAE74E4A4E48002369
:1002600050F8231042F823100133742BF8D14B4B74
:100270004B4A802103F8011B9342FBD1494B454A6D
:100280001A60494B8A221A70A3F5805324225A70AF
:10029000A0221A709A799107FCD59A79D206FCD4DB
:1002A000424A937903F00C03082BFAD1404B6022A9
:1002B0001A70404A1378802BFCD13C4B00221A71F3
:1002C0004E225A719A799406FCD59979374A480694
:1002D000FBD5394B39491960082159602023137027
:1002E000937903F00C030C2BFAD1354B354A1A6085
:1002F000354B364A1A60002407225C6043F8042C10
:10030000334AC3F80C2D62B600F06BFD194B1A6826
:10031000D1070AD52F4A30491C60146042F8041CEA
:1003200010221A602D4A2E4911602E4A1278520668
:100330000ED52A492A4A0868904209D12548264CF8
:1003400000221A60026040F8044C102018600A6015
:1003500003F0B0F802F04EFE0E200540823F04008C
:100360000100002B88ED00E0002008E0030000857C
:1003700010D0034014D0034002D00740C011FF1F2B
:1003800000E00740748D00003007FF1FC011FF1F01
:100390005016FF1F0002FF1F0000000000E400E0F5
:1003A00064E400E008ED00E0005006400040064034
:1003B00001E0074003E007404480044000000703D9
:1003C00004800440C010050014E000E07FA9030091
:1003D0000000202004D0034000DD68501CE00340F2
:1003E000A5C3945A00F00740FFFFFFFFFFFFFFFF88
:1003F000FFFFFFFFFFFFFFFFFFFFFFFFFFFFFFFF0D
:10040000FFFFFFFFFFFFFFFFFFFFFFFFDEF9FFFF23
:1004100010B5054C237833B9044B13B10448AFF33E
:1004200000800123237010BDC011FF1F00000000D9
:10043000708D0000084B10B51BB108490848AFF398
:1004400000800848036803B910BD074B002BFBD0A0
:10045000BDE81040184700BF00000000C411FF1F96
:10046000708D0000C011FF1F0000000000F10C03A0
:10047000143003C883E803007047C26803690AB9EF
:10048000D90709D513F0010F4FEA630318BFC1580C
:10049000184418BF8A5810477047704710B5044673
:1004A00007F05AFF204610BD10B5044607F054FF70
:1004B000204610BD10B5044607F04EFF204610BD83
:1004C00010B5044607F048FF204610BD10B590F85F
:1004D0004020C16B0023013A4363836380F84230BC
:1004E000044680F84120043002F06AFE04F10C0357
:1004F000243494E8030083E8030010BD704770477C
:100500002DE9F041554E3468002C40F0A38058206E
:1005100007F01AFF03220546514902F0FCFA514B3D
:100520002B60642385F84E3085F84C4085F84D40AB
:100530002C65082007F008FF0746046044606865E2
:100540002C2007F001FF484A0260484A42614FF000
:100550000108474AC26144608460446280F8288090
:100560008461046200F11401034600F10C0203C926
:10057000EB6382E80300482007F0E6FE3D4A026094
:10058000322202643C4A42613C4AC2613C4A4262B5
:100590003C4AC2623C4A42634460846080F83C80CA
:1005A00080F844808461046284620463846300F19F
:1005B0001401034600F10C0203C92B6482E8030016
:1005C0003C2007F0C1FE314A0260314A4261314AA3
:1005D000C261314A4262314AC2624460846044630B
:1005E0008463846104628462046300F1140103463D
:1005F00000F10C0203C96B6482E80300442007F099
:10060000A3FE274A02601422C263042280F840201D
:10061000244A4261244AC261244A4262244AC26294
:10062000446084604463846380F8414080F84240C1
:10063000846104628462046300F11401034600F1E2
:100640000C0203C9AB6482E803002821384602F09B
:10065000B7FD35603068BDE8F08100BFDC11FF1FD9
:100660006C840000D8860000A0860000F518000009
:100670003D1B0000BC860000D51800002B180000B0
:10068000A717000083170000191D00007C860000DA
:10069000A9100000610D000005110000C910000044
:1006A00094840000B5060000CD040000D5060000CB
:1006B0009507000010B50446FFF722FF90F84C3074
:1006C000032B01BF04F10C031C3494E8030083E8FE
:1006D000030010BD2DE9F0410446FFF711FF636BE5
:1006E000072B31D82A4A52F82330B3F8028000276A
:1006F000BDB2454528D294F8421094F841308AB2F0
:10070000954201D3AB4212D2994203D995420ED2FF
:100710009D420CD9FFF7F4FEA36B626B2902B1FB7B
:10072000F8F11944C9B201F065FA064601E04FF04C
:10073000FF36FFF7E5FE606B072803D832462946EF
:1007400001F0C2F90137D3E7251D284602F024FD48
:1007500068B194F84130E16B013384F8413094F88A
:100760004230013384F84230284602F029FD636BA1
:100770000133072B81BF0023636304F10C032C3486
:1007800086BF94E8030083E803006363BDE8F0815B
:100790006012FF1F70B590F84110144E1D23B1FB7D
:1007A000F3F203FB121290F8421080F84120B1FBE3
:1007B000F3F203FB1213044680F842300025FFF7E2
:1007C0009FFE56F82500013502F089FC082DF6D170
:1007D000A36B0133FF2B88BF0023A36304F10C0339
:1007E000243494E8030083E8030070BD6012FF1F07
:1007F000F8B5234D6F68002F3FD14FF4E47007F038
:10080000A3FD022206461F4902F085F91E4B336004
:10081000C6F8BC71202007F097FD402303618023B8
:1008200004464361C76007774FF4005007F08CFD22
:100830004FF4FC5320606060A060A36100B92061A8
:10084000C6F8C041202007F07FFD0023C36040238D
:100850000361802343610123044603774FF4005072
:1008600007F072FD4FF4FC5320606060A060A3614C
:1008700000B92061C6F8C4416E606868F8BD00BF69
:10088000DC11FF1FA8840000588A00002DE9F74FF3
:10089000DFF8C09082464FF000084FF00C0B5FFA73
:1008A00088F30BFB03F209EB020159F80260002EFA
:1008B00046D08A6812B901218AF83A10DAF8BC40A9
:1008C000002C3AD00192002A37D0224A0BFB032396
:1008D00038205F6807F038FD0023019A436280F8F2
:1008E000283080F82930C3620363436339460262CB
:1008F0002022054607F086FD3146204602F06CFCBA
:1009000063689842074618D2236853F82030A3B989
:10091000242007F019FD20220190314640F8045BA5
:1009200007F070FD2268019B42F82730236853F8D6
:10093000273013B1A3680133A36008F10108AEE7C3
:10094000FFF756FF0449324603B0BDE8F04F01F00F
:100950000FBA00BFF007FF1F9D8A00002DE9F0418C
:10096000A2B015461F46DDF8A0800E46002900F013
:10097000CF8004229549304604F0B0F9044658B9B6
:10098000FFF7BEFD80F84C40FFF7BAFD0465FFF7A6
:100990002FFF01228E4929E008228E49304604F0BB
:1009A0009DF948B9FFF7ACFD022380F84C30FFF702
:1009B0001FFF0122884919E009228849304604F0C6
:1009C0008DF9B8B92B781C0607D433B13B7833F0D6
:1009D0007F0602D1002B40F09D80FFF791FD03239D
:1009E00080F84C30FFF704FF7D49012201F0C0F987
:1009F0000020E8E006227B49304604F06FF998B900
:100A00002B78180600F18480002B00F081803B7861
:100A100019067DD4002B7BD098F800301A0677D4C5
:100A2000002B40F0968073E007226F49304604F0B7
:100A300055F998B9287830F07F0469D10A22214607
:100A4000284602F02DFE0546FFF75AFDE9B201F0F7
:100A5000F8F8FFF7CDFE01226449C7E70622644992
:100A6000304604F03BF980B92B7833F07F0102D196
:100A7000002B40F09E80FFF743FD012480F84C409E
:100A8000FFF7B6FE22465B49B0E706225A493046D8
:100A900004F024F9044660B9FFF732FD80F84C40B9
:100AA000FFF72EFD554B0365FFF7A2FE01225449C7
:100AB0009CE7FFF79DFE0122524901F059F9FFF72B
:100AC00097FE0122504901F053F9FFF791FE0122F0
:100AD0004E4901F04DF9FFF78BFE01224C4901F020
:100AE00047F9FFF785FE01224A4901F041F9FFF776
:100AF0007FFE0122484901F03BF9FFF779FE012210
:100B0000464901F035F9FFF773FE012244496DE7CC
:100B1000012058E031460A22284602F0C1FD0A228F
:100B200004463146384602F0BBFD0546FFF7E8FCB7
:100B3000806C1C2C28BF1C24036880F840409B68F4
:100B40009847FFF7DDFC806C0368C5639B68984796
:100B500043E70A220021284602F0A2FD0A220546A8
:100B60000021384602F09CFD0A220021064640463C
:100B700002F096FD0746FFF7C3FC002480F84C40C6
:100B8000FFF7BEFC2A0402F47F01320202F47F4226
:100B90000A43F9B20A4302658021224A2B468DE8B6
:100BA000C00002A807F0E0FBFFF722FE012202A925
:100BB0001CE70A22284602F073FD0446FFF7A0FC5A
:100BC000036C1C6457E722B0BDE8F081C8840000C4
:100BD000CC840000F0840000D5840000EF84000085
:100BE000F8840000178500001D85000024850000A2
:100BF0003B850000418500005985000096FFFF00FD
:100C00005F8500006E850000948500009D850000D2
:100C1000AA850000CF850000E6850000FA85000067
:100C2000128600001D86000008B5FFF7E1FD0122D5
:100C3000024901F09DF8002008BD00BF4186000078
:100C4000704700BFEFF31380A8B9EFF31082A2B989
:100C5000EFF3058323B10F2B05D9084A985C03E015
:100C60004FF4807000E01046EFF311832BB19842EF
:100C700028BF184670474FF0FF307047F0E300E0A0
:100C8000FEE770B53448037913F0300F2DD072B6FB
:100C9000837D03F0FF0523B9C3794023437462B613
:100CA00023E062B62D490B784A78DBB2D2B25C1CE5
:100CB000402C28BF00249442C67918BF0B19F6B205
:100CC0001CBF9E7023466C1E14F0FF05EFD1D8B2F6
:100CD0000870496C49B1934236BFC2F140029B1A79
:100CE0009B18272BC4BF01230B701B4AD078C0B2BE
:100CF000060621D513791D061ED5184991F84850CE
:100D000091F84930EDB2DBB2AB420CD00133282B65
:100D100028BF00231479CC1894F84A40E4B2D47167
:100D2000147D072CF0D9DBB281F849300A4B1A79CF
:100D3000140644BF7C22DA7041060CD5064B1A79A2
:100D4000520608D5054A002182F87210526F02B18E
:100D500011703C22DA7070BD00B00640E811FF1F30
:100D600000234363836300F10C03243003C883E84A
:100D70000300704700F10C03143003C883E803003C
:100D80007047C26803690AB9D90709D513F0010F82
:100D90004FEA630318BFC158184418BF8A58104758
:100DA00070477047704708B50B4D2C462B685803A9
:100DB00001D501F061F92368590501D501F098FDCD
:100DC00023681A0501D5FFF75CFF2368DB04EDD526
:100DD00001F0F8FCEAE700BF3480044008B5FFF7F3
:100DE000E2FFF0B5934D944A9449954E954F4FF0DC
:100DF00000632B604FF080532B604FF000532B604B
:100E00004FF080432B604FF000432B608E4B00244B
:100E10004EF6FF701C6058602823136093601361C6
:100E200093611362936213639363083202F50122A4
:100E3000336013600B608B600B618B610B628B62A4
:100E40000921396007F5805704373C607860BB6042
:100E50003B6147F8041C07F5FE2785B03C607860CD
:100E6000BB603B6147F8041C07F580573C60786025
:100E70003360136042F8141CA2F5E122A2F5FD6272
:100E8000283A916A41F400719162116841F0007151
:100E9000116002F5012247F6FF7114605160936002
:100EA00013616A4B6A4908221A60A3F5AA236022DB
:100EB0001A70E1225A70A3F56333A3F57E733922C9
:100EC0001A6013230B6001F5FF2101F2FC710A6027
:100ED000604A1360604BA2F5FF221C6003F50023FB
:100EE000A2F5FD621C608423136002F5002232200B
:100EF00013605A4B01221A7001F000FC72B6584977
:100F00000B78802B2A4608D0564B574C702018700F
:100F100056480460802018700BE0554B5548186007
:100F200003F5573303F2BD331C700B78802BFCD0D4
:100F3000EAE718780006FCD508784F4B01281B68B3
:100F40000BD100F1804000F5FC206024047008788B
:100F50008028FCD146494948086062B648498B421E
:100F60009CBF0A214B4301AD00210A20B3FBF0F4E2
:100F700000FB143330334B5523460CB10131F5E7F8
:100F800004A8084400F80B4C6818CC1AA34206DAEF
:100F9000EC5C0678EE5400F801490133F5E7394975
:100FA0000023E85C20B101330A2B21F8020BF8D1B1
:100FB0003549364801335B000B70002319461D1874
:100FC00019500833882B314C6960F8D13048314BC7
:100FD000016841F4802101602F48016841F04071AF
:100FE0000160C4F307211970C4F3074119752B4937
:100FF000230E0B70FF2301F8343C002001F82C3C39
:1010000001F8A43C012301F8203C81F84C0001F8D0
:10101000303C234B702119704FF400131360214BA7
:1010200010224FF4AF701A7005B0BDE8F04001F027
:1010300065BB00BF04E100E00C8003401C900B4046
:101040000C900B40008003400480034000900C4053
:101050000CB003400CB00B4020B00340C515FF1F7F
:1010600003E0074000000240000007410400024086
:1010700044800440000017130C00024000000703E6
:101080007F9698003C07FF1F3A07FF1F0000FF1FD5
:10109000348004409C20074000D80040B420074022
:1010A00035E400E00821074010B50446FFF728FAB0
:1010B00090F84C30022B01BF04F10C031C3494E86F
:1010C000030083E8030010BD70B50D4E04460025F3
:1010D000FFF716FA56F82500013502F000F8082D42
:1010E000F6D1A36B0133FF2B88BF0023A36304F168
:1010F0000C03243494E8030083E8030070BD00BFB0
:101100006012FF1F2DE9F0410446FFF7F9F9626B09
:10111000072A20D81B4B03EB820300269B6FB3F8F2
:101120000280B7B2B84516D9FFF7EAF9A36B626B34
:101130003902B1FBF8F11944C9B200F05BFD054674
:10114000FFF7DEF9606B072803D82A46394600F01E
:10115000BBFC0136E5E7FFF7D3F9636B0133072BDF
:1011600088BF0023EDB2056581BF636304F10C0302
:101170002C3494E803008CBF83E803006363BDE86C
:10118000F08100BFE811FF1F10B5044607F0E4F836
:10119000204610BDFEE7FEE7094908B50B6868B1B7
:1011A0006A461844A2F50052904206D302F07CF938
:1011B0000C2303604FF0FF3008BD0860184608BDDF
:1011C0003407FF1F0B4B1B681B0512D50A4BDA783F
:1011D00002F0CB02DA7040225A74DA7842F034021C
:1011E000DA70064B5A78D2B21A705B6C0BB10022DF
:1011F0001A7070473480044000B00640E811FF1FA9
:10120000084A11785378DBB2994207D00133402B5A
:1012100028BF002313449878C0B270474FF0FF30C6
:10122000704700BFE811FF1F10B50F4C237862789C
:10123000D9B2D2B2914213D0531C402B28BF002305
:10124000E2189078DAB26270626CC0B252B18B422E
:1012500088BF4031CB1A1A2B04DC0023137010BD59
:101260004FF0FF3010BD00BFE811FF1F044B18788E
:101270005A78C0B2D3B2984238BF4030C01A7047D3
:10128000E811FF1F064B93F8480093F84920C0B2BD
:10129000D3B298422CBF273303F1FF33181A70479B
:1012A000E811FF1F10B5044C94F8723013B101F02F
:1012B000CFF9F9E710BD00BFE811FF1F274B1B68EE
:1012C0001A052DE9F04147D5254C636F0BB101227A
:1012D0001A70DFF8908006464718BE4239D294F85B
:1012E000485094F849300135282D28BF00259D42EB
:1012F0000BD0631916F8012B83F84A20EDB20123B5
:1013000084F8723084F84850E7E7BC2388F803304B
:10131000FFF798FC402813DC98F804301B0613D51F
:1013200094F849300133282B28BF0023E218DBB2A0
:1013300092F84A20D2B288F8072084F8493003E0B6
:10134000FF2801DD01F084F994F849309D42DFD097
:10135000CFE7044BBC22DA70BDE8F0813480044052
:10136000E811FF1F00B00640214B1B681A052DE94C
:10137000F04106463AD51F4D6B6F0BB101221A7032
:1013800095F84840DFF86C801B4F0134282C28BFAB
:10139000002495F84920174BA2421AD1FFF752FCBE
:1013A000402811DC3B791B06F3D598F8493001330E
:1013B000282B28BF0023EA18DBB292F84A20D2B2C9
:1013C000FA7185F84930E4E7FF28E2DD01F040F9E1
:1013D000DFE71A19F6B282F84A60E4B2012283F814
:1013E000722083F84840044BBC22DA70BDE8F081DB
:1013F00034800440E811FF1F00B006400E4B1B680C
:1014000013F4006316D017280C4B03D140F20231BD
:101410000B4A04E03C2809D10A4A40F2023111602B
:101420005A7B42F001025A73012070475A7B02F046
:10143000FE025A73002070473480044000B006401A
:1014400008B0044008D0044038B50C4B1B6813F4B6
:1014500000634FF000040FD03F28094B09D8094919
:1014600051F830505D64012101F05DF92C700120CC
:1014700038BD5C64204638BD184638BD3480044011
:10148000E811FF1F608700000F4B1A7982421AD0C3
:101490000E490968090515D5092A04D03B2A05D14A
:1014A00000210B4A01E00B4A00211160092805D0F8
:1014B0003B2807D140F21331054A02E0054A40F2C9
:1014C00013311160187170473407FF1F34800440D6
:1014D00004D004400CB0044010B509B140F08000C5
:1014E000144A53799842144622D0134A12681205BE
:1014F0001DD503F07F030A2B04D03A2B05D100221F
:101500000E4B01E00E4B00221A60002900F07F0212
:1015100014BF602344230A2A05D03A2A07D143F492
:101520004073064A02E0064A43F440731360607158
:1015300010BD00BF3407FF1F3480044000D00440BA
:1015400010B004400B4A38B5044692F8723003F0EC
:10155000FF05002BF9D10121204601F0E4F82946CE
:10156000204601F011F9044B53F83420014B5A671F
:1015700038BD00BFE811FF1F608700001B4B1B68D0
:101580001B0510B500D410BD194C94F87230184AE0
:1015900003F0FF0113B101F05BF8F6E7154B0220F1
:1015A0001860154BD970154B1879092804D03B28C1
:1015B00006D11348016003E0124940F203100860AD
:1015C0005B7903F07F030A2B04D03A2B06D100216C
:1015D0000D4B02E00D4B40F2031119600023137014
:1015E0005370536C0BB101221A7010BD348004404B
:1015F000E811FF1F84E100E000B006403407FF1F40
:1016000004D004400CB0044000D0044010B00440AA
:10161000184B9A7802F0EC0100F003020A434107EC
:1016200048BF42F010029A70124900F00F02042ADB
:1016300002BF8A7942F040028A715A79C30602F0E9
:10164000EF020C4B48BF42F010025A719A798106A2
:1016500002F0EF0248BF42F010029A71C30505493B
:1016600006D54B780A78DBB242F020020A704B7044
:10167000704700BF00B00640234A136843F400637C
:101680001360224B00221A705A7083F8482083F8A6
:10169000492083F872201E4B1A79092A05D03B2A6B
:1016A00007D140F213311B4A02E01B4A40F21331CA
:1016B00011605B790A2B05D03A2B07D14FF4517298
:1016C000164B02E0164B4FF451721A601F28154B4F
:1016D00098BF2020C0F344321A70C0F347125A70EA
:1016E0000421022200F01F0098729970DA74597573
:1016F000882119743C21D9700B4B402119706FF46B
:1017000047710B441A60704734800440E811FF1F92
:101710003407FF1F04D004400CB0044000D0044044
:1017200010B0044000B0064021E400E0F8B5114CD0
:10173000114E124D04F19807384601F004FC324670
:101740002946384604F1A00701F0A2FE384601F010
:10175000FAFBA83432462946384601F099FE204665
:1017600001F0F1FB324629462046BDE8F84001F081
:101770008FBE00BFE811FF1F3007FF1F9D1A00003A
:10178000704790F83C30013BDBB2012B80F83C30D5
:101790009CBF012380F8443000F10C03343003C8AF
:1017A00083E80300704790F83C300133DBB2632BD1
:1017B00080F83C3084BF002380F8443000F10C03F3
:1017C000343003C883E80300704700F10C03143081
:1017D00003C883E803007047C26803690AB9D907E0
:1017E00009D513F0010F4FEA630318BFC15818441D
:1017F00018BF8A5810477047704700F10C03143027
:1018000003C883E803007047C26803690AB9D907AF
:1018100009D513F0010F4FEA630318BFC1581844EC
:1018200018BF8A58104770477047012310B5016CE4
:1018300080F83C3080F844300446043001F0C0FCAD
:1018400004F10C03243494E8030083E8030010BD82
:101850002DE9F041154C054604F120074FF0010831
:1018600054F8040F95F84E1001F013FC266896F911
:101870000600002807DB0121C0B200F054FF002160
:10188000B07900F081FF86F80080206801F027FC25
:10189000BC42E5D105F13804483554F8040F03681B
:1018A0001B689847AC42F8D1BDE8F0815C12FF1F7D
:1018B00010B5044606F050FD204610BD10B5044694
:1018C00006F04AFD204610BD10B5044606F044FD62
:1018D000204610BD10B50446FEF712FE90F84C30BD
:1018E000012B01BF04F10C031C3494E8030083E8CE
:1018F000030010BD38B50446FEF702FE90F84C30E8
:10190000D3B9656AFEF7FCFD036D9D4203D194F8DF
:10191000283003B938BD656AFEF7F2FD036DAB42AE
:1019200002D0002384F8283004F10C031C3494E81E
:10193000030083E8030038BD38BD10B50446A9B1E3
:10194000C26803699A4213D24269806802F092FB2E
:10195000E368A269A1680133E36023681A449142F5
:101960001CBF63695B18A360002010BD012010BD7F
:10197000072010BD2DE9F341324E334F054601AC2F
:10198000FFF774FC002802DC05F1BB063CE0FFF722
:101990004BFCC1B20D29D5F8BC3101D0802B0FD141
:1019A000802B08BF7F232B44002283F83B2005F1C6
:1019B0003B01C5F8BC21D5F8C001FFF7BEFFE3E746
:1019C000082916D1002BDBD0013BC5F8BC313A8881
:1019D000BB782280A3704FF00008336814F8081019
:1019E0001B68184808F101089847B8F1030FF4D1B3
:1019F000C6E75A1C2B44C5F8BC2183F83B1033685A
:101A000010481B689847BBE7D5F8C441E368B3B1F9
:101A100062696168304602F02DFBE368A269616883
:101A20000848013BE36023681A4491421CBF636984
:101A30005B1863603246054901F08EF8E4E702B0B6
:101A4000BDE8F081D807FF1F90860000E8860000FF
:101A500013B541F24700FFF70FFE0D4C0920FFF7C9
:101A600013FD00210A20FFF737FD236809495B6851
:101A70001A2220469847084B1B88ADF8043023688B
:101A800002225B6801A92046984702B010BD00BF42
:101A9000D807FF1FEB8600009386000003790F2B09
:101AA0000CD8074A137072B606490279012303FA6B
:101AB00002F20B8823EA02030B8062B6704700BF74
:101AC0001A800040C815FF1F1B4B53F820004388A5
:101AD0008B42F0B52FD98CB29C422CD2C379C2F381
:101AE0000746C2F30725D4B20BB9A64608E05E4309
:101AF0005D435C43C6F30726C5F30725C4F3072EF1
:101B0000077BC47BA742876803D101EB41013944BD
:101B10000AE007EB8101120E0C440BB9D3B202E0CC
:101B20005343C3F307232370037BCE54437BCD542D
:101B3000837B01F803E0F0BD6012FF1F2DE9F04741
:101B40000446FEF7DDFC164F036D63620025B946BF
:101B5000FEF7D6FC57F82530B3F802A04FEA850807
:101B60000026B3B29A4508D9FEF7CAFC3146626A2C
:101B70002846FFF7A9FF0136F3E7FEF7C1FC013560
:101B800059F8080001F0ABFA082DE1D104F10C037B
:101B9000143494E8030083E80300BDE8F08700BF35
:101BA0006012FF1F2DE9F047114E81460024B04618
:101BB000FEF7A6FC56F82430B3F802A0A7000025D3
:101BC000ABB29A4509D9FEF79BFC2946D9F82420E7
:101BD0002046FFF779FF0135F2E7FEF791FC01346B
:101BE00058F8070001F07BFA082CE1D1BDE8F08736
:101BF0006012FF1FC943C9B2542909D8A1EB810063
:101C0000013801EB4101C9B2C0B241EA004070475E
:101C1000A92909D85539C9B201EB4100A1EB8101CD
:101C20000139C0B2C9B209E05631C9B2A1EB810095
:101C300001EB41010138C9B2C0B2090441EA0020F8
:101C40007047632970B5054601D9642302E0012974
:101C500003D8012385F84E3001E080F84E10084E7D
:101C6000002456F8240095F84E1001F012FA56F8A8
:101C70002400013401F033FA082CF2D170BD00BF0A
:101C80006012FF1F38B590F84C2090F84D309A4202
:101C9000044609D000EB8303D86B03689B68984720
:101CA00094F84C3084F84D3094F84C3004EB8303B6
:101CB000D86B03685B689847606D01F06DFA38B3C4
:101CC00000F05AFF134B1A7919680132D2B2084456
:101CD000032A18601A711D4614D90109196094F875
:101CE0004C30012B0BD094F84E309A1C914202D20A
:101CF000023B994203D8C9B22046FFF7A2FF002356
:101D00002B712B60606D2821BDE8384001F058BA76
:101D100038BD00BF9812FF1FF8B5061D04463046B7
:101D200001F03AFA00B3FEF7EBFB94F83C100F4FCA
:101D3000FFF787FFFEF7E4FB002557F82500013584
:101D400001F0CDF9082DF8D1216C304601F038FAB8
:101D500094F8442004F10C030AB1243400E02C343C
:101D600094E8030083E80300F8BD00BF6012FF1F82
:101D70002DE9F8430D4604464FF48051284690461D
:101D800001F0C0FB7F28064614D904F1BB074FF0D1
:101D9000000929467F22384606F034FB7F3E84F84E
:101DA0003A913946D4F8C401FFF7C7FD7E2E05F1FC
:101DB0007F05EED896B10A490A4A04F1BB06B8F18C
:101DC000000F18BF0A462B468021304606F0CCFA99
:101DD0003146D4F8C401BDE8F843AEE5BDE8F88368
:101DE00006870000E886000038B5142006F0ACFA3B
:101DF0001F4C0221054601F07CF81420256006F0F6
:101E0000A3FA0E21054601F074F81420656006F06F
:101E10009BFA0721054601F06CF81420A56006F036
:101E200093FA0821054601F064F81420E56006F0F5
:101E30008BFA0621054601F05CF81420256106F0B6
:101E400083FA1421054601F054F81420656106F068
:101E50007BFA1521054601F04CF81420A56106F027
:101E600073FA0521054601F044F8E56138BD00BF6D
:101E70006012FF1F704700BF0368C9B21B68184794
:101E80000368C9B21B68184715490B6830B513B908
:101E90008360C36009E004681A68944207D2002591
:101EA000121B8360C560D8601A60086015E0026884
:101EB0001C689968121B026061B10C68A2420B4653
:101EC000F5D28160C968C160D860C168A21A886013
:101ED0001A6002E08160C36098600223037530BD20
:101EE000A012FF1F70B5174D6B682C6801336B6033
:101EF0000026BCB1236813B1013B236012E0A26845
:101F000002B1D36020692A60036826751B682246E7
:101F10000021984763681BB123602046FFF7B4FF98
:101F20002C68E6E7EFF3108372B60022A868AA6077
:101F300003B962B620B18468FFF7A6FF2046F9E72F
:101F400070BD00BFA012FF1F38B50A4D0024EFF38B
:101F5000108272B6E86848B14369EB6003B19C61D6
:101F600002B962B6447783689847F0E702B962B66F
:101F700038BD00BFA012FF1F70B50C4B0C4D1A7C72
:101F800042F0020605EBC60482F001026060587C54
:101F90001A74002814BFC824882480F0010044EA81
:101FA0000141587445F8361070BD00BFA012FF1FE4
:101FB0000000FF1FFFF75AB908B50846FFF7D4F92C
:101FC000012008BD08B50846FFF7CEF9012008BD7D
:101FD00010B5084614461146FFF770F9204610BDAB
:101FE00038B508460D4602F00BFE04460146284669
:101FF000FFF764F9204638BDFFF744B9FFF7E2B8B0
:10200000FFF750B9FFF710B9FFF7FAB808B508465F
:10201000FFF7F4F9003018BF012008BD08B50846E5
:10202000FFF712FA003018BF012008BD084611461C
:10203000FFF752BA0846FFF727BA0846FFF782BAF9
:10204000FFF79CBA10B5064B144603EB5100B0FBEA
:10205000F1F0FFF711FB2046BDE81040FFF7D8BABA
:1020600000389C1C034B03EB5100B0FBF1F0FFF771
:1020700003BB00BF00389C1C2DE9F74FDFF8B8A266
:10208000D1469AF80050AC4CEDB215F0040F2CD0AC
:10209000AA4B1B7833B3AA4A917E01F0FF0321B10A
:1020A000013BDBB2937603B900BED27EA44E02F0B0
:1020B000FF03BAB1013BDBB2F3769BB9337F03F088
:1020C000FF077BB9306A28B14388038000F000FE27
:1020D000376207E000F0AAFE10B100F0F9FD01E060
:1020E0000123F376042389F8003005F0080303F098
:1020F000FF01002B00F05982924B934D1B78DBB20D
:102100001C094FEA930740F0D28105EBC7035968D9
:1021100055F83730C3F38303013B0C2B00F2C38126
:10212000DFE813F082018201C101C101C101C101D7
:10213000C101C1019F01C101C101C1010D000A68B6
:102140007F4C4B686262A36292B2804B45F8373095
:1021500040F28160002301218242E3622B61AB6186
:102160006174264617D8B2F5D06F80F01481B2F5AD
:10217000817F00F0D28006D8802A00F0BD80822ABC
:1021800000F0BD8021E140F202339A4200F0F48079
:10219000B2F5A06F1BE042F22100824200F04181C3
:1021A0000DD8B2F5086F00F0A280B2F5106F40F0C4
:1021B0000C81624A94F8261011701E460AE042F221
:1021C00021218A4200F0FA8042F221339A4200F043
:1021D0000081FAE0AB191A6A170603D5586A083865
:1021E00000F0C6FD0836802EF4D1594FDFF864B1F7
:1021F00000265BF826004FEA860830B1426800925C
:1022000000F0B6FD009A1046F7E7524B524A43F8E9
:102210000800103348F8030058F8020040B1416844
:102220000192009100F0A4FD0099019A0846F5E79B
:1022300042F80800494A48F80200494A22F81600C4
:102240003A78023A032A07D8DFE802F002040204CF
:10225000002200E001223A700136042E07F1010746
:10226000C7D14049394F00230B704FF001080E468B
:102270003D4A3E4B08EB0200434410F8010C9B0022
:1022800010F0080F18704FEA880B21D000F0CEFD37
:1022900038B105EB481308305860354B45F83B30F2
:1022A00004E0337845F83B000133337000F0BEFDA5
:1022B0004BF0010338B105EBC30E0830CEF8040033
:1022C00045F8337004E045F8330033780133337058
:1022D0004BF0020008F101084BF0030B0023B8F1AA
:1022E000050F45F8303045F83B30C1D172E0134B53
:1022F0001B78A3740B4670E0A374E3746CE0228D2A
:1023000002F07F02042A60D8A374E3749200194B90
:102310009B5C9D0760D5A1745EE0228D02F07F0278
:10232000042A52D8E38C002B4FD112499200114459
:102330000A7822F002022CE080200740F115FF1FEE
:10234000A012FF1F902007400000FF1FC8004000A0
:10235000CA15FF1FD012FF1FD015FF1FE015FF1F6A
:10236000F215FF1FF015FF1F7889000030C801101B
:1023700088004000C0200740228D02F07F02042A1E
:1023800023D8E38C0BBBA449920011440A7842F095
:1023900002020A701EE0E28C218DA04B5E68A6B19D
:1023A0001888904208D15888884205D1120A032A19
:1023B0000CBF33781B8911E00C33EFE762682265AC
:1023C00094F8262084F8542004E0934B0F221A70CE
:1023D00027E000231E4601E002231236658D9D4250
:1023E00028BF1D46402D2F4628BF4027304639467E
:1023F000FFF7C2FDED1B3E4403D1402F11D12F4604
:1024000003E0402D2F4628BF402730463946FFF7CE
:10241000B3FDED1B3E4401D1402F02D1E662A4F88A
:10242000565001227E4B3DE07E4B9A8C42F22103B6
:102430009A4212D100237B4ACC5C02F158001C5412
:102440000133072BF7D1936D0021862B08BF0F2393
:10245000084608BF9376FFF78FFD734B45F837307A
:1024600021E0704EF76A97B1B6F85640402C2546E9
:1024700028BF402538462946FFF77EFD601B80B205
:10248000A6F8560008B9402D00D17819F062B28C38
:10249000644BB2F5A06F06D1002283F8252093F893
:1024A0002620624B1A705E4B01221A7079E005EB10
:1024B000C706013C726803F00803A2F10800E4B209
:1024C00003F0FF0E002B36D000F052FC5848594A5A
:1024D00050F82410E9B14B6840F8243001F10803AA
:1024E0007360135D032B0BD8DFE803F002040608CA
:1024F000032304E0022302E0052300E00423135534
:1025000016F0080F0A8814BFC823882343EA024341
:1025100045E0135D032B08D8DFE803F043430204D2
:10252000002300E0012313553BE016F0080F14BF11
:1025300003230223F7E755F837301B0C99B222F832
:10254000081C33B3374B22F806EC42F804EC4FEA90
:10255000840E03EB0E0CDCF8302012B9CCF83000FE
:1025600002E0DCF8402050607344334A186432F8CB
:102570001430194422F8141000F058FC10B108303F
:10258000706006E02D4A45F8370013780133137068
:1025900007E02B4A244B16F0080F08BF134645F8F6
:1025A0003730082389F800306BE5E8071ED51C4852
:1025B0001C4A234D02230370224B117402F1600662
:1025C000A0321D60DA605E609D6019619961124BF6
:1025D0000D221A701C4AFF2313702370117413719B
:1025E0001A4B9F221A700123037012E0290604D5AA
:1025F000094B0D221A7080232370AA0705D5124AB1
:102600001378DBB2137002232370EB0644BF102350
:10261000237003B0BDE8F08FC02007400C87000096
:1026200094200740A012FF1FC800400098200740D8
:10263000D015FF1FCA15FF1FF215FF1FF015FF1F52
:10264000880040000000FF1F8820074084200740CA
:1026500070B5194C94F8E060254666BB00F004FCA8
:10266000FEF704FE00F06AFB00F01AFC00F00AFC22
:1026700000F070FB84F8E060EFF30583DBB9EFF363
:10268000108372B6D4F8E40010B194F8E81011B1D8
:102690008BB962B670BD012284F8E8204269C4F8A3
:1026A000E42002B1916103B962B6002444778368E3
:1026B000984785F8E84070BDA012FF1F72B60C4B1A
:1026C0000C4A0D491B685268096862B6490102D577
:1026D000322B88BF0132C3F56A33F02003F27F1337
:1026E000B3FBF0F34FF47A7000FB0230704700BF89
:1026F00018E000E0A012FF1F04ED00E038B504462A
:10270000FFF7DCFF054624B938BD013C0AD005F5CA
:102710007A75FFF7D3FF401BB0F57A7FF5D2FFF74C
:1027200097FFF6E738BD3F2810B52AD8154AC000F4
:1027300014180129A36D01D0042910D110440429D3
:10274000426D4FF0010082F880024FF4A2721A60CD
:102750001A680CBF42F0200222F0200210E0606DE7
:10276000002280F8802211B94FF4807208E002291B
:1027700002D140F2031203E0032908BF4FF4817233
:102780001A6010BD0C8700003F2817D80C4B03EBD4
:10279000C000436D93F880223AB1012211B183F851
:1027A0008020704783F800217047836D1A6811B14B
:1027B00042F0030201E022F002021A60704700BFFB
:1027C0000C87000010B5204B1A7992060FD51F4ACE
:1027D000D9791378507801333F2BC8BF0023834247
:1027E00018BFD018C9B21EBFDBB281701370164873
:1027F000C278D2B2130619D503791C0616D513492F
:1028000091F8424091F84330DBB29C4202D16C23F4
:10281000C3700BE00133282B28BF0023CC18DBB298
:1028200094F84440E4B2C47181F84330510609D5AC
:10283000054B1A79520605D5044A002182F86C101E
:102840002C22DA7010BD00BF00C006408C13FF1FA1
:1028500010B5234B5A68920212D5224AD96892F8D1
:102860006D3092F86E0001333F2BC8BF00238342C6
:1028700006D0D018C9B2DBB280F86F1082F86D3084
:1028800017498C6823021DD54B6818021AD5154AC2
:1028900092F8AF0092F8B030DBB2984206D1124BFA
:1028A00000221A60012243F8042C0BE00133282B8C
:1028B00028BF0023D018DBB290F8B100C0B2C860C6
:1028C00082F8B030620209D5054B5B685B0205D522
:1028D000044A002382F8D930044A136010BD00BFB7
:1028E00000400C408C13FF1F5C0188435801884353
:1028F00070B52F4A137913F0300F25D072B6937D3F
:1029000003F0FF0423B9D3794023537462B61BE06C
:1029100062B6284991F8DA3091F8DB50DBB2EDB2BB
:10292000581C402828BF0020A842D67918BF0B1891
:10293000F6B21CBF83F8DC600346601E10F0FF0493
:10294000EED1DBB281F8DA30194AD078C0B206068F
:1029500021D513791D061ED5164991F81C5191F801
:102960001D31EDB2DBB2AB420CD00133402B28BF9E
:1029700000231479CC1894F81E41E4B2D471147D6C
:10298000072CF0D9DBB281F81D31094B1A791406F6
:1029900044BF7C22DA70410609D5054B1A795206EC
:1029A00005D5044A002182F85E113C22DA7070BD20
:1029B00000A006408C13FF1F10B5224B1A79920617
:1029C00013D5214AD97992F85F3192F86001013329
:1029D0003F2BC8BF0023834218BFD018C9B21EBF07
:1029E000DBB280F8611182F85F311648C278D2B24A
:1029F000130619D503791C0616D5134991F8A14180
:102A000091F8A231DBB29C4202D16C23C3700BE07F
:102A10000133282B28BF0023CC18DBB294F8A34144
:102A2000E4B2C47181F8A231510609D5054B1A7977
:102A3000520605D5044A002182F8CB112C22DA7007
:102A400010BD00BF00A00E408C13FF1F10B5224B1D
:102A50001A79920613D5214AD97992F8CC3192F895
:102A6000CD0101333F2BC8BF0023834218BFD018CC
:102A7000C9B21EBFDBB280F8CE1182F8CC31164845
:102A8000C278D2B2130619D503791C0616D513499C
:102A900091F80E4291F80F32DBB29C4202D16C23C6
:102AA000C3700BE00133282B28BF0023CC18DBB206
:102AB00094F81042E4B2C47181F80F32510609D57E
:102AC000054B1A79520605D5044A002182F83812BE
:102AD0002C22DA7010BD00BF00D006408C13FF1FFF
:102AE00030B5A8B10268134602F180051C466BB1EF
:102AF000AB4208D013F8011B39B12029F6D10021CF
:102B0000631C217002E0002300E00B46036000E03C
:102B10000246104630BDF8B50E4B03600025142365
:102B2000044643608560C5600561082017460E466F
:102B300005F00AFC277605604560606184F839502D
:102B400084F83A502022314604F1190005F05AFC6D
:102B50002046F8BD688900000EB403B503AA0548F5
:102B600052F8041B019200F0D7FD02B05DF804EBAF
:102B700003B07047D807FF1FF8B5474C94F83932B7
:102B8000002B6ED0454A464B11680906FCD41968E3
:102B900011F08001F8D172B694F83932002B5FD071
:102BA000404B414A1F6804330C321B6852F80C6CCE
:102BB00052F8085C52F8040C12683B4433442B442E
:102BC00003441344C3F34E03384A43F400431360F1
:102BD000374B1F68043340321B6852F80C6C52F8B4
:102BE000085C52F8040C12683B4433442B44034401
:102BF0001344C3F34E032F4A43F4004313602E4B98
:102C000002F500221F68043310321B6816685568ED
:102C100090683B440C32334412682B440344134401
:102C2000C3F34E03254A43F400431360244B1F684B
:102C3000043340321B6852F80C6C52F8085C52F8AE
:102C4000040C12683B4433442B4403441344C3F341
:102C50004E031C4A43F4004313600F4B83F83912B0
:102C600062B672B6184D042601272E6084F83A72B7
:102C700062B672B62B681B0607D494F83A32002B62
:102C8000F3D062B6FFF7E4FCF3E7104B18680023BB
:102C900084F83A3262B6F8BD8C13FF1F24B00340AB
:102CA00024B00B4038B0034040B003402CB0034088
:102CB00058B0034030B0034038B00B402CB00B404C
:102CC00058B00B4030B00B4000B0034010B0034090
:102CD00072B6174A92F84132032B08D8DFE803F0A6
:102CE00014021604022100E00421124B10E0D2F875
:102CF00050120F4B11B9C3F8500202E0D3F8603202
:102D00005860C2F8600211E0032100E005210A4B7F
:102D100082F8411213F0080F00F1080201885A608E
:102D200014BFC822882242EA01421A6062B6704784
:102D30008C13FF1F9800FF1F9000FF1F044B187893
:102D40005A78C0B2D3B2984238BF4030C01A7047E8
:102D50008C13FF1F054B93F86D0093F86E20C0B2E3
:102D6000D3B2984238BF4030C01A70478C13FF1F4F
:102D70002DE9F043264D274BDFF8AC90DFF898E0C3
:102D8000AC464FF00008C31A4822B3FBF2F60B2EF4
:102D90003BD895F864321E4C73B395F865325BB33B
:102DA00072B6012309EB030212F8012C12071CD59D
:102DB0009900194A5EF831702FB902EB43130830BD
:102DC0005860164B09E041F001015EF8317067B9B7
:102DD00002EBC10308305860114B42F8313094F8CF
:102DE0006432013B84F864320EE00133052BD9D103
:102DF00062B68CF86482CAE772B60A494FF00042A4
:102E00000B69F24013430B6162B6BDE8F08300BF6B
:102E10008C13FF1FD003FF1F0000FF1F880040001E
:102E2000C8004000D807FF1F7889000010B572B6AF
:102E30000B480269B2FA82F10B2902DD62B600206A
:102E400010BD4FF00043CB4022EA0302026162B69C
:102E5000044C48234B43E0180022E250426010BD6E
:102E6000D807FF1FD003FF1F054B93F8DA0093F834
:102E7000DB20C0B2D3B2984238BF4030C01A70478E
:102E80008C13FF1F054B93F85F0193F86021C0B2CC
:102E9000D3B2984238BF4030C01A70478C13FF1F1E
:102EA000054B93F8CC0193F8CD21C0B2D3B2984230
:102EB00038BF4030C01A70478C13FF1F014BB3F866
:102EC0006A0270478C13FF1F10B5036814465B68D5
:102ED0009847204610BD00BF08B5FEF727FCFEF757
:102EE00083FFFEF7C7FF00F027FABDE8084000F0B7
:102EF00097BAF8B501230025C3730373572702233C
:102F0000837304460570C571056145738780384633
:102F10000E4605F019FA0346A06028B13A46294644
:102F200000F094FA1D2300E0A08063802378A6714E
:102F30003BB101213046FFF7F6FB00213046FFF799
:102F400023FC2046F8BD30B572B60168264C81B12D
:102F500003790F2B0DD8B4F83C221A41D20708D5BB
:102F600003F1007303F59063B1EB431F01D162B627
:102F700030BDB4F83C12002341FA03F212F0010212
:102F800029D101259D402943A4F83C1262B6174D72
:102F9000D9B201712C6844F002042C6055F8044C3D
:102FA00003F1007344F0020445F8044C03F5906308
:102FB0000F4C5B0140F282452560A176A177217616
:102FC000E17703601A605A609A60DA601A615A61A8
:102FD0009A61DA6130BD0133102BCDD162B6002287
:102FE0000260037130BD00BF8C13FF1F408004409E
:102FF0000080004080B5204C01210D20FFF793FB9D
:1030000001210D20FFF7C0FB4FF47A71D4F8700254
:1030100000F0D6F804F51C76254656F8040F08B9DA
:10302000164E09E003681B689847F6E7144C54F8FD
:10303000040FC0B9FFF70CFBD5F87072384600F0EA
:10304000ABF80028F2D0347D0D202146FFF79CFB21
:1030500014F1FF3418BF01244FF47A7138463475E7
:1030600000F0AEF8E2E790F83A30002BDFD10368C9
:103070005B689847DBE700BF8C13FF1FD807FF1F73
:10308000FC15FF1F704710B5044605F065F9204692
:1030900010BD4A1CC379D2B29A4270B51ED0013B12
:1030A00013F0FF0384680CD0FF291FBF110201F148
:1030B000FF3191FBF3F39BB204BF4FF6FF7191FB1D
:1030C000F3F32546291B868889B28E4205D92978D3
:1030D0005943091205F8011BF4E7C27170BD2DE9CF
:1030E000F84383680446002B4BD0FFF7E7FA2369C7
:1030F000C01AB0F5967FF8D372B6234B94F9062028
:10310000A16853F832E0214AA088136843F0807325
:1031100013601F4A136843F0010313601D4B1A68C4
:10312000084402F5967298464FF0010C88421FD968
:1031300011F8019B082580261F68BF1AB7F5967FF6
:10314000FAD316EA090FD8F800208EF880C004D010
:103150001F68BF1ABF2FFBD903E01F68BF1A3B2FA0
:10316000FBD9013D8EF800C14FEA5606E4D1DDE7F8
:103170001968891AB1F5967FFAD362B6FFF79EFAFD
:103180002061BDE8F88300BF60870000FCED00E02F
:10319000001000E0041000E0436882B053B1074A19
:1031A000006812680192019A101A83422CBF002015
:1031B000012000E0012002B0704700BFA412FF1FF1
:1031C000044B416082B01B680193019B036002B015
:1031D000704700BFA412FF1F2DE9F0414468064666
:1031E0000F464CB32021384600F08CF900243A46B3
:1031F000D31B984205DD12F8013B83EA44135C407F
:10320000F6E77568B4FBF5F34FF0010805FB1344CE
:10321000A54211D9336853F8240068B120223946F9
:10322000043001F05BFD38B14444A54202D908F1F5
:103230000208EDE7641BFAE77068844234BF204659
:103240004FF0FF30BDE8F0812DE9FF470546C03063
:10325000FFF7A2FF002863D0FDF7CAFAD0F8C041FB
:10326000E368002B5CD015F13B0659D062696168B8
:10327000304600F0FFFEE368A2696168013BE3604D
:1032800023681A4491421CBF63695B18636004ACF5
:1032900044F8046D2046FFF723FC06462046FFF75E
:1032A0001FFC81462046FFF71BFC80462046FFF7A7
:1032B00017FC07462046FFF713FCD5F8BC408246B2
:1032C00074B331462046FFF787FF6368984219D2EE
:1032D000236853F82030ABB11C68FDF789FA00224F
:1032E0001149FEF745FD206A0368CDF800A01C686F
:1032F00042463B464946A04760B1FDF779FA0122B4
:103300000A4905E033782BB1FDF772FA084901222A
:10331000FEF72EFDFDF76CFA00220649FEF728FDA8
:1033200004B0BDE8F08700BF91850000688A000006
:10333000898A00009C8A00002DE9F041FDF7E0F841
:10334000324E334F3060FDF753FA3B687060002B0C
:1033500050D1C82004F0F8FF012205462D49FFF79F
:10336000DAFB2D4B2B600C2004F0EEFF412480464D
:10337000A31E012B13D9012C0FD00323012203FB21
:1033800003F18C4208D3B4FBF3F103FB1141002994
:1033900008BF00220233F2E70AB90234E8E7B4F1C9
:1033A000FE5F4FF0000398BFA000C8F8083088BF48
:1033B0004FF0FF3004F0C8FF002808BF00240023AE
:1033C000C8F80000C8F8044018469C424FF00001BD
:1033D00005D0D8F8002042F823000133F5E7C5F8FE
:1033E000BC80C5F8C010C5F8C41005F1C000FFF7D7
:1033F000E7FE3D603B68B360082004F0A5FF0023B2
:1034000003604360054B1860BDE8F0810016FF1FA4
:103410001416FF1FDC890000048A0000FC15FF1F42
:1034200038B5042004F090FF064C074D04F140032A
:103430000360A860042004F087FF543404606861CE
:1034400038BD00BFDC890000F007FF1F01B5EAB1FD
:10345000102A17DB00F0070333B1C3F10803D21AB7
:10346000013B00F8011BFBDCC9B241EA012141EA42
:1034700001418C46D308013BE0E8021CFBDC12F062
:10348000070203D0013A00F8011BFBDC01BD00BFBD
:103490000B460146184600F001B800BF13460A4625
:1034A0000146022000F05AB9014B1868704700BF6E
:1034B000400CFF1F70B50F4E0F4D761BB61018BF96
:1034C000002405D0013455F8043B9847A642F9D1B1
:1034D0000A4E0B4D761B05F03DFCB61018BF0024BC
:1034E00006D0013455F8043B9847A642F9D170BD87
:1034F00070BD00BF608D0000608D00006C8D00000D
:10350000608D000099B103789BB110B40144431C55
:1035100003E01A785C1C32B123469942F9D1081AAB
:103520005DF8044B7047181A5DF8044B7047084665
:1035300070471846704700BF2DE9F84FDDF8289016
:103540000E460746154698468B4600E0A3465C4665
:10355000484614F801AB00F0ADFA5044407800F052
:10356000080000F0FF0C0028F0D151462D2961D051
:103570002B2904BF9BF801100BF10204B8F1000FD6
:103580000CD0B8F1100F5CD04FF0FF33B3FBF8F361
:1035900008FB03FA6FEA0A0AC14607E0302961D046
:1035A0004FF00A083D4BC1464FF0050A4FF0000EA0
:1035B000704606E02FD009FB00204FF0010E14F8F2
:1035C000011BA1F13002092A05D9A1F14102192AF2
:1035D0000BD8A1F1370290450FDDBEF1FF3FEED0D1
:1035E0009842E7D94FF0FF3EE9E7A1F16102192ABD
:1035F00003D8A1F157029045EFDCBEF1FF3F11D097
:10360000BCF1000F00D0404255B1BEF1000F0DD10A
:103610002E60BDE8F88F5245CDDD4FF0FF3ECEE77E
:10362000BDE8F88F22233B60704645B3661E2E60CE
:10363000BDE8F88F0BF102049BF801104FF0010C6C
:103640009CE730291DD1237803F0DF03582B1ED1CE
:103650004FF010096178C8464FF00F0A02346FF03E
:103660007043A3E7237803F0DF03582BF0D04FF02B
:103670000808C1464FF0070A6FF0604396E7BDE8BF
:10368000F88F4FF00F0A6FF07043C1468EE7C146C6
:103690004FF00F0A6FF0704388E700BF99999919AE
:1036A00030B5084C084B25686C6B83B0002C08BF04
:1036B0001C46009413460A4601462846FFF73CFF85
:1036C00003B030BD400CFF1F440CFF1FF0B5ADF53B
:1036D000057D04AD00930F4613464FF4007403AA12
:1036E00029460394064601F049FB88B10446024688
:1036F0003946039B304600F01BF8AC42039004D0DF
:103700003046214600F0EEF803980DF5057DF0BD3A
:103710004FF0FF30F9E700BF10B4044C13460A46DF
:10372000014620685DF8044BFFF7D0BF400CFF1F37
:1037300070B50D46084C114606461A462846002329
:103740002360FFF7C1FB431C00D070BD2368002B32
:10375000FBD0336070BD00BF4C16FF1F2DE9F04752
:10376000254C2568D5F84841064688469246994634
:10377000C4B360681F2817DC431C76B104EB8005D6
:103780000122C5F888A0D4F8881182401143022E86
:10379000C4F88811C5F808911ED00230636044F85F
:1037A00020800020BDE8F087144B03B34FF4C870AD
:1037B00004F0CAFD0446D0B1D5F84831002780E8AE
:1037C0008800C5F8484138460123C4F88871C4F818
:1037D0008C71002EE1D0D1E7D4F88C110A43C4F8E3
:1037E0008C21DAE705F5A674C5F84841C1E74FF02A
:1037F000FF30BDE8F08700BFCC8A0000498300009D
:10380000024B13B1024800F005B8704700000000F9
:1038100021380000002301461A461846FFF79EBFD4
:1038200038B5074D074C2C1BA41005D0013C55F8AA
:10383000043D9847002CF9D1BDE8384005F096BA10
:103840000000000000000000F8B5234F0C460646BB
:1038500000F0AAFCBB685D6825F00305291B01F692
:10386000EF7121F47F6121F00F01A1F58054B4F5CF
:10387000805F07DB0021304601F09CF9BB682B44D8
:10388000984204D0304600F091FC0020F8BD61421F
:10389000304601F08FF901300DD0104BBA6819682D
:1038A0002D1B45F001053046091B5560196000F0DD
:1038B0007DFC0120F8BD0021304601F07BF9BA689B
:1038C000831A0F2BDEDD064C0449246843F0010304
:1038D000001B53600860D5E7B00DFF1F2416FF1FC3
:1038E000BC11FF1F002945D02DE9F0410D4680464F
:1038F00000F05AFC55F8047C6A4927F00103A5F151
:103900000804E2188E685068B24220F0030062D0CA
:10391000FE0750600BD455F8087CE41B01F1080E3B
:10392000A56875453B446FD0E768EF60BD6015182A
:103930006D68ED0742D543F001026260E350B3F5D4
:10394000007F18D2DB085A1C4D6851F83270A7600E
:1039500001209B1000FA03F301EBC2001D4308385D
:10396000E0604D6041F83240FC604046BDE8F04107
:1039700000F01CBC70475A0A042A53D89A0902F175
:1039800039077F0002F1380501EB870051F8272045
:103990004449083890424DD0516821F003018B42D0
:1039A00002D292689042F7D1D068E060A260846051
:1039B000D4604046BDE8F04100F0F8BB95683A4F4E
:1039C000BD4203443FD0D068E86043F00102856007
:1039D0006260E350B3E7FF07034407D455F8082CAF
:1039E000A41A1344A068E268C26090602F4A12686B
:1039F00043F00100934260608C60B6D32C4B40468C
:103A00001968FFF721FFB0E711184968C90744D4C6
:103A10009168D268CA60034443F00100916060601D
:103A2000E350A2E7142A17D802F15C077F0002F1E5
:103A30005B05A9E7AA104B68012505FA02F21343BA
:103A40004B600246B1E743F001024C610C61E56056
:103A5000A5606260E35088E7542A06D81A0B02F189
:103A60006F077F0002F16E058EE7B2F5AA7F06D8D8
:103A7000DA0B02F178077F0002F1770584E740F264
:103A80005450824206D89A0C02F17D077F0002F161
:103A90007C0579E7FE277E2576E743F00102626028
:103AA000E35062E7B00DFF1FB80DFF1FB811FF1FF5
:103AB0002016FF1FD0F8EC00704700BF044A054BEA
:103AC0001268506B002808BF1846F030704700BFDE
:103AD000400CFF1F440CFF1F2DE9F04F01F10B05B7
:103AE000162D83B0064640F29F8035F0070500F1A1
:103AF000BF80A94200F2BC8000F056FBB5F5FC7F08
:103B0000C0F09C826B0A00F0BA80042B00F2838123
:103B1000A80900F1390E4FEA4E033830C44F07EBC5
:103B20008303A3F108015C68A14207D1ACE0002A3D
:103B300080F2AC80E468A14200F0A680636823F0C4
:103B400003035A1B0F2AF2DDB9493C6901F1080E43
:103B5000744500F0B381636823F003035A1B0F2AF6
:103B600000F39981002AC1F814E0C1F810E080F256
:103B70009E80B3F5007F80F06781DB0803F1010CC4
:103B800001229B1002FA03F34A6851F83C80C4F802
:103B9000088001EBCC091A43A9F10803E3604A60ED
:103BA00041F83C40C8F80C40831001249C409442EA
:103BB00000F28A80144206D120F00300640014420F
:103BC00000F10400FAD007EBC009CC468046DCF8CF
:103BD0000C108C4507D173E1002A80F28181C968FD
:103BE0008C4500F06D814B6823F003035A1B0F2AAC
:103BF000F2DD0C46D1F80CC054F8088F4B1945F093
:103C000001054D6042F00101C8F80CC03046CCF807
:103C100008807B613B61C3F80CE0C3F808E05960A1
:103C20009A5000F0C3FA1FE0102921D800F0BCFA26
:103C30001025062302207E4F07EB8303A3F1080221
:103C40005C68944200F045816368E168A56823F0F0
:103C50000303234430465A68E96042F001028D6054
:103C60005A6000F0A3FA0834204603B0BDE8F08F94
:103C700000240C232046336003B0BDE8F08F80237E
:103C80004FF0400E3F2049E770465DE72344E1686E
:103C90005A68A56842F00102E96030468D605A60BA
:103CA00000F084FA0834204603B0BDE8F08F2344C6
:103CB00030465A6842F001025A6000F077FA083440
:103CC000204603B0BDE8F08FBC68636823F00308AA
:103CD000A84504D3C5EB08030F2B00F38C80554B8C
:103CE000DFF860911A68D9F8003001332A4404EBF8
:103CF000080A00F0608102F580520F3222F47F62E0
:103D000022F00F0211463046019200F053FFB0F14D
:103D1000FF3F8346019A00F05881824500F2FC8003
:103D2000454B1968DA451144196000F05381D9F800
:103D30000000DFF810E101301BBFCAEB0B0A514451
:103D4000CEF800B019601BF0070100F01781C1F137
:103D50000800C1F58051834408315A44C2F30B0274
:103D6000C2EB010949463046019300F023FF431C92
:103D7000019B00F03F81CBEB00024A4442F001027C
:103D80001968C7F808B04944BC42CBF80420196050
:103D9000DFF8A49016D0B8F10F0F40F2FD806268F2
:103DA000A8F10C0323F00703E01802F001024FF022
:103DB000050E1A430F2B6260C0F804E0C0F808E05B
:103DC00000F21C811D4BBC681A68914288BF1960C3
:103DD0001B4B1A689142626888BF196022F0030287
:103DE0009542A2EB050301D80F2B04DC304600F00E
:103DF000DDF9002438E7621943F0010345F00105BD
:103E000065603046BA60536000F0D0F9083420464F
:103E100003B0BDE8F08F142B71D9542B00F2A480AD
:103E2000280B00F16F0E4FEA4E036E3076E600BFAE
:103E3000B00DFF1F2016FF1F2416FF1F1C16FF1FAB
:103E40001816FF1FBC11FF1F5A0A042A5ED9142A34
:103E500000F2B38002F15C0149005B3207EB810C98
:103E600057F82110DFF8DC81ACF1080C8C4500F02C
:103E700088804A6822F00302934202D289688C4506
:103E8000F7D1D1F80CC07A68C4F80CC0A160CCF8A6
:103E90000840CC6088E6631942F0010745F001054F
:103EA000656030464B610B61C3F80CE0C3F808E075
:103EB0005F609A50083400F079F9D5E64A6873E6F5
:103EC00008F1010818F0030F0CF1080C7FF47FAE25
:103ED00030E0DC68A34208BF02303FF435AEB3E601
:103EE0000B440C465A68C96854F8085F42F0010256
:103EF0005A603046E9608D6000F058F9B4E603F18D
:103F00005C0E03F15B004FEA4E0307E69A0902F1EB
:103F1000390149003832A1E7BC424A4B3FF400AFB7
:103F20009C68626822F003025AE759F808399945FB
:103F300040F0828010F0030F00F1FF30F5D17B6874
:103F400023EA04037B6064009C423FF6BDAE002C74
:103F50003FF4BAAE1C4240467FF435AE64001C42CA
:103F600000F10400FAD02EE6B3F5AA7F18D8E80BCA
:103F700000F1780E4FEA4E037730CFE54FF48051D1
:103F8000EBE60121D8F80430921001FA02F21A434C
:103F9000C8F80420614677E70123CBF8043025E711
:103FA00040F25452934220D8A80C00F17D0E4FEA03
:103FB0004E037C30B2E51032A4E6542A26D81A0B00
:103FC00002F16F0149006E3248E7BC68626822F076
:103FD000030205E7CAF30B0000287FF4A8AE4244B1
:103FE000BB6842F001025A60ECE6FE234FF07F0E00
:103FF0007E2093E501224FF00009C1E604F108019B
:104000003046FFF76FFCD9F80010DBE6B2F5AA7F67
:1040100005D8DA0B02F17801490077321EE740F249
:1040200054518A4205D89A0C02F17D0149007C3234
:1040300014E7FE217E2211E77B6884E7E808431C31
:104040005B00F8E5B00DFF1F82B049B15AB16BB10A
:1040500013780B601278101C18BF012002B0704753
:1040600001A9002AF3D1104602B070476FF0010099
:10407000F4E700BF844641EA000313F003036DD167
:10408000403A41D351F8043B40F8043B51F8043B1B
:1040900040F8043B51F8043B40F8043B51F8043B22
:1040A00040F8043B51F8043B40F8043B51F8043B12
:1040B00040F8043B51F8043B40F8043B51F8043B02
:1040C00040F8043B51F8043B40F8043B51F8043BF2
:1040D00040F8043B51F8043B40F8043B51F8043BE2
:1040E00040F8043B51F8043B40F8043B51F8043BD2
:1040F00040F8043B51F8043B40F8043B51F8043BC2
:1041000040F8043B403ABDD2303211D351F8043B61
:1041100040F8043B51F8043B40F8043B51F8043BA1
:1041200040F8043B51F8043B40F8043B103AEDD210
:104130000C3205D351F8043B40F8043B043AF9D261
:10414000043208D0D2071CBF11F8013B00F8013B34
:1041500001D30B8803806046704700BF082A13D341
:104160008B078DD010F003038AD0C3F10403D21A59
:10417000DB071CBF11F8013B00F8013B80D331F88D
:10418000023B20F8023B7BE7043AD9D3013A11F80D
:10419000013B00F8013BF9D20B7803704B78437078
:1041A0008B78837060467047704700BF704700BFD0
:1041B000C36C70B505460C464BB153F8240080B172
:1041C000026843F8242000230361C36070BD2122EC
:1041D000042100F011FEE86403460028EDD1002020
:1041E00070BD012101FA04F6721D2846920000F00C
:1041F00003FE0028F3D044608660E4E731B1C36C6D
:104200004A6853F82200086043F82210704700BF44
:10421000F0B50C6983B00D46064601F1140E002777
:10422000DEF8000081B202FB01310B0C000C02FB36
:10423000003389B2013701EB0341BC424EF8041B45
:104240004FEA1343ECDC3BB1AA68944207DA05EB72
:104250008402013453612C61284603B0F0BD6968C3
:10426000019301313046FFF7A3FF2A69023205F1BD
:104270000C01074692000C30FFF7FCFEF26C6968F7
:10428000019B52F82100286042F821503D46DEE7AC
:10429000030C1B04B3B90004102310F07F4F04BFBC
:1042A0000002083310F0704F04BF0001043310F017
:1042B000404F04BF80000233002807DB420003D4D4
:1042C000202070470023E8E7581C704718467047C5
:1042D000036813F0070207D0D90720D49A0720D427
:1042E0009B0803600220704799B209B91B0C102289
:1042F00013F0FF0F04BF1B0A0832190704BF1B0984
:104300000432990704BF9B080232D90704D45B0822
:1043100001D1202070470132036010467047002011
:1043200070475B0803600120704700BF10B50C4662
:104330000121FFF73DFF01224461026110BD00BF72
:104340002DE9F04F0D691769BD4283B00C46164642
:1043500004DA2A4634463D460E461746A36861688D
:1043600005EB07089845C8BF0131FFF721FF00F1B1
:10437000140C0CEB8809CC45009005D26346002153
:1043800043F8041B9945FBD806F1140202EB870A97
:1043900004F11403524503EB850E54D2CDF804907A
:1043A000994652F8043B1FFA83FBBBF1000F20D063
:1043B00000204F466646054600E01E4657F8044B6F
:1043C0003068A1B283B20BFB0131240C000C4B19F5
:1043D0000BFB040000EB134099B2334641EA004165
:1043E000BE454FEA104543F8041BE6D8756052F805
:1043F000043C5FEA134B20D0DCF8003067461846D7
:104400004D46002100E037462C88000C0BFB0400D1
:1044100001449CB23E4644EA014346F8043B7868B6
:1044200055F8044B83B2240C0BFB043404EB11430A
:10443000AE454FEA1341E6D87B6092450CF1040C7F
:10444000AFD8DDF80490B8F1000F0BDD59F8043C4B
:10445000A9F104091BB105E059F8043D13B9B8F1FD
:104460000108F9D10098C0F8108003B0BDE8F08FC2
:1044700012F003032DE9F041144607462ED10E46F3
:10448000A4101CD0BD6C95B3E3074FF0000806D410
:10449000641014D02868A8B10546E307F8D52A4669
:1044A00031463846FFF74CFFB6B17268FB6C6410BA
:1044B00053F82210316043F822600646EAD13046B4
:1044C000BDE8F0812A4629463846FFF739FF2860C3
:1044D000C0F800800546E0E70646D9E75A1E0B4DB6
:1044E000002355F82220FFF793FE0646C8E7012176
:1044F0003846FFF75DFE40F2712101220023416141
:1045000002610546B8640360BEE700BFD08B0000BF
:104510002DE9F04791460A698B684FEA691404EB6C
:10452000020808F101059D420E468246496804DDF5
:104530005B009D4201F10101FADC5046FFF738FEB5
:10454000002C00F1140238DD02EB8403002142F854
:10455000041B9342FBD1346906F1140119F01F09C1
:1045600001EB840E21D0C9F1200200240F6807FA64
:1045700009FC4CEA04049C4643F8044B51F8044BF4
:104580008E4524FA02F4F1D8CCF804400CB108F1BD
:104590000205DAF84C307268013D53F822100561CB
:1045A000316043F82260BDE8F087043B51F8042BEA
:1045B00043F8042F8E45F9D8EBE71346CBE700BF4D
:1045C00002690B69D21A13D19B00143014311944BB
:1045D00010B4034401E098420CD253F8044D51F852
:1045E000042D9442F7D009D301205DF8044B7047A5
:1045F0001046704700205DF8044B70474FF0FF30C5
:10460000F3E700BF2DE9F8430B690F4611695B1A08
:10461000002B904617D1890007F1140208F1140508
:104620005318294401E09A425ED253F8046D51F8C0
:10463000044DA642F7D060D23B46144647464FF0A1
:104640000109984606E05DDB07F1140502F1140448
:104650004FF000097968FFF7ABFDD8F810303E69DC
:10466000C0F80C9004EB830CA64605EB860700F11E
:10467000140400235EF8041B55F8048B8AB213FA65
:1046800088F3090C9A1AC1EB184303EB224392B248
:1046900042EA0342F44544F8042B4FEA2343E9D8A5
:1046A000AF4217D9A446294651F804EB13FA8EF20B
:1046B000131403EB1E4392B242EA03428F424CF8BA
:1046C000042B4FEA2343EFD8ED433D4425F0030587
:1046D00004352C44043C22B954F8043D013E002B1F
:1046E000FAD00661BDE8F8830021FFF761FD0122E1
:1046F000002302614361BDE8F8832C464FF00009B6
:104700001546A7E73B4607F1140408F11405474690
:104710004FF0010998469DE72DE9F04357EC106BE7
:1047200083B0884601213C46C7F30A551746FFF778
:104730003FFDC4F3130481460DB144F48014019489
:104740001EB302A840F8086DFFF7C2FD002834D15F
:104750009DE80C00C9F81420002B0CBF0121022198
:10476000C9F81830C9F81010DDB909EB8103A0F2BF
:104770003240C8F800001869FFF78AFDC0EB41100D
:104780003860484603B0BDE8F08301A8FFF7A0FDFC
:10479000019BC9F8143001212030C9F81010002DF8
:1047A000E3D0A5F233450544C0F13500C8F8005008
:1047B0003860484603B0BDE8F0839DE80C00C0F1C6
:1047C000200103FA01F10A43C3400193C9F8142000
:1047D000C2E700BF2DE9F04F174683B0002900F073
:1047E000C1800E46814607F10B05FFF7DDFC56F848
:1047F00004EC162D2EF00304A6F1080840D8102270
:104800001546AF4241D8944275DAC94B996808EB16
:1048100004008842416800F0D98021F0010303447C
:104820005B68DB077DD51EF0010F35D03946484661
:10483000FFF752F90746E0B156F8043C23F00103B4
:104840004344A0F108029A4200F04481221F242A26
:1048500000F23181132A00F20481034632461168C6
:1048600019605168596092689A6031464846FFF76E
:1048700039F84846FFF79AFC384603B0BDE8F08F98
:1048800025F00705002D2A46BBDA0C230020C9F8C5
:10489000003003B0BDE8F08F56F8083CC3EB080ABF
:1048A000DAF8043023F0030C04EB0C039342BDDB75
:1048B0005746DAF80C1057F8080F221F242AC16057
:1048C000886000F21781132A40F212813168CAF819
:1048D00008107168CAF80C101B2A00F22B810836E8
:1048E0000AF110023168116071685160B16891601D
:1048F0003E461C46D046631B0F2B1DD8D8F804300B
:1049000003F0010323434444C8F80430636843F0D0
:10491000010363604846FFF749FC304603B0BDE839
:10492000F08F21F003012144914221DBC3688268AA
:104930000C46D3609A60DEE7D8F8042008EB050146
:1049400002F00102154343F001020B44C8F8045081
:104950004A605A6842F0010208315A604846FEF740
:10496000C1FFD7E7114603B0BDE8F04FFFF7B4B879
:104970001EF0010F7FF45AAF56F8083CC3EB080A4B
:10498000DAF8043023F0030C01EB0C0E96458BDBB8
:10499000C36882685746D3609A6057F8081FDAF8F0
:1049A0000C30CB60221F242A996000F29980132AD0
:1049B00062D93368CAF808307368CAF80C301B2A09
:1049C00000F2A08008360AF1100356E021F0030B34
:1049D000A34405F11000834559DA1EF0010F7FF45E
:1049E00025AF56F8081CC1EB080ADAF8041021F0CC
:1049F000030CE34458453FF757AF5746DAF80C101D
:104A000057F8080F221F242AC160886000F2B48082
:104A1000132A40F2A5803168CAF808107168CAF8F4
:104A20000C101B2A00F2AF8008360AF11002316820
:104A3000116071685160B16891600AEB0501C5EBC6
:104A40000B0242F0010299604A60DAF8043003F088
:104A500001031D434846CAF80450FFF7A7FB384638
:104A60005CE733680360736843601B2A27D800F152
:104A7000080306F10802F2E63B4632681A607268E3
:104A80005A60B2689A603E467446D04633E708EBF7
:104A90000501C5EB0B0B4BF0010299604A6056F81B
:104AA000043C03F001031D43484646F8045CFFF74D
:104AB0007DFB304632E7314601F07CF9D5E6B3683C
:104AC0008360F368C360242A28D000F1100306F144
:104AD0001002C4E650F8043C23F003031C440AE728
:104AE000314638467446D04601F064F93E4602E746
:104AF0003A46F7E6314638461C46D04601F05AF9A8
:104B00003E46F8E6B368CAF81030F368CAF81430C5
:104B1000242A1BD010360AF11803AEE7336903616B
:104B20007369436106F1180200F1180397E600BFAC
:104B3000B00DFF1FB168CAF81010F168CAF8141060
:104B4000242A0FD010360AF11802CBE63369CAF8CE
:104B500018307369CAF81C3018360AF120038CE744
:104B60003A4664E73269CAF818207269CAF81C200C
:104B700018360AF12002B5E631463846019301F0B5
:104B800019F9019B59E7B168CAF81010F168CAF821
:104B90001410242A03D010360AF1180247E73269AC
:104BA000CAF818207269CAF81C2018360AF12002C7
:104BB0003DE700BF38B5074C002305460846236093
:104BC000FCF7EAFA431C00D038BD2368002BFBD069
:104BD0002B6038BD4C16FF1FFFFFFFFFFFFFFFFFDD
:104BE000FFFFFFFFFFFFFFFFFFFFFFFFFFFFFFFFD5
:104BF000FFFFFFFFFFFFFFFFFFFFFFFFFFFFFFFFC5
:104C000090F800F06DE9024520F007016FF0000C0C
:104C100010F0070491F820F040F049804FF00004B4
:104C20006FF00700D1E9002391F840F000F108008F
:104C300082FA4CF2A4FA8CF283FA4CF3A2FA8CF3C7
:104C40004BBBD1E9022382FA4CF200F10800A4FA2E
:104C50008CF283FA4CF3A2FA8CF3E3B9D1E9042382
:104C600082FA4CF200F10800A4FA8CF283FA4CF3B9
:104C7000A2FA8CF37BB9D1E9062301F1200182FA73
:104C80004CF200F10800A4FA8CF283FA4CF3A2FA79
:104C90008CF3002BC6D0002A04BF04301A4612BA87
:104CA000B2FA82F2FDE8024500EBD2007047D1E98A
:104CB000002304F00305C4F100004FEAC50514F019
:104CC000040F91F840F00CFA05F562EA05021CBFEA
:104CD00063EA050362464FF00004A9E7002A41D0C9
:104CE00040EA010313F00303F0B425D1032A23D9CA
:104CF00004680D68AC421FD1043A35D0A4F10135E7
:104D000025EA040414F0803F31D1071D0D1D0DE08C
:104D100057F8043B0E68A3F10134B34224EA0304BC
:104D20000AD1043A20D014F0803F23D1032A294627
:104D3000384605F10405EBD803780C789C4202F163
:104D4000FF320CD182B114B916E06AB17BB110F810
:104D5000013F11F8014FA34202F1FF32F5D0181BB9
:104D6000F0BC7047104670471046F0BC70471846BC
:104D7000F0BC70470020F3E72046F1E770B5154618
:104D80009AB0146809B1002C1AD100244FF4227291
:104D9000ADF80C20009404941A464FF6FF761E9B43
:104DA000029469460594ADF80E6001F069F8002898
:104DB00011DB009B286000221A7004981AB070BDA5
:104DC0004FF4C16200910491ADF80C20E4DA8B231A
:104DD00003600020F2E70020F0E700BF21B1FF2AC6
:104DE00004D80A7001207047084670478A23036080
:104DF0004FF0FF30704700BF10B502FB01F1FEF726
:104E00006BFE0446D8B150F8042C22F00302043A99
:104E1000242A18D8132A14D900231B2A03604360BC
:104E200016D9242A8360C36011BF00F11002036108
:104E3000436100F118020023136053609360204621
:104E400010BD0246F7E70021FEF700FB204610BD2B
:104E500000F10802EFE700BF02690B69934200F31B
:104E60008D802DE9F04F03F1FF3801F1140700F1B7
:104E7000140B57F828205BF828304FEA880483B0D9
:104E80000132B3FBF2F90BEB0403009407EB040AC5
:104E90000193B9F1000F39D00025BC46DE462B4600
:104EA0005CF8046BDEF80020B4B209FB0455360C44
:104EB0002C0C09FB0644ADB25B1BA6B213FA82F3BD
:104EC000C6EB124606EB23469BB243EA0643E24595
:104ED0004EF8043B4FEA14454FEA2643E0D2009BCC
:104EE0005BF8033093B9019C231F9B450CD254F807
:104EF000043C4BB9A4F1080302E01A68043B1AB958
:104F00009B4508F1FF38F8D3C0F810800446FFF73E
:104F100057FB00282EDB09F101095D46002357F8F5
:104F2000041B28688AB29A1A090C12FA80F2C1EBA3
:104F3000104303EB224391B241EA0341BA4545F8DD
:104F4000041B4FEA2343EAD25BF828200BEB8803CB
:104F500082B91A1F93450BD253F8042C42B9083B6F
:104F600002E01A68043B1AB99B4508F1FF38F8D3F0
:104F7000C4F81080484603B0BDE8F08F00207047A9
:104F80002DE9F04F57EC106B9BB0046C249D009101
:104F900081460592039310EE10AABB4654B1426CB1
:104FA000626001239340A3602146FFF727F90023A5
:104FB000C9F84030BBF1000F5C4634DB00232B60A6
:104FC000A14B1A462340934216D00022002350469C
:104FD000594602F0BDFF56465F46804648B3039AE5
:104FE00001231360259B002B00F0BE8097481860BA
:104FF00001381BB0BDE8F08F039A42F20F731360C3
:10500000BAF1000F00F09A809148259B002BF0D058
:10501000C378002B00F0AA8000F10803259A1360E2
:105020001BB0BDE8F08F01232BF000442B60A3469A
:10503000C6E718AA19A947EC106B4846FFF76CFBA6
:10504000250D0A9040F08380189D199E2E4406F28B
:105050003243202B40F38882C3F1400306F2124012
:105060009C402AFA00F0204302F094FC0123741EB5
:10507000A1F1F8710F930022764B02F04DFB6CA367
:10508000D3E9002302F0FCFC6BA3D3E9002302F078
:1050900045FB064620460F4602F08CFC68A3D3E988
:1050A000002302F0EDFC02460B463046394602F082
:1050B00035FB06460F4602F093FF002204900023C2
:1050C0003046394602F04EFF002840F02882049E08
:1050D000162E00F22182604B03EBC603D3E90001D8
:1050E00052465B4602F05CFF002800F04282731ECD
:1050F000049300230D932D1BB5F1010800F12A82C2
:1051000000230793049B002BC0F21B8298440C934E
:1051100000230693009B092B2AD8052B40F34486D5
:10512000043B00930026009B023B032B00F22386E6
:10513000DFE813F02B03240236035004444B474AA4
:10514000C4F31300002814BF184610465DE7CBF3E4
:10515000130343F07F51A5F2FF345046CDF83C8055
:1051600041F44011189D86E73D4842E7C31C55E7CE
:105170000021C9F8441048460C460091FFF718F882
:105180004FF0FF3308930E9301230990C9F84000B4
:1051900005940B93199B002BC0F2D080049A0E2A21
:1051A00000F3CC802C4B03EBC20393ED007B059BFB
:1051B000002B8DED007BC0F2FE8256465F46DDE996
:1051C00000AB304652465B46394602F083FD02F0A2
:1051D00007FF044602F0EEFB52465B4602F050FC2D
:1051E0000B4602463946304602F096FA099D04F114
:1051F00030032B70089B012B06460F4605F1010575
:1052000061D00022174B02F03BFC0022002306462F
:105210000F4602F09DFE00287DD1CDF81490DDF8F8
:1052200020A0DDF824B0DDE9008928E0AFF300809C
:1052300061436F63A787D23FB3C8608B288AC63F9C
:10524000FB799F501344D33F0000F07FF18C0000A6
:10525000EC8C00000000F83FE08A0000E08C0000C9
:10526000F08C00000000244002F00AFC0022002321
:1052700006460F4602F06CFE002840F0AE83424620
:105280004B463046394602F025FD02F0A9FE0446A1
:1052900002F090FB42464B4602F0F2FB02460B4600
:1052A0003046394602F038FA04F1300E05F801EBC9
:1052B000CBEB050ED64506460F464FF00002AE4B2F
:1052C000D2D1DDF8149032463B463046394602F0E2
:1052D00025FA06460F4602460B46DDE9000102F0BC
:1052E00041FE40B932463B46DDE9000102F030FEA6
:1052F00088B1E3070FD515F8014C099A6B1E04E03D
:105300009A4200F0FC8313F8014D392C03F101059A
:10531000F6D001341C700A994846FEF76FFF002250
:10532000049B2A70039A01331360259B002B00F025
:105330009B8309981D601BB0BDE8F08F0B9A002A73
:1053400000F00E81009A012A40F35782089B069ACA
:105350005F1EBA42C0F28B83D71B089B002BC0F2A2
:105360008084079D089B079A01211A4448460792AA
:105370009844FEF7DBFF064665B1B8F1000F09DD82
:105380004545079A2B46A8BF4346D21A0792ED1A05
:10539000C3EB0808069B002B40F3F5820B9A002A0A
:1053A00000F00282002F00F0FF8131463A46484665
:1053B000FFF75EF80A9A014606464846FEF7C0FF28
:1053C0000A9904464846FEF719FF069BDB1B069325
:1053D00040F0E98101214846FEF7A8FF0C9B0690AA
:1053E000002B00F0158201461A464846FFF740F8A8
:1053F000009B0690012B40F3F3820027069A136965
:1054000002EB83031869FEF743FFC0F1200040441C
:1054100010F01F0000F0FA81C0F12003042B40F3CC
:10542000BD84C0F11C00079B0344079305448044DE
:10543000079B002B05DD21461A464846FFF768F812
:105440000446B8F1000F05DD424606994846FFF7CD
:105450005FF806900D9B002B40F07A82089B002B92
:1054600040F393820B9B002B40F0F481DDF824B0D5
:10547000089FDDF818805D4602E0FEF7C9FE04468D
:1054800041462046FFF7E8FC00F1300A05F801AB81
:10549000CBEB0503BB424FF00A024FF0000321465D
:1054A0004846EADB099B089A012AACBF9B180133E6
:1054B0001D464FF0000B214601224846FFF728F811
:1054C00006990A90FFF77CF8002840F3058315F849
:1054D000012C09996B1E04E08B4200F0748213F8D2
:1054E000012D392A03F10105F6D001321A7006990F
:1054F0004846FEF783FE002E3FF40DAFBBF1000FD0
:1055000005D0B34503D059464846FEF777FE3146ED
:105510004846FEF773FEFEE601230D93EBE5DDF84A
:105520001080404602F046FA02460B4630463946A5
:1055300002F00EFD00287FF4CAAD08F1FF3304939A
:10554000C5E5079A049BD21A5B4206930023079293
:105550000C93DFE5C8F1000307934FF00008D1E595
:10556000069F079D0B9E07E7C3F120040AFA04F08B
:105570007AE50D90BFE500BF0000244000230B93A7
:10558000049B059A13440E930133002B089340F3B8
:105590007D82089C25460021172DC9F844100BD99F
:1055A000012204235B0003F11400A842114602F11A
:1055B0000102F7D9C9F844104846FEF7F9FD0E2C50
:1055C0000990C9F840003FF6E5AD002E3FF4E2AD8A
:1055D00004990029CDE910AB40F39A82904B01F079
:1055E0000F020E1103EBC203F006D3E9004540F1B0
:1055F00046828C4B50465946D3E9082302F06AFB99
:10560000CDE9120106F00F064FF0030A86B1854F6F
:10561000F10709D520462946D7E9002302F030FAE0
:105620000AF1010A04460D46761007F10807EFD18A
:1056300022462B46DDE9120102F04CFB06460F46DE
:105640000D9B43B10022784B3046394602F08AFC6C
:10565000002840F01A83504602F0ACF932463B462F
:1056600002F00EFA714B002202F058F8089B044633
:10567000A1F15075002B00F0DB81049B1693089B71
:1056800012930B9B002B00F09482129A644B684992
:1056900003EBC20353E90223002002F01BFB224666
:1056A0002B4602F039F882468B463046394602F0E6
:1056B00097FC044602F07EF902460B463046394616
:1056C00002F02AF83034099DE4B206460F462C70E9
:1056D00002460B4650465946013502F061FC00284F
:1056E00050D132463B4600204F4902F015F80246A1
:1056F0000B465046594602F053FC002840F0088300
:10570000129A012A40F3F781129B099ACDF848803A
:10571000134498460DE00020434901F0FDFF524636
:105720005B4602F01FFC002840F0F282454500F085
:10573000E0815046594600223E4B02F0A1F900227A
:105740003C4B82468B463046394602F099F90F466B
:10575000064602F045FC044602F02CF902460B46D0
:105760003046394601F0D8FF3034E4B252465B4649
:1057700005F8014B06460F4602F0F4FB32463B4665
:105780000028C8D0169B0493C5E500230B93059B06
:10579000002B40F380811D461C460E930893FAE6C9
:1057A00001230B93F3E70A94069A0A994846FEF7F9
:1057B0005FFE04460EE6089B002B3FF7FEAC40F070
:1057C0004F8100221C4BDDE9000102F059F95B46D4
:1057D000524602F0DBFB089B06931E46002800F0B1
:1057E000EA80059B099DDB43049306994846FEF732
:1057F00005FD002E3FF48FAD89E60F9A002A00F0D8
:10580000388203F23343069F079DACE51C200AE66D
:10581000009B012B40F380820C9F0120F7E500BF25
:10582000E08A0000A88B00000000F03F00001C4050
:105830000000E03F000024400000144031460023F7
:105840000A224846FEF7E4FC0E9B002B064640F376
:105850008D820893002D05DD31462A464846FEF725
:1058600057FE0646002F40F07C81B046089B099AFF
:10587000013BD31808930AF001030A931746DDF899
:1058800018B020465946FFF7E7FA3146054620464C
:10589000FEF796FE4246594682464846FEF7B2FE5D
:1058A000C268834605F13003002A49D101462046EB
:1058B0000793FEF785FE594605904846FEF79EFC85
:1058C000059A079B2AB9009919B90A99002900F08D
:1058D0003582BAF1000FC0F2E38005D1009919B901
:1058E0000A99002900F0DC80002A00F34E81089A12
:1058F0003B7007F1010A9742554600F0528121465C
:1059000000230A224846FEF783FC464504463146FA
:105910004FF000034FF00A0248460BD0FEF778FC28
:105920004146064600230A224846FEF771FC5746C8
:105930008046A4E7FEF76CFC5746064680469EE785
:10594000014648460593FEF759FC0122059BC0E736
:1059500006992046FEF734FE0028BFF67FAD2146AB
:10596000049C0023013C0A2248460494FEF750FCA4
:105970000B9B0446002B7FF461AF0E9B002B40F382
:10598000ED81089372E50A9C24E5009B022B7FF7CA
:1059900069AD089B002B40F09D8106990522484681
:1059A000FEF736FC014606902046FEF709FE002869
:1059B0000A947FF716AF049A0999312301320492B1
:1059C0000B704D1C11E7049A01320492099A31239D
:1059D00013708CE501230B93D2E5DDF814909AE463
:1059E000BAF1000F7FF409ADCBF31303002B40F0A5
:1059F0003E812BF000473F0D3F052FB1079B013340
:105A0000079308F1010801270C9B0120002B3FF4AC
:105A1000FEACF3E4504601F0CDFF32463B4602F0C7
:105A20002FF80022BF4B01F079FE0446A1F150751A
:105A3000304639460022BC4B01F06EFE22462B4612
:105A400006460F4602F0ACFA002840F0AE8022462F
:105A500005F100433046394602F084FA00284AD066
:105A6000002306931E46BCE60998FFF7C2BA069BC0
:105A70000C9A0697FB1A1A440C9200276DE49DEDD0
:105A8000107B4FF0020A8DED127BBFE51C46002112
:105A9000C9F8441090E501240E9408940594F6E7A3
:105AA000002A9A4611DD214601224846FEF730FDC4
:105AB00006990446FEF784FD002840F34881BAF1B8
:105AC000390F00F0098105F1310AB34687F800A0CB
:105AD0007D1C46460A940AE504D11AF0010F01D054
