:1000000000000320D10100001D0C0000E90B0000DE
:10001000E90B0000E90B0000E90B0000E90B000010
:10002000E90B0000E90B0000E90B00001D0C0000CB
:100030001D0C0000E90B0000551C0000F11B000026
:100040001D0C00001D0C00001D0C00001D0C00000C
:100050001D0C00001D0C00001D0C00001D0C0000FC
:100060001D0C00001D0C00001D0C00001D0C0000EC
:100070001D0C00001D0C00001D0C00001D0C0000DC
:100080001D0C00001D0C00001D0C00001D0C0000CC
:100090001D0C00001D0C00001D0C00001D0C0000BC
:1000A0001D0C00001D0C00001D0C00001D0C0000AC
:1000B0001D0C00001D0C00001D0C0000112600008E
:1000C0001D0C00006D2700001D0C0000E524000041
:1000D0001D0C0000D92600001D0C00001D0C0000A6
:1000E0001D0C00001D0C00001D0C00001D0C00006C
:1000F0001D0C00001D0C00001D0C00001D0C00005C
:100100001D0C00001D0C00001D0C00001D0C00004B
:100110001D0C0000911D00001D0C00001D0C0000B6
:100120001D0C00001D0C00001D0C00001D0C00002B
:100130001D0C00001D0C00001D0C00001D0C00001B
:100140001D0C00001D0C0000C10A00001D0C000069
:100150001D0C00001D0C00001D0C00001D0C0000FB
:100160001D0C00001D0C00001D0C00001D0C0000EB
:100170001D0C00001D0C00001D0C00001D0C0000DB
:100180001D0C00001D0C00001D0C00001D0C0000CB
:100190001D0C00001D0C0000712500001D0C00004E
:1001A0001D0C00001D0C00001D0C00001D0C0000AB
:1001B0001D0C00001D0C00001D0C00001D0C00009B
:1001C0001D0C00001D0C00001D0C00001D0C00008B
:1001D00008B5614B4CF220521A804DF628121A8055
:1001E00000BF00BF102223F80E2CA3F51F43DE3BF7
:1001F0004FF030621A60594A9A60594ADA60594B96
:100200004FF470021A60584B584A1A60584A1368E3
:1002100013F4807301BF57490B604FF4A853136068
:10022000554B56491A78100742BF1A7842F0080217
:100230001A70534BAA221A70524A534B8B4204D263
:1002400052F8040F43F8040BF8E7504B504A0021D2
:10025000934202D243F8041BFAE74E4A4E48002369
:1002600050F8231042F823100133742BF8D14B4B74
:100270004B4A802103F8011B9342FBD1494B454A6D
:100280001A60494B8A221A70A3F5805324225A70AF
:10029000A0221A709A799107FCD59A79D206FCD4DB
:1002A000424A937903F00C03082BFAD1404B6022A9
:1002B0001A70404A1378802BFCD13C4B00221A71F3
:1002C0004E225A719A799406FCD59979374A480694
:1002D000FBD5394B39491960082159602023137027
:1002E000937903F00C030C2BFAD1354B354A1A6085
:1002F000354B364A1A60002407225C6043F8042C10
:10030000334AC3F80C2D62B600F08BFC194B1A6807
:10031000D1070AD52F4A30491C60146042F8041CEA
:1003200010221A602D4A2E4911602E4A1278520668
:100330000ED52A492A4A0868904209D12548264CF8
:1003400000221A60026040F8044C102018600A6015
:1003500002F0AAFF02F0A3FC0E200540823F040039
:100360000100002B88ED00E0002008E0030000857C
:1003700010D0034014D0034002D00740C011FF1F2B
:1003800000E00740748B00003007FF1FC011FF1F03
:100390003816FF1F0002FF1F0000000000E400E00D
:1003A00064E400E008ED00E0005006400040064034
:1003B00001E0074003E007404480044000000703D9
:1003C00004800440C010050014E000E07FA9030091
:1003D0000000202004D0034000DD68501CE00340F2
:1003E000A5C3945A00F00740FFFFFFFFFFFFFFFF88
:1003F000FFFFFFFFFFFFFFFFFFFFFFFFFFFFFFFF0D
:10040000FFFFFFFFFFFFFFFFFFFFFFFFDEF9FFFF23
:1004100010B5054C237833B9044B13B10448AFF33E
:1004200000800123237010BDC011FF1F00000000D9
:10043000708B0000084B10B51BB108490848AFF39A
:1004400000800848036803B910BD074B002BFBD0A0
:10045000BDE81040184700BF00000000C411FF1F96
:10046000708B0000C011FF1F0000000000F10C03A2
:10047000143003C883E803007047C26803690AB9EF
:10048000D90709D513F0010F4FEA630318BFC1580C
:10049000184418BF8A581047704710B5044607F033
:1004A0004BFE204610BD10B5044607F045FE204621
:1004B00010BD10B5044607F03FFE204610BD10B534
:1004C000044607F039FE204610BD10B590F84020D4
:1004D000C16B0023013A4363836380F842300446D2
:1004E00080F84120043002F06FFC04F10C03243446
:1004F00094E8030083E8030010BD7047704738B5E7
:10050000084C256865B9182007F00EFE04234360E7
:1005100014238360C3606423057003744561206005
:10052000206838BDDC11FF1F38B590F841101D233D
:10053000B1FBF3F203FB121290F8421080F8412055
:10054000B1FBF3F203FB1213044680F8423000259E
:10055000FFF7D5FF2946013501F022FA082DF7D122
:10056000A36B0133FF2B88BF0023A36304F10C03AB
:10057000243494E8030083E8030038BD2DE9F041FA
:100580000446FFF7BCFF636B072B31D82A4A52F8A9
:100590002330B3F802800027BDB2454528D294F835
:1005A000421094F841308AB2954201D3AB4212D244
:1005B000994203D995420ED29D420CD9FFF79FFF75
:1005C000A36B626B2902B1FBF8F11944C9B201F0C7
:1005D000BBF8064601E04FF0FF36FFF790FF606B77
:1005E000072803D83246294600F0C8FE0137D3E772
:1005F000251D284602F0D5FB68B194F84130E16B27
:10060000013384F8413094F84230013384F84230A9
:10061000284602F0D9FB636B0133072B81BF00230F
:10062000636304F10C032C3486BF94E8030083E871
:1006300003006363BDE8F081B415FF1F10B50446E5
:10064000FFF75DFF0378052B01BF04F10C031C3499
:1006500094E8030083E8030010BD7047F8B5234D0C
:100660006F68002F3FD14FF4E47007F05DFD022268
:1006700006461F4902F0F9F81E4B3360C6F8BC71FC
:10068000202007F051FD402303618023044643618D
:10069000C76007774FF4005007F046FD4FF4FC5356
:1006A00020606060A060A36100B92061C6F8C0410D
:1006B000202007F039FD0023C3604023036180231D
:1006C00043610123044603774FF4005007F02CFDEB
:1006D0004FF4FC5320606060A060A36100B920610A
:1006E000C6F8C4416E606868F8BD00BFDC11FF1F2A
:1006F0004C820000F88300002DE9FF470546C0301A
:1007000002F04FFB002863D0FFF7A8FFD0F8C041EC
:10071000E368002B5CD015F13B0659D06269616833
:10072000304603F04FFBE368A2696168013BE36078
:1007300023681A4491421CBF63695B18636004AC70
:1007400044F8046D204602F075F80646204602F093
:1007500071F88146204602F06DF88046204602F08E
:1007600069F80746204602F065F8D5F8BC40824695
:1007700074B33146204602F0ABFB6368984219D24D
:10078000236853F82030ABB11C68FFF767FF0022E5
:10079000114901F000F8206A0368CDF800A01C6838
:1007A00042463B464946A04760B1FFF757FF01224A
:1007B0000A4905E033782BB1FFF750FF08490122C1
:1007C00000F0E9FFFFF74AFF0022064900F0E3FFCF
:1007D00004B0BDE8F08700BFAF8400006C82000069
:1007E0008D820000A08200002DE9F74FDFF8C09055
:1007F00082464FF000084FF00C0B5FFA88F30BFBBA
:1008000003F209EB020159F80260002E46D08A6813
:1008100012B901218AF83A10DAF8BC40002C3AD01B
:100820000192002A37D0224A0BFB032338205F684D
:1008300007F07AFC0023019A436280F8283080F8A0
:100840002930C362036343633946026220220546AE
:1008500007F0C8FC3146204602F03AFB6368984234
:10086000074618D2236853F82030A3B9242007F094
:100870005BFC20220190314640F8045B07F0B2FC9B
:100880002268019B42F82730236853F8273013B1C0
:10089000A3680133A36008F10108AEE7FFF7DEFEAD
:1008A0000449324603B0BDE8F04F00F074BF00BF0A
:1008B000F407FF1FA18200002DE9F843089F1646A8
:1008C00098460D46002900F08B800422684928468E
:1008D00004F0A4F8044618B9FFF711FE214627E0FA
:1008E00006226449284604F099F818B9FFF707FE74
:1008F00001211DE008226049284604F08FF818B94C
:10090000FFF7FDFD042113E009225C49284604F0AD
:1009100085F890B93378180607D433B198F80030C9
:1009200033F07F0501D1002B5DD1FFF7E8FD0521F4
:1009300000F06EFF0020BDE8F883062250492846EB
:1009400004F06CF888B93378190649D4002B47D0E5
:1009500098F800301A0643D4002B41D03B7833F08E
:100960007F043DD1002B54D13AE006224549284668
:1009700004F054F848B9337833F07F0101D1002BEB
:100980006DD1FFF7BCFD0321D2E7FFF767FE01221F
:100990003D4900F000FFFFF761FE01223B4900F0F6
:1009A000FAFEFFF75BFE0122394900F0F4FEFFF783
:1009B00055FE0122374900F0EEFEFFF74FFE0122FF
:1009C000354900F0E8FEFFF749FE0122334900F007
:1009D000E2FEFFF743FE0122314900F0DCFEA9E709
:1009E0000120BDE8F88329460A22304602F052FD74
:1009F000294604460A22404602F04CFD0546FFF710
:100A00007EFD1C2C28BF1C244460FFF778FD856008
:100A10008BE70A222146304602F03CFD0A2281463D
:100A20002146404602F036FD0A2221460546384658
:100A300002F030FD4FEA094906462D02FFF75FFD3F
:100A4000022100F0E5FE09F47F09FFF758FD05F4E7
:100A50007F4549EA0505F6B2354345616AE70A2252
:100A6000304602F017FD0446FFF749FDC46088E7F1
:100A7000A9820000AD820000B4820000B3820000B1
:100A8000BC820000C2820000C8820000EE8200002A
:100A9000F7820000028300000F830000348300000F
:100AA0004B83000008B5FFF7D9FD0122024900F091
:100AB00072FE002008BD00BF63830000704700BFC6
:100AC00010B5294B1A7992061FD5284AD97913787F
:100AD000507801333F2BC8BF0023834218BFD01882
:100AE000C9B21EBF8170D9B21170516C69B11F4A71
:100AF00092F84820D2B2934236BFC2F140029B1A0C
:100B00009B18272BC4BF01230B701748C278D2B2A1
:100B1000130619D503791C0616D5144991F84940D6
:100B200091F84830DBB29C4202D16C23C3700BE0D9
:100B30000133282B28BF0023CC18DBB294F84A409D
:100B4000E4B2C47181F8483051060CD5064B1A79CD
:100B5000520608D5054A002182F87210526F02B180
:100B600011702C22DA7010BD00A00E40E411FF1F9E
:100B7000FEE700F10C03143003C883E8030070475C
:100B8000C26803690AB9D90709D513F0010F4FEA02
:100B9000630318BFC158184418BF8A5810477047DC
:100BA0007047704700234363836300F10C032430D4
:100BB00003C883E80300704700F10C03143003C836
:100BC00083E803007047C26803690AB9D90709D5E9
:100BD00013F0010F4FEA630318BFC158184418BF40
:100BE0008A5810477047704708B50B4D2C462B6844
:100BF000580301D501F0CCF82368590501D501F05F
:100C000007FD23681A0501D501F0B0FD2368DB0458
:100C1000EDD501F067FCEAE73480044008B5FFF742
:100C2000E3FFF0B5934D944A9449954E954F4FF09C
:100C300000632B604FF080532B604FF000532B600C
:100C40004FF080432B604FF000432B608E4B00240D
:100C50004EF6FF701C605860282313609360136188
:100C600093611362936213639363083202F5012266
:100C7000336013600B608B600B618B610B628B6266
:100C80000921396007F5805704373C607860BB6004
:100C90003B6147F8041C07F5FE2785B03C6078608F
:100CA000BB603B6147F8041C07F580573C607860E7
:100CB0003360136042F8141CA2F5E122A2F5FD6234
:100CC000283A916A41F400719162116841F0007113
:100CD000116002F5012247F6FF71146051609360C4
:100CE00013616A4B6A4908221A60A3F5AA2360229D
:100CF0001A70E1225A70A3F56333A3F57E7339228B
:100D00001A6013230B6001F5FF2101F2FC710A60E8
:100D1000604A1360604BA2F5FF221C6003F50023BC
:100D2000A2F5FD621C608423136002F500223220CC
:100D300013605A4B01221A7001F06CFB72B65849CD
:100D40000B78802B2A4608D0564B574C70201870D1
:100D500056480460802018700BE0554B55481860C9
:100D600003F5573303F2BD331C700B78802BFCD096
:100D7000EAE718780006FCD508784F4B01281B6875
:100D80000BD100F1804000F5FC206024047008784D
:100D90008028FCD146494948086062B648498B42E0
:100DA0009CBF0A214B4301AD00210A20B3FBF0F4A4
:100DB00000FB143330334B5523460CB10131F5E7BA
:100DC00004A8084400F80B4C6818CC1AA34206DAB1
:100DD000EC5C0678EE5400F801490133F5E7394937
:100DE0000023E85C20B101330A2B21F8020BF8D173
:100DF0003549364801335B000B70002319461D1836
:100E000019500833882B314C6960F8D13048314B88
:100E1000016841F4802101602F48016841F0407170
:100E20000160C4F307211970C4F3074119752B49F8
:100E3000230E0B70FF2301F8343C002001F82C3CFA
:100E400001F8A43C012301F8203C81F84C0001F892
:100E5000303C234B702119704FF400131360214B69
:100E600010224FF4AF701A7005B0BDE8F04001F0E9
:100E7000D1BA00BF04E100E00C8003401C900B409D
:100E80000C900B40008003400480034000900C4015
:100E90000CB003400CB00B4020B003408115FF1F85
:100EA00003E0074000000240000007410400024048
:100EB00044800440000017130C00024000000703A8
:100EC0007F9698003A07FF1F3807FF1F0000FF1F9B
:100ED000348004409C20074000D80040B4200740E4
:100EE00035E400E00821074010B50446FFF707FB92
:100EF000037833B904F10C031C3494E8030083E84D
:100F0000030010BD38B504460025FFF7F8FA29465E
:100F1000013500F045FD082DF7D1A36B0133FF2B00
:100F200088BF0023A36304F10C03243494E8030076
:100F300083E8030038BD10B50446FFF7E0FA0378F4
:100F4000042B01BF04F10C031C3494E8030083E874
:100F5000030010BD10B5044607F0EEF8204610BDA2
:100F600010B5044607F0E8F8204610BD044B5A7847
:100F7000D2B21A705B6C0BB100221A70704700BFBE
:100F8000E411FF1F084A11785378DBB2994207D069
:100F90000133402B28BF002313449878C0B2704718
:100FA0004FF0FF30704700BFE411FF1F10B50F4C2A
:100FB00023786278D9B2D2B2914213D0531C402B1D
:100FC00028BF0023E2189078DAB26270626CC0B277
:100FD00052B18B4288BF4031CB1A1A2B04DC00235C
:100FE000137010BD4FF0FF3010BD00BFE411FF1FA4
:100FF000044B18785A78C0B2D3B2984238BF403008
:10100000C01A7047E411FF1F064B93F8490093F88C
:101010004820C0B2D3B298422CBF273303F1FF332C
:10102000181A7047E411FF1F10B5044C94F8723081
:1010300013B101F099F9F9E710BD00BFE411FF1FEA
:10104000F8B52A4B1B685A0506464DD5284D6B6FDF
:101050000BB101221A7095F84940264F0134282C13
:1010600028BF002495F84820214BA2422FD1EFF34E
:101070001383A3B9EFF310838BB9EFF3058222B189
:101080000F2A04D91C4B9B5C01E04FF48073EFF3F3
:10109000118212B1934228BF1346402B11D83B79DD
:1010A0001B06DFD595F848300133282B28BF0023D5
:1010B000EA18DBB292F84A20D2B2FA7185F84830C9
:1010C000D0E7B3F5807FCDD101F04EF9CAE71A1908
:1010D000F6B282F84A60E4B2012283F8722083F803
:1010E0004940044BAC22DA70F8BD00BF28800440B0
:1010F000E411FF1F00A00E40F0E300E038B5044605
:101100004518AC4204D014F8010BFFF799FFF8E73B
:1011100038BD0C4B1B6813F4806310D018280A4BA1
:1011200009D10A4A40F2023111605A7B42F00102B1
:101130005A73012070475A7B02F0FE025A73002056
:10114000704700BF2880044000A00E4068D00440D3
:1011500038B50C4B1B6813F480634FF000040FD0BC
:101160003F28094B09D8094951F830505D640121E5
:1011700001F065F92C70012038BD5C64204638BD53
:10118000184638BD28800440E411FF1FDC850000AC
:10119000704710B509B140F080000E4B1A789042AC
:1011A00017D00D4C2468640512D502F07F02212A65
:1011B00002BF0A4A00241460002900F07F010CBF1E
:1011C00044226022212902BF044942F440720A608D
:1011D000187010BD3007FF1F2880044060D0044005
:1011E0000B4A38B5044692F8723003F0FF05002B25
:1011F000F9D10121204601F022F92946204601F0CB
:1012000051F9044B53F83420014B5A6738BD00BFE5
:10121000E411FF1FDC850000104B1B685B0510B557
:1012200000D410BD0E4C94F872100D4B01F0FF026B
:1012300011B101F099F8F6E70A49042008600A495B
:101240000A48CA7040F20311016040F8041C1A7089
:101250005A705B6C0BB101221A7010BD28800440DB
:10126000E411FF1F88E100E000A00E4064D00440BC
:10127000184B9A7802F0EC0100F003020A43410790
:1012800048BF42F010029A70124900F00F02042A7F
:1012900002BF8A7942F040028A715A79C30602F08D
:1012A000EF020C4B48BF42F010025A719A79810646
:1012B00002F0EF0248BF42F010029A71C3050549DF
:1012C00006D54B780A78DBB242F020020A704B70E8
:1012D000704700BF00A00E40174A136843F48063B4
:1012E0001360164A00231370537082F8493082F855
:1012F000483082F87230124A40F2133111604FF4D4
:10130000517142F8041C1F2898BF20200D4AC0F3D9
:1013100044311170C0F3471100F01F0051709072FA
:10132000937013742C23D370074B40221A70A3F2CE
:101330003A3304221A60704728800440E411FF1FEA
:1013400064D0044000A00E4042E400E0FEE7FEE767
:10135000094908B54B6868B16A461844A2F50052BD
:10136000904206D301F09AFF0C2303604FF0FF3048
:1013700008BD4860184608BD3007FF1F1B4B53F8D7
:10138000200043888B42F0B52FD98CB29C422CD2DE
:10139000C379C2F30746C2F30725D4B20BB9A646F8
:1013A00008E05E435D435C43C6F30726C5F30725AB
:1013B000C4F3072E077BC47BA742876803D101EBE8
:1013C000410139440AE007EB8101120E0C440BB9CC
:1013D000D3B202E05343C3F307232370037BCE54FD
:1013E000437BCD54837B01F803E0F0BDB415FF1FB0
:1013F0002DE9F041134F05460024FFF780F857F818
:101400002430B3F802800026B3B2434508D2FFF778
:1014100076F8314600222046FFF7B0FF0136F3E7A9
:10142000FFF76DF82146013400F0BAFA082CE4D138
:1014300005F10C03143595E8030083E80300BDE8CB
:10144000F08100BFB415FF1F2DE9F0410446FFF7FE
:1014500056F8636B072B1ED8174A52F823305F8863
:101460000025AEB2BE4216D2FFF749F8A36B626BFD
:101470003102B1FBF7F11944C9B200F065F98046B9
:10148000FFF73DF8606B072803D842463146FFF767
:1014900075FF0135E5E7636B0133072B81BF00233F
:1014A000636304F10C032C3486BF94E8030083E8E3
:1014B00003006363BDE8F081B415FF1F90F83C3072
:1014C000013BDBB2012B80F83C309CBF012380F84C
:1014D0003D3000F10C03343003C883E8030070474B
:1014E00090F83C300133DBB2632B80F83C3084BF92
:1014F000002380F83D3000F10C03343003C883E84A
:101500000300704700F10C03143003C883E80300A4
:101510007047C26803690AB9D90709D513F0010FEA
:101520004FEA630318BFC158184418BF8A581047C0
:1015300070477047704770477047012310B580F8B7
:101540003C3080F83D300446FEF7D9FFC168201DCD
:1015500001F03AFC04F10C03243494E8030083E81E
:10156000030010BD10B50446FEF7C9FF0378032B36
:1015700001BF04F10C031C3494E8030083E803006A
:1015800010BD10B50446FEF7BAFF0378022B01BF69
:1015900004F10C031C3494E8030083E8030010BD3D
:1015A00010B50446FEF7ABFF0378012B01BF04F131
:1015B0000C031C3494E8030083E8030010BD10B54D
:1015C000044606F0B9FD204610BD10B5044606F0ED
:1015D000B3FD204610BD10B5044606F0ADFD204613
:1015E00010BD10B5044606F0A7FD204610BD10B58D
:1015F0000446A9B1C26803699A4213D2426980685D
:1016000002F0E0FBE368A269A1680133E3602368AC
:101610001A4491421CBF63695B18A360002010BD8F
:10162000012010BD072010BD2DE9F341324E334F8C
:10163000054601ACFFF7DCFC002802DC05F1BB0627
:101640003CE0FFF7B3FCC1B20D29D5F8BC3101D0A5
:10165000802B0FD1802B08BF7F232B44002283F8DF
:101660003B2005F13B01C5F8BC21D5F8C001FFF7CF
:10167000BEFFE3E7082916D1002BDBD0013BC5F8FC
:10168000BC313A88BB782280A3704FF000083368E1
:1016900014F808101B68184808F101089847B8F1B9
:1016A000030FF4D1C6E75A1C2B44C5F8BC2183F8BC
:1016B0003B10336810481B689847BBE7D5F8C44116
:1016C000E368B3B162696168304602F07BFBE368AE
:1016D000A26961680848013BE36023681A449142AB
:1016E0001CBF63695B1863603246054901F0DEF890
:1016F000E4E702B0BDE8F081D807FF1FCC8300000B
:101700004084000013B50D4C40F21240FFF7E4FD99
:1017100000212120FFF73DFD236809495B681A225B
:1017200020469847074B1B88ADF8043023680222F7
:101730005B6801A92046984702B010BDD807FF1F7B
:1017400043840000CF830000C943C9B2542909D89B
:10175000A1EB8100013801EB4101C9B2C0B241EAFD
:1017600000407047A92909D85539C9B201EB410099
:10177000A1EB81010139C0B2C9B209E05631C9B249
:10178000A1EB810001EB41010138C9B2C0B20904EB
:1017900041EA002070472DE9F8430D4604464FF416
:1017A00080512846904601F0A7FD7F28064614D9AF
:1017B00004F1BB074FF0000929467F22384606F0A6
:1017C00011FD7F3E84F83A913946D4F8C401FFF701
:1017D0000EFF7E2E05F17F05EED896B10A490B4A21
:1017E00004F1BB06B8F1000F18BF0A462B46802152
:1017F000304606F0A9FC3146D4F8C401BDE8F843F0
:10180000F5E6BDE8F88300BF5E8400004084000078
:1018100000B50170A3B0052930D8DFE801F0030856
:101820000D1F2429FEF71AFF0122164924E0FEF7B6
:1018300015FF012214491FE04369DAB20192C3F394
:10184000072280210092C3F30743104A02A806F042
:101850007BFCFEF703FF012202A90DE0FEF7FEFE6E
:1018600001220B4908E0FEF7F9FE0122094903E0D5
:10187000FEF7F4FE08490122FFF78DFF23B05DF863
:1018800004FB00BF628400007484000088840000B0
:10189000B2840000CC840000E88400004A1CC379B4
:1018A000D2B29A4270B51ED0013B13F0FF03846898
:1018B0000CD0FF291FBF110201F1FF3191FBF3F39F
:1018C0009BB204BF4FF6FF7191FBF3F32546291B32
:1018D000868889B28E4205D929785943091205F8BC
:1018E000011BF4E7C27170BD2DE9F843836804461B
:1018F000002B4BD000F06EFD2369C01AB0F5967F27
:10190000F8D372B6224B94F90620A16853F832E05E
:10191000204AA088136843F0807313601E4A13683E
:1019200043F0010313601D4B1A68084402F59672D8
:1019300098464FF0010C88421FD911F8019B0825E9
:1019400080261F68BF1AB7F5967FFAD316EA090FEB
:10195000D8F800208EF880C004D01F68BF1ABF2FAF
:10196000FBD903E01F68BF1A3B2FFBD9013D8EF85E
:1019700000C14FEA5606E4D1DDE71968891AB1F5CE
:10198000967FFAD362B600F025FD2061BDE8F883AA
:10199000DC850000FCED00E0001000E0041000E039
:1019A000072903D8024B53F821009DE7704700BF79
:1019B000B415FF1F2DE9F041144F05460024FEF732
:1019C0009EFD57F82430B3F802800026B3B2434599
:1019D0000AD2FEF794FDFEF792FD31464269204699
:1019E000FFF7CCFC0136F1E7FEF789FD2146013413
:1019F000FFF7D6FF082CE2D105F10C03143595E86A
:101A0000030083E80300BDE8F08100BFB415FF1FA9
:101A10002DE9F041144F05460024FEF770FD57F8FC
:101A20002430B3F802800026B3B243450AD2FEF751
:101A300066FDFEF764FD31460C4A2046FFF79EFC2A
:101A40000136F1E7FEF75BFD21460134FFF7A8FF01
:101A5000082CE2D105F10C03143595E8030083E866
:101A60000300BDE8F08100BFB415FF1F7DFFFF003C
:101A7000632970B5054601D9642302E0012902D823
:101A800001232B7400E00174074E002456F8240053
:101A9000297CFFF703FF56F824000134FFF724FFE9
:101AA000082CF3D170BD00BFB415FF1FF8B5061D9B
:101AB0000446304601F075F910B3FEF720FD94F8A6
:101AC0003C10104FFFF7D4FFFEF719FD002557F823
:101AD00025000135FFF708FF082DF8D1FEF70FFDAF
:101AE000C168304601F070F994F83D2004F10C0310
:101AF0000AB1243400E02C3494E8030083E80300A6
:101B0000F8BD00BFB415FF1F38B5142006F00CFB5C
:101B10001F4C0221054601F098F81420256006F0BC
:101B200003FB0321054601F090F81420656006F0E0
:101B3000FBFA0421054601F088F81420A56006F0A0
:101B4000F3FA0521054601F080F81420E56006F05F
:101B5000EBFA0621054601F078F81420256106F01D
:101B6000E3FA0721054601F070F81420656106F0DC
:101B7000DBFA0821054601F068F81420A56106F09B
:101B8000D3FA0921054601F060F8E56138BD00BFD0
:101B9000B415FF1F15490B6830B513B98360C360D6
:101BA00009E004681A68944207D20025121B83607A
:101BB000C560D8601A60086015E002681C68996802
:101BC000121B026061B10C68A2420B46F5D2816023
:101BD000C968C160D860C168A21A88601A6002E052
:101BE0008160C36098600223037530BD5C12FF1FE3
:101BF00070B5174D6B682C6801336B600026BCB163
:101C0000236813B1013B236012E0A26802B1D360E4
:101C100020692A60036826751B68224600219847C0
:101C200063681BB123602046FFF7B4FF2C68E6E72A
:101C3000EFF3108372B60022A868AA6003B962B6F7
:101C400020B18468FFF7A6FF2046F9E770BD00BF0A
:101C50005C12FF1F38B50A4D0024EFF3108272B6F4
:101C6000E86848B14369EB6003B19C6102B962B6B0
:101C7000447783689847F0E702B962B638BD00BF81
:101C80005C12FF1F0368C9B21B6818470368C9B21A
:101C90001B68184770B50C4B0C4D1A7C42F00206BD
:101CA00005EBC60482F001026060587C1A740028BB
:101CB00014BFC824882480F0010044EA014158740C
:101CC00045F8361070BD00BF5C12FF1F0000FF1FFB
:101CD000FFF78EB908B50846FFF7B2F9012008BD35
:101CE00008B50846FFF7ACF9012008BD10B5084655
:101CF00014461146FFF702FA204610BD38B50846D3
:101D00000D4602F01DFE044601462846FFF7F6F98F
:101D1000204638BDFFF778B9FFF728B9FFF784B937
:101D2000FFF744B9FFF72EB908B50846FFF7F1F9F8
:101D3000003018BF012008BD08B50846FFF708FAB3
:101D4000003018BF012008BD08461146FFF721BA30
:101D500070470846FFF744BAFFF75EBA10B5064B66
:101D6000144603EB5100B0FBF1F0FFF7B5FA204643
:101D7000BDE81040FFF77CBA000E2707034B03EBCA
:101D80005100B0FBF1F0FFF7A7BA00BF000E270724
:101D90002DE9F74FDFF8B8A2D1469AF80050AC4CC5
:101DA000EDB215F0040F2CD0AA4B1B7833B3AA4A1E
:101DB000917E01F0FF0321B1013BDBB2937603B9C1
:101DC00000BED27EA44E02F0FF03BAB1013BDBB2EB
:101DD000F3769BB9337F03F0FF077BB9306A28B1F4
:101DE0004388038000F024FE376207E000F0CEFE57
:101DF00010B100F01DFE01E00123F376042389F801
:101E0000003005F0080303F0FF01002B00F05982B9
:101E1000924B934D1B78DBB21C094FEA930740F0BD
:101E2000D28105EBC703596855F83730C3F38303F4
:101E3000013B0C2B00F2C381DFE813F08201820129
:101E4000C101C101C101C101C101C1019F01C101A4
:101E5000C101C1010D000A687F4C4B686262A36238
:101E600092B2804B45F8373040F281600023012167
:101E70008242E3622B61AB616174264617D8B2F5EA
:101E8000D06F80F01481B2F5817F00F0D28006D847
:101E9000802A00F0BD80822A00F0BD8021E140F25E
:101EA00002339A4200F0F480B2F5A06F1BE042F2D8
:101EB0002100824200F041810DD8B2F5086F00F098
:101EC000A280B2F5106F40F00C81624A94F826109F
:101ED00011701E460AE042F221218A4200F0FA8087
:101EE00042F221339A4200F00081FAE0AB191A6AFB
:101EF000170603D5586A083800F0EAFD0836802E28
:101F0000F4D1594FDFF864B100265BF826004FEAA0
:101F1000860830B14268009200F0DAFD009A10465F
:101F2000F7E7524B524A43F80800103348F80300D1
:101F300058F8020040B141680192009100F0C8FDDC
:101F40000099019A0846F5E742F80800494A48F81E
:101F50000200494A22F816003A78023A032A07D8C2
:101F6000DFE802F002040204002200E001223A70DD
:101F70000136042E07F10107C7D14049394F00232C
:101F80000B704FF001080E463D4A3E4B08EB020035
:101F9000434410F8010C9B0010F0080F18704FEA32
:101FA000880B21D000F0F2FD38B105EB4813083062
:101FB0005860354B45F83B3004E0337845F83B003A
:101FC0000133337000F0E2FD4BF0010338B105EB53
:101FD000C30E0830CEF8040045F8337004E045F82D
:101FE00033003378013333704BF0020008F10108FD
:101FF0004BF0030B0023B8F1050F45F8303045F8DE
:102000003B30C1D172E0134B1B78A3740B4670E0D8
:10201000A374E3746CE0228D02F07F02042A60D87E
:10202000A374E3749200194B9B5C9D0760D5A17467
:102030005EE0228D02F07F02042A52D8E38C002B4E
:102040004FD11249920011440A7822F002022CE08A
:1020500080200740A915FF1F5C12FF1F902007403A
:102060000000FF1FC80040008315FF1F8C12FF1FD8
:102070008815FF1F9815FF1FAA15FF1FA815FF1F22
:102080007885000030C8011088004000C02007405B
:10209000228D02F07F02042A23D8E38C0BBBA449D3
:1020A000920011440A7842F002020A701EE0E28CAB
:1020B000218DA04B5E68A6B11888904208D158883F
:1020C000884205D1120A032A0CBF33781B8911E01C
:1020D0000C33EFE76268226594F8262084F85420D8
:1020E00004E0934B0F221A7027E000231E4601E004
:1020F00002231236658D9D4228BF1D46402D2F4676
:1021000028BF402730463946FFF7C4FDED1B3E444B
:1021100003D1402F11D12F4603E0402D2F4628BF79
:10212000402730463946FFF7B5FDED1B3E4401D14F
:10213000402F02D1E662A4F8565001227E4B3DE0CA
:102140007E4B9A8C42F221039A4212D100237B4AA1
:10215000CC5C02F158001C540133072BF7D1936D6E
:102160000021862B08BF0F23084608BF9376FFF790
:1021700091FD734B45F8373021E0704EF76A97B107
:10218000B6F85640402C254628BF402538462946FB
:10219000FFF780FD601B80B2A6F8560008B9402DFD
:1021A00000D17819F062B28C644BB2F5A06F06D101
:1021B000002283F8252093F82620624B1A705E4B8C
:1021C00001221A7079E005EBC706013C726803F042
:1021D0000803A2F10800E4B203F0FF0E002B36D092
:1021E00000F076FC5848594A50F82410E9B14B6881
:1021F00040F8243001F108037360135D032B0BD802
:10220000DFE803F002040608032304E0022302E0EF
:10221000052300E00423135516F0080F0A8814BFA5
:10222000C823882343EA024345E0135D032B08D803
:10223000DFE803F043430204002300E001231355C9
:102240003BE016F0080F14BF03230223F7E755F80D
:1022500037301B0C99B222F8081C33B3374B22F8E5
:1022600006EC42F804EC4FEA840E03EB0E0CDCF8AB
:10227000302012B9CCF8300002E0DCF84020506089
:102280007344334A186432F81430194422F8141095
:1022900000F07CFC10B10830706006E02D4A45F873
:1022A000370013780133137007E02B4A244B16F0E4
:1022B000080F08BF134645F83730082389F8003067
:1022C0006BE5E8071ED51C481C4A234D022303700A
:1022D000224B117402F16006A0321D60DA605E606C
:1022E0009D6019619961124B0D221A701C4AFF23DF
:1022F00013702370117413711A4B9F221A700123EB
:10230000037012E0290604D5094B0D221A708023B0
:102310002370AA0705D5124A1378DBB21370022383
:102320002370EB0644BF1023237003B0BDE8F08F89
:10233000C02007400C850000942007405C12FF1F5E
:10234000C8004000982007408815FF1F8315FF1F15
:10235000AA15FF1FA815FF1F880040000000FF1FDF
:10236000882007408420074070B5194C94F8E0603D
:10237000254666BB00F028FC00F042FC00F08EFB16
:1023800000F030FCFEF734FE00F094FB84F8E060CF
:10239000EFF30583DBB9EFF3108372B6D4F8E400F2
:1023A00010B194F8E81011B18BB962B670BD01227A
:1023B00084F8E8204269C4F8E42002B1916103B9CD
:1023C00062B6002444778368984785F8E84070BD7A
:1023D0005C12FF1F72B60C4B0C4A0D491B68526809
:1023E000096862B6490102D5322B88BF0132C3F5B4
:1023F0006A33F02003F27F13B3FBF0F34FF47A70EB
:1024000000FB0230704700BF18E000E05C12FF1FC5
:1024100004ED00E038B50446FFF7DCFF054624B9BB
:1024200038BD013C0AD005F57A75FFF7D3FF401B94
:10243000B0F57A7FF5D2FFF797FFF6E738BD3F2872
:1024400010B52BD8164A02EBC00301295B6814466D
:1024500001D004290FD154F83020012082F88002E5
:102460004FF4A2721A601A6804290CBF42F02002CD
:1024700022F0200211E052F83000002280F8802281
:1024800011B94FF4807208E0022902D140F2031220
:1024900003E0032908BF4FF481721A6010BD00BF2A
:1024A000DC8500003F2810B518D80D4B53F83020BC
:1024B00092F880423CB1012311B182F8803010BD06
:1024C00082F8003110BD03EBC0035B681A6811B1DC
:1024D00042F0030201E022F002021A6010BD00BFC8
:1024E000DC85000010B5204B1A7992060FD51F4AE3
:1024F000D9791378507801333F2BC8BF002383422A
:1025000018BFD018C9B21EBFDBB281701370164855
:10251000C278D2B2130619D503791C0616D5134911
:1025200091F8424091F84330DBB29C4202D16C23D7
:10253000C3700BE00133282B28BF0023CC18DBB27B
:1025400094F84440E4B2C47181F84330510609D58F
:10255000054B1A79520605D5044A002182F86C1001
:102560002C22DA7010BD00BF00C006404813FF1FC8
:1025700010B5234B5A68920212D5224AD96892F8B4
:102580006D3092F86E0001333F2BC8BF00238342A9
:1025900006D0D018C9B2DBB280F86F1082F86D3067
:1025A00017498C6823021DD54B6818021AD5154AA5
:1025B00092F8AF0092F8B030DBB2984206D1124BDD
:1025C00000221A60012243F8042C0BE00133282B6F
:1025D00028BF0023D018DBB290F8B100C0B2C860A9
:1025E00082F8B030620209D5054B5B685B0205D505
:1025F000044A002382F8D930044A136010BD00BF9A
:1026000000400C404813FF1F5C0188435801884379
:1026100070B52F4A137913F0300F25D072B6937D21
:1026200003F0FF0423B9D3794023537462B61BE04F
:1026300062B6284991F8DA3091F8DB50DBB2EDB29E
:10264000581C402828BF0020A842D67918BF0B1874
:10265000F6B21CBF83F8DC600346601E10F0FF0476
:10266000EED1DBB281F8DA30194AD078C0B2060672
:1026700021D513791D061ED5164991F81C5191F8E4
:102680001D31EDB2DBB2AB420CD00133402B28BF81
:1026900000231479CC1894F81E41E4B2D471147D4F
:1026A000072CF0D9DBB281F81D31094B1A791406D9
:1026B00044BF7C22DA70410609D5054B1A795206CF
:1026C00005D5044A002182F85E113C22DA7070BD03
:1026D00000A006404813FF1F10B5224B1A7992063E
:1026E00013D5214AD97992F85F3192F8600101330C
:1026F0003F2BC8BF0023834218BFD018C9B21EBFEA
:10270000DBB280F8611182F85F311648C278D2B22C
:10271000130619D503791C0616D5134991F8A14162
:1027200091F8A231DBB29C4202D16C23C3700BE062
:102730000133282B28BF0023CC18DBB294F8A34127
:10274000E4B2C47181F8A231510609D5054B1A795A
:10275000520605D5044A002182F8CB112C22DA70EA
:1027600010BD00BF00D006404813FF1F70B52F4AB0
:10277000137913F0300F25D072B6937D03F0FF0468
:1027800023B9D3794023537462B61BE062B628495B
:1027900091F8CC3191F8CD51DBB2EDB2581C402804
:1027A00028BF0020A842D67918BF0B18F6B21CBF6C
:1027B00083F8CE610346601E10F0FF04EED1DBB259
:1027C00081F8CC31194AD078C0B2060621D51379E8
:1027D0001D061ED5164991F80E5291F80F32EDB232
:1027E000DBB2AB420CD00133282B28BF0023147975
:1027F000CC1894F81042E4B2D471147D072CF0D9AF
:10280000DBB281F80F32094B1A79140644BF7C22DF
:10281000DA70410609D5054B1A79520605D5044AE6
:10282000002182F838123C22DA7070BD00B00640F8
:102830004813FF1F30B5A8B10268134602F18005A6
:102840001C466BB1AB4208D013F8011B39B12029EB
:10285000F6D10021631C217002E0002300E00B464A
:10286000036000E00246104630BDF8B50E4B036031
:1028700000251423044643608560C5600561082077
:1028800017460E4605F050FC2776056045606061EE
:1028900084F8395084F83A502022314604F1190066
:1028A00005F0A0FC2046F8BD688500000EB403B515
:1028B00003AA054852F8041B019200F027FE02B05B
:1028C0005DF804EB03B07047D807FF1FF8B5474C1D
:1028D00094F83932002B6ED0454A464B11680906F0
:1028E000FCD4196811F08001F8D172B694F839322D
:1028F000002B5FD0404B414A1F6804330C321B68E9
:1029000052F80C6C52F8085C52F8040C12683B4404
:1029100033442B4403441344C3F34E03384A43F473
:1029200000431360374B1F68043340321B6852F872
:102930000C6C52F8085C52F8040C12683B443344A7
:102940002B4403441344C3F34E032F4A43F4004380
:1029500013602E4B02F500221F68043310321B68EF
:102960001668556890683B440C32334412682B4417
:1029700003441344C3F34E03254A43F40043136056
:10298000244B1F68043340321B6852F80C6C52F819
:10299000085C52F8040C12683B4433442B44034453
:1029A0001344C3F34E031C4A43F4004313600F4B1C
:1029B00083F8391262B672B6184D0E2601272E60C2
:1029C00084F83A7262B672B62B681B0607D494F884
:1029D0003A32002BF3D062B6FFF7C6FCF3E7104B98
:1029E0001868002384F83A3262B6F8BD4813FF1F16
:1029F00024B0034024B00B4038B0034040B0034043
:102A00002CB0034058B0034030B0034038B00B4006
:102A10002CB00B4058B00B4030B00B4000B003401E
:102A200010B00340014B93F8000270470418FE43B6
:102A300072B6174A92F83E32032B08D8DFE803F04B
:102A400014021604022100E00421124B10E0D2F817
:102A50004C120F4B11B9C3F84C0202E0D3F85C32B0
:102A60005860C2F85C0211E0032100E005210A4B26
:102A700082F83E1213F0080F00F1080201885A6034
:102A800014BFC822882242EA01421A6062B6704727
:102A90004813FF1F9800FF1F9000FF1F044B18787A
:102AA0005A78C0B2D3B2984238BF4030C01A70478B
:102AB0004813FF1F054B93F86D0093F86E20C0B2CA
:102AC000D3B2984238BF4030C01A70474813FF1F36
:102AD0002DE9F043264D274BDFF8AC90DFF898E066
:102AE000AC464FF00008C31A4822B3FBF2F60B2E97
:102AF0003BD895F860321E4C73B395F861325BB3E6
:102B000072B6012309EB030212F8012C12071CD53F
:102B10009900194A5EF831702FB902EB431308305F
:102B20005860164B09E041F001015EF8317067B959
:102B300002EBC10308305860114B42F8313094F871
:102B40006032013B84F860320EE00133052BD9D1AD
:102B500062B68CF86082CAE772B60A494FF000424A
:102B60000B69F24013430B6162B6BDE8F08300BF0E
:102B70004813FF1FD003FF1F0000FF1F8800400005
:102B8000C8004000D807FF1F7885000010B572B656
:102B90000B480269B2FA82F10B2902DD62B600200D
:102BA00010BD4FF00043CB4022EA0302026162B63F
:102BB000044C48234B43E0180022E250426010BD11
:102BC000D807FF1FD003FF1F054B93F8DA0093F8D7
:102BD000DB20C0B2D3B2984238BF4030C01A704731
:102BE0004813FF1F054B93F85F0193F86021C0B2B3
:102BF000D3B2984238BF4030C01A70474813FF1F05
:102C0000054B93F8CC0193F8CD21C0B2D3B29842D2
:102C100038BF4030C01A70474813FF1F014BB3F84C
:102C2000660270474813FF1F10B5036814465B68BF
:102C30009847204610BD00BF08B5FEF765FF00F0BD
:102C40007FF9BDE8084000F0F1BAF8B5012300258E
:102C5000C373037357270223837304460570C5713A
:102C600005614573878038460E4605F05DFA0346D8
:102C7000A06028B13A46294600F0EEFA1D2300E094
:102C8000A08063802378A6713BB101213046FFF715
:102C9000D6FB00213046FFF705FC2046F8BD80B585
:102CA000FDF72DFCDFF8C48007460025012658F803
:102CB0002540397C2046FEF7F1FD94F906000028F6
:102CC00007DB0121C0B2FFF7BAFB0021A079FFF7B3
:102CD000E9FB267020460135FEF706FE082DE6D1F9
:102CE0001F4C01210D20FFF7AAFB01210D20FFF74A
:102CF000D9FB4FF47A71D4F88C0200F065F804F532
:102D00002376254656F8040F08B9164E09E00368E5
:102D10001B689847F6E7144C54F8040FC0B9FFF746
:102D200023FBD5F88C72384600F03BF80028F2D02F
:102D3000347D0D202146FFF7B5FB14F1FF3418BF99
:102D400001244FF47A713846347500F03DF8E2E71B
:102D500090F83A30002BDFD103685B689847DBE7D7
:102D60004813FF1FD807FF1FD415FF1FB415FF1FFF
:102D7000704738B500F1380500F1500455F8040FDC
:102D800003681B689847A542F8D102210E20BDE8D0
:102D90003840FFF754BB10B5044605F0CDF9204686
:102DA00010BD436882B053B1064A006812680192B0
:102DB000019A101A83422CBF0020012000E001205C
:102DC00002B070476012FF1F044B416082B01B6865
:102DD0000193019B036002B0704700BF6012FF1FA8
:102DE000F8B50646FDF78BFB374D04782B7AA342E6
:102DF00006D006EB8303D86B03689B6898472C7258
:102E00002B7A314F06EB8303D86B03685B689847D6
:102E1000706DFFF7C6FF08B3FFF758FD3B7CFC68F9
:102E20000133DBB22044032BF8603B7412D9040950
:102E3000FC60FDF764FB077CFDF761FB0378032B67
:102E400005D0BB1C9C422ED2023FBC422BD9002392
:102E50002B74EB603C21706DFFF7B6FF1B4FFFF743
:102E6000E1FD3B788342044605D02821B06DFFF791
:102E7000ABFF01236B74B06DFFF793FF88B16B7CE0
:102E80007BB1114B00225A745CB9FDF738FB037813
:102E90000133DBB2052B0CD9FDF731FB2146FEF7E0
:102EA000B7FC3C70F8BDFDF72AFBE1B2FEF7E0FD90
:102EB000CDE7FDF724FB0546FDF721FB0178013145
:102EC000C9B22846EBE700BFEC15FF1FF007FF1F54
:102ED0002DE9F041446806460F464CB320213846A0
:102EE00000F00AFA00243A46D31B984205DD12F896
:102EF000013B83EA44135C40F6E77568B4FBF5F3E5
:102F00004FF0010805FB1344A54211D9336853F86B
:102F1000240068B120223946043001F07FFD38B129
:102F20004444A54202D908F10208EDE7641BFAE720
:102F30007068844234BF20464FF0FF30BDE8F08116
:102F40002DE9F0419A4E3468002C40F0CA805C2094
:102F500005F0EAF8054603229649DFF8CC82FFF730
:102F600084FCC5F80080082005F0DEF80746046000
:102F700044606865082005F0D7F804604460A865DF
:102F8000242005F0D1F88C4A02608C4A42618C4AB8
:102F9000C261446084608461046200F114010346EC
:102FA00000F10C0203C9EB6382E80300242005F062
:102FB000BBF8844A0260844A4261844AC261446028
:102FC00084608461046200F11401034600F10C0284
:102FD00003C92B6482E80300242005F0A5F87C4A8D
:102FE00002607C4A42617C4AC261446084608461C0
:102FF000046200F11401034600F10C0203C96B6482
:1030000082E80300402005F08FF8744A0260012234
:1030100080F83C2080F83D20714A4261714AC261CB
:10302000714A4262714AC262714A4263446084607A
:103030008461046284620463846300F114010346C2
:1030400000F10C0203C9AB6482E803003C2005F0E8
:103050006BF8684A0260684A4261684AC261684A1D
:103060004262684AC26244608460446384638461EB
:1030700004628462046300F11401034600F10C024F
:1030800003C9EB6482E80300442005F04DF808F121
:10309000180202601422C263042280F840205A4AB7
:1030A00042615A4AC2615A4A42625A4AC262446002
:1030B00084604463846380F8414080F842408461C6
:1030C00004628462046300F11401034600F10C02FF
:1030D00003C92B6582E803003C213846FFF774FEE4
:1030E00035604D4F33683B60FDF7B8FA7368786020
:1030F000002B50D1C82005F017F80122054647499A
:10310000FFF7B3FB464B2B600C2005F00DF8412474
:103110008046A31E012B13D9012C0FD003230122BB
:1031200003FB03F18C4208D3B4FBF3F103FB114121
:10313000002908BF00220233F2E70AB90234E8E7A7
:10314000B4F1FE5F4FF0000398BFA000C8F808304C
:1031500088BF4FF0FF3004F0E7FF002808BF0024CD
:103160000023C8F80000C8F8044018469C424FF0FD
:10317000000105D0D8F8002042F823000133F5E71C
:10318000C5F8BC80C5F8C010C5F8C41005F1C00072
:10319000FFF71AFE75607368BB60082004F0C4FF77
:1031A0000023036043601F4B1860BDE8F08100BF3F
:1031B000EC15FF1FDC870000B8830000E90E00005B
:1031C000F1130000DC830000A1150000111A0000BB
:1031D0001084000083150000B51900002C84000045
:1031E000651500003B150000E1140000BD1400004F
:1031F000AD1A000080830000370F0000A50B00000F
:1032000049140000050F00003D060000CB0400003B
:103210007D05000029050000D815FF1F308800003B
:1032200058880000D415FF1F0488000038B504201A
:1032300004F07AFF064C074D04F194030360E86044
:10324000042004F071FFA8340460A86138BD00BFF9
:10325000DC870000F007FF1F01B5EAB1102A17DB79
:1032600000F0070333B1C3F10803D21A013B00F8A1
:10327000011BFBDCC9B241EA012141EA01418C4654
:10328000D308013BE0E8021CFBDC12F0070203D08C
:10329000013A00F8011BFBDC01BD00BF014B1868BF
:1032A000704700BF400CFF1F70B50F4E0F4D761BCF
:1032B000B61018BF002405D0013455F8043B9847D8
:1032C000A642F9D10A4E0B4D761B05F043FCB61011
:1032D00018BF002406D0013455F8043B9847A64295
:1032E000F9D170BD70BD00BF608B0000608B000025
:1032F0006C8B0000608B000099B103789BB110B417
:103300000144431C03E01A785C1C32B12346994205
:10331000F9D1081A5DF8044B7047181A5DF8044B90
:103320007047084670471846704700BF2DE9F84FB0
:10333000DDF828900E460746154698468B4600E075
:10334000A3465C46484614F801AB00F05BFA5044D3
:10335000407800F0080000F0FF0C0028F0D1514642
:103360002D2961D02B2904BF9BF801100BF1020419
:10337000B8F1000F0CD0B8F1100F5CD04FF0FF3354
:10338000B3FBF8F308FB03FA6FEA0A0AC14607E049
:10339000302961D04FF00A083D4BC1464FF0050A75
:1033A0004FF0000E704606E02FD009FB00204FF0D2
:1033B000010E14F8011BA1F13002092A05D9A1F16F
:1033C0004102192A0BD8A1F1370290450FDDBEF159
:1033D000FF3FEED09842E7D94FF0FF3EE9E7A1F179
:1033E0006102192A03D8A1F157029045EFDCBEF122
:1033F000FF3F11D0BCF1000F00D0404255B1BEF1EB
:10340000000F0DD12E60BDE8F88F5245CDDD4FF095
:10341000FF3ECEE7BDE8F88F22233B60704645B300
:10342000661E2E60BDE8F88F0BF102049BF80110B8
:103430004FF0010C9CE730291DD1237803F0DF0306
:10344000582B1ED14FF010096178C8464FF00F0A73
:1034500002346FF07043A3E7237803F0DF03582BA7
:10346000F0D04FF00808C1464FF0070A6FF06043F4
:1034700096E7BDE8F88F4FF00F0A6FF07043C14632
:103480008EE7C1464FF00F0A6FF0704388E700BF28
:103490009999991930B5084C084B25686C6B83B025
:1034A000002C08BF1C46009413460A4601462846D5
:1034B000FFF73CFF03B030BD400CFF1F440CFF1F63
:1034C000F0B5ADF5057D04AD00930F4613464FF4FE
:1034D000007403AA29460394064601F0EFFA88B166
:1034E000044602463946039B304600F01BF8AC42C6
:1034F000039004D03046214600F09CF803980DF567
:10350000057DF0BD4FF0FF30F9E700BF10B4044C6B
:1035100013460A46014620685DF8044BFFF7D0BF0A
:10352000400CFF1F70B50D46084C114606461A4662
:10353000284600232360FFF777FB431C00D070BDB3
:103540002368002BFBD0336070BD00BF3416FF1F13
:10355000024B13B1024800F005B8704700000000AC
:1035600071350000002301461A46184601F0E4BAFE
:1035700038B5074D074C2C1BA41005D0013C55F85D
:10358000043D9847002CF9D1BDE8384005F0EEBA6B
:103590000000000000000000F8B5234F0C4606466E
:1035A00000F0AAFCBB685D6825F00305291B01F645
:1035B000EF7121F47F6121F00F01A1F58054B4F582
:1035C000805F07DB0021304601F09CF9BB682B448B
:1035D000984204D0304600F091FC0020F8BD6142D2
:1035E000304601F08FF901300DD0104BBA681968E0
:1035F0002D1B45F001053046091B5560196000F090
:103600007DFC0120F8BD0021304601F07BF9BA684D
:10361000831A0F2BDEDD064C0449246843F00103B6
:10362000001B53600860D5E7B00DFF1F0C16FF1F8D
:10363000BC11FF1F002945D02DE9F0410D46804601
:1036400000F05AFC55F8047C6A4927F00103A5F103
:103650000804E2188E685068B24220F0030062D07D
:10366000FE0750600BD455F8087CE41B01F1080EEE
:10367000A56875453B446FD0E768EF60BD601518DD
:103680006D68ED0742D543F001026260E350B3F587
:10369000007F18D2DB085A1C4D6851F83270A760C1
:1036A00001209B1000FA03F301EBC2001D43083810
:1036B000E0604D6041F83240FC604046BDE8F041BA
:1036C00000F01CBC70475A0A042A53D89A0902F128
:1036D00039077F0002F1380501EB870051F82720F8
:1036E0004449083890424DD0516821F003018B4283
:1036F00002D292689042F7D1D068E060A260846004
:10370000D4604046BDE8F04100F0F8BB95683A4F00
:10371000BD4203443FD0D068E86043F001028560B9
:103720006260E350B3E7FF07034407D455F8082C61
:10373000A41A1344A068E268C26090602F4A12681D
:1037400043F00100934260608C60B6D32C4B40463E
:103750001968FFF721FFB0E711184968C90744D479
:103760009168D268CA60034443F0010091606060D0
:10377000E350A2E7142A17D802F15C077F0002F198
:103780005B05A9E7AA104B68012505FA02F213436D
:103790004B600246B1E743F001024C610C61E56009
:1037A000A5606260E35088E7542A06D81A0B02F13C
:1037B0006F077F0002F16E058EE7B2F5AA7F06D88B
:1037C000DA0B02F178077F0002F1770584E740F217
:1037D0005450824206D89A0C02F17D077F0002F114
:1037E0007C0579E7FE277E2576E743F001026260DB
:1037F000E35062E7B00DFF1FB80DFF1FB811FF1FA8
:103800000816FF1FD0F8EC00704700BF044A054BB4
:103810001268506B002808BF1846F030704700BF90
:10382000400CFF1F440CFF1F2DE9F04F01F10B0569
:10383000162D83B0064640F29F8035F0070500F153
:10384000BF80A94200F2BC8000F056FBB5F5FC7FBA
:10385000C0F09C826B0A00F0BA80042B00F28381D6
:10386000A80900F1390E4FEA4E033830C44F07EB78
:103870008303A3F108015C68A14207D1ACE0002AF0
:1038800080F2AC80E468A14200F0A680636823F077
:1038900003035A1B0F2AF2DDB9493C6901F1080EF6
:1038A000744500F0B381636823F003035A1B0F2AA9
:1038B00000F39981002AC1F814E0C1F810E080F209
:1038C0009E80B3F5007F80F06781DB0803F1010C77
:1038D00001229B1002FA03F34A6851F83C80C4F8B5
:1038E000088001EBCC091A43A9F10803E3604A60A0
:1038F00041F83C40C8F80C40831001249C4094429D
:1039000000F28A80144206D120F0030064001442C1
:1039100000F10400FAD007EBC009CC468046DCF881
:103920000C108C4507D173E1002A80F28181C968AF
:103930008C4500F06D814B6823F003035A1B0F2A5E
:10394000F2DD0C46D1F80CC054F8088F4B1945F045
:1039500001054D6042F00101C8F80CC03046CCF8BA
:1039600008807B613B61C3F80CE0C3F808E0596054
:103970009A5000F0C3FA1FE0102921D800F0BCFAD9
:103980001025062302207E4F07EB8303A3F10802D4
:103990005C68944200F045816368E168A56823F0A3
:1039A0000303234430465A68E96042F001028D6007
:1039B0005A6000F0A3FA0834204603B0BDE8F08F47
:1039C00000240C232046336003B0BDE8F08F802331
:1039D0004FF0400E3F2049E770465DE72344E16821
:1039E0005A68A56842F00102E96030468D605A606D
:1039F00000F084FA0834204603B0BDE8F08F234479
:103A000030465A6842F001025A6000F077FA0834F2
:103A1000204603B0BDE8F08FBC68636823F003085C
:103A2000A84504D3C5EB08030F2B00F38C80554B3E
:103A3000DFF860911A68D9F8003001332A4404EBAA
:103A4000080A00F0608102F580520F3222F47F6292
:103A500022F00F0211463046019200F053FFB0F100
:103A6000FF3F8346019A00F05881824500F2FC80B6
:103A7000454B1968DA451144196000F05381D9F8B3
:103A80000000DFF810E101301BBFCAEB0B0A514404
:103A9000CEF800B019601BF0070100F01781C1F1EA
:103AA0000800C1F58051834408315A44C2F30B0227
:103AB000C2EB010949463046019300F023FF431C45
:103AC000019B00F03F81CBEB00024A4442F001022F
:103AD0001968C7F808B04944BC42CBF80420196003
:103AE000DFF8A49016D0B8F10F0F40F2FD806268A5
:103AF000A8F10C0323F00703E01802F001024FF0D5
:103B0000050E1A430F2B6260C0F804E0C0F808E00D
:103B100000F21C811D4BBC681A68914288BF196075
:103B20001B4B1A689142626888BF196022F0030239
:103B30009542A2EB050301D80F2B04DC304600F0C0
:103B4000DDF9002438E7621943F0010345F001056F
:103B500065603046BA60536000F0D0F90834204602
:103B600003B0BDE8F08F142B71D9542B00F2A48060
:103B7000280B00F16F0E4FEA4E036E3076E600BF61
:103B8000B00DFF1F0816FF1F0C16FF1F0416FF1FA6
:103B90000016FF1FBC11FF1F5A0A042A5ED9142AFF
:103BA00000F2B38002F15C0149005B3207EB810C4B
:103BB00057F82110DFF8DC81ACF1080C8C4500F0DF
:103BC00088804A6822F00302934202D289688C45B9
:103BD000F7D1D1F80CC07A68C4F80CC0A160CCF859
:103BE0000840CC6088E6631942F0010745F0010502
:103BF000656030464B610B61C3F80CE0C3F808E028
:103C00005F609A50083400F079F9D5E64A6873E6A7
:103C100008F1010818F0030F0CF1080C7FF47FAED7
:103C200030E0DC68A34208BF02303FF435AEB3E6B3
:103C30000B440C465A68C96854F8085F42F0010208
:103C40005A603046E9608D6000F058F9B4E603F13F
:103C50005C0E03F15B004FEA4E0307E69A0902F19E
:103C6000390149003832A1E7BC424A4B3FF400AF6A
:103C70009C68626822F003025AE759F808399945AE
:103C800040F0828010F0030F00F1FF30F5D17B6827
:103C900023EA04037B6064009C423FF6BDAE002C27
:103CA0003FF4BAAE1C4240467FF435AE64001C427D
:103CB00000F10400FAD02EE6B3F5AA7F18D8E80B7D
:103CC00000F1780E4FEA4E037730CFE54FF4805184
:103CD000EBE60121D8F80430921001FA02F21A43FF
:103CE000C8F80420614677E70123CBF8043025E7C4
:103CF00040F25452934220D8A80C00F17D0E4FEAB6
:103D00004E037C30B2E51032A4E6542A26D81A0BB2
:103D100002F16F0149006E3248E7BC68626822F028
:103D2000030205E7CAF30B0000287FF4A8AE424463
:103D3000BB6842F001025A60ECE6FE234FF07F0EB2
:103D40007E2093E501224FF00009C1E604F108014D
:103D50003046FFF76FFCD9F80010DBE6B2F5AA7F1A
:103D600005D8DA0B02F17801490077321EE740F2FC
:103D700054518A4205D89A0C02F17D0149007C32E7
:103D800014E7FE217E2211E77B6884E7E808431CE4
:103D90005B00F8E5B00DFF1F82B049B15AB16BB1BD
:103DA00013780B601278101C18BF012002B0704706
:103DB00001A9002AF3D1104602B070476FF001004C
:103DC000F4E700BF844641EA000313F003036DD11A
:103DD000403A41D351F8043B40F8043B51F8043BCE
:103DE00040F8043B51F8043B40F8043B51F8043BD5
:103DF00040F8043B51F8043B40F8043B51F8043BC5
:103E000040F8043B51F8043B40F8043B51F8043BB4
:103E100040F8043B51F8043B40F8043B51F8043BA4
:103E200040F8043B51F8043B40F8043B51F8043B94
:103E300040F8043B51F8043B40F8043B51F8043B84
:103E400040F8043B51F8043B40F8043B51F8043B74
:103E500040F8043B403ABDD2303211D351F8043B14
:103E600040F8043B51F8043B40F8043B51F8043B54
:103E700040F8043B51F8043B40F8043B103AEDD2C3
:103E80000C3205D351F8043B40F8043B043AF9D214
:103E9000043208D0D2071CBF11F8013B00F8013BE7
:103EA00001D30B8803806046704700BF082A13D3F4
:103EB0008B078DD010F003038AD0C3F10403D21A0C
:103EC000DB071CBF11F8013B00F8013B80D331F840
:103ED000023B20F8023B7BE7043AD9D3013A11F8C0
:103EE000013B00F8013BF9D20B7803704B7843702B
:103EF0008B78837060467047704700BF704700BF83
:103F0000C36C70B505460C464BB153F8240080B124
:103F1000026843F8242000230361C36070BD21229E
:103F2000042100F05BFEE86403460028EDD1002088
:103F300070BD012101FA04F6721D2846920000F0BE
:103F40004DFE0028F3D044608660E4E731B1C36CD5
:103F50004A6853F82200086043F82210704700BFF7
:103F6000F0B50C6983B00D46064601F1140E00272A
:103F7000DEF8000081B202FB01310B0C000C02FBE9
:103F8000003389B2013701EB0341BC424EF8041BF8
:103F90004FEA1343ECDC3BB1AA68944207DA05EB25
:103FA0008402013453612C61284603B0F0BD696876
:103FB000019301313046FFF7A3FF2A69023205F170
:103FC0000C01074692000C30FFF7FCFEF26C6968AA
:103FD000019B52F82100286042F821503D46DEE75F
:103FE000030C1B04B3B90004102310F07F4F04BF6F
:103FF0000002083310F0704F04BF0001043310F0CA
:10400000404F04BF80000233002807DB420003D486
:10401000202070470023E8E7581C70471846704777
:10402000036813F0070207D0D90720D49A0720D4D9
:104030009B0803600220704799B209B91B0C10223B
:1040400013F0FF0F04BF1B0A0832190704BF1B0936
:104050000432990704BF9B080232D90704D45B08D5
:1040600001D12020704701320360104670470020C4
:1040700070475B0803600120704700BF10B50C4615
:104080000121FFF73DFF01224461026110BD00BF25
:104090002DE9F04F0D691769BD4283B00C461646F5
:1040A00004DA2A4634463D460E461746A368616840
:1040B00005EB07089845C8BF0131FFF721FF00F164
:1040C000140C0CEB8809CC45009005D26346002106
:1040D00043F8041B9945FBD806F1140202EB870A4A
:1040E00004F11403524503EB850E54D2CDF804902D
:1040F000994652F8043B1FFA83FBBBF1000F20D016
:1041000000204F466646054600E01E4657F8044B21
:104110003068A1B283B20BFB0131240C000C4B19A7
:104120000BFB040000EB134099B2334641EA004117
:10413000BE454FEA104543F8041BE6D8756052F8B7
:10414000043C5FEA134B20D0DCF800306746184689
:104150004D46002100E037462C88000C0BFB040084
:1041600001449CB23E4644EA014346F8043B786869
:1041700055F8044B83B2240C0BFB043404EB1143BD
:10418000AE454FEA1341E6D87B6092450CF1040C32
:10419000AFD8DDF80490B8F1000F0BDD59F8043CFE
:1041A000A9F104091BB105E059F8043D13B9B8F1B0
:1041B0000108F9D10098C0F8108003B0BDE8F08F75
:1041C00012F003032DE9F041144607462ED10E46A6
:1041D000A4101CD0BD6C95B3E3074FF0000806D4C3
:1041E000641014D02868A8B10546E307F8D52A461C
:1041F00031463846FFF74CFFB6B17268FB6C64106D
:1042000053F82210316043F822600646EAD1304666
:10421000BDE8F0812A4629463846FFF739FF286075
:10422000C0F800800546E0E70646D9E75A1E0B4D68
:10423000002355F82220FFF793FE0646C8E7012128
:104240003846FFF75DFE40F27121012200234161F3
:1042500002610546B8640360BEE700BFD089000074
:104260002DE9F04791460A698B684FEA691404EB1F
:10427000020808F101059D420E468246496804DDA8
:104280005B009D4201F10101FADC5046FFF738FE68
:10429000002C00F1140238DD02EB8403002142F807
:1042A000041B9342FBD1346906F1140119F01F0974
:1042B00001EB840E21D0C9F1200200240F6807FA17
:1042C00009FC4CEA04049C4643F8044B51F8044BA7
:1042D0008E4524FA02F4F1D8CCF804400CB108F170
:1042E0000205DAF84C307268013D53F8221005617E
:1042F000316043F82260BDE8F087043B51F8042B9D
:1043000043F8042F8E45F9D8EBE71346CBE700BFFF
:1043100002690B69D21A13D19B001430143119446D
:1043200010B4034401E098420CD253F8044D51F804
:10433000042D9442F7D009D301205DF8044B704757
:104340001046704700205DF8044B70474FF0FF3077
:10435000F3E700BF2DE9F8430B690F4611695B1ABB
:10436000002B904617D1890007F1140208F11405BB
:104370005318294401E09A425ED253F8046D51F873
:10438000044DA642F7D060D23B46144647464FF054
:104390000109984606E05DDB07F1140502F11404FB
:1043A0004FF000097968FFF7ABFDD8F810303E698F
:1043B000C0F80C9004EB830CA64605EB860700F1D1
:1043C000140400235EF8041B55F8048B8AB213FA18
:1043D00088F3090C9A1AC1EB184303EB224392B2FB
:1043E00042EA0342F44544F8042B4FEA2343E9D858
:1043F000AF4217D9A446294651F804EB13FA8EF2BE
:10440000131403EB1E4392B242EA03428F424CF86C
:10441000042B4FEA2343EFD8ED433D4425F0030539
:1044200004352C44043C22B954F8043D013E002BD1
:10443000FAD00661BDE8F8830021FFF761FD012293
:10444000002302614361BDE8F8832C464FF0000968
:104450001546A7E73B4607F1140408F11405474643
:104460004FF0010998469DE72DE9F04357EC106B9A
:1044700083B0884601213C46C7F30A551746FFF72B
:104480003FFDC4F3130481460DB144F4801401943C
:104490001EB302A840F8086DFFF7C2FD002834D112
:1044A0009DE80C00C9F81420002B0CBF012102214B
:1044B000C9F81830C9F81010DDB909EB8103A0F272
:1044C0003240C8F800001869FFF78AFDC0EB4110C0
:1044D0003860484603B0BDE8F08301A8FFF7A0FDAF
:1044E000019BC9F8143001212030C9F81010002DAB
:1044F000E3D0A5F233450544C0F13500C8F80050BB
:104500003860484603B0BDE8F0839DE80C00C0F178
:10451000200103FA01F10A43C3400193C9F81420B2
:10452000C2E700BF2DE9F04F174683B0002900F025
:10453000C1800E46814607F10B05FFF7DDFC56F8FA
:1045400004EC162D2EF00304A6F1080840D8102222
:104550001546AF4241D8944275DAC94B996808EBC9
:1045600004008842416800F0D98021F0010303442F
:104570005B68DB077DD51EF0010F35D03946484614
:10458000FFF752F90746E0B156F8043C23F0010367
:104590004344A0F108029A4200F04481221F242AD9
:1045A00000F23181132A00F2048103463246116879
:1045B00019605168596092689A6031464846FFF721
:1045C00039F84846FFF79AFC384603B0BDE8F08F4B
:1045D00025F00705002D2A46BBDA0C230020C9F878
:1045E000003003B0BDE8F08F56F8083CC3EB080A72
:1045F000DAF8043023F0030C04EB0C039342BDDB28
:104600005746DAF80C1057F8080F221F242AC16009
:10461000886000F21781132A40F212813168CAF8CB
:1046200008107168CAF80C101B2A00F22B8108369A
:104630000AF110023168116071685160B1689160CF
:104640003E461C46D046631B0F2B1DD8D8F80430BD
:1046500003F0010323434444C8F80430636843F083
:10466000010363604846FFF749FC304603B0BDE8EC
:10467000F08F21F003012144914221DBC36882685D
:104680000C46D3609A60DEE7D8F8042008EB0501F9
:1046900002F00102154343F001020B44C8F8045034
:1046A0004A605A6842F0010208315A604846FEF7F3
:1046B000C1FFD7E7114603B0BDE8F04FFFF7B4B82C
:1046C0001EF0010F7FF45AAF56F8083CC3EB080AFE
:1046D000DAF8043023F0030C01EB0C0E96458BDB6B
:1046E000C36882685746D3609A6057F8081FDAF8A3
:1046F0000C30CB60221F242A996000F29980132A83
:1047000062D93368CAF808307368CAF80C301B2ABB
:1047100000F2A08008360AF1100356E021F0030BE6
:10472000A34405F11000834559DA1EF0010F7FF410
:1047300025AF56F8081CC1EB080ADAF8041021F07E
:10474000030CE34458453FF757AF5746DAF80C10CF
:1047500057F8080F221F242AC160886000F2B48035
:10476000132A40F2A5803168CAF808107168CAF8A7
:104770000C101B2A00F2AF8008360AF110023168D3
:10478000116071685160B16891600AEB0501C5EB79
:104790000B0242F0010299604A60DAF8043003F03B
:1047A00001031D434846CAF80450FFF7A7FB3846EB
:1047B0005CE733680360736843601B2A27D800F105
:1047C000080306F10802F2E63B4632681A60726896
:1047D0005A60B2689A603E467446D04633E708EBAA
:1047E0000501C5EB0B0B4BF0010299604A6056F8CE
:1047F000043C03F001031D43484646F8045CFFF700
:104800007DFB304632E7314601F0C8F9D5E6B368A2
:104810008360F368C360242A28D000F1100306F1F6
:104820001002C4E650F8043C23F003031C440AE7DA
:10483000314638467446D04601F0B0F93E4602E7AC
:104840003A46F7E6314638461C46D04601F0A6F90E
:104850003E46F8E6B368CAF81030F368CAF8143078
:10486000242A1BD010360AF11803AEE7336903611E
:104870007369436106F1180200F1180397E600BF5F
:10488000B00DFF1FB168CAF81010F168CAF8141013
:10489000242A0FD010360AF11802CBE63369CAF881
:1048A00018307369CAF81C3018360AF120038CE7F7
:1048B0003A4664E73269CAF818207269CAF81C20BF
:1048C00018360AF12002B5E631463846019301F068
:1048D00065F9019B59E7B168CAF81010F168CAF888
:1048E0001410242A03D010360AF1180247E732695F
:1048F000CAF818207269CAF81C2018360AF120027A
:104900003DE700BF38B5074C002305460846236045
:10491000FCF71EFD431C00D038BD2368002BFBD0E4
:104920002B6038BD3416FF1FFFFFFFFFFFFFFFFFA7
:10493000FFFFFFFFFFFFFFFFFFFFFFFFFFFFFFFF87
:1049400090F800F06DE9024520F007016FF0000CCF
:1049500010F0070491F820F040F049804FF0000477
:104960006FF00700D1E9002391F840F000F1080052
:1049700082FA4CF2A4FA8CF283FA4CF3A2FA8CF38A
:104980004BBBD1E9022382FA4CF200F10800A4FAF1
:104990008CF283FA4CF3A2FA8CF3E3B9D1E9042345
:1049A00082FA4CF200F10800A4FA8CF283FA4CF37C
:1049B000A2FA8CF37BB9D1E9062301F1200182FA36
:1049C0004CF200F10800A4FA8CF283FA4CF3A2FA3C
:1049D0008CF3002BC6D0002A04BF04301A4612BA4A
:1049E000B2FA82F2FDE8024500EBD2007047D1E94D
:1049F000002304F00305C4F100004FEAC50514F0DC
:104A0000040F91F840F00CFA05F562EA05021CBFAC
:104A100063EA050362464FF00004A9E7002A41D08B
:104A200040EA010313F00303F0B425D1032A23D98C
:104A300004680D68AC421FD1043A35D0A4F10135A9
:104A400025EA040414F0803F31D1071D0D1D0DE04F
:104A500057F8043B0E68A3F10134B34224EA03047F
:104A60000AD1043A20D014F0803F23D1032A2946EA
:104A7000384605F10405EBD803780C789C4202F126
:104A8000FF320CD182B114B916E06AB17BB110F8D3
:104A9000013F11F8014FA34202F1FF32F5D0181B7C
:104AA000F0BC7047104670471046F0BC704718467F
:104AB000F0BC70470020F3E72046F1E770B51546DB
:104AC0009AB0146809B1002C1AD100244FF4227254
:104AD000ADF80C20009404941A464FF6FF761E9B06
:104AE000029469460594ADF80E6001F0BDF8002807
:104AF00011DB009B286000221A7004981AB070BD68
:104B00004FF4C16200910491ADF80C20E4DA8B23DC
:104B100003600020F2E70020F0E700BF21B1FF2A88
:104B200004D80A7001207047084670478A23036042
:104B30004FF0FF30704700BF2DE9F047254C256846
:104B4000D5F848410646884692469946C4B36068FF
:104B50001F2817DC431C76B104EB80050122C5F841
:104B600088A0D4F8881182401143022EC4F888111D
:104B7000C5F808911ED00230636044F82080002000
:104B8000BDE8F087144B03B34FF4C87003F0CCFAC0
:104B90000446D0B1D5F84831002780E88800C5F830
:104BA000484138460123C4F88871C4F88C71002E3E
:104BB000E1D0D1E7D4F88C110A43C4F88C21DAE7AC
:104BC00005F5A674C5F84841C1E74FF0FF30BDE8D0
:104BD000F08700BFCC8800002981000010B502FBDF
:104BE00001F1FEF721FE0446D8B150F8042C22F062
:104BF0000302043A242A18D8132A14D900231B2AA2
:104C00000360436016D9242A8360C36011BF00F19A
:104C100010020361436100F1180200231360536026
:104C20009360204610BD0246F7E70021FEF714FB13
:104C3000204610BD00F10802EFE700BF02690B69D2
:104C4000934200F38D802DE9F04F03F1FF3801F11D
:104C5000140700F1140B57F828205BF828304FEAAE
:104C6000880483B00132B3FBF2F90BEB0403009428
:104C700007EB040A0193B9F1000F39D00025BC46B7
:104C8000DE462B465CF8046BDEF80020B4B209FB6C
:104C90000455360C2C0C09FB0644ADB25B1BA6B2C6
:104CA00013FA82F3C6EB124606EB23469BB243EAA5
:104CB0000643E2454EF8043B4FEA14454FEA2643CB
:104CC000E0D2009B5BF8033093B9019C231F9B4506
:104CD0000CD254F8043C4BB9A4F1080302E01A6862
:104CE000043B1AB99B4508F1FF38F8D3C0F810808F
:104CF0000446FFF70DFB00282EDB09F101095D4694
:104D0000002357F8041B28688AB29A1A090C12FA71
:104D100080F2C1EB104303EB224391B241EA03411D
:104D2000BA4545F8041B4FEA2343EAD25BF8282032
:104D30000BEB880382B91A1F93450BD253F8042C4E
:104D400042B9083B02E01A68043B1AB99B4508F1D6
:104D5000FF38F8D3C4F81080484603B0BDE8F08FA0
:104D600000207047FFFFFFFF2DE9F04F57EC106B5D
:104D70009BB0046C249D009181460592039310EE34
:104D800010AABB4654B1426C626001239340A360F9
:104D90002146FFF7DBF80023C9F84030BBF1000FD4
:104DA0005C4634DB00232B60A14B1A462340934220
:104DB00016D0002200235046594602F0B9FF56464D
:104DC0005F46804648B3039A01231360259B002B5E
:104DD00000F0BE809748186001381BB0BDE8F08F26
:104DE000039A42F20F731360BAF1000F00F09A8039
:104DF0009148259B002BF0D0C378002B00F0AA80AF
:104E000000F10803259A13601BB0BDE8F08F012361
:104E10002BF000442B60A346C6E718AA19A947EC5B
:104E2000106B4846FFF720FB250D0A9040F0838069
:104E3000189D199E2E4406F23243202B40F388829F
:104E4000C3F1400306F212409C402AFA00F02043CE
:104E500002F090FC0123741EA1F1F8710F9300225F
:104E6000764B02F049FB6CA3D3E9002302F0F8FC77
:104E70006BA3D3E9002302F041FB064620460F4610
:104E800002F088FC68A3D3E9002302F0E9FC0246A3
:104E90000B463046394602F031FB06460F4602F01B
:104EA0008FFF0022049000233046394602F04AFF6B
:104EB000002840F02882049E162E00F22182604BCA
:104EC00003EBC603D3E9000152465B4602F058FFEC
:104ED000002800F04282731E049300230D932D1BC3
:104EE000B5F1010800F12A8200230793049B002BEF
:104EF000C0F21B8298440C9300230693009B092B5D
:104F00002AD8052B40F34486043B00930026009BDF
:104F1000023B032B00F22386DFE813F02B0324026D
:104F200036035004444B474AC4F31300002814BF0F
:104F3000184610465DE7CBF3130343F07F51A5F20B
:104F4000FF345046CDF83C8041F44011189D86E76F
:104F50003D4842E7C31C55E70021C9F844104846C4
:104F60000C460091FEF7CCFF4FF0FF3308930E93F1
:104F700001230990C9F8400005940B93199B002B5D
:104F8000C0F2D080049A0E2A00F3CC802C4B03EBA5
:104F9000C20393ED007B059B002B8DED007BC0F2DF
:104FA000FE8256465F46DDE900AB304652465B4620
:104FB000394602F07FFD02F003FF044602F0EAFBEF
:104FC00052465B4602F04CFC0B46024639463046E0
:104FD00002F092FA099D04F130032B70089B012B1B
:104FE00006460F4605F1010561D00022174B02F07D
:104FF00037FC0022002306460F4602F099FE0028E7
:105000007DD1CDF81490DDF820A0DDF824B0DDE9E5
:10501000008928E0AFF3008061436F63A787D23F28
:10502000B3C8608B288AC63FFB799F501344D33F97
:105030000000F07FF18A0000EC8A00000000F83FD9
:10504000E0880000E08A0000F08A000000002440B0
:1050500002F006FC0022002306460F4602F068FE1E
:10506000002840F0AE8342464B463046394602F0B7
:1050700021FD02F0A5FE044602F08CFB42464B46A1
:1050800002F0EEFB02460B463046394602F034FA97
:1050900004F1300E05F801EBCBEB050ED6450646C4
:1050A0000F464FF00002AE4BD2D1DDF814903246DD
:1050B0003B463046394602F021FA06460F46024684
:1050C0000B46DDE9000102F03DFE40B932463B46A9
:1050D000DDE9000102F02CFE88B1E3070FD515F8D9
:1050E000014C099A6B1E04E09A4200F0FC8313F80D
:1050F000014D392C03F10105F6D001341C700A99D9
:105100004846FEF723FF0022049B2A70039A0133CE
:105110001360259B002B00F09B8309981D601BB03A
:10512000BDE8F08F0B9A002A00F00E81009A012A48
:1051300040F35782089B069A5F1EBA42C0F28B83E7
:10514000D71B089B002BC0F28084079D089B079A01
:1051500001211A44484607929844FEF78FFF0646FD
:1051600065B1B8F1000F09DD4545079A2B46A8BF88
:105170004346D21A0792ED1AC3EB0808069B002B90
:1051800040F3F5820B9A002A00F00282002F00F013
:10519000FF8131463A464846FFF712F80A9A01461F
:1051A00006464846FEF774FF0A9904464846FEF74D
:1051B000CDFE069BDB1B069340F0E98101214846AA
:1051C000FEF75CFF0C9B0690002B00F01582014659
:1051D0001A464846FEF7F4FF009B0690012B40F369
:1051E000F3820027069A136902EB83031869FEF71E
:1051F000F7FEC0F12000404410F01F0000F0FA81DB
:10520000C0F12003042B40F3BD84C0F11C00079BB8
:105210000344079305448044079B002B05DD21468A
:105220001A464846FFF71CF80446B8F1000F05DDA2
:10523000424606994846FFF713F806900D9B002B4F
:1052400040F07A82089B002B40F393820B9B002B4B
:1052500040F0F481DDF824B0089FDDF818805D4649
:1052600002E0FEF77DFE044641462046FFF7E6FCDD
:1052700000F1300A05F801ABCBEB0503BB424FF060
:105280000A024FF0000321464846EADB099B089AD0
:10529000012AACBF9B1801331D464FF0000B21467D
:1052A00001224846FEF7DCFF06990A90FFF730F826
:1052B000002840F3058315F8012C09996B1E04E0C2
:1052C0008B4200F0748213F8012D392A03F1010595
:1052D000F6D001321A7006994846FEF737FE002EC6
:1052E0003FF40DAFBBF1000F05D0B34503D05946D5
:1052F0004846FEF72BFE31464846FEF727FEFEE6FF
:1053000001230D93EBE5DDF81080404602F042FAF0
:1053100002460B463046394602F00AFD00287FF46B
:10532000CAAD08F1FF330493C5E5079A049BD21A6E
:105330005B420693002307920C93DFE5C8F100035C
:1053400007934FF00008D1E5069F079D0B9E07E7E6
:10535000C3F120040AFA04F07AE50D90BFE500BF1E
:105360000000244000230B93049B059A13440E93E2
:105370000133002B089340F37D82089C25460021D1
:10538000172DC9F844100BD9012204235B0003F147
:105390001400A842114602F10102F7D9C9F84410DD
:1053A0004846FEF7ADFD0E2C0990C9F840003FF6C7
:1053B000E5AD002E3FF4E2AD04990029CDE910AB34
:1053C00040F39A82904B01F00F020E1103EBC203DF
:1053D000F006D3E9004540F146828C4B50465946D1
:1053E000D3E9082302F066FBCDE9120106F00F06AF
:1053F0004FF0030A86B1854FF10709D520462946AB
:10540000D7E9002302F02CFA0AF1010A04460D46FE
:10541000761007F10807EFD122462B46DDE912018D
:1054200002F048FB06460F460D9B43B10022784B25
:105430003046394602F086FC002840F01A83504678
:1054400002F0A8F932463B4602F00AFA714B0022FC
:1054500002F054F8089B0446A1F15075002B00F0AF
:10546000DB81049B1693089B12930B9B002B00F08F
:105470009482129A644B684903EBC20353E90223F6
:10548000002002F017FB22462B4602F035F8824638
:105490008B463046394602F093FC044602F07AF916
:1054A00002460B463046394602F026F83034099D54
:1054B000E4B206460F462C7002460B46504659464B
:1054C000013502F05DFC002850D132463B460020F9
:1054D0004F4902F011F802460B465046594602F079
:1054E0004FFC002840F00883129A012A40F3F7810C
:1054F000129B099ACDF84880134498460DE000208D
:10550000434901F0F9FF52465B4602F01BFC0028BC
:1055100040F0F282454500F0E081504659460022B5
:105520003E4B02F09DF900223C4B82468B463046B2
:10553000394602F095F90F46064602F041FC044652
:1055400002F028F902460B463046394601F0D4FFF6
:105550003034E4B252465B4605F8014B06460F462E
:1055600002F0F0FB32463B460028C8D0169B04935D
:10557000C5E500230B93059B002B40F380811D465E
:105580001C460E930893FAE601230B93F3E70A9463
:10559000069A0A994846FEF713FE04460EE6089B53
:1055A000002B3FF7FEAC40F04F8100221C4BDDE9A1
:1055B000000102F055F95B46524602F0D7FB089B0A
:1055C00006931E46002800F0EA80059B099DDB43F8
:1055D000049306994846FEF7B9FC002E3FF48FADC0
:1055E00089E60F9A002A00F0388203F23343069FBF
:1055F000079DACE51C200AE6009B012B40F380824E
:105600000C9F0120F7E500BFE0880000A88900009A
:105610000000F03F00001C400000E03F000024407C
:1056200000001440314600230A224846FEF798FC49
:105630000E9B002B064640F38D820893002D05DD5E
:1056400031462A464846FEF70BFE0646002F40F03C
:105650007C81B046089B099A013BD31808930AF055
:1056600001030A931746DDF818B020465946FFF7A4
:10567000E5FA314605462046FEF74AFE42465946BF
:1056800082464846FEF766FEC268834605F130034F
:10569000002A49D1014620460793FEF739FE5946B4
:1056A00005904846FEF752FC059A079B2AB90099D7
:1056B00019B90A99002900F03582BAF1000FC0F239
:1056C000E38005D1009919B90A99002900F0DC801E
:1056D000002A00F34E81089A3B7007F1010A9742B5
:1056E000554600F05281214600230A224846FEF723
:1056F00037FC4645044631464FF000034FF00A029E
:1057000048460BD0FEF72CFC4146064600230A22F1
:105710004846FEF725FC57468046A4E7FEF720FCE6
:105720005746064680469EE7014648460593FEF7E3
:105730000DFC0122059BC0E706992046FEF7E8FD17
:105740000028BFF67FAD2146049C0023013C0A22BD
:1057500048460494FEF704FC0B9B0446002B7FF4A0
:1057600061AF0E9B002B40F3ED81089372E50A9C1C
:1057700024E5009B022B7FF769AD089B002B40F0CE
:105780009D81069905224846FEF7EAFB01460690F0
:105790002046FEF7BDFD00280A947FF716AF049A55
:1057A00009993123013204920B704D1C11E7049AC0
:1057B00001320492099A312313708CE501230B9373
:1057C000D2E5DDF814909AE4BAF1000F7FF409AD48
:1057D000CBF31303002B40F03E812BF000473F0D2D
:1057E0003F052FB1079B0133079308F101080127FB
:1057F0000C9B0120002B3FF4FEACF3E4504601F07B
:10580000C9FF32463B4602F02BF80022BF4B01F0A5
:1058100075FE0446A1F15075304639460022BC4B56
:1058200001F06AFE22462B4606460F4602F0A8FA11
:10583000002840F0AE80224605F10043304639464C
:1058400002F080FA00284AD0002306931E46BCE6E8
:105850000998FFF7C2BA069B0C9A0697FB1A1A44DE
:105860000C9200276DE49DED107B4FF0020A8DED48
:10587000127BBFE51C460021C9F8441090E50124C5
:105880000E9408940594F6E7002A9A4611DD214605
:1058900001224846FEF7E4FC06990446FEF738FD6F
:1058A000002840F34881BAF1390F00F0098105F171
:1058B000310AB34687F800A07D1C46460A940AE5E3
:1058C00004D11AF0010F01D0F5E4154615F8013C9A
:1058D000302B05F1FF32F8D0FDE4DDF84880DDE93A
:1058E00010ABFFF74BBB099930220A70049A15F8E8
:1058F000014C0132049200E4049B5C42002C00F055
:10590000B380844B04F00F0203EBC203D3E90023FE
:10591000DDE9100101F0A4FF241106460F4600F056
:1059200016817D4D4FF0020AE20709D5304639460F
:10593000D5E9002301F094FF0AF1010A06460F465B
:10594000641005F10805EFD16EE571684846FEF771
:10595000D7FA33699A1C0546920006F10C010C3007
:10596000FEF730FA294601224846FEF779FC8046C8
:1059700070E6392B00F0A48003F1010AB34687F8E2
:1059800000A07D1C46460A94A5E4B3469A464646C6
:1059900085E4002306931E4601E7129B5D495A1ECB
:1059A00001EBC2012B461792D1E90001224601F01A
:1059B00057FFCDE914013946304602F001FA04469A
:1059C00001F0E8FE0B4602463946304601F094FDF0
:1059D000129B0F4609993034012B06460C7001F1D9
:1059E000010520D0129B099A13449A46AB46002227
:1059F0004A4B3046394601F033FF0F46064602F067
:105A0000DFF9044601F0C6FE303402460B4630464C
:105A1000394601F071FD0BF8014BDA4506460F4699
:105A2000E5D1179B1D4400223D4BDDE9140101F037
:105A300065FD32463B4602F085F9002848D0169BAA
:105A4000049315F8014CFFF74CBB079B089A9D1A6D
:105A50000023FFF77CBB0027CAE6189B069F079D23
:105A6000C3F13603FFF773BBDDE910674FF0020A9D
:105A7000DAE4089B002B3FF4C1AE0E9B002B7FF7AE
:105A80002EAF0022254B3046394601F0E9FE06468E
:105A90000F460AF1010001F07DFE32463B4601F05F
:105AA000DFFE0022194B01F029FD049A0E9B129390
:105AB000013A0446A1F150751692D6E40A9484E5A1
:105AC0003922B3460A9446463A707D1CFFF7F5BB6F
:105AD000DDE914230020124901F00EFD32463B4659
