:1000000000000320D1010000D5060000A106000079
:10001000A1060000A1060000A1060000A106000044
:10002000A1060000A1060000A1060000D506000000
:10003000D5060000A1060000851800001D1800006C
:10004000D5060000D5060000D5060000D506000044
:10005000D5060000D5060000D5060000D506000034
:10006000D5060000D5060000D5060000D506000024
:10007000D5060000D5060000D5060000D506000014
:10008000D5060000D5060000D5060000D506000004
:10009000D5060000D5060000D5060000D5060000F4
:1000A000D5060000D5060000D5060000D5060000E4
:1000B000D5060000D5060000D50600006D0400003E
:1000C000D506000089050000D5060000E5250000E2
:1000D000D5060000A5270000D5060000D5060000C3
:1000E000D5060000D5060000D5060000D5060000A4
:1000F000D5060000D5060000D5060000D506000094
:10010000D5060000D5060000D5060000D506000083
:10011000D5060000B5190000D5060000D506000080
:10012000D5060000D5060000D5060000D506000063
:10013000D5060000D5060000D5060000D506000053
:10014000D5060000D506000011270000D5060000E6
:10015000D5060000D5060000D5060000D506000033
:10016000D5060000D5060000D5060000D506000023
:10017000D5060000D5060000D5060000D506000013
:10018000D5060000D5060000D5060000D506000003
:10019000D5060000D506000071260000D506000037
:1001A000D5060000D5060000D5060000D5060000E3
:1001B000D5060000D5060000D5060000D5060000D3
:1001C000D5060000D5060000D5060000D5060000C3
:1001D00008B5614B4CF220521A804DF628121A8055
:1001E00000BF00BF102223F80E2CA3F51F43DE3BF7
:1001F0004FF030621A60594A9A60594ADA60594B96
:100200004FF470021A60584B584A1A60584A1368E3
:1002100013F4807301BF57490B604FF4A853136068
:10022000554B56491A78100742BF1A7842F0080217
:100230001A70534BAA221A70524A534B8B4204D263
:1002400052F8040F43F8040BF8E7504B504A0021D2
:10025000934202D243F8041BFAE74E4A4E48002369
:1002600050F8231042F823100133742BF8D14B4B74
:100270004B4A802103F8011B9342FBD1494B454A6D
:100280001A60494B8A221A70A3F5805324225A70AF
:10029000A0221A709A799107FCD59A79D206FCD4DB
:1002A000424A937903F00C03082BFAD1404B6022A9
:1002B0001A70404A1378802BFCD13C4B00221A71F3
:1002C0004E225A719A799406FCD59979374A480694
:1002D000FBD5394B39491960082159602023137027
:1002E000937903F00C030C2BFAD1354B354A1A6085
:1002F000354B364A1A60002407225C6043F8042C10
:10030000334AC3F80C2D62B600F0E7F9194B1A68AE
:10031000D1070AD52F4A30491C60146042F8041CEA
:1003200010221A602D4A2E4911602E4A1278520668
:100330000ED52A492A4A0868904209D12548264CF8
:1003400000221A60026040F8044C102018600A6015
:1003500002F06AFC01F026FF0E200540823F0400F7
:100360000100002B88ED00E0002008E0030000857C
:1003700010D0034014D0034002D007404815FF1F9F
:1003800000E00740347F0000D00AFF1F4815FF1F20
:100390003C1AFF1F0002FF1F0000000000E400E005
:1003A00064E400E008ED00E0005006400040064034
:1003B00001E0074003E007404480044000000703D9
:1003C00004800440C010050014E000E07FA9030091
:1003D0000000202004D0034000DD68501CE00340F2
:1003E000A5C3945A00F00740FFFFFFFFFFFFFFFF88
:1003F000FFFFFFFFFFFFFFFFFFFFFFFFFFFFFFFF0D
:10040000FFFFFFFFFFFFFFFFFFFFFFFFDEF9FFFF23
:1004100010B5054C237833B9044B13B10448AFF33E
:1004200000800123237010BD4815FF1F000000004D
:10043000307F0000084B10B51BB108490848AFF3E6
:1004400000800848036803B910BD074B002BFBD0A0
:10045000BDE81040184700BF000000004C15FF1F0A
:10046000307F00004815FF1F0000000070B53548C0
:10047000037913F0300F2DD072B6837D03F0FF05A2
:1004800023B9C3794023437462B623E062B62E4990
:100490000B784A78DBB2D2B25C1C402C28BF002417
:1004A0009442C67918BF0B19F6B21CBF9E70234642
:1004B0006C1E14F0FF05EFD1D8B20870496C49B139
:1004C000934236BFC2F140029B1A9B18272BC4BF30
:1004D00001230B701B4AD078C0B2060621D51379D0
:1004E0001D061ED5184991F8485091F84930EDB2D3
:1004F000DBB2AB420CD00133402B28BF0023147970
:10050000CC1894F84A40E4B2D471147D072CF0D989
:10051000DBB281F849300B4B1A79140644BF7C22B8
:10052000DA7041060DD5074B1A79520609D5064AED
:10053000002182F88A10D2F88C2002B111703C227E
:10054000DA7070BD00A006406415FF1FEFF3138042
:10055000A8B9EFF31082A2B9EFF3058323B10F2BF3
:1005600005D9084A985C03E04FF4807000E010461B
:10057000EFF311832BB1984228BF184670474FF014
:10058000FF307047F0E300E070B53848037913F0AE
:10059000300F32D072B6837D03F0FF0523B9C379E3
:1005A0004023437462B628E062B6314991F8903036
:1005B00091F89120DBB2D2B25C1C402C28BF002401
:1005C0009442C67918BF0B19F6B21CBF83F892602B
:1005D00023466C1E14F0FF05EED1D8B281F89000CE
:1005E000D1F8D41049B1934236BFC2F140029B1AF0
:1005F0009B18272BC4BF01230B701C4AD078C0B2B4
:10060000060621D513791D061ED5194991F8D85033
:1006100091F8D930EDB2DBB2AB420CD00133282BCC
:1006200028BF00231479CC1894F8DA40E4B2D471CE
:10063000147D072CF0D9DBB281F8D9300B4B1A7935
:10064000140644BF7C22DA7041060DD5074B1A7997
:10065000520609D5064A002182F80211D2F8042177
:1006600002B111703C22DA7070BD00BF00B00640CC
:100670006415FF1F03790F2B0CD8074A137072B64D
:1006800006490279012303FA02F20B8823EA0203E6
:100690000B8062B6704700BF1A8000403019FF1F00
:1006A00008B50B4D2C462B68580301D501F082F993
:1006B0002368590501D5FFF7D9FE23681A0501D52E
:1006C000FFF762FF2368DB04EDD501F08BFFEAE75B
:1006D0003480044008B5FFF7E3FFF0B5914D924A2E
:1006E0009249934E934F4FF000632B604FF080532D
:1006F0002B604FF000532B604FF080432B604FF086
:1007000000432B608C4B00244EF6FF701C60586039
:1007100028231360936013619361136293621363E0
:100720009363083202F50122336013600B608B6023
:100730000B618B610B628B620921396007F5805771
:1007400004373C607860BB603B6147F8041C07F5E8
:10075000FE2785B03C607860BB603B6147F8041CB5
:1007600007F580573C6078603360136042F8141CD2
:10077000A2F5E122A2F5FD62283A916A41F40071E6
:100780009162116841F00071116002F5012247F693
:10079000FF711460516093601361684B68490822CF
:1007A0001A60A3F5AA2360221A70E1225A70A3F5F9
:1007B0006333A3F57E7339221A6013230B6001F5AE
:1007C000FF2101F2FC710A605E4A13605E4BA2F5E4
:1007D000FF221C6003F50023A2F5FD621C60842348
:1007E000136002F500223220136001F029FC72B67A
:1007F00056490B78802B2A4608D0554B554C702013
:10080000187055480460802018700BE0534B544812
:10081000186003F5573303F2BD331C700B78802B3F
:10082000FCD0EAE718780006FCD508784D4B012883
:100830001B680BD100F1804000F5FC20602404709F
:1008400008788028FCD145494748086062B6474986
:100850008B429CBF0A214B4301AD00210A20B3FB10
:10086000F0F400FB143330334B5523460CB1013107
:10087000F5E704A8084400F80B4C6818CC1AA3420A
:1008800006DAEC5C0678EE5400F801490133F5E72E
:1008900037490023E85C20B101330A2B21F8020B11
:1008A000F8D13449344801335B000B7000231946FA
:1008B0001D1819500833882B2F4C6960F8D12F4828
:1008C0002F4B016841F4802101602E48016841F0FE
:1008D00040710160C4F307211970C4F30741197511
:1008E0002949230E0B70FF2301F8343C002001F846
:1008F0002C3C01F8A43C012301F8203C81F84C0079
:1009000001F8303C214B702119704FF40013136033
:100910001F4B10224FF4AF701A7005B0BDE8F040C5
:1009200001F08EBB04E100E00C8003401C900B4002
:100930000C900B40008003400480034000900C406A
:100940000CB003400CB00B4020B0034003E0074064
:1009500000000240000007410400024044800440BF
:10096000000017130C000240000007037F96980058
:10097000E00AFF1FDE0AFF1F0000FF1F3480044053
:100980009C20074000D80040B420074035E400E038
:100990000821074038B5094CA4F1A005A06808B1AA
:1009A00006F04AFF94F90600002803DB0021C0B2DC
:1009B00001F05BFB143CAC42F0D138BDC019FF1F05
:1009C0000B4B1B685B0512D50A4BDA7802F0CB02A1
:1009D000DA7040225A74DA7842F03402DA70064B48
:1009E0005A78D2B21A705B6C0BB100221A70704741
:1009F0003480044000A006406415FF1F084A1178A7
:100A00005378DBB2994207D00133402B28BF002333
:100A100013449878C0B270474FF0FF30704700BF62
:100A20006415FF1F10B50F4C23786278D9B2D2B28B
:100A3000914213D0531C402B28BF0023E21890781A
:100A4000DAB26270626CC0B252B18B4288BF403180
:100A5000CB1A1A2B04DC0023137010BD4FF0FF30AB
:100A600010BD00BF6415FF1F044B18785A78C0B240
:100A7000D3B2984238BF4030C01A70476415FF1F88
:100A8000064B93F8480093F84920C0B2D3B298427D
:100A90002CBF3F3303F1FF33181A70476415FF1F53
:100AA00010B5044C94F88A3013B101F073FAF9E7E9
:100AB00010BD00BF6415FF1F284B1B685A052DE9A8
:100AC000F04148D5264CD4F88C300BB101221A7075
:100AD000DFF8908006464718BE4239D294F8485055
:100AE00094F849300135402D28BF00259D420BD098
:100AF000631916F8012B83F84A20EDB2012384F81C
:100B00008A3084F84850E7E7BC2388F80330FFF7C1
:100B10001DFD402813DC98F804301B0613D594F80B
:100B200049300133402B28BF0023E218DBB292F892
:100B30004A20D2B288F8072084F8493003E0FF2821
:100B400001DD01F027FA94F849309D42DFD0CFE76C
:100B5000044BBC22DA70BDE8F08100BF3480044051
:100B60006415FF1F00A00640224B1B685A052DE9A3
:100B7000F04106463BD5204DD5F88C300BB1012213
:100B80001A7095F84840DFF870801C4F0134402CF3
:100B900028BF002495F84920174BA2421AD1FFF72D
:100BA000D5FC402811DC3B791B06F3D598F8493079
:100BB0000133402B28BF0023EA18DBB292F84A2009
:100BC000D2B2FA7185F84930E4E7FF28E2DD01F09E
:100BD000E1F9DFE71A19F6B282F84A60E4B20122BD
:100BE00083F88A2083F84840044BBC22DA70BDE8C1
:100BF000F08100BF348004406415FF1F00A0064050
:100C00000E4B1B6813F4806316D012280C4B03D1D3
:100C100040F202310B4A04E0142809D10A4A40F29A
:100C2000023111605A7B42F001025A730120704771
:100C30005A7B02F0FE025A73002070473480044051
:100C400000A006400CA0044014C0044038B50C4B72
:100C50001B6813F480634FF000040FD03F28094B4A
:100C600009D8094951F830505D64012101F0FDF9BE
:100C70002C70012038BD5C64204638BD184638BD54
:100C8000348004406415FF1F847A0000154A92F8EE
:100C90000831834224D01449096849051ED5152B13
:100CA00005D01B2B06D043B910490B6005E000218D
:100CB0000F4B01E00F4B00211960152806D01B28AF
:100CC00008D058B940F21331084B06E040F2133116
:100CD000074B02E0074B40F21331196082F808011C
:100CE000704700BF6415FF1F3480044040A00440DB
:100CF00018C004403C90044010B509B140F0800099
:100D0000194A1378984214462DD0184A1268520591
:100D100028D503F07F03052B06D01A2B07D0012B13
:100D200008D10022124B04E00022124B01E0124BCA
:100D300000221A60002900F07F0214BF60234423C0
:100D4000052A07D01A2A09D0012A0BD143F440738F
:100D5000074A06E043F44073064A02E0064A43F4B9
:100D600040731360207010BDD40AFF1F348004400C
:100D700044A004401CC00440389004400A4A10B506
:100D8000044692F88A30002BFBD10121204601F065
:100D90006CF9204601F072FD044B53F83420024BED
:100DA000C3F88C2010BD00BF6415FF1F847A0000BB
:100DB000234B1B685B0510B500D410BD214C94F883
:100DC0008A30204A03F0FF0113B101F0E3F8F6E79F
:100DD0001D4B4FF0004018601C4BD97092F8083141
:100DE000152B06D01B2B08D05BB940F20311184B12
:100DF00006E040F20311174B02E0174B40F20311DB
:100E00001960164B1B7803F07F03052B07D01A2BB4
:100E100009D0012B0BD140F20311114B06E040F237
:100E20000311104B02E0104B40F203111960002334
:100E300013705370536C0BB101221A7010BD00BFB8
:100E4000348004406415FF1F80E100E000A00640EC
:100E500040A0044018C004403C900440D40AFF1F46
:100E600044A004401CC0044038900440184B9A78B9
:100E700002F0EC0100F003020A43410748BF42F0D0
:100E800010029A70124900F00F02042A02BF8A79F8
:100E900042F040028A715A79C30602F0EF020C4B0D
:100EA00048BF42F010025A719A79810602F0EF02AF
:100EB00048BF42F010029A71C305054906D54B7828
:100EC0000A78DBB242F020020A704B70704700BF14
:100ED00000A006402A4A136843F480631360294B3C
:100EE00000221A705A7083F8482083F8492083F84A
:100EF0008A2093F80831152B06D01B2B08D05BB93C
:100F000040F21332204B06E040F213321F4B02E056
:100F10001F4B40F213321A601E4B1B78052B07D073
:100F20001A2B09D0012B0BD14FF451721A4B06E04A
:100F30004FF45172194B02E0194B4FF451721A6081
:100F40001F28184B98BF2020C0F344321A70C0F3FA
:100F500047125A7000F01F000422022198729A7002
:100F6000D9745A7588221A743C22DA700E4B4022CA
:100F70001A70A3F21F334FF000421A60704700BF8F
:100F8000348004406415FF1F40A0044018C0044092
:100F90003C900440D40AFF1F44A004401CC00440FD
:100FA0003890044000A006401FE400E0FEE7FEE7A2
:100FB000094908B54B6868B16A461844A2F5005261
:100FC000904206D301F02AFE0C2303604FF0FF305D
:100FD00008BD4860184608BDD40AFF1F0D4B1B68AA
:100FE0001B0515D50C4BDA7802F0CB02DA704022E3
:100FF0005A74DA7842F03402DA70084B93F8912090
:10100000D2B283F89020D3F8D4300BB100221A70FA
:10101000704700BF3480044000B006406415FF1FD5
:10102000094A92F8901092F89130DBB2994208D0B8
:101030000133402B28BF0023134493F89200C0B221
:1010400070474FF0FF3070476415FF1F10B5114C0B
:1010500094F8903094F89120D9B2D2B2914216D03F
:10106000531C402B28BF0023E21892F89200DAB2FA
:1010700084F89120D4F8D420C0B252B18B4288BFFA
:101080004031CB1A1A2B04DC0023137010BD4FF033
:10109000FF3010BD6415FF1F054B93F8900093F8C7
:1010A0009120C0B2D3B2984238BF4030C01A7047C6
:1010B0006415FF1F064B93F8D80093F8D920C0B2EF
:1010C000D3B298422CBF273303F1FF33181A70476D
:1010D0006415FF1F10B5044C94F8023113B100F0F1
:1010E00059FFF9E710BD00BF6415FF1F284B1B68AF
:1010F0001A052DE9F04148D5264CD4F804310BB13E
:1011000001221A70DFF8908006464718BE4239D295
:1011100094F8D85094F8D9300135282D28BF0025EF
:101120009D420BD0631916F8012B83F8DA20EDB23B
:10113000012384F8023184F8D850E7E7BC2388F80B
:101140000330FFF703FA402813DC98F804301B063D
:1011500013D594F8D9300133282B28BF0023E21887
:10116000DBB292F8DA20D2B288F8072084F8D930BE
:1011700003E0FF2801DD00F00DFF94F8D9309D4217
:10118000DFD0CFE7044BBC22DA70BDE8F08100BFAE
:10119000348004406415FF1F00B00640224B1B68DA
:1011A0001A052DE9F04106463BD5204DD5F804310E
:1011B0000BB101221A7095F8D840DFF870801C4FEF
:1011C0000134282C28BF002495F8D920174BA242BF
:1011D0001AD1FFF7BBF9402811DC3B791B06F3D588
:1011E00098F8D9300133282B28BF0023EA18DBB246
:1011F00092F8DA20D2B2FA7185F8D930E4E7FF2804
:10120000E2DD00F0C7FEDFE71A19F6B282F8DA6015
:10121000E4B2012283F8022183F8D840044BBC22B7
:10122000DA70BDE8F08100BF348004406415FF1F10
:1012300000B006400E4B1B6813F4006316D017284D
:101240000C4B03D140F202310B4A04E03C2809D197
:101250000A4A40F2023111605A7B42F001025A738D
:10126000012070475A7B02F0FE025A73002070473B
:101270003480044000B0064008B0044008D0044068
:1012800038B50D4B1B6813F400634FF0000411D008
:101290003F280A4B0AD80A4951F83050C3F8D450B5
:1012A000012100F0E2FE2C70012038BDC3F8D440CB
:1012B000204638BD184638BD348004406415FF1FF1
:1012C000847A00000F4B1A7A82421AD00E490968BC
:1012D000090515D5092A04D03B2A05D100210B4A5E
:1012E00001E00B4A00211160092805D03B2807D1F5
:1012F00040F21331054A02E0054A40F21331116011
:1013000018727047D40AFF1F3480044004D0044090
:101310000CB0044010B509B140F08000144A537A73
:101320009842144622D0134A126812051DD503F0C4
:101330007F030A2B04D03A2B05D100220E4B01E08B
:101340000E4B00221A60002900F07F0214BF6023B8
:1013500044230A2A05D03A2A07D143F44073064AA7
:1013600002E0064A43F440731360607210BD00BF90
:10137000D40AFF1F3480044000D0044010B0044061
:101380000A4A10B5044692F80231002BFBD1012124
:10139000204600F06AFE204601F070FA044B53F834
:1013A0003420024BC3F8042110BD00BF6415FF1F99
:1013B000847A00001D4B1B681B0510B500D410BDBE
:1013C0001B4C94F802311A4A03F0FF0113B100F0EC
:1013D000E1FDF6E7174B02201860174BD970174B49
:1013E000187A092804D03B2806D11548016003E08B
:1013F000144940F2031008605B7A03F07F030A2B64
:1014000004D03A2B06D100210F4B02E00F4B40F2E3
:1014100003111960002382F8903082F89130D2F8DD
:10142000D4300BB101221A7010BD00BF34800440CB
:101430006415FF1F84E100E000B00640D40AFF1FDE
:1014400004D004400CB0044000D0044010B004406C
:10145000184B9A7802F0EC0100F003020A434107AE
:1014600048BF42F010029A70124900F00F02042A9D
:1014700002BF8A7942F040028A715A79C30602F0AB
:10148000EF020C4B48BF42F010025A719A79810664
:1014900002F0EF0248BF42F010029A71C3050549FD
:1014A00006D54B780A78DBB242F020020A704B7006
:1014B000704700BF00B00640244A136843F400633D
:1014C0001360234B002283F8902083F8912083F847
:1014D000D82083F8D92083F802211E4B1A7A092AD2
:1014E00005D03B2A07D140F213311B4A02E01B4AC8
:1014F00040F2133111605B7A0A2B05D03A2B07D1E9
:101500004FF45172164B02E0164B4FF451721A60B1
:101510001F28154B98BF2020C0F344321A70C0F327
:1015200047125A700421022200F01F00987299702D
:10153000DA745975882119743C21D9700B4B4021FC
:1015400019706FF447710B441A607047348004407F
:101550006415FF1FD40AFF1F04D004400CB00440E0
:1015600000D0044010B0044000B0064021E400E088
:1015700043888B42F0B52CD9C379C2F30746C2F336
:101580000725D4B20BB9A64608E05E435D435C4331
:10159000C6F30726C5F30725C4F3072E077BC47BD4
:1015A000A742876803D101EB410139440AE007EB08
:1015B0008101120E0C440BB9D3B202E05343C3F3C2
:1015C00007232370037BCE54437BCD54837B01F8E8
:1015D00003E0F0BD2DE9F84383680446002B4BD0AF
:1015E00000F00EFD2369C01AB0F5967FF8D372B6ED
:1015F000224B94F90620A16853F832E0204AA088D3
:10160000136843F0807313601E4A136843F00103AC
:1016100013601D4B1A68084402F5967298464FF005
:10162000010C88421FD911F8019B082580261F68EC
:10163000BF1AB7F5967FFAD316EA090FD8F800203B
:101640008EF880C004D01F68BF1ABF2FFBD903E0FB
:101650001F68BF1A3B2FFBD9013D8EF800C14FEA2E
:101660005606E4D1DDE71968891AB1F5967FFAD3F9
:1016700062B600F0C5FC2061BDE8F883847A000002
:10168000FCED00E0001000E0041000E0C043C3B235
:10169000542B09D8A3EB8300013803EB4303DBB2DF
:1016A000C0B243EA00407047A92B09D8553BDBB2D2
:1016B00003EB4300A3EB8303013BC0B2DBB209E0C1
:1016C0005633DBB2A3EB830003EB43030138DBB2F9
:1016D000C0B21B0443EA0020704700BF10B5174C8E
:1016E0000221204601F042FA0E2104F1140001F01B
:1016F0003DFA072104F1280001F038FA082104F12D
:101700003C0001F033FA062104F1500001F02EFAFA
:10171000142104F1640001F029FA152104F1780084
:1017200001F024FA052104F18C0001F01FFA044AAB
:1017300004490020BDE8104001F064BA3419FF1FCD
:10174000D00AFF1F95090000F8B5114C114E124D3B
:1017500004F58677384601F0B2F932462946384614
:1017600004F58A7701F04EFA384601F0A8F904F53D
:101770008E7432462946384601F044FA204601F07C
:101780009EF9324629462046BDE8F84001F03ABAB3
:101790006415FF1FD00AFF1F75060000034B82B0BF
:1017A0001B680193019B02B0704700BF7417FF1FB5
:1017B0000368C9B21B6818470368C9B21B68184799
:1017C00015490B6830B513B98360C36009E004683C
:1017D0001A68944207D20025121B8360C560D86046
:1017E0001A60086015E002681C689968121B0260A4
:1017F00061B10C68A2420B46F5D28160C968C16034
:10180000D860C168A21A88601A6002E08160C36073
:1018100098600223037530BD8C16FF1F174A70B500
:101820001368174D01332C6813600026BCB1236880
:1018300013B1013B236012E0A26802B1D3602069BA
:101840002A60036826751B68224600219847636852
:101850001BB123602046FFF7B3FF2C68E6E7EFF3E8
:10186000108372B6002268686A6003B962B620B15C
:101870008468FFF7A5FF2046F9E770BD7417FF1FC6
:101880008C16FF1F38B50A4D0024EFF3108272B694
:10189000A86848B14369AB6003B19C6102B962B604
:1018A000447783689847F0E702B962B638BD00BF55
:1018B0008C16FF1F70B50C4B0C4D1A7B42F00206C4
:1018C00005EBC60482F001026060587B1A730028A1
:1018D00014BFC824882480F0010044EA01415873F1
:1018E00045F8361070BD00BF8C16FF1F0000FF1FAB
:1018F000FFF7D2BB08B50846FFF750FC012008BD32
:1019000008B50846FFF74AFC012008BD10B5084697
:1019100014461146FFF7EAFB204610BD38B50846CD
:101920000D4602F02DFC044601462846FFF7DEFB7B
:10193000204638BDFFF7BEBBFFF750BBFFF7CABB61
:10194000FFF784BBFFF76CBB08B50846FFF772FCD6
:10195000003018BF012008BD08B50846FFF790FC0D
:10196000003018BF012008BD08461146FFF7D2BC61
:101970000846FFF7A7BC0846FFF702BDFFF71ABDF0
:1019800010B5064B144603EB5100B0FBF1F0FFF726
:1019900093FD2046BDE81040FFF75ABD00389C1C5F
:1019A000034B03EB5100B0FBF1F0FFF785BD00BF27
:1019B00000389C1C2DE9F74FDFF8B8A2D1469AF801
:1019C0000050AC4CEDB215F0040F2CD0AA4B1B7894
:1019D00033B3AA4A917D01F0FF0321B1013BDBB291
:1019E000937503B900BED27DA44E02F0FF03BAB1D5
:1019F000013BDBB2F3759BB9337E03F0FF077BB984
:101A0000F06928B14388038000F04EFFF76107E0DA
:101A100000F0F8FF10B100F047FF01E00123F3757B
:101A2000042389F8003005F0080303F0FF01002BC0
:101A300000F05A82924B934D1B78DBB21C094FEA9F
:101A4000930740F0D38105EBC703596855F8373049
:101A5000C3F38303013B0C2B00F2C481DFE813F0D6
:101A600083018301C201C201C201C201C201C201DC
:101A7000A001C201C201C2010D000A687F4C4B687F
:101A80002262636292B2804B45F8373040F2816047
:101A9000002301218242A3622B61AB616173264660
:101AA00017D8B2F5D06F80F01481B2F5817F00F0C5
:101AB000D28006D8802A00F0BD80822A00F0BD8046
:101AC00022E140F202339A4200F0F480B2F5A06FB6
:101AD0001BE042F22100824200F042810DD8B2F5B3
:101AE000086F00F0A280B2F5106F40F00D81624ADD
:101AF00094F8221011701E460AE042F221218A4217
:101B000000F0FA8042F221339A4200F00181FBE0BA
:101B1000AB191A6A170603D5586A083800F014FF83
:101B20000836802EF4D1594FDFF864B100265BF8F7
:101B300026004FEA860830B14268009200F004FFA8
:101B4000009A1046F7E7524B524A43F80800103308
:101B500048F8030058F8020040B141680192009132
:101B600000F0F2FE0099019A0846F5E742F80800F5
:101B7000494A48F80200494A22F816003A78023ADF
:101B8000032A07D8DFE802F002040204002200E082
:101B900001223A700136042E07F10107C7D14049EE
:101BA000394F00230B704FF001080E463D4A3E4B63
:101BB00008EB0200434410F8010C9B0010F0080FE2
:101BC00018704FEA880B21D000F01CFF38B105EBEC
:101BD000481308305860354B45F83B3004E0337803
:101BE00045F83B000133337000F00CFF4BF001036C
:101BF00038B105EBC30E0830CEF8040045F8337059
:101C000004E045F833003378013333704BF00200C1
:101C100008F101084BF0030B0023B8F1050F45F85C
:101C2000303045F83B30C1D173E0134B1B78A373C0
:101C30000B4671E0A373E3736DE0A28C02F07F02A8
:101C4000042A61D8A373E3739200194B9B5C9D0730
:101C500061D5A1735FE0A28C02F07F02042A53D801
:101C6000638C002B50D11249920011440A7822F063
:101C700002022CE080200740F919FF1F8C16FF1F7D
:101C8000902007400000FF1FC8004000D419FF1F2C
:101C9000B816FF1FD819FF1FE819FF1FFA19FF1FF9
:101CA000F819FF1F847C000030C801108800400034
:101CB000C0200740A28C02F07F02042A24D8638C43
:101CC00013BBA549920011440A7842F002020A703F
:101CD0001FE0628CA18CA14B5E68AEB11888904267
:101CE00008D15888884205D1120A032A0CBF3378DC
:101CF0001B8912E00C33EFE7994A1268E26494F80A
:101D0000222084F8502004E0934B0F221A7027E021
:101D100000231E4601E002230E36E58C9D4228BFBB
:101D20001D46402D2F4628BF402730463946FFF735
:101D3000C1FDED1B3E4403D1402F11D12F4603E0DE
:101D4000402D2F4628BF402730463946FFF7B2FDC9
:101D5000ED1B3E4401D1402F02D1A662A4F852509F
:101D60000122804B3DE0804B1A8C42F221039A42C3
:101D700012D100237C4ACC5C02F154001C54013384
:101D8000072BF7D1536D0021862B08BF0F23084680
:101D900008BF9375FFF78EFD744B45F8373021E08F
:101DA000714EB76A97B1B6F85240402C254628BF0D
:101DB000402538462946FFF77DFD601B80B2A6F816
:101DC000520008B9402D00D17819B062328C664BB0
:101DD000B2F5A06F06D1002283F8212093F82220CB
:101DE000634B1A705F4B01221A7079E005EBC7064E
:101DF000013C726803F00803A2F10800E4B203F0AA
:101E0000FF0E002B36D000F09FFD5A485A4A50F87A
:101E10002410E9B14B6840F8243001F108037360E5
:101E2000135D032B0BD8DFE803F00204060803233D
:101E300004E0022302E0052300E00423135516F01A
:101E4000080F0A8814BFC823882343EA024345E0E9
:101E5000135D032B08D8DFE803F04343020400239B
:101E600000E0012313553BE016F0080F14BF0323D5
:101E70000223F7E755F837301B0C99B222F8081CFB
:101E800033B3394B22F806EC42F804EC4FEA840EE7
:101E900003EB0E0CDCF82C2012B9CCF82C0002E07D
:101EA000DCF83C2050607344344AD86332F8143074
:101EB000194422F8141000F0A5FD10B1083070602C
:101EC00006E02F4A45F8370013780133137007E016
:101ED0002C4A264B16F0080F08BF134645F837303A
:101EE000082389F800306AE5E8071ED51D481E4A18
:101EF000244D02230370244B117302F15C069C32C3
:101F00001D60DA605E609D6019619961124B0D225F
:101F10001A701E4AFF2313702370117413711C4B27
:101F20009F221A700123037012E0290604D50A4B80
:101F30000D221A7080232370AA0705D5134A13783F
:101F4000DBB2137002232370EB0644BF102323700F
:101F500003B0BDE8F08F00BFC02007404878000004
:101F60007417FF1F942007408C16FF1FC800400005
:101F700098200740D819FF1FD419FF1FFA19FF1F17
:101F8000F819FF1F880040000000FF1F882007404D
:101F90008420074070B5194C94F8DC60254666BB78
:101FA000FEF762FDFFF778F800F0B4FC00F056FD94
:101FB00000F046FD00F0BAFC84F8DC60EFF3058326
:101FC000DBB9EFF3108372B6D4F8E00010B194F8E7
:101FD000E41011B18BB962B670BD012284F8E4201F
:101FE0004269C4F8E02002B1916103B962B60024ED
:101FF00044778368984785F8E44070BD8C16FF1FCE
:1020000072B60C4B0C4A0D491B681268096862B61F
:10201000490102D5322B88BF0132C3F56A33F02063
:1020200003F27F13B3FBF0F34FF47A7000FB02303E
:10203000704700BF18E000E07417FF1F04ED00E0D8
:1020400038B50446FFF7DCFF054624B938BD013C2E
:102050000AD005F57A75FFF7D3FF401BB0F57A7FFC
:10206000F5D2FFF797FFF6E738BD3F2810B52BD81C
:10207000164A02EBC00301295B68144601D004290B
:102080000FD154F83020012082F880024FF4A27260
:102090001A601A6804290CBF42F0200222F02002C4
:1020A00011E052F83000002280F8802211B94FF47C
:1020B000807208E0022902D140F2031203E00329F2
:1020C00008BF4FF481721A6010BD00BF847A00000F
:1020D0000368C9B21B6818470368C9B21B68184770
:1020E000034B03EB5100B0FBF1F0FEF7F3BE00BF72
:1020F00000389C1C08B50846FEF736FD012008BDD7
:1021000008B50846FEF730FD012008BD10B50846A9
:1021100014461146FEF7D0FC204610BD38B50846DF
:102120000D4602F02DF8044601462846FEF7C4FC91
:10213000204638BDFEF7A4BCFEF742BCFEF7B0BC9B
:10214000FEF770BCFEF75ABCFEF78EBC08B5084619
:10215000FEF756FD003018BF012008BD08B508463F
:10216000FEF774FD003018BF012008BD0846114677
:10217000FEF7C2BD0846FEF789BD0846FEF7FEBD64
:10218000FEF716BE10B5064B144603EB5100B0FB2C
:10219000F1F0FEF79FFE2046BDE81040FEF766BE58
:1021A00000389C1C2DE9FF4841F24700FEF792FEE3
:1021B00041F24700FFF780F9BD49BE4800F062FCDC
:1021C000BD49BE4800F05EFCBD4BA3F1A0063546FC
:1021D0004FF033080127F379332B17D0B168013B57
:1021E00013F0FF0308461CBF43F2FF2292FBF3F3F8
:1021F000421AB6F804E092B2964505D902785A43DD
:10220000121200F8012BF3E786F8078096F9060012
:10221000002806DBC0B20121FFF727FFB07900F0EC
:102220002DFB37703046FFF7D5F9A54B14369E428B
:10223000D1D1DFF8909208264FF47F0000F0FCFA2D
:102240004FF47F4000F0F8FAFF2000F0F5FA4FF06D
:102250007F4000F0F1FA013EEED137464FF0000A20
:10226000DFF868824FF0000BB8F802001FFA8BF11C
:1022700081421DD2B94202DBA14204DD06E0BC422C
:1022800006DAA14204DC4FF07F420BE0BC42FADBED
:102290000B0293FBF0F05044C0B20091FFF7F6F947
:1022A000009902464046FFF763F90BF1010BDBE7AB
:1022B000D9F800300593059BD9F804209B1A4B2BC5
:1022C0000BD9804B7F4A1B68049301348442049BE2
:1022D000536007F1010708BF0136032E21D0784B68
:1022E00008F114089845BDD11D234FF0000894FB58
:1022F000F3F203FB124497FBF3F203FB127705EBB7
:102300000800FFF767F908F114081420FFF798FE9A
:10231000B8F1A00FF3D10AF1010ABAF5807F9FD17D
:102320009CE7DFF8B0A1002600274FF0000807EB7C
:10233000050BBBF802301FFA88F18B4208F1010847
:1023400006D916F80A2058461206FFF711F9F0E7E9
:102350001437A02FE9D10027E8191437FFF73AF90D
:10236000A02FF9D105200136FFF76AFEB6F5807F70
:10237000DAD1DFF860A1FF2600274FF0000807EB55
:10238000050BBBF802301FFA88F18B4208F10108F7
:1023900006D916F80A2058461206FFF7E9F8F0E7C2
:1023A0001437A02FE9D10027E8191437FFF712F9E5
:1023B000A02FF9D10520FFF743FE16F1FF36DBD23F
:1023C0000026B0464FF0000A9FED3F8A4FF0000B09
:1023D0003E4A5A4400230092009A3C4F508899B2DA
:1023E000814203F10103039340D20A0292FBF0F011
:1023F0005044C0B20291FFF749F907EE906AF8EE37
:10240000E77AC0F30743C7EE886A029907EE103AED
:10241000B8EEC77AC0F3072327EE267AFDEEC77A17
:1024200017EE902A07EE903AF8EEE77AC3B267EE1D
:10243000A67A1204FDEEE77A02F47F0717EE902ADF
:1024400007EE903AF8EEE77A120267EEA67A02F407
:102450007F42FDEEE77A3A43CDED017A9DF8040024
:1024600002430098FFF784F8039BB5E70BF1140BC8
:10247000BBF1A00FACD14FF0000B144B03EB0B00E2
:102480000BF1140BFFF7A6F8BBF1A00FF5D1B8F1D3
:10249000000F23D107EE906A9FED0D7AF8EEE77AF0
:1024A000F4EEC77AF1EE10FA28D5013626E000BF27
:1024B0005C7A00007C0BFF1F6E7A00008C0BFF1F04
:1024C000D419FF1F7417FF1F0000C8423419FF1FE3
:1024D0000000C6429C78000000001B43B8F1020FC8
:1024E0000CD107EE90AA1FED047AF8EEE77AF4EE2D
:1024F000C77AF1EE10FAC8BF06F1FF3603200AF1E1
:10250000010AFFF79DFDBAF5807F7FF45DAF08F10A
:102510000108B8F1030F7FF455AF4FF4FA70FFF7DD
:102520008FFD00264FF000084FF0000A07EB080B64
:10253000BBF802201FFA8AF18A420AF1010A06D981
:10254000274BF25C58461206FFF712F8F0E708F145
:102550001408B8F1A00FE7D14FF0000807EB08000E
:1025600008F11408FFF736F8B8F1A00FF6D10136DC
:10257000B6F5807FD6D14FF4FA60FFF761FDFF26F4
:102580004FF000084FF0000A07EB080BBBF80220E1
:102590001FFA8AF18A420AF1010A06D9104BF25C4D
:1025A00058461206FEF7E4FFF0E708F11408B8F108
:1025B000A00FE7D14FF0000807EB080008F114085E
:1025C000FFF708F8B8F1A00FF6D116F1FF36D7D211
:1025D0004FF4FA70FFF734FDFFF7DCFC2BE600BF89
:1025E0009C78000010B5204B1A7992060FD51F4A2F
:1025F000D9791378507801333F2BC8BF0023834229
:1026000018BFD018C9B21EBFDBB281701370164854
:10261000C278D2B2130619D503791C0616D5134910
:1026200091F8424091F84330DBB29C4202D16C23D6
:10263000C3700BE00133282B28BF0023CC18DBB27A
:1026400094F84440E4B2C47181F84330510609D58E
:10265000054B1A79520605D5044A002182F86C1000
:102660002C22DA7010BD00BF00C006407C17FF1F8F
:1026700010B5234B5A68920212D5224AD96892F8B3
:102680006D3092F86E0001333F2BC8BF00238342A8
:1026900006D0D018C9B2DBB280F86F1082F86D3066
:1026A00017498C6823021DD54B6818021AD5154AA4
:1026B00092F8AF0092F8B030DBB2984206D1124BDC
:1026C00000221A60012243F8042C0BE00133282B6E
:1026D00028BF0023D018DBB290F8B100C0B2C860A8
:1026E00082F8B030620209D5054B5B685B0205D504
:1026F000044A002382F8D930044A136010BD00BF99
:1027000000400C407C17FF1F5C0188435801884340
:1027100010B5224B1A79920613D5214AD97992F82D
:10272000DA3092F8DB0001333F2BC8BF002383422D
:1027300018BFD018C9B21EBFDBB280F8DC1082F817
:10274000DA301648C278D2B2130619D503791C06BE
:1027500016D5134991F81C4191F81D31DBB29C420A
:1027600002D16C23C3700BE00133282B28BF002358
:10277000CC18DBB294F81E41E4B2C47181F81D316B
:10278000510609D5054B1A79520605D5044A002190
:1027900082F846112C22DA7010BD00BF00A00E4056
:1027A0007C17FF1F10B5224B1A79920613D5214AC8
:1027B000D97992F8473192F8480101333F2BC8BFCD
:1027C0000023834218BFD018C9B21EBFDBB280F805
:1027D000491182F847311648C278D2B2130619D58A
:1027E00003791C0616D5134991F8894191F88A316D
:1027F000DBB29C4202D16C23C3700BE00133282B67
:1028000028BF0023CC18DBB294F88B41E4B2C4712A
:1028100081F88A31510609D5054B1A79520605D53A
:10282000044A002182F8B3112C22DA7010BD00BFD7
:1028300000D006407C17FF1F2DE9F041DFF83880FB
:1028400007460024002608EB04056B88B1B28B42D2
:1028500006F1010604D93A462846FEF789FEF4E758
:1028600028461434FEF7B6FEA02CEBD1FF20BDE8BD
:10287000F041FFF7E5BB00BF3419FF1F3F2810D818
:10288000084B53F8302092F8801219B1012382F8D6
:102890000031704703EBC0035A68136823F002034A
:1028A00013607047847A000072B6174A92F85B3260
:1028B000032B08D8DFE803F014021604022100E01D
:1028C0000421124B10E0D2F868120F4B11B9C3F873
:1028D000680202E0D3F878325860C2F8780211E05A
:1028E000032100E005210A4B82F85B1213F0080F68
:1028F00000F1080201885A6014BFC822882242EA07
:1029000001421A6062B670477C17FF1F9800FF1FD4
:102910009000FF1F044B18785A78C0B2D3B2984287
:1029200038BF4030C01A70477C17FF1F054B93F823
:102930006D0093F86E20C0B2D3B2984238BF4030D9
:10294000C01A70477C17FF1F2DE9F043264D274B17
:10295000DFF8AC90DFF898E0AC464FF00008C31AFF
:102960004822B3FBF2F60B2E3BD895F87C321E4C76
:1029700073B395F87D325BB372B6012309EB0302A2
:1029800012F8012C12071CD59900194A5EF8317013
:102990002FB902EB431308305860164B09E041F0A1
:1029A00001015EF8317067B902EBC103083058606D
:1029B000114B42F8313094F87C32013B84F87C3280
:1029C0000EE00133052BD9D162B68CF87C82CAE7C0
:1029D00072B60A494FF000420B68F24013430B6095
:1029E00062B6BDE8F08300BF7C17FF1F7007FF1FB2
:1029F0000000FF1F88004000C80040009C0BFF1F24
:102A0000847C000010B572B60B480268B2FA82F1FD
:102A10000B2902DD62B6002010BD4FF00043CB4011
:102A200022EA0302026062B6044C48234B43E018DA
:102A30000022E250426010BD9C0BFF1F7007FF1F79
:102A4000054B93F8DA0093F8DB20C0B2D3B298427A
:102A500038BF4030C01A70477C17FF1F054B93F8F2
:102A6000470193F84821C0B2D3B2984238BF4030F2
:102A7000C01A70477C17FF1F014BB3F882027047E2
:102A80007C17FF1F0EB403B503AA52F8041B019272
:102A900000F018F902B05DF804EB03B0704710B510
:102AA000036814465B689847204610BD08B5FEF7DA
:102AB00015FEFEF749FEBDE80840FEF76FBE30B5D3
:102AC00072B60168264C81B103790F2B0DD8B4F88A
:102AD000B4211A41D20708D503F1007303F59063BE
:102AE000B1EB431F01D162B630BDB4F8B41100237D
:102AF00041FA03F212F0010229D101259D40294338
:102B0000A4F8B41162B6174DD9B201712C6844F023
:102B100002042C6055F8044C03F1007344F00204E5
:102B200045F8044C03F590630F4C5B0140F282457D
:102B30002560A176A1772176E17703601A605A605B
:102B40009A60DA601A615A619A61DA6130BD0133C4
:102B5000102BCDD162B600220260037130BD00BFE0
:102B60007C17FF1F4080044000800040F8B501231F
:102B70000025C3730373572702238373044605702C
:102B8000C57105614573878038460E4604F04CFEDA
:102B90000346A06028B13A46294600F011F81D23EB
:102BA00000E0A08063802378A67133B13046012114
:102BB000FFF75BFA3046FFF761FE2046F8BD00BF25
:102BC00001B5EAB1102A17DB00F0070333B1C3F1F6
:102BD0000803D21A013B00F8011BFBDCC9B241EA31
:102BE000012141EA01418C46D308013BE0E8021C87
:102BF000FBDC12F0070203D0013A00F8011BFBDCFA
:102C000001BD00BF0B460146184600F001B800BFE9
:102C100013460A460146022000F076B8014B1868B8
:102C2000704700BFC80FFF1F70B50F4E0F4D761BCA
:102C3000B61018BF002405D0013455F8043B98475E
:102C4000A642F9D10A4E0B4D761B05F063F9B6107A
:102C500018BF002406D0013455F8043B9847A6421B
:102C6000F9D170BD70BD00BF207F0000207F000043
:102C70002C7F0000207F0000F0B5ADF5057D04AD90
:102C800000930F4613464FF4007403AA2946039499
:102C9000064601F0E3FA88B1044602463946039B32
:102CA000304600F01BF8AC42039004D03046214679
:102CB00000F0EEF803980DF5057DF0BD4FF0FF3004
:102CC000F9E700BF10B4044C13460A4601462068D9
:102CD0005DF8044BFFF7D0BFC80FFF1F70B50D465E
:102CE000084C114606461A46284600232360FFF783
:102CF000D6FE431C00D070BD2368002BFBD0336090
:102D000070BD00BF381AFF1F2DE9F047254C25681C
:102D1000D5F848410646884692469946C4B360684D
:102D20001F2817DC431C76B104EB80050122C5F88F
:102D300088A0D4F8881182401143022EC4F888116B
:102D4000C5F808911ED00230636044F8208000204E
:102D5000BDE8F087144B03B34FF4C87004F064FD72
:102D60000446D0B1D5F84831002780E88800C5F87E
:102D7000484138460123C4F88871C4F88C71002E8C
:102D8000E1D0D1E7D4F88C110A43C4F88C21DAE7FA
:102D900005F5A674C5F84841C1E74FF0FF30BDE81E
:102DA000F08700BF887C000029780000024B13B137
:102DB000024800F005B8704700000000CD2D00006B
:102DC000002301461A461846FFF79EBF38B5074D47
:102DD000074C2C1BA41005D0013C55F8043D984726
:102DE000002CF9D1BDE8384005F0A0B80000000083
:102DF00000000000F8B5234F0C46064600F0A6FC84
:102E0000BB685D6825F00305291B01F6EF7121F40D
:102E10007F6121F00F01A1F58054B4F5805F07DBDD
:102E20000021304601F098F9BB682B44984204D049
:102E3000304600F08DFC0020F8BD6142304601F0C4
:102E40008BF901300DD0104BBA6819682D1B45F075
:102E500001053046091B5560196000F079FC01201E
:102E6000F8BD0021304601F077F9BA68831A0F2BBC
:102E7000DEDD064C0449246843F00103001B536067
:102E80000860D5E73811FF1F101AFF1F4415FF1FF8
:102E9000002945D02DE9F0410D46804600F056FC52
:102EA00055F8047C6A4927F00103A5F10804E218EB
:102EB0008E685068B24220F0030062D0FE07506076
:102EC0000BD455F8087CE41B01F1080EA568754584
:102ED0003B446FD0E768EF60BD6015186D68ED0783
:102EE00042D543F001026260E350B3F5007F18D28F
:102EF000DB085A1C4D6851F83270A76001209B1006
:102F000000FA03F301EBC2001D430838E0604D6096
:102F100041F83240FC604046BDE8F04100F018BC8A
:102F200070475A0A042A53D89A0902F139077F00D8
:102F300002F1380501EB870051F827204449083891
:102F400090424DD0516821F003018B4202D2926829
:102F50009042F7D1D068E060A2608460D4604046BF
:102F6000BDE8F04100F0F4BB95683A4FBD42034420
:102F70003FD0D068E86043F0010285606260E350B2
:102F8000B3E7FF07034407D455F8082CA41A1344E9
:102F9000A068E268C26090602F4A126843F00100A6
:102FA000934260608C60B6D32C4B40461968FFF7A3
:102FB00021FFB0E711184968C90744D49168D26865
:102FC000CA60034443F0010091606060E350A2E7EF
:102FD000142A17D802F15C077F0002F15B05A9E70C
:102FE000AA104B68012505FA02F213434B60024612
:102FF000B1E743F001024C610C61E560A5606260DD
:10300000E35088E7542A06D81A0B02F16F077F00B5
:1030100002F16E058EE7B2F5AA7F06D8DA0B02F14F
:1030200078077F0002F1770584E740F2545082422E
:1030300006D89A0C02F17D077F0002F17C0579E742
:10304000FE277E2576E743F001026260E35062E7E7
:103050003811FF1F4011FF1F4015FF1F0C1AFF1FE3
:10306000044A054B1268506B002808BF1846F03020
:10307000704700BFC80FFF1FCC0FFF1F2DE9F04F97
:1030800001F10B05162D83B0064640F29F8035F006
:10309000070500F1BF80A94200F2BC8000F056FB9A
:1030A000B5F5FC7FC0F09C826B0A00F0BA80042B5F
:1030B00000F28381A80900F1390E4FEA4E0338303F
:1030C000C44F07EB8303A3F108015C68A14207D159
:1030D000ACE0002A80F2AC80E468A14200F0A68057
:1030E000636823F003035A1B0F2AF2DDB9493C69D8
:1030F00001F1080E744500F0B381636823F0030307
:103100005A1B0F2A00F39981002AC1F814E0C1F874
:1031100010E080F29E80B3F5007F80F06781DB08CD
:1031200003F1010C01229B1002FA03F34A6851F8E3
:103130003C80C4F8088001EBCC091A43A9F10803CC
:10314000E3604A6041F83C40C8F80C408310012419
:103150009C40944200F28A80144206D120F0030081
:103160006400144200F10400FAD007EBC009CC4619
:103170008046DCF80C108C4507D173E1002A80F200
:103180008181C9688C4500F06D814B6823F0030391
:103190005A1B0F2AF2DD0C46D1F80CC054F8088FE8
:1031A0004B1945F001054D6042F00101C8F80CC013
:1031B0003046CCF808807B613B61C3F80CE0C3F873
:1031C00008E059609A5000F0C3FA1FE0102921D896
:1031D00000F0BCFA1025062302207E4F07EB830384
:1031E000A3F108025C68944200F045816368E168DD
:1031F000A56823F00303234430465A68E96042F08F
:1032000001028D605A6000F0A3FA0834204603B032
:10321000BDE8F08F00240C232046336003B0BDE8E6
:10322000F08F80234FF0400E3F2049E770465DE766
:103230002344E1685A68A56842F00102E96030461B
:103240008D605A6000F084FA0834204603B0BDE86F
:10325000F08F234430465A6842F001025A6000F071
:1032600077FA0834204603B0BDE8F08FBC68636885
:1032700023F00308A84504D3C5EB08030F2B00F384
:103280008C80554BDFF860911A68D9F80030013313
:103290002A4404EB080A00F0608102F580520F32E4
:1032A00022F47F6222F00F0211463046019200F0B4
:1032B00053FFB0F1FF3F8346019A00F058818245E9
:1032C00000F2FC80454B1968DA451144196000F0A2
:1032D0005381D9F80000DFF810E101301BBFCAEBC1
:1032E0000B0A5144CEF800B019601BF0070100F042
:1032F0001781C1F10800C1F58051834408315A4457
:10330000C2F30B02C2EB010949463046019300F0BB
:1033100023FF431C019B00F03F81CBEB00024A449A
:1033200042F001021968C7F808B04944BC42CBF822
:1033300004201960DFF8A49016D0B8F10F0F40F206
:10334000FD806268A8F10C0323F00703E01802F087
:1033500001024FF0050E1A430F2B6260C0F804E023
:10336000C0F808E000F21C811D4BBC681A6891424D
:1033700088BF19601B4B1A689142626888BF196048
:1033800022F003029542A2EB050301D80F2B04DCC7
:10339000304600F0DDF9002438E7621943F00103FC
:1033A00045F0010565603046BA60536000F0D0F921
:1033B0000834204603B0BDE8F08F142B71D9542B8C
:1033C00000F2A480280B00F16F0E4FEA4E036E301E
:1033D00076E600BF3811FF1F0C1AFF1F101AFF1FDF
:1033E000081AFF1F041AFF1F4415FF1F5A0A042A58
:1033F0005ED9142A00F2B38002F15C0149005B320D
:1034000007EB810C57F82110DFF8DC81ACF1080CD8
:103410008C4500F088804A6822F00302934202D271
:1034200089688C45F7D1D1F80CC07A68C4F80CC013
:10343000A160CCF80840CC6088E6631942F001072F
:1034400045F00105656030464B610B61C3F80CE047
:10345000C3F808E05F609A50083400F079F9D5E6C7
:103460004A6873E608F1010818F0030F0CF1080C24
:103470007FF47FAE30E0DC68A34208BF02303FF447
:1034800035AEB3E60B440C465A68C96854F8085F79
:1034900042F001025A603046E9608D6000F058F950
:1034A000B4E603F15C0E03F15B004FEA4E0307E65E
:1034B0009A0902F1390149003832A1E7BC424A4B6E
:1034C0003FF400AF9C68626822F003025AE759F8A3
:1034D0000839994540F0828010F0030F00F1FF3069
:1034E000F5D17B6823EA04037B6064009C423FF6CD
:1034F000BDAE002C3FF4BAAE1C4240467FF435AE60
:1035000064001C4200F10400FAD02EE6B3F5AA7F55
:1035100018D8E80B00F1780E4FEA4E037730CFE56C
:103520004FF48051EBE60121D8F80430921001FAF3
:1035300002F21A43C8F80420614677E70123CBF86A
:10354000043025E740F25452934220D8A80C00F1F1
:103550007D0E4FEA4E037C30B2E51032A4E6542AC9
:1035600026D81A0B02F16F0149006E3248E7BC6899
:10357000626822F0030205E7CAF30B0000287FF41B
:10358000A8AE4244BB6842F001025A60ECE6FE235A
:103590004FF07F0E7E2093E501224FF00009C1E637
:1035A00004F108013046FFF773FCD9F80010DBE6A0
:1035B000B2F5AA7F05D8DA0B02F17801490077321B
:1035C0001EE740F254518A4205D89A0C02F17D015F
:1035D00049007C3214E7FE217E2211E77B6884E7F4
:1035E000E808431C5B00F8E53811FF1F82B049B1C1
:1035F0005AB16BB113780B601278101C18BF012000
:1036000002B0704701A9002AF3D1104602B07047FA
:103610006FF00100F4E700BF844641EA000313F0B5
:1036200003036DD1403A41D351F8043B40F8043BC9
:1036300051F8043B40F8043B51F8043B40F8043B8C
:1036400051F8043B40F8043B51F8043B40F8043B7C
:1036500051F8043B40F8043B51F8043B40F8043B6C
:1036600051F8043B40F8043B51F8043B40F8043B5C
:1036700051F8043B40F8043B51F8043B40F8043B4C
:1036800051F8043B40F8043B51F8043B40F8043B3C
:1036900051F8043B40F8043B51F8043B40F8043B2C
:1036A00051F8043B40F8043B403ABDD2303211D3CC
:1036B00051F8043B40F8043B51F8043B40F8043B0C
:1036C00051F8043B40F8043B51F8043B40F8043BFC
:1036D000103AEDD20C3205D351F8043B40F8043BCC
:1036E000043AF9D2043208D0D2071CBF11F8013BCA
:1036F00000F8013B01D30B8803806046704700BF90
:10370000082A13D38B078DD010F003038AD0C3F19E
:103710000403D21ADB071CBF11F8013B00F8013B80
:1037200080D331F8023B20F8023B7BE7043AD9D33F
:10373000013A11F8013B00F8013BF9D20B78037014
:103740004B7843708B78837060467047704700BF3A
:10375000704700BFC36C70B505460C464BB153F8BB
:10376000240080B1026843F8242000230361C36071
:1037700070BD2122042100F0AFFDE864034600285B
:10378000EDD1002070BD012101FA04F6721D28461A
:10379000920000F0A1FD0028F3D044608660E4E7C9
:1037A00031B1C36C4A6853F82200086043F8221014
:1037B000704700BFF0B50C6983B00D46064601F1B5
:1037C000140E0027DEF8000081B202FB01310B0C61
:1037D000000C02FB003389B2013701EB0341BC420C
:1037E0004EF8041B4FEA1343ECDC3BB1AA68944249
:1037F00007DA05EB8402013453612C61284603B0DB
:10380000F0BD6968019301313046FFF7A3FF2A69D3
:10381000023205F10C01074692000C30FFF7FCFE66
:10382000F26C6968019B52F82100286042F821502F
:103830003D46DEE7030C1B04B3B90004102310F06F
:103840007F4F04BF0002083310F0704F04BF000127
:10385000043310F0404F04BF80000233002807DB20
:10386000420003D4202070470023E8E7581C70472B
:1038700018467047036813F0070207D0D90720D411
:103880009A0720D49B0803600220704799B209B9B7
:103890001B0C102213F0FF0F04BF1B0A083219077C
:1038A00004BF1B090432990704BF9B080232D907E1
:1038B00004D45B0801D12020704701320360104618
:1038C0007047002070475B0803600120704700BF0D
:1038D00010B50C460121FFF73DFF01224461026152
:1038E00010BD00BF2DE9F04F0D691769BD4283B0CF
:1038F0000C46164604DA2A4634463D460E4617461E
:10390000A368616805EB07089845C8BF0131FFF758
:1039100021FF00F1140C0CEB8809CC45009005D276
:103920006346002143F8041B9945FBD806F11402B5
:1039300002EB870A04F11403524503EB850E54D2BF
:10394000CDF80490994652F8043B1FFA83FBBBF173
:10395000000F20D000204F466646054600E01E4678
:1039600057F8044B3068A1B283B20BFB0131240C31
:10397000000C4B190BFB040000EB134099B23346CB
:1039800041EA0041BE454FEA104543F8041BE6D822
:10399000756052F8043C5FEA134B20D0DCF800302D
:1039A000674618464D46002100E037462C88000C3B
:1039B0000BFB040001449CB23E4644EA014346F836
:1039C000043B786855F8044B83B2240C0BFB043499
:1039D00004EB1143AE454FEA1341E6D87B609245B4
:1039E0000CF1040CAFD8DDF80490B8F1000F0BDD3A
:1039F00059F8043CA9F104091BB105E059F8043D4C
:103A000013B9B8F10108F9D10098C0F8108003B0DB
:103A1000BDE8F08F12F003032DE9F041144607468C
:103A20002ED10E46A4101CD0BD6C95B3E3074FF009
:103A3000000806D4641014D02868A8B10546E3072E
:103A4000F8D52A4631463846FFF74CFFB6B17268C2
:103A5000FB6C641053F82210316043F82260064674
:103A6000EAD13046BDE8F0812A4629463846FFF7BC
:103A700039FF2860C0F800800546E0E70646D9E730
:103A80005A1E0B4D002355F82220FFF793FE0646E1
:103A9000C8E701213846FFF75DFE40F2712101229F
:103AA0000023416102610546B8640360BEE700BFC0
:103AB000907D00002DE9F04791460A698B684FEA36
:103AC000691404EB020808F101059D420E46824686
:103AD000496804DD5B009D4201F10101FADC5046BA
:103AE000FFF738FE002C00F1140238DD02EB8403EE
:103AF000002142F8041B9342FBD1346906F1140102
:103B000019F01F0901EB840E21D0C9F12002002415
:103B10000F6807FA09FC4CEA04049C4643F8044B7E
:103B200051F8044B8E4524FA02F4F1D8CCF8044045
:103B30000CB108F10205DAF84C307268013D53F817
:103B400022100561316043F82260BDE8F087043B34
:103B500051F8042B43F8042F8E45F9D8EBE71346B0
:103B6000CBE700BF02690B69D21A13D19B00143056
:103B70001431194410B4034401E098420CD253F8B4
:103B8000044D51F8042D9442F7D009D301205DF87B
:103B9000044B70471046704700205DF8044B704797
:103BA0004FF0FF30F3E700BF2DE9F8430B690F46F4
:103BB00011695B1A002B904617D1890007F1140296
:103BC00008F114055318294401E09A425ED253F8D3
:103BD000046D51F8044DA642F7D060D23B4614461E
:103BE00047464FF00109984606E05DDB07F11405F2
:103BF00002F114044FF000097968FFF7ABFDD8F823
:103C000010303E69C0F80C9004EB830CA64605EB1F
:103C1000860700F1140400235EF8041B55F8048B9A
:103C20008AB213FA88F3090C9A1AC1EB184303EB12
:103C3000224392B242EA0342F44544F8042B4FEA8D
:103C40002343E9D8AF4217D9A446294651F804EBDB
:103C500013FA8EF2131403EB1E4392B242EA0342AC
:103C60008F424CF8042B4FEA2343EFD8ED433D44F9
:103C700025F0030504352C44043C22B954F8043DD6
:103C8000013E002BFAD00661BDE8F8830021FFF762
:103C900061FD0122002302614361BDE8F8832C46E7
:103CA0004FF000091546A7E73B4607F1140408F159
:103CB000140547464FF0010998469DE72DE9F0436A
:103CC00057EC106B83B0884601213C46C7F30A5578
:103CD0001746FFF73FFDC4F3130481460DB144F4CA
:103CE000801401941EB302A840F8086DFFF7C2FDCE
:103CF000002834D19DE80C00C9F81420002B0CBF1B
:103D000001210221C9F81830C9F81010DDB909EBFA
:103D10008103A0F23240C8F800001869FFF78AFD5D
:103D2000C0EB41103860484603B0BDE8F08301A8FD
:103D3000FFF7A0FD019BC9F8143001212030C9F81C
:103D40001010002DE3D0A5F233450544C0F1350035
:103D5000C8F800503860484603B0BDE8F0839DE8DD
:103D60000C00C0F1200103FA01F10A43C3400193A2
:103D7000C9F81420C2E700BF2DE9F04F174683B001
:103D8000002900F0C1800E46814607F10B05FFF7C0
:103D9000DDFC56F804EC162D2EF00304A6F10808FD
:103DA00040D810221546AF4241D8944275DAC94B2B
:103DB000996808EB04008842416800F0D98021F03E
:103DC000010303445B68DB077DD51EF0010F35D08E
:103DD00039464846FFF752F90746E0B156F8043C29
:103DE00023F001034344A0F108029A4200F0448109
:103DF000221F242A00F23181132A00F20481034693
:103E00003246116819605168596092689A6031466B
:103E10004846FFF73DF84846FFF79AFC384603B09E
:103E2000BDE8F08F25F00705002D2A46BBDA0C23EC
:103E30000020C9F8003003B0BDE8F08F56F8083C08
:103E4000C3EB080ADAF8043023F0030C04EB0C038C
:103E50009342BDDB5746DAF80C1057F8080F221FC3
:103E6000242AC160886000F21781132A40F212816F
:103E70003168CAF808107168CAF80C101B2A00F2E1
:103E80002B8108360AF110023168116071685160A7
:103E9000B16891603E461C46D046631B0F2B1DD86F
:103EA000D8F8043003F0010323434444C8F8043035
:103EB000636843F0010363604846FFF749FC3046FE
:103EC00003B0BDE8F08F21F003012144914221DBD2
:103ED000C36882680C46D3609A60DEE7D8F8042095
:103EE00008EB050102F00102154343F001020B4407
:103EF000C8F804504A605A6842F0010208315A601A
:103F00004846FEF7C5FFD7E7114603B0BDE8F04FBE
:103F1000FFF7B4B81EF0010F7FF45AAF56F8083C13
:103F2000C3EB080ADAF8043023F0030C01EB0C0EA3
:103F300096458BDBC36882685746D3609A6057F812
:103F4000081FDAF80C30CB60221F242A996000F297
:103F50009980132A62D93368CAF808307368CAF89E
:103F60000C301B2A00F2A08008360AF1100356E03C
:103F700021F0030BA34405F11000834559DA1EF02C
:103F8000010F7FF425AF56F8081CC1EB080ADAF8D8
:103F9000041021F0030CE34458453FF757AF574650
:103FA000DAF80C1057F8080F221F242AC160886025
:103FB00000F2B480132A40F2A5803168CAF80810D4
:103FC0007168CAF80C101B2A00F2AF8008360AF19B
:103FD00010023168116071685160B16891600AEB3C
:103FE0000501C5EB0B0242F0010299604A60DAF864
:103FF000043003F001031D434846CAF80450FFF79C
:10400000A7FB38465CE733680360736843601B2A8C
:1040100027D800F1080306F10802F2E63B463268B1
:104020001A6072685A60B2689A603E467446D0461A
:1040300033E708EB0501C5EB0B0B4BF00102996070
:104040004A6056F8043C03F001031D43484646F815
:10405000045CFFF77DFB304632E7314601F01AF988
:10406000D5E6B3688360F368C360242A28D000F1E2
:10407000100306F11002C4E650F8043C23F00303D9
:104080001C440AE7314638467446D04601F002F92E
:104090003E4602E73A46F7E6314638461C46D046E9
:1040A00001F0F8F83E46F8E6B368CAF81030F36855
:1040B000CAF81430242A1BD010360AF11803AEE7D0
:1040C000336903617369436106F1180200F1180353
:1040D00097E600BF3811FF1FB168CAF81010F168E9
:1040E000CAF81410242A0FD010360AF11802CBE6B1
:1040F0003369CAF818307369CAF81C3018360AF1E7
:1041000020038CE73A4664E73269CAF818207269DE
:10411000CAF81C2018360AF12002B5E631463846A6
:10412000019301F0B7F8019B59E7B168CAF8101084
:10413000F168CAF81410242A03D010360AF11802C4
:1041400047E73269CAF818207269CAF81C20183685
:104150000AF120023DE700BF38B5074C00230546B1
:1041600008462360FCF724FF431C00D038BD2368B9
:10417000002BFBD02B6038BD381AFF1FFFFFFFFF5D
:1041800090F800F06DE9024520F007016FF0000C97
:1041900010F0070491F820F040F049804FF000043F
:1041A0006FF00700D1E9002391F840F000F108001A
:1041B00082FA4CF2A4FA8CF283FA4CF3A2FA8CF352
:1041C0004BBBD1E9022382FA4CF200F10800A4FAB9
:1041D0008CF283FA4CF3A2FA8CF3E3B9D1E904230D
:1041E00082FA4CF200F10800A4FA8CF283FA4CF344
:1041F000A2FA8CF37BB9D1E9062301F1200182FAFE
:104200004CF200F10800A4FA8CF283FA4CF3A2FA03
:104210008CF3002BC6D0002A04BF04301A4612BA11
:10422000B2FA82F2FDE8024500EBD2007047D1E914
:10423000002304F00305C4F100004FEAC50514F0A3
:10424000040F91F840F00CFA05F562EA05021CBF74
:1042500063EA050362464FF00004A9E770B515460E
:104260009AB0146809B1002C1AD100244FF42272BC
:10427000ADF80C20009404941A464FF6FF761E9B6E
:10428000029469460594ADF80E6001F069F80028C3
:1042900011DB009B286000221A7004981AB070BDD0
:1042A0004FF4C16200910491ADF80C20E4DA8B2345
:1042B00003600020F2E70020F0E700BF21B1FF2AF1
:1042C00004D80A7001207047084670478A230360AB
:1042D0004FF0FF30704700BF10B502FB01F1FEF751
:1042E000CDFE0446D8B150F8042C22F00302043A63
:1042F000242A18D8132A14D900231B2A03604360E8
:1043000016D9242A8360C36011BF00F11002036133
:10431000436100F11802002313605360936020464C
:1043200010BD0246F7E70021FEF74AFC204610BD0B
:1043300000F10802EFE700BF02690B69934200F346
:104340008D802DE9F04F03F1FF3801F1140700F1E2
:10435000140B57F828205BF828304FEA880483B004
:104360000132B3FBF2F90BEB0403009407EB040AF0
:104370000193B9F1000F39D00025BC46DE462B462B
:104380005CF8046BDEF80020B4B209FB0455360C6F
:104390002C0C09FB0644ADB25B1BA6B213FA82F3E8
:1043A000C6EB124606EB23469BB243EA0643E245C0
:1043B0004EF8043B4FEA14454FEA2643E0D2009BF7
:1043C0005BF8033093B9019C231F9B450CD254F832
:1043D000043C4BB9A4F1080302E01A68043B1AB983
:1043E0009B4508F1FF38F8D3C0F810800446FFF76A
:1043F000B9FB00282EDB09F101095D46002357F8BF
:10440000041B28688AB29A1A090C12FA80F2C1EBCE
:10441000104303EB224391B241EA0341BA4545F808
:10442000041B4FEA2343EAD25BF828200BEB8803F6
:1044300082B91A1F93450BD253F8042C42B9083B9A
:1044400002E01A68043B1AB99B4508F1FF38F8D31B
:10445000C4F81080484603B0BDE8F08F00207047D4
:104460002DE9F04F57EC106B9BB0046C249D00912C
:1044700081460592039310EE10AABB4654B1426CDC
:10448000626001239340A3602146FFF789F900236E
:10449000C9F84030BBF1000F5C4634DB00232B60D1
:1044A000A14B1A462340934216D0002200235046C7
:1044B000594602F0BDFF56465F46804648B3039A10
:1044C00001231360259B002B00F0BE8097481860E5
:1044D00001381BB0BDE8F08F039A42F20F731360EE
:1044E000BAF1000F00F09A809148259B002BF0D084
:1044F000C378002B00F0AA8000F10803259A13600E
:104500001BB0BDE8F08F01232BF000442B60A346C5
:10451000C6E718AA19A947EC106B4846FFF7CEFB6F
:10452000250D0A9040F08380189D199E2E4406F2B6
:104530003243202B40F38882C3F1400306F212403D
:104540009C402AFA00F0204302F094FC0123741EE0
:10455000A1F1F8710F930022764B02F04DFB6CA392
:10456000D3E9002302F0FCFC6BA3D3E9002302F0A3
:1045700045FB064620460F4602F08CFC68A3D3E9B3
:10458000002302F0EDFC02460B463046394602F0AD
:1045900035FB06460F4602F093FF002204900023ED
:1045A0003046394602F04EFF002840F02882049E33
:1045B000162E00F22182604B03EBC603D3E9000103
:1045C00052465B4602F05CFF002800F04282731EF8
:1045D000049300230D932D1BB5F1010800F12A82ED
:1045E00000230793049B002BC0F21B8298440C937A
:1045F00000230693009B092B2AD8052B40F3448601
:10460000043B00930026009B023B032B00F2238611
:10461000DFE813F02B03240236035004444B474ACF
:10462000C4F31300002814BF184610465DE7CBF30F
:10463000130343F07F51A5F2FF345046CDF83C8080
:1046400041F44011189D86E73D4842E7C31C55E7F9
:104650000021C9F8441048460C460091FFF77AF84B
:104660004FF0FF3308930E9301230990C9F84000DF
:1046700005940B93199B002BC0F2D080049A0E2A4C
:1046800000F3CC802C4B03EBC20393ED007B059B26
:10469000002B8DED007BC0F2FE8256465F46DDE9C1
:1046A00000AB304652465B46394602F083FD02F0CD
:1046B00007FF044602F0EEFB52465B4602F050FC58
:1046C0000B4602463946304602F096FA099D04F13F
:1046D00030032B70089B012B06460F4605F10105A0
:1046E00061D00022174B02F03BFC0022002306465B
:1046F0000F4602F09DFE00287DD1CDF81490DDF824
:1047000020A0DDF824B0DDE9008928E0AFF30080C7
:1047100061436F63A787D23FB3C8608B288AC63FC7
:10472000FB799F501344D33F0000F07FB17E00001F
:10473000AC7E00000000F83FA07C0000A07E0000DE
:10474000B07E00000000244002F00AFC002200239A
:1047500006460F4602F06CFE002840F0AE8342464B
:104760004B463046394602F025FD02F0A9FE0446CC
:1047700002F090FB42464B4602F0F2FB02460B462B
:104780003046394602F038FA04F1300E05F801EBF4
:10479000CBEB050ED64506460F464FF00002AE4B5A
:1047A000D2D1DDF8149032463B463046394602F00D
:1047B00025FA06460F4602460B46DDE9000102F0E7
:1047C00041FE40B932463B46DDE9000102F030FED1
:1047D00088B1E3070FD515F8014C099A6B1E04E068
:1047E0009A4200F0FC8313F8014D392C03F10105C6
:1047F000F6D001341C700A994846FEF7D1FF00221A
:10480000049B2A70039A01331360259B002B00F050
:104810009B8309981D601BB0BDE8F08F0B9A002A9E
:1048200000F00E81009A012A40F35782089B069AF5
:104830005F1EBA42C0F28B83D71B089B002BC0F2CD
:104840008084079D089B079A01211A4448460792D5
:104850009844FFF73DF8064665B1B8F1000F09DD51
:104860004545079A2B46A8BF4346D21A0792ED1A30
:10487000C3EB0808069B002B40F3F5820B9A002A35
:1048800000F00282002F00F0FF8131463A46484690
:10489000FFF7C0F80A9A014606464846FFF722F895
:1048A0000A9904464846FEF77BFF069BDB1B0693EE
:1048B00040F0E98101214846FFF70AF80C9B069079
:1048C000002B00F0158201461A464846FFF7A2F871
:1048D000009B0690012B40F3F3820027069A136990
:1048E00002EB83031869FEF7A5FFC0F120004044E6
:1048F00010F01F0000F0FA81C0F12003042B40F3F8
:10490000BD84C0F11C00079B034407930544804409
:10491000079B002B05DD21461A464846FFF7CAF8DB
:104920000446B8F1000F05DD424606994846FFF7F8
:10493000C1F806900D9B002B40F07A82089B002B5B
:1049400040F393820B9B002B40F0F481DDF824B000
:10495000089FDDF818805D4602E0FEF72BFF044655
:1049600041462046FFF7E8FC00F1300A05F801ABAC
:10497000CBEB0503BB424FF00A024FF00003214688
:104980004846EADB099B089A012AACBF9B18013311
:104990001D464FF0000B214601224846FFF78AF8DA
:1049A00006990A90FFF7DEF8002840F3058315F812
:1049B000012C09996B1E04E08B4200F0748213F8FD
:1049C000012D392A03F10105F6D001321A7006993A
:1049D0004846FEF7E5FE002E3FF40DAFBBF1000F99
:1049E00005D0B34503D059464846FEF7D9FE3146B7
:1049F0004846FEF7D5FEFEE601230D93EBE5DDF814
:104A00001080404602F046FA02460B4630463946D0
:104A100002F00EFD00287FF4CAAD08F1FF330493C5
:104A2000C5E5079A049BD21A5B42069300230792BE
:104A30000C93DFE5C8F1000307934FF00008D1E5C0
:104A4000069F079D0B9E07E7C3F120040AFA04F0B6
:104A50007AE50D90BFE500BF0000244000230B93D2
:104A6000049B059A13440E930133002B089340F3E3
:104A70007D82089C25460021172DC9F844100BD9CA
:104A8000012204235B0003F11400A842114602F145
:104A90000102F7D9C9F844104846FEF75BFE0E2C18
:104AA0000990C9F840003FF6E5AD002E3FF4E2ADB5
:104AB00004990029CDE910AB40F39A82904B01F0A4
:104AC0000F020E1103EBC203F006D3E9004540F1DB
:104AD00046828C4B50465946D3E9082302F06AFBC4
:104AE000CDE9120106F00F064FF0030A86B1854F9B
:104AF000F10709D520462946D7E9002302F030FA0C
:104B00000AF1010A04460D46761007F10807EFD1B5
:104B100022462B46DDE9120102F04CFB06460F4609
:104B20000D9B43B10022784B3046394602F08AFC97
:104B3000002840F01A83504602F0ACF932463B465A
:104B400002F00EFA714B002202F058F8089B04465E
:104B5000A1F15075002B00F0DB81049B1693089B9C
:104B600012930B9B002B00F09482129A644B6849BD
:104B700003EBC20353E90223002002F01BFB224691
:104B80002B4602F039F882468B463046394602F011
:104B900097FC044602F07EF902460B463046394641
:104BA00002F02AF83034099DE4B206460F462C7014
:104BB00002460B4650465946013502F061FC00287A
:104BC00050D132463B4600204F4902F015F80246CC
:104BD0000B465046594602F053FC002840F008832B
:104BE000129A012A40F3F781129B099ACDF8488066
:104BF000134498460DE00020434901F0FDFF524662
:104C00005B4602F01FFC002840F0F282454500F0B0
:104C1000E0815046594600223E4B02F0A1F90022A5
:104C20003C4B82468B463046394602F099F90F4696
:104C3000064602F045FC044602F02CF902460B46FB
:104C40003046394601F0D8FF3034E4B252465B4674
:104C500005F8014B06460F4602F0F4FB32463B4690
:104C60000028C8D0169B0493C5E500230B93059B31
:104C7000002B40F380811D461C460E930893FAE6F4
:104C800001230B93F3E70A94069A0A994846FEF724
:104C9000C1FE04460EE6089B002B3FF7FEAC40F039
:104CA0004F8100221C4BDDE9000102F059F95B46FF
:104CB000524602F0DBFB089B06931E46002800F0DC
:104CC000EA80059B099DDB43049306994846FEF75D
:104CD00067FD002E3FF48FAD89E60F9A002A00F0A1
:104CE000388203F23343069F079DACE51C200AE699
:104CF000009B012B40F380820C9F0120F7E500BF51
:104D0000A07C0000687D00000000F03F00001C4017
:104D10000000E03F00002440000014403146002322
:104D20000A224846FEF746FD0E9B002B064640F33E
:104D30008D820893002D05DD31462A464846FEF750
:104D4000B9FE0646002F40F07C81B046089B099AC8
:104D5000013BD31808930AF001030A931746DDF8C4
:104D600018B020465946FFF7E7FA31460546204677
:104D7000FEF7F8FE4246594682464846FEF714FFC3
:104D8000C268834605F13003002A49D10146204616
:104D90000793FEF7E7FE594605904846FEF700FDEB
:104DA000059A079B2AB9009919B90A99002900F0B8
:104DB0003582BAF1000FC0F2E38005D1009919B92C
:104DC0000A99002900F0DC80002A00F34E81089A3D
:104DD0003B7007F1010A9742554600F05281214687
:104DE00000230A224846FEF7E5FC464504463146C4
:104DF0004FF000034FF00A0248460BD0FEF7DAFCF2
:104E00004146064600230A224846FEF7D3FC574691
:104E10008046A4E7FEF7CEFC5746064680469EE74E
:104E2000014648460593FEF7BBFC0122059BC0E7FF
:104E300006992046FEF796FE0028BFF67FAD214674
:104E4000049C0023013C0A2248460494FEF7B2FC6D
:104E50000B9B0446002B7FF461AF0E9B002B40F3AD
:104E6000ED81089372E50A9C24E5009B022B7FF7F5
:104E700069AD089B002B40F09D81069905224846AC
:104E8000FEF798FC014606902046FEF76BFE0028D0
:104E90000A947FF716AF049A0999312301320492DC
:104EA0000B704D1C11E7049A01320492099A3123C8
:104EB00013708CE501230B93D2E5DDF814909AE48E
:104EC000BAF1000F7FF409ADCBF31303002B40F0D0
:104ED0003E812BF000473F0D3F052FB1079B01336B
:104EE000079308F1010801270C9B0120002B3FF4D8
:104EF000FEACF3E4504601F0CDFF32463B4602F0F3
:104F00002FF80022BF4B01F079FE0446A1F1507545
:104F1000304639460022BC4B01F06EFE22462B463D
:104F200006460F4602F0ACFA002840F0AE8022465A
:104F300005F100433046394602F084FA00284AD091
:104F4000002306931E46BCE60998FFF7C2BA069BEB
:104F50000C9A0697FB1A1A440C9200276DE49DEDFB
:104F6000107B4FF0020A8DED127BBFE51C4600213D
:104F7000C9F8441090E501240E9408940594F6E7CE
:104F8000002A9A4611DD214601224846FEF792FD8D
:104F900006990446FEF7E6FD002840F34881BAF181
:104FA000390F00F0098105F1310AB34687F800A0F6
:104FB0007D1C46460A940AE504D11AF0010F01D07F
:104FC000F5E4154615F8013C302B05F1FF32F8D019
:104FD000FDE4DDF84880DDE910ABFFF74BBB099934
:104FE00030220A70049A15F8014C0132049200E450
:104FF000049B5C42002C00F0B380844B04F00F0251
:1050000003EBC203D3E90023DDE9100101F0A8FF9F
:10501000241106460F4600F016817D4D4FF0020A1E
:10502000E20709D530463946D5E9002301F098FF5B
:105030000AF1010A06460F46641005F10805EFD192
:105040006EE571684846FEF785FB33699A1C054694
:10505000920006F10C010C30FEF7DEFA294601221F
:105060004846FEF727FD804670E6392B00F0A48005
:1050700003F1010AB34687F800A07D1C46460A9456
:10508000A5E4B3469A46464685E4002306931E46A9
:1050900001E7129B5D495A1E01EBC2012B46179294
:1050A000D1E90001224601F05BFFCDE91401394648
:1050B000304602F005FA044601F0ECFE0B460246CB
:1050C0003946304601F098FD129B0F46099930345D
:1050D000012B06460C7001F1010520D0129B099AA4
:1050E00013449A46AB4600224A4B3046394601F0FB
:1050F00037FF0F46064602F0E3F9044601F0CAFE08
:10510000303402460B463046394601F075FD0BF847
:10511000014BDA4506460F46E5D1179B1D44002298
:105120003D4BDDE9140101F069FD32463B4602F0DA
:1051300089F9002848D0169B049315F8014CFFF715
:105140004CBB079B089A9D1A0023FFF77CBB0027E6
:10515000CAE6189B069F079DC3F13603FFF773BB92
:10516000DDE910674FF0020ADAE4089B002B3FF4F8
:10517000C1AE0E9B002B7FF72EAF0022254B304691
:10518000394601F0EDFE06460F460AF1010001F036
:1051900081FE32463B4601F0E3FE0022194B01F04E
:1051A0002DFD049A0E9B1293013A0446A1F150750D
:1051B0001692D6E40A9484E53922B3460A94464608
:1051C0003A707D1CFFF7F5BBDDE91423002012497E
:1051D00001F012FD32463B4602F052F908B9FAE6F8
:1051E000154615F8013C302B05F1FF32F8D039E5B2
:1051F000169B0493FFF7F1BABAF1000F7FF47CAD70
:1052000062E600BF00001C4000001440A07C0000CB
:10521000687D0000000024400000E03F392BD346A9
:105220009A46C9D0BBF1000F3FF7BDAEBDE67FF493
:10523000BCAE1AF0010F3FF4B8AEB0E6009B022BF3
:1052400025DC0E9B0DE64FF0020A69E4009B022B61
:105250001DDC0E9B6DE50024C9F8444021464846FC
:10526000FEF778FA4FF0FF3308930E93012309906D
:105270000594C9F840000B93FFF7FCB93FF448AB25
:10528000C0F13C00FFF73FBB0126FFF7BCB90E9B06
:105290000893EEE58842F0B50DD98B1898420AD2F2
:1052A0008118002A51D09A1A13F8014D01F8014DC6
:1052B0009342F9D1F0BD0F2A48D941EA00039B0778
:1052C00046D100F1100401F11003154653F8106C9B
:1052D00044F8106C53F80C6C44F80C6C53F8086CE0
:1052E00044F8086C103D53F8046C44F8046C0F2D1E
:1052F00003F1100304F11004E8D8A2F1100323F025
:105300000F0302F00F0E1033BEF1030F19440344D4
:1053100021D91E1F0D467446043C55F8047B46F8FF
:10532000047F032CF8D8AEF1040424F00304043401
:105330002344214402F0030262B1013B0A4411F804
:10534000014B03F8014F8A42F9D1F0BD0346F3E760
:105350000346F2E7F0BD7246EEE700BFFFFFFFFF36
:105360002DE9F04FC1B00C46059115460A93069001
:10537000FDF776FE036813931846FEF701FFA38935
:1053800012901E0603D52369002B01F031819FED99
:10539000A67B00238DED107B0E932593249315930C
:1053A0000793DFF890A230AB23939946A84698F86C
:1053B00000304446EBB1252B02D11AE0252B03D057
:1053C00014F8013F002BF9D1C8EB04058DB1249BE3
:1053D000259AC9F8008001332A44072BC9F80450E4
:1053E0002592249300F3A68009F10809079B2B441A
:1053F00007932378002B00F0A68000231A468DF82F
:105400006F301946089303934FF0FF3B637804F124
:1054100001085D4608F10108A3F12000582800F2B8
:105420003484DFE810F0A00332043204A80332040D
:1054300032043204320432043204AF03BD033204B6
:105440005D00E20032040901100110011001100199
:105450001001100110011001100132043204320455
:1054600032043204320432043204320432042001A1
:105470008602320486023204320432043204D40238
:1054800032043204E50232043204320432043204BB
:105490000F03320432043D03320432043204320476
:1054A0003204320432043204320432047E039103A3
:1054B00086028602860299039103320432040704AD
:1054C00032041204A3006400C2033204C90332048C
:1054D000EA0332043204F20308980A934042089027
:1054E000039B43F00403039398F8003092E70A9873
:1054F000AB46002104688DF86F10071D0398302318
:1055000078228B458DF870304FF000058DF87120B2
:1055100040F00203C0F2D68320F0800343F0020380
:10552000039354EA05030A9700F0A2830F460D92F5
:105530003F48E6E223AA0599069801F0D9FA48B94E
:105540000DF1C00952E7259B23B10698059923AABE
:1055500001F0CEFA059B9B8913F0400F079B18BF03
:105560004FF0FF33184641B0BDE8F08F0D93AB46C6
:10557000002A41F03382039A12F0200300F04682A1
:105580000A9F073727F00703002703F10801BB45EF
:105590000A91D3E900458DF86F70C0F2628722F05E
:1055A0008003039354EA050300F0848330AEE208DD
:1055B00042EA4572E90804F007030D461446303309
:1055C00054EA050206F8013DF1D1039AD10740F1F2
:1055D0008F80302B00F08C803022731E06F8012C57
:1055E00030AAD21A09921E4685E098F800302A2B7C
:1055F00008F1010401F0E481A3F13000092898BF0B
:10560000002501F2868114F8013B05EB850500EBCE
:105610004505A3F130000928F5D945EAE575A0460E
:10562000FAE600BFAFF300800000000000000000B9
:10563000E87E0000B47E0000039B43F080030393E8
:1056400098F80030E6E6A3F1300000231C4618F875
:10565000013B04EB840400EB4404A3F1300009286F
:10566000F5D90894D8E60D93AB46002A41F0C481E1
:10567000039B43F010030393039B9C0640F1378583
:105680000A9F073727F00707D7E9002307F108012A
:105690000A9114461D46002A73F10003C0F2628588
:1056A000BBF1000F9DF86F70C0F23F85039B23F0A4
:1056B0008003039354EA050300F0E881002D08BF3E
:1056C0000A2CC0F0E88130AE204629460A22002389
:1056D00001F01EFF303206F8012D20462946002336
:1056E0000A2201F015FF04460D4654EA0503EBD1EA
:1056F00030AB9B1B0993099B5B45B8BF5B4604938A
:1057000000230F9317B1049B01330493039B13F001
:1057100002030B9302D0049B02330493039B13F008
:1057200084030C9340F0DB82089B049A9D1A002DA1
:1057300040F3D582102D2599249AA84F27DD149681
:1057400048461024B946059E2F46069D04E0103FAA
:10575000102F00F1080016DD0132A04B2492103109
:10576000072A259180E81800F1DD23AA3146284652
:1057700001F0BEF900287FF4EDAE103F102F2599FF
:10578000249A30A8E8DC149E3D464F4681460132FB
:105790006C18072A25942492C9F80070C9F804509F
:1057A00000F32D849DF86F7009F1080977B1249BEF
:1057B000013301340DF16F010122072B259424934D
:1057C00089E8060000F3A58309F108090B9B6BB17A
:1057D000249B013302341CA90222072B2594249315
:1057E00089E8060000F3A18309F108090C9B802BCE
:1057F00000F0E182099BC3EB0B07002F33DD784AF1
:10580000249B0B92102F22DD22464FF0100B069D99
:10581000059C04E0103F102F09F1080916DD013343
:105820001032072B2592249389E8000CF2DD23AA7D
:105830002146284601F05CF900287FF48BAE103F2A
:10584000102F259A249B0DF1C009E8DC1446013382
:105850000B9A24933C44072B259489E8840000F399
:105860004C8309F10809039BDA0500F13A82249B75
:105870000999C9F8006001330C44072B2594C9F835
:105880000410249300F3238309F10809039B5907AB
:105890003FD5089B049A9D1A002D3ADD102D249BBC
:1058A0004E4F23DD22461026DDF818B0059C04E09B
:1058B000103D102D09F1080917DD013347492493E4
:1058C0001032072B259289E84200F1DD23AA2146F8
:1058D000584601F00DF900287FF43CAE103D102D24
:1058E000259A249B0DF1C009E7DC144601332C44B2
:1058F000072B25942493C9F80070C9F8045008DDDB
:1059000023AA0599069801F0F3F800287FF422AE47
:10591000259C079B089A04998A42ACBF9B185B1888
:105920000793002C40F0DF82002324930DF1C0097F
:105930003DE50D93AB46002A41F06280039B0A9F30
:105940001A0707F1070740F1748527F0070393ED65
:10595000007B8DED107B03F108020A92DDE9101245
:1059600022F0004316911793DDE916454FF0FF3200
:10597000204629461B4B01F08DFD002840F0DA84BB
:105980004FF0FF32174B2046294601F065FD0028F5
:1059900040F0D08400220023DDE9100101F052FD27
:1059A000002840F052879DF86F700F4E0F4B0399FF
:1059B00021F0800103910D9903224FF0000B049216
:1059C0004729D8BF1E460992CDF83CB09AE6039B02
:1059D00043F00803039398F800301BE5047F0000B0
:1059E000B47E0000FFFFEF7FC87E0000C47E000091
:1059F0000D93AB46002A41F00F80039B43F0100348
:105A00000393039A12F020037FF4BAAD039911F0C7
:105A1000100200F05B840A988DF86F30BBF1000F24
:105A2000046800F104074FF00005C0F219850A462A
:105A300022F08002039254EA05020A9700F03A81AC
:105A40001F46B3E50D93AB46002A40F0E187039B68
:105A500043F010030393039A12F0200300F02C8309
:105A60000A9F073727F00703002703F10801BB450A
:105A70000A91D3E900458DF86F70C0F2568322F089
:105A80008003039354EA05037FF418AEBBF1000FC3
:105A900000F0F580002440AE303406F8414D27E692
:105AA0000D93AB46002A40F0AF87039BAF489D069D
:105AB00040F1B5800A9F073727F00703D3E9004577
:105AC00003F108020A92039A12F0010700F03982EA
:105AD00054EA050300F002859DF834208DF871200A
