:1000000000000320D1010000892B0000552B0000C7
:10001000552B0000552B0000552B0000552B0000E0
:10002000552B0000552B0000552B0000892B00009C
:10003000892B0000552B0000850500001D050000E0
:10004000892B0000892B0000892B0000892B0000E0
:10005000892B0000892B0000892B0000892B0000D0
:10006000892B0000892B0000892B0000892B0000C0
:10007000892B0000892B0000892B0000892B0000B0
:10008000892B0000892B0000892B0000892B0000A0
:10009000892B0000892B0000892B0000892B000090
:1000A000892B0000892B0000892B0000892B000080
:1000B000892B0000892B0000892B00003D140000D3
:1000C000892B000055240000892B0000BD2300006F
:1000D000892B000029230000892B0000892B0000B8
:1000E000892B0000892B0000892B0000892B000040
:1000F000892B0000892B0000892B0000892B000030
:10010000AD04000099040000850400006F040000A5
:10011000892B000025250000892B0000892B000079
:10012000892B0000892B0000892B0000892B0000FF
:10013000892B0000892B0000892B0000892B0000EF
:10014000CD2D0000892B00000D150000892B00002B
:10015000892B0000892B0000892B0000892B0000CF
:10016000892B0000892B0000892B0000892B0000BF
:10017000892B0000892B0000892B0000892B0000AF
:10018000892B0000892B0000892B0000892B00009F
:10019000892B0000892B00009D130000892B000093
:1001A000892B0000892B0000892B0000892B00007F
:1001B000892B0000892B0000892B0000892B00006F
:1001C000892B0000892B0000892B0000892B00005F
:1001D00008B5614B4CF220521A804DF628121A8055
:1001E00000BF00BF102223F80E2CA3F51F43DE3BF7
:1001F0004FF030621A60594A9A60594ADA60594B96
:100200004FF470021A60584B584A1A60584A1368E3
:1002100013F4807301BF57490B604FF4A853136068
:10022000554B56491A78100742BF1A7842F0080217
:100230001A70534BAA221A70524A534B8B4204D263
:1002400052F8040F43F8040BF8E7504B504A0021D2
:10025000934202D243F8041BFAE74E4A4E48002369
:1002600050F8231042F823100133742BF8D14B4B74
:100270004B4A802103F8011B9342FBD1494B454A6D
:100280001A60494B8A221A70A3F5805324225A70AF
:10029000A0221A709A799107FCD59A79D206FCD4DB
:1002A000424A937903F00C03082BFAD1404B6022A9
:1002B0001A70404A1378802BFCD13C4B00221A71F3
:1002C0004E225A719A799406FCD59979374A480694
:1002D000FBD5394B39491960082159602023137027
:1002E000937903F00C030C2BFAD1354B354A1A6085
:1002F000354B364A1A60002407225C6043F8042C10
:10030000334AC3F80C2D62B601F051FB194B1A6841
:10031000D1070AD52F4A30491C60146042F8041CEA
:1003200010221A602D4A2E4911602E4A1278520668
:100330000ED52A492A4A0868904209D12548264CF8
:1003400000221A60026040F8044C102018600A6015
:1003500003F0BEF902F06AFE0E200540823F040061
:100360000100002B88ED00E0002008E0030000857C
:1003700010D0034014D0034002D00740E011FF1F0B
:1003800000E007404C8F00003007FF1FE011FF1F07
:100390005C16FF1F0002FF1F0000000000E400E0E9
:1003A00064E400E008ED00E0005006400040064034
:1003B00001E0074003E007404480044000000703D9
:1003C00004800440C010050014E000E07FA9030091
:1003D0000000202004D0034000DD68501CE00340F2
:1003E000A5C3945A00F00740FFFFFFFFFFFFFFFF88
:1003F000FFFFFFFFFFFFFFFFFFFFFFFFFFFFFFFF0D
:10040000FFFFFFFFFFFFFFFFFFFFFFFFDEF9FFFF23
:1004100010B5054C237833B9044B13B10448AFF33E
:1004200000800123237010BDE011FF1F00000000B9
:10043000488F0000084B10B51BB108490848AFF3BE
:1004400000800848036803B910BD074B002BFBD0A0
:10045000BDE81040184700BF00000000E411FF1F76
:10046000488F0000E011FF1F000000007047034BA1
:1004700001221A60024BDB68184700BF3C71034041
:100480003407FF1F024B01221A60024B9B6818477A
:100490002C7103403407FF1F024B01221A60024BEC
:1004A0005B6818471C7103403407FF1F024B012291
:1004B0001A60024B1B6818470C7103403407FF1F7A
:1004C00015490B6830B513B98360C36009E004684F
:1004D0001A68944207D20025121B8360C560D86059
:1004E0001A60086015E002681C689968121B0260B7
:1004F00061B10C68A2420B46F5D28160C968C16047
:10050000D860C168A21A88601A6002E08160C36086
:1005100098600223037530BDFC11FF1F174A70B5A8
:100520001368174D01332C6813600026BCB1236893
:1005300013B1013B236012E0A26802B1D3602069CD
:100540002A60036826751B68224600219847636865
:100550001BB123602046FFF7B3FF2C68E6E7EFF3FB
:10056000108372B6002268686A6003B962B620B16F
:100570008468FFF7A5FF2046F9E770BDE015FF1F6F
:10058000FC11FF1F38B50A4D0024EFF3108272B63C
:10059000A86848B14369AB6003B19C6102B962B617
:1005A000447783689847F0E702B962B638BD00BF68
:1005B000FC11FF1F0368C9B21B6818470368C9B262
:1005C0001B681847054B187B5A7BC0B2D3B29842C0
:1005D0002CBF273303F1FF33181A7047FC11FF1F9C
:1005E000044B9A7BD2B2DA731B690BB100221A70EA
:1005F000704700BFFC11FF1F084AD17B937BDBB221
:10060000994207D00133402B28BF00231344187DA3
:10061000C0B270474FF0FF30704700BFFC11FF1FA2
:100620000C4B186810F4806011D018290A4B09D1BE
:100630000A4A40F2023111605A7B42F001025A73B9
:10064000012004E05A7B02F0FE025A73002000F001
:10065000010070472880044000A00E4068D004408C
:10066000114B186810F4806010B54FF0000218D0DC
:100670003F290E4C13D80E4B53F83100206103EB89
:10068000C1034FF4A2745968012380F880320C60D2
:100690000C6824F020040C600270184601E022610E
:1006A000104600F0010010BD28800440FC11FF1F1F
:1006B00080880000704700F10C03143003C883E801
:1006C00003007047C26803690AB9D90709D513F056
:1006D000010F4FEA630318BFC158184418BF8A5866
:1006E00010477047704700F10C03143003C883E8CB
:1006F00003007047C26803690AB9D90709D513F026
:10070000010F4FEA630318BFC158184418BF8A5835
:1007100010477047C26803690AB9D90709D513F0B1
:10072000010F4FEA630318BFC158184418BF8A5815
:100730001047704701F042BB08B5084602F027FA9F
:10074000012008BD38B508460D4604F0B9FA044644
:100750000146284601F042FB204638BD01F004BBAB
:100760000846114602F07ABA114A38B50C4692F89A
:10077000543003F0FF01002BF9D13F2C0D4D11D85F
:1007800005EBC40355F834205B68012082F8800231
:100790004FF4A2721A601A6822F020021A602046F2
:1007A00001F0B2F8024B55F834209A6538BD00BF0D
:1007B000FC11FF1F808800001C4810B514464A0831
:1007C0001044B0FBF1F002F071FA194B9A7802F084
:1007D000EC0104F003020A43610748BF42F0100233
:1007E0009A70134904F00F02042A02BF8A7942F07A
:1007F00040028A715A790E4B02F0EF02E00648BFC0
:1008000042F010025A719A79A10602F0EF0248BF35
:1008100042F010029A71E305054906D54B780A7833
:10082000DBB242F020020A704B7010BD000E2707A9
:1008300000A00E40034B03EB5100B0FBF1F002F0BF
:1008400035BA00BF000E270738B590F841101D23B8
:10085000B1FBF3F203FB121290F8421080F8412032
:10086000B1FBF3F203FB1213044680F8423000257B
:1008700000F020FF2946013501F023FB082DF7D1B8
:10088000A36B0133FF2B88BF0023A36304F10C0388
:10089000243494E8030083E8030038BD10B504460F
:1008A00000F008FF0378052B01BF04F10C031C3492
:1008B00094E8030083E8030010BD10B5044600F07F
:1008C000F9FE037833B904F10C031C3494E80300F7
:1008D00083E8030010BD10B5044600F0EBFE03787A
:1008E000022B01BF04F10C031C3494E8030083E8DD
:1008F000030010BD10B590F84020C16B0023013AF1
:100900004363836380F84230044680F8412004301A
:1009100000F0AAFE04F10C03243494E8030083E8F9
:10092000030010BD2DE9F041044600F0C3FE636BE7
:10093000072B31D82A4A52F82330B3F80280002717
:10094000BDB2454528D294F8421094F841308AB29D
:10095000954201D3AB4212D2994203D995420ED2AD
:100960009D420CD900F0A6FEA36B626B2902B1FB7D
:10097000F8F11944C9B201F07DFA064601E04FF0E2
:10098000FF3600F097FE606B072803D832462946F1
:1009900001F036FA0137D3E7251D284600F050FE56
:1009A00068B194F84130E16B013384F8413094F838
:1009B0004230013384F84230284600F055FE636B24
:1009C0000133072B81BF0023636304F10C032C3434
:1009D00086BF94E8030083E803006363BDE8F08109
:1009E000EC15FF1F2DE9F041134F0546002400F0E0
:1009F00061FE57F82430B3F802800026B3B24345B5
:100A000008D200F057FE31460022204601F0F8F9E6
:100A10000136F3E700F04EFE2146013401F051FAB1
:100A2000082CE4D105F10C03143595E8030083E8A4
:100A30000300BDE8F08100BFEC15FF1F2DE9F04178
:100A4000144F0546002400F035FE57F82430B3F863
:100A500002800026B3B243450AD200F02BFE00F01C
:100A600029FE31464269204601F0CAF90136F1E714
:100A700000F020FE2146013401F023FA082CE2D1D7
:100A800005F10C03143595E8030083E80300BDE885
:100A9000F08100BFEC15FF1F10B5044607F0BCFC49
:100AA000204610BD10B5044607F0B6FC204610BD28
:100AB000016830B599B10A4B0B441B1103F13002A8
:100AC0005511012402F01F0204FA02F2054C44F809
:100AD0002520054A054C42F8234000238B6030BD99
:100AE000008FFCBF80E100E03407FF1F6D040000B1
:100AF00070B51E4C94F85C602546002E34D194F8F5
:100B00005D3094F85E3094F85F3094F8603094F87B
:100B1000613094F8623094F8633094F8643001F0F6
:100B20004DF994F8653084F85C6094F86630EFF322
:100B30000583CBB9EFF3108372B6A06E10B194F8B1
:100B40006C1011B183B962B670BD012284F86C20BB
:100B50004269A26602B1916103B962B6002444778A
:100B60008368984785F86C4070BD00BFFC11FF1F7B
:100B700010B5044C94F8543013B1FFF7B9FFF9E7FE
:100B800010BD00BFFC11FF1F104B1B685B0510B5AB
:100B900000D410BD0E4C94F854100D4B01F0FF0220
:100BA00011B1FFF7A5FFF6E70A49042008600A49DA
:100BB0000A48CA7040F20311016040F8041CDA735D
:100BC0009A731B690BB101221A7010BD2880044072
:100BD000FC11FF1F88E100E000A00E4064D004403B
:100BE00070477047C26803690AB9D90709D513F07D
:100BF000010F4FEA630318BFC158184418BF8A5841
:100C00001047704738B500F1380500F1500455F829
:100C1000040F03681B689847A542F8D1054B0022D2
:100C200083F8802203F17C4303F5D52340F20312BD
:100C30001A6038BD0418FE4300234363836300F148
:100C40000C03243003C883E80300704700F10C0351
:100C5000143003C883E803007047C26803690AB907
:100C6000D90709D513F0010F4FEA630318BFC15824
:100C7000184418BF8A581047704790F83C30013B21
:100C8000DBB2012B80F83C309CBF012380F83D3063
:100C900000F10C03343003C883E80300704790F878
:100CA0003C300133DBB2632B80F83C3084BF00233F
:100CB00080F83D3000F10C03343003C883E80300B2
:100CC000704700F10C03143003C883E80300704739
:100CD000C26803690AB9D90709D513F0010F4FEAB1
:100CE000630318BFC158184418BF8A58104770478B
:100CF000704710B5044607F08FFB204610BD10B5B5
:100D0000044607F089FB204610BD10B5044607F0E5
:100D100083FB204610BD10B5044607F07DFB20463E
:100D200010BD10B5044607F077FB204610BD10B586
:100D3000044607F071FB204610BD10B5044600F0D4
:100D4000B9FC0378012B01BF04F10C031C3494E8B7
:100D5000030083E8030010BD38B50446002500F009
:100D6000A9FC2946013501F0ACF8082DF7D1A36B99
:100D70000133FF2B88BF0023A36304F10C03243449
:100D800094E8030083E8030038BD10B5044600F082
:100D900091FC0378042B01BF04F10C031C3494E88C
:100DA000030083E8030010BD10B5044600F082FC88
:100DB0000378032B01BF04F10C031C3494E80300F7
:100DC00083E8030010BD2DE9F041144F05460024CF
:100DD00000F070FC57F82430B3F802800026B3B25C
:100DE00043450AD200F066FC00F064FC31460C4A30
:100DF000204601F005F80136F1E700F05BFC2146E2
:100E0000013401F05EF8082CE2D105F10C03143531
:100E100095E8030083E80300BDE8F081EC15FF1FAF
:100E20007DFFFF00012310B580F83C3080F83D3095
:100E3000044600F03FFCC168201D00F015FC04F1E1
:100E40000C03243494E8030083E8030010BD2DE96B
:100E5000F041064600F02EFC7F4C05782378AB422B
:100E600006D006EB8303D86B03689B689847257010
:100E7000237806EB8303D86B03685B689847706D33
:100E800000F0DEFB002800F0B080734B5B78002B95
:100E900070D0724A724B11680906FCD4196811F0BF
:100EA0008001F8D172B66378002B62D06D4B6E4A28
:100EB000D3F800E004330C321B6852F80C7C52F873
:100EC000085C52F8040C126873443B442B440344FE
:100ED0001344C3F34E03654A43F400431360644B69
:100EE000D3F800E0043340321B6852F80C7C52F80F
:100EF000085C52F8040C126873443B442B440344CE
:100F00001344C3F34E035B4A43F4004313605A4B4C
:100F100002F50022D3F800E0043310321B68176892
:100F20005568906873440C323B4412682B44034468
:100F30001344C3F34E03514A43F400431360504B30
:100F4000D3F800E0043340321B6852F80C7C52F8AE
:100F5000085C52F8040C126873443B442B4403446D
:100F60001344C3F34E03474A43F4004313603A4B20
:100F7000597062B672B6444D0E274FF001082F60CB
:100F800084F8028062B672B62B681B060ED53F4B02
:100F90001D680023A37062B663681D44237A6560F0
:100FA0000133DBB2032B23721BD906E0A378002B9D
:100FB000E5D062B6FFF79CFDE5E7274B2D095D60A4
:100FC00000F078FB077C00F075FB0378032B05D05D
:100FD000BB1C9D4230D2023FBD422DD9002323725B
:100FE00063603C21706D00F03FFB294B294F93F863
:100FF00000523B78EDB2AB4205D02821B06D00F035
:1010000033FB01236372B06D00F01AFB88B1637A81
:101010007BB1114B00225A725DB900F04BFB037893
:101020000133DBB2052B0DD900F044FB294600F05B
:1010300071FF3D70BDE8F08100F03CFBE9B200F0CB
:101040004BFFCBE700F036FB044600F033FB0178A2
:101050000131C9B22046EAE77412FF1F24B00340F1
:1010600024B00B4038B0034040B003402CB00340E4
:1010700058B0034030B0034038B00B402CB00B40A8
:1010800058B00B4030B00B4000B0034010B00340EC
:101090000418FE434407FF1F2DE9F041044600F009
:1010A00009FB636B072B1ED8174A52F823305F8861
:1010B0000025AEB2BE4216D200F0FCFAA36B626B02
:1010C0003102B1FBF7F11944C9B200F0D3FE8046FA
:1010D00000F0F0FA606B072803D84246314600F072
:1010E0008FFE0135E5E7636B0133072B81BF0023DA
:1010F000636304F10C032C3486BF94E8030083E897
:1011000003006363BDE8F081EC15FF1F08B50846D6
:1011100001F03DFD012008BD73B5304C054600F0DF
:101120004DFE002802DC05F1BB0639E000F01CFE94
:10113000C0B20D28D5F8BC3101D0802B0FD1802B47
:1011400008BF7F232B44002283F83B2005F13B019D
:10115000C5F8BC21D5F8C00100F055FAE3E708282E
:1011600015D1002BDBD02288ADF80420013BC5F857
:10117000BC319DF80400A3788DF8063001F007FD1E
:101180009DF8050001F003FD9DF8060005E05A1CDE
:101190002B44C5F8BC2183F83B0001F0F8FCBEE706
:1011A000D5F8C441E368B3B162696168304602F0C2
:1011B000C1F9E368A26961680948013BE3602368FB
:1011C0001A4491421CBF63695B186360324605494B
:1011D00001F0DAFEE4E702B070BD00BFC085000098
:1011E000F407FF1FE085000010B5084614461146BD
:1011F00000F0F4FD204610BD07B540F2124001F0AA
:1012000055FD0021212001F029FD1A21064800F09A
:10121000E5FD064B02211B88ADF8043001A800F063
:10122000DDFD03B05DF804FBE3850000C38500002D
:10123000704770477047704770474A1CC379D2B2F5
:101240009A4270B51ED0013B13F0FF0384680CD0A6
:10125000FF291FBF110201F1FF3191FBF3F39BB294
:1012600004BF4FF6FF7191FBF3F32546291B8688D7
:1012700089B28E4205D929785943091205F8011B14
:10128000F4E7C27170BD2DE9F84383680446002B72
:101290004BD000F057FB2369C01AB0F5967FF8D306
:1012A00072B6234B94F90620A16853F832E0214A24
:1012B000A088136843F0807313601F4A136843F0DB
:1012C000010313601D4B1A68084402F59672984694
:1012D0004FF0010C88421FD911F8019B0825802688
:1012E0001F68BF1AB7F5967FFAD316EA090FD8F828
:1012F00000208EF880C004D01F68BF1ABF2FFBD912
:1013000003E01F68BF1A3B2FFBD9013D8EF800C1D7
:101310004FEA5606E4D1DDE71968891AB1F5967FE0
:10132000FAD362B600F00EFB2061BDE8F88300BF7F
:1013300080880000FCED00E0001000E0041000E0F8
:10134000F8B5061D0446304600F07AF910B300F0F7
:10135000B1F994F83C10104F00F0BEFD00F0AAF96E
:10136000002557F825000135FFF78DFF082DF8D12E
:1013700000F0A0F9C168304600F076F994F83D20FD
:1013800004F10C030AB1243400E02C3494E8030087
:1013900083E80300F8BD00BFEC15FF1F10B5214B1B
:1013A0005A6892020FD52049DA680B781F4801333A
:1013B0003F2B0078C8BF0023834204D01C48D2B220
:1013C000C254DBB20B7017498C6823021DD54B68E1
:1013D00018021AD5164A92F8400092F84130DBB252
:1013E000984206D1134B00221A60012243F8042CC4
:1013F0000BE00133282B28BF0023D018DBB290F874
:101400004200C0B2C86082F84130620209D5054B83
:101410005B685B0205D5064A002382F86A30064AFB
:10142000136010BD00400C406112FF1F6212FF1FCD
:101430008012FF1F5C01884358018843F0B52F4A92
:10144000137913F0300F25D072B6937D03F0FF00AF
:1014500023B9D3794023537462B61BE062B628499E
:10146000284C0B782578284FDBB2EDB20C46591C7E
:10147000402928BF0021A942D67918BF7B18F6B2AF
:101480001CBF83F86B600B46411E11F0FF00EED1CC
:10149000DBB22370194AD078C0B2060621D5137981
:1014A0001D061ED5184991F8AB5091F8AC30EDB23D
:1014B000DBB2AB420CD00133402B28BF00231479A0
:1014C000CC1894F8AD40E4B2D471147D072CF0D957
:1014D000DBB281F8AC30094B1A79140644BF7C2288
:1014E000DA70410609D5054B1A79520605D5064A28
:1014F000002182F8ED103C22DA70F0BD00A0064019
:101500005912FF1F5A12FF1F8012FF1F10B5294BDF
:101510001A79920620D52849DA790B7827480133C1
:1015200000783F2BC8BF0023834218BF2448D2B2A3
:101530001EBFC254DAB20A70224A116861B1224A4F
:101540001278D2B2934236BFC2F140029B1A9B1866
:10155000272BC4BF01230B701649CA78D2B21406D8
:1015600018D50B79180615D5184B174C1878237811
:10157000DBB2984202D16C23CB700BE00133282BF5
:10158000134828BF00231844DBB290F8EE00C0B225
:10159000C871237051060CD5064B1A79520608D52E
:1015A0000C4A002111700C4A126802B111702C22F1
:1015B000DA7010BD00A00E400B12FF1F0A12FF1FB1
:1015C0001012FF1F0C12FF1F0912FF1F0812FF1F2E
:1015D0008012FF1F5012FF1F5412FF1F10B5044648
:1015E00006F01AFF204610BD10B5044606F014FFA1
:1015F000204610BD10B5044606F00EFF204610BD73
:1016000070477047704710B50446A9B1C2680369B6
:101610009A4213D24269806801F08CFFE368A269A4
:10162000A1680133E36023681A4491421CBF6369D7
:101630005B18A360002010BD012010BD072010BD65
:10164000436882B053B1074A006812680192019A58
:10165000101A83422CBF0020012000E0012002B0BC
:10166000704700BFE015FF1F044B416082B01B684C
:101670000193019B036002B0704700BFE015FF1F9C
:1016800070B50B4CD4F8185175B9882006F0BCFE23
:101690000646C0F88050082006F0B6FEC4F818616F
:1016A00005604560C6F88400D4F8180170BD00BF1D
:1016B0008012FF1F38B50A4CD4F81C516DB91820A0
:1016C00006F0A2FE0423436014238360C3606423F6
:1016D000057003744561C4F81C01D4F81C0138BDC1
:1016E0008012FF1FF8B5244DD5F82071002F40D18E
:1016F0004FF4E47006F088FE022206461F4901F00E
:10170000CBFB1F4B3360C6F8BC71202006F07CFE7B
:1017100040230361802304464361C76007774FF489
:10172000005006F071FE4FF4FC5320606060A06032
:10173000A36100B92061C6F8C041202006F064FE14
:101740000023C360402303618023436101230446D7
:1017500003774FF4005006F057FE4FF4FC5320601F
:101760006060A060A36100B92061C6F8C441C5F8FB
:101770002061D5F82001F8BD8012FF1FFE85000012
:10178000D08500002DE9F74FDFF8C09082464FF07A
:1017900000084FF00C0B5FFA88F30BFB03F209EB28
:1017A000020159F80260002E46D08A6812B9012160
:1017B0008AF83A10DAF8BC40002C3AD00192002A9C
:1017C00037D0224A0BFB032338205F6806F01CFE4B
:1017D0000023019A436280F8283080F82930C362E0
:1017E00003634363394602622022054606F06AFE1F
:1017F0003146204600F0CBFC63689842074618D279
:10180000236853F82030A3B9242006F0FDFD2022E0
:101810000190314640F8045B06F054FE2268019BBB
:1018200042F82730236853F8273013B1A3680133F7
:10183000A36008F10108AEE7FFF754FF0449324600
:1018400003B0BDE8F04F01F049BB00BF0808FF1F1F
:101850000B88000008B5FFF745FF0122024901F09F
:101860003DFB002008BD00BF228600002DE9F047A7
:10187000084686B00622224903F090FA0024064664
:10188000FFF7FEFED0F880309C4235D2FFF7F8FE1D
:1018900050F8243073B326B9FFF7F2FE50F8243025
:1018A000DE60FFF71FFF0746FFF7EAFE50F82450FF
:1018B000FFF7E6FE50F82430D3F80880FFF7E0FE8B
:1018C00050F82430D3F80C90FFF7DAFE50F82430AB
:1018D000D3F810A0FFF7D4FE50F82430094A93F84B
:1018E0003A30049319358DE8200723468021384685
:1018F00001F032FB0134C3E7002006B0BDE8F087F9
:10190000368600003C86000010B50D4B53F83020A1
:1019100092F880423CB1012311B182F8803010BDB1
:1019200082F8003110BD03EBC0035B681A6811B187
:1019300042F0030201E022F002021A6010BD00BF73
:101940008088000072B60C4B0C4A0D491B68126867
:10195000096862B6490102D5322B88BF0132C3F54E
:101960006A33F02003F27F13B3FBF0F34FF47A7085
:1019700000FB0230704700BF18E000E0E015FF1FD9
:1019800004ED00E038B50446FFF7DCFF054624B956
:1019900038BD013C0AD005F57A75FFF7D3FF401B2F
:1019A000B0F57A7FF5D2FFF7A3F8F6E738BDF0B5CA
:1019B000924D934A9349944E944F4FF000632B609D
:1019C0004FF080532B604FF000532B604FF080435B
:1019D0002B604FF000432B608D4B00244EF6FF70C0
:1019E0001C60586028231360936013619361136235
:1019F000936213639363083202F50122336013602C
:101A00000B608B600B618B610B628B62092139600B
:101A100007F5805704373C607860BB603B6147F84E
:101A2000041C07F5FE2785B03C607860BB603B6115
:101A300047F8041C07F580573C60786033601360FA
:101A400042F8141CA2F5E122A2F5FD62283A916A3F
:101A500041F400719162116841F00071116002F56A
:101A6000012247F6FF711460516093601361694B66
:101A7000694908221A60A3F5AA2360221A70E1229C
:101A80005A70A3F56333A3F57E7339221A601323CA
:101A90000B6001F5FF2101F2FC710A605F4A1360DF
:101AA0005F4BA2F5FF221C6003F50023A2F5FD6247
:101AB0001C608423136002F5002232201360594B0E
:101AC00001221A70FFF75EFF72B657490B78802B20
:101AD0002A4608D0554B564C702018705548046063
:101AE000802018700BE0544B5448186003F55733AE
:101AF00003F2BD331C700B78802BFCD0EAE718781A
:101B00000006FCD508784E4B01281B680BD100F16C
:101B1000804000F5FC206024047008788028FCD107
:101B200045494848086062B647498B429CBF0A2134
:101B30004B4301AD00210A20B3FBF0F400FB14334A
:101B400030334B5523460CB10131F5E704A8084466
:101B500000F80B4C6818CC1AA34206DAEC5C067845
:101B6000EE5400F801490133F5E738490023E85CF9
:101B700020B101330A2B21F8020BF8D13449354842
:101B800001335B000B70002319461D1819500833F0
:101B9000882B304C6960F8D12F48304B016841F4F4
:101BA000802101602E48016841F040710160C4F35A
:101BB00007211970C4F3074119752A49230E0B70C8
:101BC000FF2301F8343C002001F82C3C01F8A43C30
:101BD000012301F8203C81F84C0001F8303C224BF5
:101BE000702119704FF400131360204B10224FF432
:101BF000AF701A7005B0BDE8F040C3E604E100E044
:101C00000C8003401C900B400C900B400080034064
:101C10000480034000900C400CB003400CB00B401B
:101C200020B003407512FF1F03E007400000024090
:101C300000000741040002404480044000001713E4
:101C40000C000240000007037F9698004A07FF1F20
:101C50004807FF1F0000FF1F348004409C200740FE
:101C600000D80040B420074035E400E008210740D8
:101C70002DE9F043264D274BDFF8AC90DFF898E0D4
:101C8000AC464FF00008C31A4822B3FBF2F60B2E05
:101C90003BD895F824311E4C73B395F825315BB3CE
:101CA00072B6012309EB030212F8012C12071CD5AE
:101CB0009900194A5EF831702FB902EB43130830CE
:101CC0005860164B09E041F001015EF8317067B9C8
:101CD00002EBC10308305860114B42F8313094F8E0
:101CE0002431013B84F824310EE00133052BD9D196
:101CF00062B68CF82481CAE772B60A494FF00042F6
:101D00008B69F24013438B6162B6BDE8F08300BF7C
:101D10008012FF1FD003FF1F0000FF1F880040003C
:101D2000C80040004807FF1F1E86000010B572B6AD
:101D30000B488269B2FA82F10B2902DD62B60020FB
:101D400010BD4FF00043CB4022EA0302826162B62D
:101D5000044C48234B43E0180022E250426010BD7F
:101D60004807FF1FD003FF1F10B5104B104C1B7806
:101D70002278D9B2D2B2914214D0531C402B28BF42
:101D800000230C4AD05CDAB222700B4A1268C0B24F
:101D900052B18B4288BF4031CB1A1A2B04DC00238E
:101DA000137010BD4FF0FF3010BD00BF0B12FF1FAE
:101DB0000A12FF1F1012FF1F0C12FF1F054B18788D
:101DC000054B1A78C0B2D3B2984238BF4030C01A1F
:101DD000704700BF0B12FF1F0A12FF1F38B50446E1
:101DE0004518AC4204D014F8010B00F0D0FEF8E71F
:101DF00038BD00BF10B5044606F00EFB204610BDEE
:101E00001B4B53F8200043888B42F0B52FD98CB27E
:101E10009C422CD2C379C2F30746C2F30725D4B241
:101E20000BB9A64608E05E435D435C43C6F3072654
:101E3000C5F30725C4F3072E077BC47BA742876839
:101E400003D101EB410139440AE007EB8101120E95
:101E50000C440BB9D3B202E05343C3F307232370FE
:101E6000037BCE54437BCD54837B01F803E0F0BD6C
:101E7000EC15FF1FC943C9B2542909D8A1EB810051
:101E8000013801EB4101C9B2C0B241EA00407047DC
:101E9000A92909D85539C9B201EB4100A1EB81014B
:101EA0000139C0B2C9B209E05631C9B2A1EB810013
:101EB00001EB41010138C9B2C0B2090441EA002076
:101EC0007047072904D8034B53F82100FFF7DBB90B
:101ED000704700BFEC15FF1F632970B5054601D997
:101EE000642302E0012902D801232B7400E001746D
:101EF000074E002456F82400297CFFF79EF956F877
:101F000024000134FFF7BFF9082CF3D170BD00BFE6
:101F1000EC15FF1F00B50170A3B0052930D8DFE82C
:101F200001F003080D1F2429FFF7DCFB01221649ED
:101F300024E0FFF7D7FB012214491FE04369DAB21E
:101F40000192C3F3072280210092C3F30743104A92
:101F500002A806F069FAFFF7C5FB012202A90DE00D
:101F6000FFF7C0FB01220B4908E0FFF7BBFB012292
:101F7000094903E0FFF7B6FB0849012200F0AEFF74
:101F800023B05DF804FB00BF758600008786000063
:101F90009B860000C5860000DF860000FB860000EF
:101FA0002DE9F843089F164698460D46002900F093
:101FB0008B8004226849284602F0F0FE044618B9D6
:101FC000FFF778FB214627E006226449284602F005
:101FD000E5FE18B9FFF76EFB01211DE008226049FC
:101FE000284602F0DBFE18B9FFF764FB042113E07A
:101FF00009225C49284602F0D1FE90B933781806D0
:1020000007D433B198F8003033F07F0501D1002BAD
:102010005DD1FFF74FFB0521FFF77CFF0020BDE8F6
:10202000F88306225049284602F0B8FE88B9337872
:10203000190649D4002B47D098F800301A0643D42B
:10204000002B41D03B7833F07F043DD1002B54D19D
:102050003AE006224549284602F0A0FE48B9337806
:1020600033F07F0101D1002B6DD1FFF723FB03215A
:10207000D2E7FFF737FB01223D4900F02FFFFFF7C2
:1020800031FB01223B4900F029FFFFF72BFB012226
:10209000394900F023FFFFF725FB0122374900F003
:1020A0001DFFFFF71FFB0122354900F017FFFFF767
:1020B00019FB0122334900F011FFFFF713FB012246
:1020C000314900F00BFFA9E70120BDE8F88329465C
:1020D0000A22304601F0F2FB294604460A22404615
:1020E00001F0ECFB0546FFF7E5FA1C2C28BF1C2489
:1020F0004460FFF7DFFA85608BE70A22214630460D
:1021000001F0DCFB0A2281462146404601F0D6FB65
:102110000A2221460546384601F0D0FB4FEA09491C
:1021200006462D02FFF7C6FA0221FFF7F3FE09F477
:102130007F09FFF7BFFA05F47F4549EA0505F6B2C6
:10214000354345616AE70A22304601F0B7FB044691
:10215000FFF7B0FAC46088E71C8700002087000002
:1021600027870000268700002F87000035870000A2
:102170003B870000618700006A87000075870000C8
:1021800082870000A7870000BE87000070472DE906
:10219000F041446806460F464CB32021384601F012
:1021A000BFFA00243A46D31B984205DD12F8013BE2
:1021B00083EA44135C40F6E77568B4FBF5F34FF02F
:1021C000010805FB1344A54211D9336853F82400D4
:1021D00068B120223946043002F0E0FD38B14444B1
:1021E000A54202D908F10208EDE7641BFAE770681E
:1021F000844234BF20464FF0FF30BDE8F0812DE926
:10220000FF470546C030FFF71BFA002863D0FFF7F1
:1022100069FAD0F8C041E368002B5CD015F13B06A9
:1022200059D062696168304601F084F9E368A269B7
:102230006168013BE36023681A4491421CBF6369F3
:102240005B18636004AC44F8046D204600F0D8FDD0
:102250000646204600F0D4FD8146204600F0D0FD21
:102260008046204600F0CCFD0746204600F0C8FD21
:10227000D5F8BC40824674B331462046FFF787FF4D
:102280006368984219D2236853F82030ABB11C68B8
:10229000FFF728FA0022114900F020FE206A0368A7
:1022A000CDF800A01C6842463B464946A04760B1B5
:1022B000FFF718FA01220A4905E033782BB1FFF73E
:1022C00011FA0849012200F009FEFFF70BFA00227B
:1022D000054900F003FE04B0BDE8F087C2860000A7
:1022E000D6870000F78700000A880000FEE770B577
:1022F0000B4B0C4D1A7842F0020605EBC60482F037
:102300000102606058781A70002814BFC82488241D
:1023100080F0010044EA0141587045F8361070BD64
:10232000A813FF1F0000FF1F10B5204B1A7992065B
:1023300010D51F48D97903781E4A01333F2B1278F4
:10234000C8BF00239342C9B204D01B4A1A44DBB26F
:10235000917003701548C278D2B2130619D503796B
:102360001C0616D5144991F8424091F84330DBB26F
:102370009C4202D16C23C3700BE00133282B28BF91
:102380000023CC18DBB294F84440E4B2C47181F865
:102390004330510609D5054B1A79520605D5064A30
:1023A000002182F86C102C22DA7010BD00D006409B
:1023B0005F12FF1F6012FF1FA813FF1F10B5214BF4
:1023C0001A79920611D52048D97903781F4A01332A
:1023D0003F2B1278C8BF00239342C9B205D01C4AD4
:1023E0001A44DBB282F86D1003701648C278D2B27C
:1023F000130619D503791C0616D5154991F8AD4079
:1024000091F8AE30DBB29C4202D16C23C3700BE07A
:102410000133282B28BF0023CC18DBB294F8AF403F
:10242000E4B2C47181F8AE30510609D5054B1A7972
:10243000520605D5064A002182F8D7102C22DA7000
:1024400010BD00BF00C006405D12FF1F5E12FF1FDF
:10245000A813FF1FF0B52F4A137913F0300F25D0C2
:1024600072B6937D03F0FF0023B9D37940235374F0
:1024700062B61BE062B62849284C0B782578284FB5
:10248000DBB2EDB20C46591C402928BF0021A942FD
:10249000D67918BF7B18F6B21CBF83F8D8600B46FC
:1024A000411E11F0FF00EED1DBB22370194AD07843
:1024B000C0B2060621D513791D061ED5184991F81C
:1024C000185191F81931EDB2DBB2AB420CD00133A7
:1024D000282B28BF00231479CC1894F81A41E4B2B1
:1024E000D471147D072CF0D9DBB281F81931094B76
:1024F0001A79140644BF7C22DA70410609D5054BCF
:102500001A79520605D5064A002182F842113C226A
:10251000DA70F0BD00B006405B12FF1F5C12FF1FB7
:10252000A813FF1F2DE9F74FDFF8C0A2D1469AF894
:102530000050AE4CEDB215F0040F34D0AC4B1B780C
:1025400073B3AC4A92F84B1101F0FF0329B1013B80
:10255000DBB282F84B3103B900BE92F84C21A54E94
:1025600002F0FF03E2B1013BDBB286F84C31BBB9AC
:1025700096F84D3103F0FF0793B9D6F8500130B10A
:102580004388038000F057FCC6F8507108E0FFF75D
:10259000CDFB10B100F04FFC02E0012386F84C3176
:1025A000042389F8003005F0080303F0FF01002B35
:1025B00000F07682904B914D1B78DBB21C094FEAFC
:1025C000930740F0EE8105EBC703596855F83730A3
:1025D000C3F38303013B0C2B00F2DF81DFE813F030
:1025E00098019801DD01DD01DD01DD01DD01DD0185
:1025F000B801DD01DD01DD010D000A687D4C4B688D
:10260000C4F85421C4F8583192B27D4B45F83730A4
:1026100040F28160002301218242C4F85C312B61C9
:10262000AB616170264617D8B2F5D06F80F020817B
:10263000B2F5817F00F0FA8006D8802A00F0BE80D3
:10264000822A00F0C08031E140F202339A4200F069
:10265000FE80B2F5A06F1BE042F22100824200F042
:1026600054810DD8B2F5086F00F0A280B2F5106F5A
:1026700040F01C815E4A94F8561111701E460AE023
:1026800042F221218A4200F0088142F221339A422B
:1026900000F010810AE1AB191A6A170603D5586ACF
:1026A0000838FFF7E5FA0836802EF4D1554FDFF8E9
:1026B00058B100265BF826004FEA860830B1426820
:1026C0000092FFF7D5FA009A1046F7E74E4B4F4AB3
:1026D00043F80800103348F8030058F8020040B1EE
:1026E000416801920091FFF7C3FA0099019A0846E8
:1026F000F5E742F80800464A48F80200454A22F841
:1027000016003A78023A032A07D8DFE802F00204FA
:102710000204002200E001223A700136042E07F183
:102720000107C7D13C49364F00230B704FF0010819
:102730000E463A4A3A4B08EB0200434410F8010CAB
:102740009B0010F0080F18704FEA880B21D0FFF79C
:10275000EDFA38B105EB481308305860314B45F8B5
:102760003B3004E0337845F83B0001333370FFF72A
:10277000DDFA4BF0010338B105EBC30E0830CEF89B
:10278000040045F8337004E045F833003378013332
:1027900033704BF0020008F101084BF0030B0023EB
:1027A000B8F1050F45F8303045F83B30C1D182E033
:1027B0000F4B1B7884F843310B467FE084F843319C
:1027C00084F8443179E0B4F8582102F07F02042AF9
:1027D0006CD884F8433184F844319200124B9B5CEE
:1027E0009D076AD584F8431167E000BF8020074049
:1027F000A513FF1FA813FF1F902007400000FF1F15
:10280000C8004000BA15FF1F0815FF1FC015FF1FA5
:10281000D015FF1F6A12FF1FA413FF1F1E860000A2
:1028200030C8011088004000C0200740B4F858218B
:1028300002F07F02042A39D8B4F85631002B35D182
:10284000A849920011440A7822F002020EE0B4F87E
:10285000582102F07F02042A28D8B4F856312BBB45
:10286000A049920011440A7842F002020A7022E064
:10287000B4F85621B4F858119B4B5E68B6B118886D
:10288000904208D15888884205D1120A032A0CBF09
:1028900033781B8914E00C33EFE7944A1268C4F8CC
:1028A000802194F8562184F8842104E08D4B0F2276
:1028B0001A702AE000231E4602E0022306F24316A5
:1028C000B4F85A519D4228BF1D46402D2F4628BFBF
:1028D000402730463946FFF70AFDED1B3E4403D141
:1028E000402F12D12F4603E0402D2F4628BF40270E
:1028F00030463946FFF7FBFCED1B3E4401D1402F2B
:1029000003D1C4F85C61A4F886510122784B43E0FE
:10291000784BB3F8542142F221039A4214D1002398
:10292000744ACC5C02F5C4701C540133072BF7D1F8
:10293000D2F888310021862B08BF0F23084608BF34
:1029400082F84B31FFF7D3FC6B4B45F8373024E06E
:10295000684ED6F85C719FB1B6F88641402C25468A
:1029600028BF402538462946FFF7C1FC601B80B2CE
:10297000A6F8860108B9402D00D17819C6F85C0187
:10298000B6F854215B4BB2F5A06F06D1002283F854
:10299000552193F85621594B1A70554B01221A7044
:1029A0007AE005EBC706013C726803F00803A2F168
:1029B0000800E4B203F0FF0E002B36D0FFF758F901
:1029C0004F48504A50F82410E9B14B6840F8243081
:1029D00001F108037360135D032B0BD8DFE803F0EC
:1029E00002040608032304E0022302E0052300E0BA
:1029F0000423135516F0080F0A8814BFC823882330
:102A000043EA024346E0135D032B08D8DFE803F0F6
:102A100044440204002300E0012313553CE016F077
:102A2000080F14BF03230223F7E755F837301B0CB8
:102A300099B222F8081C3BB32E4B22F806EC42F860
:102A400004EC4FEA840E03EB0E0CDCF8602112B9A3
:102A5000CCF8600102E0DCF87021506073442A4A2F
:102A6000C3F8700132F81430194422F81410FFF73B
:102A70005DF910B10830706006E0244A45F837006F
:102A800013780133137007E0214A1B4B16F0080F2F
:102A900008BF134645F83730082389F8003046E56B
:102AA000E8073DD51248134A194D02230370194B0C
:102AB000117002F5C87602F5E8721D60DA605E609A
:102AC0009D6019619961074B0D221A70124AFF230C
:102AD0001370237011741371104B9F221A7001230D
:102AE000037030E0C020074014880000E015FF1F8D
:102AF00094200740A813FF1FC800400098200740FB
:102B0000C015FF1FBA15FF1F6A12FF1FA413FF1F76
:102B1000880040000000FF1F8820074084200740F5
:102B2000290604D5094B0D221A7080232370AA07A9
:102B300005D5074A1378DBB2137002232370EB0626
:102B400044BF1023237003B0BDE8F08FC0200740BE
:102B50008820074008B50B4D2C462B68580301D53B
:102B6000FFF7E0FC2368590501D5FEF767FC2368F1
:102B70001A0501D5FFF76EFC2368DB04EDD5FFF7DE
:102B80001DFCEAE73480044008B5FFF7E3FF2DE9B8
:102B9000F8432A4B1B685A0506464DD5284B1B683F
:102BA0000BB101221A70274D274F2C78DFF8A8901F
:102BB0000134282C28BF0024B8463B78A34230D1EA
:102BC000EFF31383A3B9EFF310838BB9EFF305820F
:102BD00022B10F2A04D91D4B9B5C01E04FF4807396
:102BE000EFF3118212B1934228BF1346402B12D843
:102BF00099F804301B06E0D598F80030144A0133E8
:102C0000282B28BF0023D25CDBB2D2B289F8072080
:102C100088F80030D1E7B3F5807FCED1FDF768FFAB
:102C2000CBE70B4BF6B21E550A4B01221A700A4B2A
:102C3000E4B2AC222C70DA70BDE8F883288004403E
:102C40005412FF1F0812FF1F0912FF1FF0E300E0DC
:102C50006E13FF1F5012FF1F00A00E4010B509B1E8
:102C600040F080000E4B1A78904217D00D4C24682B
:102C7000640512D502F07F02212A02BF0A4A00240D
:102C80001460002900F07F010CBF4422602221293A
:102C900002BF054942F440720A60187010BD00BFBF
:102CA0006407FF1F2880044060D00440184A13685E
:102CB00043F480631360174A00231370164A13709D
:102CC000164A1370164A1370164A1370164A40F2C9
:102CD000133111604FF4517142F8041C1F2898BF42
:102CE0002020124AC0F344311170C0F3471100F0A4
:102CF0001F0051709072937013742C23D3700C4B7F
:102D000040221A70A3F23A3304221A60704700BFBF
:102D1000288004400B12FF1F0A12FF1F0812FF1F1A
:102D20000912FF1F5012FF1F64D0044000A00E4084
:102D300042E400E0FEE7FEE7094908B54B6868B1E8
:102D40006A461844A2F50052904206D300F0BAFC3D
:102D50000C2303604FF0FF3008BD4860184608BDE3
:102D60006407FF1F2DE9F0410C468AB000F103080B
:102D7000C51D30270A2618F8013F0BB1212103E0B9
:102D80008DF8257021210DE00AAAB3FBF6F00A4464
:102D900006FB1033303302F8243C034610B10139EE
:102DA000C9B2F1E7236801A8C1F122025B680144BE
:102DB00020469847A84505D023682E211B68204649
:102DC0009847D8E704200AB0BDE8F081094A1368A3
:102DD00043F080731360084A136843F001031360E3
:102DE00051685368054A5B1A11881B098B4288BFDA
:102DF00013807047FCED00E0001000E0B815FF1FE5
:102E000030B5A8B10268134602F180051C466BB1CB
:102E1000AB4208D013F8011B39B12029F6D10021AB
:102E2000631C217002E0002300E00B46036000E019
:102E30000246104630BD72B6144A5379032B08D8A7
:102E4000DFE803F010021204022100E00421104B1D
:102E50000CE051690D4B09B9586101E05B6A58609B
:102E6000506210E0032100E005210A4B517113F07C
:102E7000080F00F1080201885A6014BFC822882296
:102E800042EA01421A6062B6704700BFB815FF1FE0
:102E90009800FF1F9000FF1FF8B50F4B036000253F
:102EA0001423044643608560C56005610820174609
:102EB0000E4605F0A9FA277605604560606184F842
:102EC000395084F83A502022314604F1190005F0B7
:102ED000F9FA2046F8BD00BF708800002DE9F843DC
:102EE0000D4604464FF480512846904600F018FCE9
:102EF0007F28064614D904F1BB074FF00009294684
:102F00007F22384605F0DEFA7F3E84F83A91394652
:102F1000D4F8C401FEF777FB7E2E05F17F05EED8CD
:102F20009EB10B490B4A04F1BB06B8F1000F18BF64
:102F30000A462B468021304605F076FA3146D4F811
:102F4000C401BDE8F843FEF75EBBBDE8F88300BFEF
:102F5000E08A0000E08500000CB437B500F23B15B4
:102F600007AB0446074A01938021284605F018FB69
:102F7000012229462046FFF7B1FF03B0BDE83040EB
:102F800002B070473C8600000EB403B503AA0548A2
:102F900052F8041B019200F0CDFC02B05DF804EB86
:102FA00003B07047F407FF1F10B5036814465B6851
:102FB0009847204610BD00BFF8B501230025C37314
:102FC000037357270223837304460570C571056197
:102FD0004573878038460E4605F016FA0346A06012
:102FE00028B13A46294600F03FFB1D2300E0A080AF
:102FF00063802378A671A3B13F2E12D80A4B03EB4E
:10300000C6030121DA699B6983F880124FF4A27329
:103010001360136823F02003136000213046FEF78D
:1030200073FC2046F8BD00BF6888000083B5FEF73A
:1030300041FB584CDFF87091804604F120070126CF
:1030400054F8040F98F81010FEF7F7F8D4F800A021
:103050009AF90630002B15DB3F2B0CDC09EBC30380
:10306000DA699B6983F880624FF4A2731360136876
:1030700023F0200313609AF806003F2802D80021AD
:10308000FEF742FC8AF800602068FEF7FCF8BC42BC
:103090004FF00105D4D1FEF7F3FA3F4B83F880528D
:1030A00003F17C4303F5D4234FF4A2721A601A682B
:1030B000044622F0200229461A600D20FEF724FC67
:1030C0004FF47A71D4F88400344DFEF7CDFA55F8F8
:1030D000043F13B9324F334E32E0FEF7D1FA0446C3
:1030E0002868D4F880301F2BF1D844F823000368F7
:1030F0001B689847D4F880300133C4F88030E6E785
:1031000055F8043F1BBB08F10108D4F88030434553
:10311000F6D8D4F88400FEF793FA78B1357C0D2008
:103120002946FEF7F1FB15F1FF3518BF01254FF4D5
:103130007A71D4F884003574FEF796FAFDF7D8FC5E
:10314000FEF79EFA4FF000080446051FDDE793F8EE
:103150003A90B9F1000FD6D159685869FEF784FA50
:10316000286803685B6898472B685A691168C2F839
:103170000490BA6A0192019A521AD96891422CBFFE
:10318000D960DA6059689A6091429EBF1A6901322B
:103190001A61B8E7E815FF1F1410FE430C16FF1F55
:1031A000B815FF1FF407FF1F688800002DE9F041E4
:1031B000B04EB14AB149B24D00233360304680234E
:1031C000337100F073FA142005F01EF90221044651
:1031D000FFF7F2FE1420B46005F016F9032104464F
:1031E000FFF7EAFE1420F46005F00EF9042104460E
:1031F000FFF7E2FE1420346105F006F905210446CC
:10320000FFF7DAFE1420746105F0FEF8062104468B
:10321000FFF7D2FE1420B46105F0F6F8072104464A
:10322000FFF7CAFE1420F46105F0EEF80821044609
:10323000FFF7C2FE1420346205F0E6F809210446C7
:10324000FFF7BAFE0420746205F0DEF88D4C0560CD
:10325000A060042005F0D8F805F114030360606154
:10326000042005F0D1F82062B46A05F12803036058
:10327000002C40F0CF805C2005F0C6F805F1340149
:1032800007460322FFF708FE05F15C033B600820B8
:1032900005F0BAF88046046044607865082005F0BF
:1032A000B3F804604460B865242005F0ADF805F17A
:1032B00074020260744A4261744AC261446084606C
:1032C0008461046200F11401034600F10C0203C999
:1032D000FB6382E80300242005F096F805F19002D4
:1032E00002606B4A42616B4AC261446084608461DF
:1032F000046200F11401034600F10C0203C93B64AF
:1033000082E80300242005F07FF805F1AC0202609A
:10331000614A4261614AC2614460846084610462BE
:1033200000F11401034600F10C0203C97B6482E83A
:103330000300402005F068F805F1C8020260012290
:1033400080F83C2080F83D20554A4261554AC261D0
:10335000554A4262554AC262554A4263446084609B
:103360008461046284620463846300F1140103468F
:1033700000F10C0203C9BB6482E803003C2005F0A5
:1033800043F805F1E40202604A4A42614A4AC261D6
:103390004A4A42624A4AC262446084604463846327
:1033A000846104628462046300F11401034600F145
:1033B0000C0203C9FB6482E80300442005F024F8F2
:1033C0001422C263042280F840203E4A42613E4AF1
:1033D000C2613E4A426205F580753D4AC262446060
:1033E000846005604463846380F8414080F8424013
:1033F000846104628462046300F11401034600F1F5
:103400000C0203C93B6582E803003C214046FEF7FD
:103410002BF9B762B36AF362FEF764F9F36B3063BA
:10342000002B40F08280C82004F0EEFF0122054608
:103430002849FFF731FD284B2B600C2004F0E4FFF6
:1034400041240746A31E012B48D9012C0FD003238A
:10345000012203FB03F18C4208D3B4FBF3F103FB1D
:103460001141002908BF00220233F2E7B2BB023447
:10347000E8E700BFE415FF1F3007FF1FB10A000097
:10348000EC8A00000808FF1FBB080000E5090000E7
:103490003B0D0000C70D0000D70800003D0A0000EA
:1034A000A90D0000250E00009F0C00007B0C000001
:1034B000411300008B0D0000390C00009910000032
:1034C000590D00009D080000F508000025090000C6
:1034D00049080000008C0000288C0000B4F1FE5F59
:1034E0004FF0000398BFA000BB6088BF4FF0FF30D3
:1034F00004F08AFF002808BF0024002338607C60A5
:1035000018469C424FF0000104D03A6842F823006C
:103510000133F6E7C5F8BC70C5F8C010C5F8C41093
:1035200005F1C000FEF7A0F8F563F36B7363BDE827
:10353000F08100BF844641EA000313F003036DD11C
:10354000403A41D351F8043B40F8043B51F8043B66
:1035500040F8043B51F8043B40F8043B51F8043B6D
:1035600040F8043B51F8043B40F8043B51F8043B5D
:1035700040F8043B51F8043B40F8043B51F8043B4D
:1035800040F8043B51F8043B40F8043B51F8043B3D
:1035900040F8043B51F8043B40F8043B51F8043B2D
:1035A00040F8043B51F8043B40F8043B51F8043B1D
:1035B00040F8043B51F8043B40F8043B51F8043B0D
:1035C00040F8043B403ABDD2303211D351F8043BAD
:1035D00040F8043B51F8043B40F8043B51F8043BED
:1035E00040F8043B51F8043B40F8043B103AEDD25C
:1035F0000C3205D351F8043B40F8043B043AF9D2AD
:10360000043208D0D2071CBF11F8013B00F8013B7F
:1036100001D30B8803806046704700BF082A13D38C
:103620008B078DD010F003038AD0C3F10403D21AA4
:10363000DB071CBF11F8013B00F8013B80D331F8D8
:10364000023B20F8023B7BE7043AD9D3013A11F858
:10365000013B00F8013BF9D20B7803704B784370C3
:103660008B7883706046704701B5EAB1102A17DB8A
:1036700000F0070333B1C3F10803D21A013B00F88D
:10368000011BFBDCC9B241EA012141EA01418C4640
:10369000D308013BE0E8021CFBDC12F0070203D078
:1036A000013A00F8011BFBDC01BD00BF0B460146DF
:1036B000184600F001B800BF13460A460146022032
:1036C00000F05AB9014B1868704700BF600CFF1F2B
:1036D00070B50F4E0F4D761BB61018BF002405D0E5
:1036E000013455F8043B9847A642F9D10A4E0B4DD8
:1036F000761B05F01BFCB61018BF002406D0013461
:1037000055F8043B9847A642F9D170BD70BD00BF83
:10371000388F0000388F0000448F0000388F000081
:1037200099B103789BB110B40144431C03E01A78AB
:103730005C1C32B123469942F9D1081A5DF8044B5A
:103740007047181A5DF8044B7047084670471846D2
:10375000704700BF2DE9F84FDDF828900E46074668
:10376000154698468B4600E0A3465C46484614F84A
:1037700001AB00F0ADFA5044407800F0080000F0D2
:10378000FF0C0028F0D151462D2961D02B2904BF10
:103790009BF801100BF10204B8F1000F0CD0B8F146
:1037A000100F5CD04FF0FF33B3FBF8F308FB03FAC4
:1037B0006FEA0A0AC14607E0302961D04FF00A08D3
:1037C0003D4BC1464FF0050A4FF0000E704606E033
:1037D0002FD009FB00204FF0010E14F8011BA1F1BE
:1037E0003002092A05D9A1F14102192A0BD8A1F109
:1037F000370290450FDDBEF1FF3FEED09842E7D98A
:103800004FF0FF3EE9E7A1F16102192A03D8A1F1C7
:1038100057029045EFDCBEF1FF3F11D0BCF1000F25
:1038200000D0404255B1BEF1000F0DD12E60BDE871
:10383000F88F5245CDDD4FF0FF3ECEE7BDE8F88F63
:1038400022233B60704645B3661E2E60BDE8F88FAC
:103850000BF102049BF801104FF0010C9CE730299A
:103860001DD1237803F0DF03582B1ED14FF0100930
:103870006178C8464FF00F0A02346FF07043A3E737
:10388000237803F0DF03582BF0D04FF00808C1462F
:103890004FF0070A6FF0604396E7BDE8F88F4FF0EE
:1038A0000F0A6FF07043C1468EE7C1464FF00F0A12
:1038B0006FF0704388E700BF9999991930B5084CAB
:1038C000084B25686C6B83B0002C08BF1C46009425
:1038D00013460A4601462846FFF73CFF03B030BDB9
:1038E000600CFF1F640CFF1FF0B5ADF5057D04AD46
:1038F00000930F4613464FF4007403AA294603941D
:10390000064601F09BFA88B1044602463946039BFD
:10391000304600F01BF8AC42039004D030462146FC
:1039200000F0EEF803980DF5057DF0BD4FF0FF3087
:10393000F9E700BF10B4044C13460A46014620685C
:103940005DF8044BFFF7D0BF600CFF1F70B50D464C
:10395000084C114606461A46284600232360FFF706
:1039600023FB431C00D070BD2368002BFBD03360C9
:1039700070BD00BF5816FF1F2DE9F047254C256884
:10398000D5F848410646884692469946C4B36068D1
:103990001F2817DC431C76B104EB80050122C5F813
:1039A00088A0D4F8881182401143022EC4F88811EF
:1039B000C5F808911ED00230636044F820800020D2
:1039C000BDE8F087144B03B34FF4C87004F01CFD3E
:1039D0000446D0B1D5F84831002780E88800C5F802
:1039E000484138460123C4F88871C4F88C71002E10
:1039F000E1D0D1E7D4F88C110A43C4F88C21DAE77E
:103A000005F5A674C5F84841C1E74FF0FF30BDE8A1
:103A1000F08700BFA08C000009840000024B13B1A6
:103A2000024800F005B87047000000003D3A000071
:103A3000002301461A461846FFF79EBF38B5074DCA
:103A4000074C2C1BA41005D0013C55F8043D9847A9
:103A5000002CF9D1BDE8384005F074BA0000000030
:103A600000000000F8B5234F0C46064600F010FC9D
:103A7000BB685D6825F00305291B01F6EF7121F491
:103A80007F6121F00F01A1F58054B4F5805F07DB61
:103A90000021304601F002F9BB682B44984204D063
:103AA000304600F0F7FB0020F8BD6142304601F0DF
:103AB000F5F801300DD0104BBA6819682D1B45F090
:103AC00001053046091B5560196000F0E3FB012039
:103AD000F8BD0021304601F0E1F8BA68831A0F2BD7
:103AE000DEDD064C0449246843F00103001B5360EB
:103AF0000860D5E7D00DFF1F3016FF1FDC11FF1F38
:103B0000002945D02DE9F0410D46804600F0C0FB6C
:103B100055F8047C6A4927F00103A5F10804E2186E
:103B20008E685068B24220F0030062D0FE075060F9
:103B30000BD455F8087CE41B01F1080EA568754507
:103B40003B446FD0E768EF60BD6015186D68ED0706
:103B500042D543F001026260E350B3F5007F18D212
:103B6000DB085A1C4D6851F83270A76001209B1089
:103B700000FA03F301EBC2001D430838E0604D601A
:103B800041F83240FC604046BDE8F04100F082BBA5
:103B900070475A0A042A53D89A0902F139077F005C
:103BA00002F1380501EB870051F827204449083815
:103BB00090424DD0516821F003018B4202D29268AD
:103BC0009042F7D1D068E060A2608460D460404643
:103BD000BDE8F04100F05EBB95683A4FBD4203443A
:103BE0003FD0D068E86043F0010285606260E35036
:103BF000B3E7FF07034407D455F8082CA41A13446D
:103C0000A068E268C26090602F4A126843F0010029
:103C1000934260608C60B6D32C4B40461968FFF726
:103C200021FFB0E711184968C90744D49168D268E8
:103C3000CA60034443F0010091606060E350A2E772
:103C4000142A17D802F15C077F0002F15B05A9E78F
:103C5000AA104B68012505FA02F213434B60024695
:103C6000B1E743F001024C610C61E560A560626060
:103C7000E35088E7542A06D81A0B02F16F077F0039
:103C800002F16E058EE7B2F5AA7F06D8DA0B02F1D3
:103C900078077F0002F1770584E740F254508242B2
:103CA00006D89A0C02F17D077F0002F17C0579E7C6
:103CB000FE277E2576E743F001026260E35062E76B
:103CC000D00DFF1FD80DFF1FD811FF1F2C16FF1F8F
:103CD000D0F8EC00704700BF044A054B1268506BE7
:103CE000002808BF1846F030704700BF600CFF1F67
:103CF000640CFF1F2DE9F04F01F10B05162D83B069
:103D0000064640F29F8035F0070500F1BF80A942CA
:103D100000F2BC8000F0BCFAB5F5FC7FC0F09C82DC
:103D20006B0A00F0BA80042B00F28381A80900F12D
:103D3000390E4FEA4E033830C44F07EB8303A3F12B
:103D400008015C68A14207D1ACE0002A80F2AC8097
:103D5000E468A14200F0A680636823F003035A1BC5
:103D60000F2AF2DDB9493C6901F1080E744500F0F3
:103D7000B381636823F003035A1B0F2A00F3998170
:103D8000002AC1F814E0C1F810E080F29E80B3F57B
:103D9000007F80F06781DB0803F1010C01229B109A
:103DA00002FA03F34A6851F83C80C4F8088001EB3A
:103DB000CC091A43A9F10803E3604A6041F83C408A
:103DC000C8F80C40831001249C40944200F28A8081
:103DD000144206D120F003006400144200F10400F4
:103DE000FAD007EBC009CC468046DCF80C108C45B5
:103DF00007D173E1002A80F28181C9688C4500F007
:103E00006D814B6823F003035A1B0F2AF2DD0C4629
:103E1000D1F80CC054F8088F4B1945F001054D60DE
:103E200042F00101C8F80CC03046CCF808807B6134
:103E30003B61C3F80CE0C3F808E059609A5000F009
:103E400029FA1FE0102921D800F022FA10250623B4
:103E500002207E4F07EB8303A3F108025C689442C3
:103E600000F045816368E168A56823F003032344FB
:103E700030465A68E96042F001028D605A6000F0F5
:103E800009FA0834204603B0BDE8F08F00240C2363
:103E90002046336003B0BDE8F08F80234FF0400E22
:103EA0003F2049E770465DE72344E1685A68A5680A
:103EB00042F00102E96030468D605A6000F0EAF994
:103EC0000834204603B0BDE8F08F234430465A68DA
:103ED00042F001025A6000F0DDF90834204603B0D8
:103EE000BDE8F08FBC68636823F00308A84504D3DD
:103EF000C5EB08030F2B00F38C80554BDFF8609166
:103F00001A68D9F8003001332A4404EB080A00F09B
:103F1000608102F580520F3222F47F6222F00F029C
:103F200011463046019200F0B9FEB0F1FF3F8346E2
:103F3000019A00F05881824500F2FC80454B1968D7
:103F4000DA451144196000F05381D9F80000DFF818
:103F500010E101301BBFCAEB0B0A5144CEF800B090
:103F600019601BF0070100F01781C1F10800C1F5CD
:103F70008051834408315A44C2F30B02C2EB010959
:103F800049463046019300F089FE431C019B00F036
:103F90003F81CBEB00024A4442F001021968C7F8A6
:103FA00008B04944BC42CBF804201960DFF8A49063
:103FB00016D0B8F10F0F40F2FD806268A8F10C0333
:103FC00023F00703E01802F001024FF0050E1A4338
:103FD0000F2B6260C0F804E0C0F808E000F21C811A
:103FE0001D4BBC681A68914288BF19601B4B1A6848
:103FF0009142626888BF196022F003029542A2EBE9
:10400000050301D80F2B04DC304600F043F90024EF
:1040100038E7621943F0010345F001056560304659
:10402000BA60536000F036F90834204603B0BDE8AA
:10403000F08F142B71D9542B00F2A480280B00F1BF
:104040006F0E4FEA4E036E3076E600BFD00DFF1FB5
:104050002C16FF1F3016FF1F2816FF1F2416FF1FE8
:10406000DC11FF1F5A0A042A5ED9142A00F2B38019
:1040700002F15C0149005B3207EB810C57F821101B
:10408000DFF8DC81ACF1080C8C4500F088804A68D0
:1040900022F00302934202D289688C45F7D1D1F80D
:1040A0000CC07A68C4F80CC0A160CCF80840CC60A1
:1040B00088E6631942F0010745F001056560304666
:1040C0004B610B61C3F80CE0C3F808E05F609A50E5
:1040D000083400F0DFF8D5E64A6873E608F1010815
:1040E00018F0030F0CF1080C7FF47FAE30E0DC68B1
:1040F000A34208BF02303FF435AEB3E60B440C4692
:104100005A68C96854F8085F42F001025A603046A4
:10411000E9608D6000F0BEF8B4E603F15C0E03F1D7
:104120005B004FEA4E0307E69A0902F139014900A4
:104130003832A1E7BC424A4B3FF400AF9C6862684A
:1041400022F003025AE759F80839994540F0828075
:1041500010F0030F00F1FF30F5D17B6823EA040370
:104160007B6064009C423FF6BDAE002C3FF4BAAECB
:104170001C4240467FF435AE64001C4200F104004E
:10418000FAD02EE6B3F5AA7F18D8E80B00F1780E26
:104190004FEA4E037730CFE54FF48051EBE6012133
:1041A000D8F80430921001FA02F21A43C8F8042039
:1041B000614677E70123CBF8043025E740F25452FB
:1041C000934220D8A80C00F17D0E4FEA4E037C30BC
:1041D000B2E51032A4E6542A26D81A0B02F16F0178
:1041E00049006E3248E7BC68626822F0030205E7C6
:1041F000CAF30B0000287FF4A8AE4244BB6842F02B
:1042000001025A60ECE6FE234FF07F0E7E2093E51C
:1042100001224FF00009C1E604F108013046FFF722
:104220006FFCD9F80010DBE6B2F5AA7F05D8DA0BEF
:1042300002F17801490077321EE740F254518A4278
:1042400005D89A0C02F17D0149007C3214E7FE2169
:104250007E2211E77B6884E7E808431C5B00F8E5F1
:10426000D00DFF1F82B049B15AB16BB113780B600A
:104270001278101C18BF012002B0704701A9002A53
:10428000F3D1104602B070476FF00100F4E700BFB1
:10429000704700BF704700BFC36C70B505460C4641
:1042A0004BB153F8240080B1026843F82420002366
:1042B0000361C36070BD2122042100F0FDFDE864AC
:1042C00003460028EDD1002070BD012101FA04F65B
:1042D000721D2846920000F0EFFD0028F3D04460E4
:1042E0008660E4E731B1C36C4A6853F82200086085
:1042F00043F82210704700BFF0B50C6983B00D463B
:10430000064601F1140E0027DEF8000081B202FB20
:1043100001310B0C000C02FB003389B2013701EBB9
:104320000341BC424EF8041B4FEA1343ECDC3BB1A3
:10433000AA68944207DA05EB8402013453612C61C8
:10434000284603B0F0BD6968019301313046FFF79C
:10435000A3FF2A69023205F10C01074692000C30D6
:10436000FFF7E8F8F26C6968019B52F821002860B9
:1043700042F821503D46DEE7030C1B04B3B90004AC
:10438000102310F07F4F04BF0002083310F0704F6D
:1043900004BF0001043310F0404F04BF800002331B
:1043A000002807DB420003D4202070470023E8E701
:1043B000581C704718467047036813F0070207D06F
:1043C000D90720D49A0720D49B08036002207047A5
:1043D00099B209B91B0C102213F0FF0F04BF1B0A7E
:1043E0000832190704BF1B090432990704BF9B0850
:1043F0000232D90704D45B0801D120207047013272
:10440000036010467047002070475B08036001207E
:10441000704700BF10B50C460121FFF73DFF012298
:104420004461026110BD00BF2DE9F04F0D691769AD
:10443000BD4283B00C46164604DA2A4634463D4651
:104440000E461746A368616805EB07089845C8BF84
:104450000131FFF721FF00F1140C0CEB8809CC456A
:10446000009005D26346002143F8041B9945FBD810
:1044700006F1140202EB870A04F11403524503EB20
:10448000850E54D2CDF80490994652F8043B1FFA99
:1044900083FBBBF1000F20D000204F466646054647
:1044A00000E01E4657F8044B3068A1B283B20BFB04
:1044B0000131240C000C4B190BFB040000EB1340E2
:1044C00099B2334641EA0041BE454FEA104543F8F0
:1044D000041BE6D8756052F8043C5FEA134B20D009
:1044E000DCF80030674618464D46002100E03746AC
:1044F0002C88000C0BFB040001449CB23E4644EAAD
:10450000014346F8043B786855F8044B83B2240C09
:104510000BFB043404EB1143AE454FEA1341E6D8DC
:104520007B6092450CF1040CAFD8DDF80490B8F133
:10453000000F0BDD59F8043CA9F104091BB105E09B
:1045400059F8043D13B9B8F10108F9D10098C0F841
:10455000108003B0BDE8F08F12F003032DE9F041A5
:10456000144607462ED10E46A4101CD0BD6C95B340
:10457000E3074FF0000806D4641014D02868A8B1EF
:104580000546E307F8D52A4631463846FFF74CFF83
:10459000B6B17268FB6C641053F82210316043F8B6
:1045A00022600646EAD13046BDE8F0812A46294617
:1045B0003846FFF739FF2860C0F800800546E0E77D
:1045C0000646D9E75A1E0B4D002355F82220FFF767
:1045D00093FE0646C8E701213846FFF75DFE40F22C
:1045E000712101220023416102610546B864036024
:1045F000BEE700BFA88D00002DE9F04791460A698B
:104600008B684FEA691404EB020808F101059D422A
:104610000E468246496804DD5B009D4201F10101BE
:10462000FADC5046FFF738FE002C00F1140238DDAA
:1046300002EB8403002142F8041B9342FBD134694E
:1046400006F1140119F01F0901EB840E21D0C9F104
:10465000200200240F6807FA09FC4CEA04049C4677
:1046600043F8044B51F8044B8E4524FA02F4F1D878
:10467000CCF804400CB108F10205DAF84C3072684D
:10468000013D53F822100561316043F82260BDE816
:10469000F087043B51F8042B43F8042F8E45F9D8DA
:1046A000EBE71346CBE700BF02690B69D21A13D1BF
:1046B0009B0014301431194410B4034401E09842B3
:1046C0000CD253F8044D51F8042D9442F7D009D37D
:1046D00001205DF8044B70471046704700205DF8DC
:1046E000044B70474FF0FF30F3E700BF2DE9F8436C
:1046F0000B690F4611695B1A002B904617D1890090
:1047000007F1140208F114055318294401E09A42F4
:104710005ED253F8046D51F8044DA642F7D060D232
:104720003B46144647464FF00109984606E05DDBDC
:1047300007F1140502F114044FF000097968FFF73E
:10474000ABFDD8F810303E69C0F80C9004EB830C38
:10475000A64605EB860700F1140400235EF8041B4F
:1047600055F8048B8AB213FA88F3090C9A1AC1EB34
:10477000184303EB224392B242EA0342F44544F861
:10478000042B4FEA2343E9D8AF4217D9A446294660
:1047900051F804EB13FA8EF2131403EB1E4392B29A
:1047A00042EA03428F424CF8042B4FEA2343EFD8EE
:1047B000ED433D4425F0030504352C44043C22B967
:1047C00054F8043D013E002BFAD00661BDE8F883A1
:1047D0000021FFF761FD0122002302614361BDE872
:1047E000F8832C464FF000091546A7E73B4607F132
:1047F000140408F1140547464FF0010998469DE757
:104800002DE9F04357EC106B83B0884601213C46FC
:10481000C7F30A551746FFF73FFDC4F3130481465B
:104820000DB144F4801401941EB302A840F8086D41
:10483000FFF7C2FD002834D19DE80C00C9F8142010
:10484000002B0CBF01210221C9F81830C9F8101043
:10485000DDB909EB8103A0F23240C8F80000186905
:10486000FFF78AFDC0EB41103860484603B0BDE851
:10487000F08301A8FFF7A0FD019BC9F814300121C6
:104880002030C9F81010002DE3D0A5F233450544BF
:10489000C0F13500C8F800503860484603B0BDE8A4
:1048A000F0839DE80C00C0F1200103FA01F10A43F6
:1048B000C3400193C9F81420C2E700BF2DE9F04FAF
:1048C000174683B0002900F0C1800E46814607F1EB
:1048D0000B05FFF7DDFC56F804EC162D2EF0030453
:1048E000A6F1080840D810221546AF4241D894429C
:1048F00075DAC94B996808EB04008842416800F0FA
:10490000D98021F0010303445B68DB077DD51EF0ED
:10491000010F35D039464846FFF7ECF90746E0B1BC
:1049200056F8043C23F001034344A0F108029A42E4
:1049300000F04481221F242A00F23181132A00F260
:1049400004810346324611681960516859609268C3
:104950009A6031464846FFF7D3F84846FFF79AFC7D
:10496000384603B0BDE8F08F25F00705002D2A4634
:10497000BBDA0C230020C9F8003003B0BDE8F08F8B
:1049800056F8083CC3EB080ADAF8043023F0030CAD
:1049900004EB0C039342BDDB5746DAF80C1057F8D2
:1049A000080F221F242AC160886000F21781132A91
:1049B00040F212813168CAF808107168CAF80C1008
:1049C0001B2A00F22B8108360AF1100231681160AF
:1049D00071685160B16891603E461C46D046631BC9
:1049E0000F2B1DD8D8F8043003F0010323434444AF
:1049F000C8F80430636843F0010363604846FFF77A
:104A000049FC304603B0BDE8F08F21F0030121449A
:104A1000914221DBC36882680C46D3609A60DEE76E
:104A2000D8F8042008EB050102F00102154343F019
:104A300001020B44C8F804504A605A6842F001026F
:104A400008315A604846FFF75BF8D7E7114603B0D4
:104A5000BDE8F04FFFF74EB91EF0010F7FF45AAFDB
:104A600056F8083CC3EB080ADAF8043023F0030CCC
:104A700001EB0C0E96458BDBC36882685746D3600A
:104A80009A6057F8081FDAF80C30CB60221F242AEE
:104A9000996000F29980132A62D93368CAF8083005
:104AA0007368CAF80C301B2A00F2A08008360AF19D
:104AB000100356E021F0030BA34405F110008345D9
:104AC00059DA1EF0010F7FF425AF56F8081CC1EB30
:104AD000080ADAF8041021F0030CE34458453FF7C4
:104AE00057AF5746DAF80C1057F8080F221F242A40
:104AF000C160886000F2B480132A40F2A58031685A
:104B0000CAF808107168CAF80C101B2A00F2AF80AE
:104B100008360AF110023168116071685160B1689D
:104B200091600AEB0501C5EB0B0242F001029960AE
:104B30004A60DAF8043003F001031D434846CAF81E
:104B40000450FFF7A7FB38465CE7336803607368DF
:104B500043601B2A27D800F1080306F10802F2E699
:104B60003B4632681A6072685A60B2689A603E4684
:104B70007446D04633E708EB0501C5EB0B0B4BF051
:104B8000010299604A6056F8043C03F001031D439A
:104B9000484646F8045CFFF77DFB304632E7314675
:104BA00001F068F9D5E6B3688360F368C360242A2E
:104BB00028D000F1100306F11002C4E650F8043CBE
:104BC00023F003031C440AE7314638467446D046B6
:104BD00001F050F93E4602E73A46F7E631463846DC
:104BE0001C46D04601F046F93E46F8E6B368CAF8DE
:104BF0001030F368CAF81430242A1BD010360AF19A
:104C00001803AEE7336903617369436106F1180263
:104C100000F1180397E600BFD00DFF1FB168CAF876
:104C20001010F168CAF81410242A0FD010360AF1B7
:104C30001802CBE63369CAF818307369CAF81C3019
:104C400018360AF120038CE73A4664E73269CAF85D
:104C500018207269CAF81C2018360AF12002B5E63D
:104C600031463846019301F005F9019B59E7B168D7
:104C7000CAF81010F168CAF81410242A03D01036AC
:104C80000AF1180247E73269CAF818207269CAF8AF
:104C90001C2018360AF120023DE700BF38B5074C4A
:104CA0000023054608462360FEF746F8431C00D063
:104CB00038BD2368002BFBD02B6038BD5816FF1F72
:104CC00090F800F06DE9024520F007016FF0000C4C
:104CD00010F0070491F820F040F049804FF00004F4
:104CE0006FF00700D1E9002391F840F000F10800CF
:104CF00082FA4CF2A4FA8CF283FA4CF3A2FA8CF307
:104D00004BBBD1E9022382FA4CF200F10800A4FA6D
:104D10008CF283FA4CF3A2FA8CF3E3B9D1E90423C1
:104D200082FA4CF200F10800A4FA8CF283FA4CF3F8
:104D3000A2FA8CF37BB9D1E9062301F1200182FAB2
:104D40004CF200F10800A4FA8CF283FA4CF3A2FAB8
:104D50008CF3002BC6D0002A04BF04301A4612BAC6
:104D6000B2FA82F2FDE8024500EBD2007047D1E9C9
:104D7000002304F00305C4F100004FEAC50514F058
:104D8000040F91F840F00CFA05F562EA05021CBF29
:104D900063EA050362464FF00004A9E7002A41D008
:104DA00040EA010313F00303F0B425D1032A23D909
:104DB00004680D68AC421FD1043A35D0A4F1013526
:104DC00025EA040414F0803F31D1071D0D1D0DE0CC
:104DD00057F8043B0E68A3F10134B34224EA0304FC
:104DE0000AD1043A20D014F0803F23D1032A294667
:104DF000384605F10405EBD803780C789C4202F1A3
:104E0000FF320CD182B114B916E06AB17BB110F84F
:104E1000013F11F8014FA34202F1FF32F5D0181BF8
:104E2000F0BC7047104670471046F0BC70471846FB
:104E3000F0BC70470020F3E72046F1E770B5154657
:104E40009AB0146809B1002C1AD100244FF42272D0
:104E5000ADF80C20009404941A464FF6FF761E9B82
:104E6000029469460594ADF80E6001F069F80028D7
:104E700011DB009B286000221A7004981AB070BDE4
:104E80004FF4C16200910491ADF80C20E4DA8B2359
:104E900003600020F2E70020F0E700BF21B1FF2A05
:104EA00004D80A7001207047084670478A230360BF
:104EB0004FF0FF30704700BF10B502FB01F1FEF765
:104EC00019FF0446D8B150F8042C22F00302043A2A
:104ED000242A18D8132A14D900231B2A03604360FC
:104EE00016D9242A8360C36011BF00F11002036148
:104EF000436100F118020023136053609360204661
:104F000010BD0246F7E70021FEF7AEFB204610BDBC
:104F100000F10802EFE700BF02690B69934200F35A
:104F20008D802DE9F04F03F1FF3801F1140700F1F6
:104F3000140B57F828205BF828304FEA880483B018
:104F40000132B3FBF2F90BEB0403009407EB040A04
:104F50000193B9F1000F39D00025BC46DE462B463F
:104F60005CF8046BDEF80020B4B209FB0455360C83
:104F70002C0C09FB0644ADB25B1BA6B213FA82F3FC
:104F8000C6EB124606EB23469BB243EA0643E245D4
:104F90004EF8043B4FEA14454FEA2643E0D2009B0B
:104FA0005BF8033093B9019C231F9B450CD254F846
:104FB000043C4BB9A4F1080302E01A68043B1AB997
:104FC0009B4508F1FF38F8D3C0F810800446FFF77E
:104FD0006BFB00282EDB09F101095D46002357F821
:104FE000041B28688AB29A1A090C12FA80F2C1EBE3
:104FF000104303EB224391B241EA0341BA4545F81D
:10500000041B4FEA2343EAD25BF828200BEB88030A
:1050100082B91A1F93450BD253F8042C42B9083BAE
:1050200002E01A68043B1AB99B4508F1FF38F8D32F
:10503000C4F81080484603B0BDE8F08F00207047E8
:105040002DE9F04F57EC106B9BB0046C249D009140
:1050500081460592039310EE10AABB4654B1426CF0
:10506000626001239340A3602146FFF73BF90023D0
:10507000C9F84030BBF1000F5C4634DB00232B60E5
:10508000A14B1A462340934216D0002200235046DB
:10509000594602F0BDFF56465F46804648B3039A24
:1050A00001231360259B002B00F0BE8097481860F9
:1050B00001381BB0BDE8F08F039A42F20F73136002
:1050C000BAF1000F00F09A809148259B002BF0D098
:1050D000C378002B00F0AA8000F10803259A136022
:1050E0001BB0BDE8F08F01232BF000442B60A346DA
:1050F000C6E718AA19A947EC106B4846FFF780FBD2
:10510000250D0A9040F08380189D199E2E4406F2CA
:105110003243202B40F38882C3F1400306F2124051
:105120009C402AFA00F0204302F094FC0123741EF4
:10513000A1F1F8710F930022764B02F04DFB6CA3A6
:10514000D3E9002302F0FCFC6BA3D3E9002302F0B7
:1051500045FB064620460F4602F08CFC68A3D3E9C7
:10516000002302F0EDFC02460B463046394602F0C1
:1051700035FB06460F4602F093FF00220490002301
:105180003046394602F04EFF002840F02882049E47
:10519000162E00F22182604B03EBC603D3E9000117
:1051A00052465B4602F05CFF002800F04282731E0C
:1051B000049300230D932D1BB5F1010800F12A8201
:1051C00000230793049B002BC0F21B8298440C938E
:1051D00000230693009B092B2AD8052B40F3448615
:1051E000043B00930026009B023B032B00F2238626
:1051F000DFE813F02B03240236035004444B474AE4
:10520000C4F31300002814BF184610465DE7CBF323
:10521000130343F07F51A5F2FF345046CDF83C8094
:1052200041F44011189D86E73D4842E7C31C55E70D
:105230000021C9F8441048460C460091FFF72CF8AD
:105240004FF0FF3308930E9301230990C9F84000F3
:1052500005940B93199B002BC0F2D080049A0E2A60
:1052600000F3CC802C4B03EBC20393ED007B059B3A
:10527000002B8DED007BC0F2FE8256465F46DDE9D5
:1052800000AB304652465B46394602F083FD02F0E1
:1052900007FF044602F0EEFB52465B4602F050FC6C
:1052A0000B4602463946304602F096FA099D04F153
:1052B00030032B70089B012B06460F4605F10105B4
:1052C00061D00022174B02F03BFC0022002306466F
:1052D0000F4602F09DFE00287DD1CDF81490DDF838
:1052E00020A0DDF824B0DDE9008928E0AFF30080DC
:1052F00061436F63A787D23FB3C8608B288AC63FDC
:10530000FB799F501344D33F0000F07FC98E00000B
:10531000C48E00000000F83FB88C0000B88E00007A
:10532000C88E00000000244002F00AFC0022002386
:1053300006460F4602F06CFE002840F0AE8342465F
:105340004B463046394602F025FD02F0A9FE0446E0
:1053500002F090FB42464B4602F0F2FB02460B463F
:105360003046394602F038FA04F1300E05F801EB08
:10537000CBEB050ED64506460F464FF00002AE4B6E
:10538000D2D1DDF8149032463B463046394602F021
:1053900025FA06460F4602460B46DDE9000102F0FB
:1053A00041FE40B932463B46DDE9000102F030FEE5
:1053B00088B1E3070FD515F8014C099A6B1E04E07C
:1053C0009A4200F0FC8313F8014D392C03F10105DA
:1053D000F6D001341C700A994846FEF783FF00227C
:1053E000049B2A70039A01331360259B002B00F065
:1053F0009B8309981D601BB0BDE8F08F0B9A002AB3
:1054000000F00E81009A012A40F35782089B069A09
:105410005F1EBA42C0F28B83D71B089B002BC0F2E1
:105420008084079D089B079A01211A4448460792E9
:105430009844FEF7EFFF064665B1B8F1000F09DDAD
:105440004545079A2B46A8BF4346D21A0792ED1A44
:10545000C3EB0808069B002B40F3F5820B9A002A49
:1054600000F00282002F00F0FF8131463A464846A4
:10547000FFF772F80A9A014606464846FEF7D4FF3F
:105480000A9904464846FEF72DFF069BDB1B069350
:1054900040F0E98101214846FEF7BCFF0C9B0690D5
:1054A000002B00F0158201461A464846FFF754F8D3
:1054B000009B0690012B40F3F3820027069A1369A4
:1054C00002EB83031869FEF757FFC0F12000404448
:1054D00010F01F0000F0FA81C0F12003042B40F30C
:1054E000BD84C0F11C00079B03440793054480441E
:1054F000079B002B05DD21461A464846FFF77CF83E
:105500000446B8F1000F05DD424606994846FFF70C
:1055100073F806900D9B002B40F07A82089B002BBD
:1055200040F393820B9B002B40F0F481DDF824B014
:10553000089FDDF818805D4602E0FEF7DDFE0446B8
:1055400041462046FFF7E8FC00F1300A05F801ABC0
:10555000CBEB0503BB424FF00A024FF0000321469C
:105560004846EADB099B089A012AACBF9B18013325
:105570001D464FF0000B214601224846FFF73CF83C
:1055800006990A90FFF790F8002840F3058315F874
:10559000012C09996B1E04E08B4200F0748213F811
:1055A000012D392A03F10105F6D001321A7006994E
:1055B0004846FEF797FE002E3FF40DAFBBF1000FFB
:1055C00005D0B34503D059464846FEF78BFE314619
:1055D0004846FEF787FEFEE601230D93EBE5DDF876
:1055E0001080404602F046FA02460B4630463946E5
:1055F00002F00EFD00287FF4CAAD08F1FF330493DA
:10560000C5E5079A049BD21A5B42069300230792D2
:105610000C93DFE5C8F1000307934FF00008D1E5D4
:10562000069F079D0B9E07E7C3F120040AFA04F0CA
:105630007AE50D90BFE500BF0000244000230B93E6
:10564000049B059A13440E930133002B089340F3F7
:105650007D82089C25460021172DC9F844100BD9DE
:10566000012204235B0003F11400A842114602F159
:105670000102F7D9C9F844104846FEF70DFE0E2C7A
:105680000990C9F840003FF6E5AD002E3FF4E2ADC9
:1056900004990029CDE910AB40F39A82904B01F0B8
:1056A0000F020E1103EBC203F006D3E9004540F1EF
:1056B00046828C4B50465946D3E9082302F06AFBD8
:1056C000CDE9120106F00F064FF0030A86B1854FAF
:1056D000F10709D520462946D7E9002302F030FA20
:1056E0000AF1010A04460D46761007F10807EFD1CA
:1056F00022462B46DDE9120102F04CFB06460F461E
:105700000D9B43B10022784B3046394602F08AFCAB
:10571000002840F01A83504602F0ACF932463B466E
:1057200002F00EFA714B002202F058F8089B044672
:10573000A1F15075002B00F0DB81049B1693089BB0
:1057400012930B9B002B00F09482129A644B6849D1
:1057500003EBC20353E90223002002F01BFB2246A5
:105760002B4602F039F882468B463046394602F025
:1057700097FC044602F07EF902460B463046394655
:1057800002F02AF83034099DE4B206460F462C7028
:1057900002460B4650465946013502F061FC00288E
:1057A00050D132463B4600204F4902F015F80246E0
:1057B0000B465046594602F053FC002840F008833F
:1057C000129A012A40F3F781129B099ACDF848807A
:1057D000134498460DE00020434901F0FDFF524676
:1057E0005B4602F01FFC002840F0F282454500F0C5
:1057F000E0815046594600223E4B02F0A1F90022BA
:105800003C4B82468B463046394602F099F90F46AA
:10581000064602F045FC044602F02CF902460B460F
:105820003046394601F0D8FF3034E4B252465B4688
:1058300005F8014B06460F4602F0F4FB32463B46A4
:105840000028C8D0169B0493C5E500230B93059B45
:10585000002B40F380811D461C460E930893FAE608
:1058600001230B93F3E70A94069A0A994846FEF738
:1058700073FE04460EE6089B002B3FF7FEAC40F09B
:105880004F8100221C4BDDE9000102F059F95B4613
:10589000524602F0DBFB089B06931E46002800F0F0
:1058A000EA80059B099DDB43049306994846FEF771
:1058B00019FD002E3FF48FAD89E60F9A002A00F003
:1058C000388203F23343069F079DACE51C200AE6AD
:1058D000009B012B40F380820C9F0120F7E500BF65
:1058E000B88C0000808D00000000F03F00001C40DC
:1058F0000000E03F00002440000014403146002337
:105900000A224846FEF7F8FC0E9B002B064640F3A1
:105910008D820893002D05DD31462A464846FEF764
:105920006BFE0646002F40F07C81B046089B099A2A
:10593000013BD31808930AF001030A931746DDF8D8
:1059400018B020465946FFF7E7FA3146054620468B
:10595000FEF7AAFE4246594682464846FEF7C6FE74
:10596000C268834605F13003002A49D1014620462A
:105970000793FEF799FE594605904846FEF7B2FC9C
:10598000059A079B2AB9009919B90A99002900F0CC
:105990003582BAF1000FC0F2E38005D1009919B940
:1059A0000A99002900F0DC80002A00F34E81089A51
:1059B0003B7007F1010A9742554600F0528121469B
:1059C00000230A224846FEF797FC46450446314626
:1059D0004FF000034FF00A0248460BD0FEF78CFC54
:1059E0004146064600230A224846FEF785FC5746F4
:1059F0008046A4E7FEF780FC5746064680469EE7B1
:105A0000014648460593FEF76DFC0122059BC0E761
:105A100006992046FEF748FE0028BFF67FAD2146D6
:105A2000049C0023013C0A2248460494FEF764FCCF
:105A30000B9B0446002B7FF461AF0E9B002B40F3C1
:105A4000ED81089372E50A9C24E5009B022B7FF709
:105A500069AD089B002B40F09D81069905224846C0
:105A6000FEF74AFC014606902046FEF71DFE002880
:105A70000A947FF716AF049A0999312301320492F0
:105A80000B704D1C11E7049A01320492099A3123DC
:105A900013708CE501230B93D2E5DDF814909AE4A2
:105AA000BAF1000F7FF409ADCBF31303002B40F0E4
:105AB0003E812BF000473F0D3F052FB1079B01337F
:105AC000079308F1010801270C9B0120002B3FF4EC
:105AD000FEACF3E4504601F0CDFF32463B4602F007
