:1000000000000320D1010000611000002D1000004D
:100010002D1000002D1000002D1000002D100000EC
:100020002D1000002D1000002D10000061100000A8
:10003000611000002D10000059120000B92B0000C3
:1000400061100000611000006110000061100000EC
:1000500061100000611000006110000061100000DC
:1000600061100000611000006110000061100000CC
:1000700061100000611000006110000061100000BC
:1000800061100000611000006110000061100000AC
:10009000611000006110000061100000611000009C
:1000A000611000006110000061100000611000008C
:1000B0006110000061100000611000006D0400007C
:1000C000611000004F06000061100000392200009E
:1000D00061100000CD2200006110000061100000DE
:1000E000611000006110000061100000611000004C
:1000F000611000006110000061100000611000003C
:10010000712B00005D2B0000492B0000332B0000F9
:1001100061100000E509000061100000611000009E
:10012000611000006110000061100000611000000B
:1001300061100000611000006110000061100000FB
:10014000852B0000611000007D050000611000009B
:1001500061100000611000006110000061100000DB
:1001600061100000611000006110000061100000CB
:1001700061100000611000006110000061100000BB
:1001800061100000611000006110000061100000AB
:100190006110000061100000652300006110000084
:1001A000611000006110000061100000611000008B
:1001B000611000006110000061100000611000007B
:1001C000611000006110000061100000611000006B
:1001D00008B5614B4CF220521A804DF628121A8055
:1001E00000BF00BF102223F80E2CA3F51F43DE3BF7
:1001F0004FF030621A60594A9A60594ADA60594B96
:100200004FF470021A60584B584A1A60584A1368E3
:1002100013F4807301BF57490B604FF4A853136068
:10022000554B56491A78100742BF1A7842F0080217
:100230001A70534BAA221A70524A534B8B4204D263
:1002400052F8040F43F8040BF8E7504B504A0021D2
:10025000934202D243F8041BFAE74E4A4E48002369
:1002600050F8231042F823100133742BF8D14B4B74
:100270004B4A802103F8011B9342FBD1494B454A6D
:100280001A60494B8A221A70A3F5805324225A70AF
:10029000A0221A709A799107FCD59A79D206FCD4DB
:1002A000424A937903F00C03082BFAD1404B6022A9
:1002B0001A70404A1378802BFCD13C4B00221A71F3
:1002C0004E225A719A799406FCD59979374A480694
:1002D000FBD5394B39491960082159602023137027
:1002E000937903F00C030C2BFAD1354B354A1A6085
:1002F000354B364A1A60002407225C6043F8042C10
:10030000334AC3F80C2D62B600F00AFA194B1A688A
:10031000D1070AD52F4A30491C60146042F8041CEA
:1003200010221A602D4A2E4911602E4A1278520668
:100330000ED52A492A4A0868904209D12548264CF8
:1003400000221A60026040F8044C102018600A6015
:1003500003F082FB02F0EAFD0E200540823F04001C
:100360000100002B88ED00E0002008E0030000857C
:1003700010D0034014D0034002D00740D811FF1F13
:1003800000E00740AC9300003007FF1FD811FF1FAB
:100390006416FF1F0002FF1F0000000000E400E0E1
:1003A00064E400E008ED00E0005006400040064034
:1003B00001E0074003E007404480044000000703D9
:1003C00004800440C010050014E000E07FA9030091
:1003D0000000202004D0034000DD68501CE00340F2
:1003E000A5C3945A00F00740FFFFFFFFFFFFFFFF88
:1003F000FFFFFFFFFFFFFFFFFFFFFFFFFFFFFFFF0D
:10040000FFFFFFFFFFFFFFFFFFFFFFFFDEF9FFFF23
:1004100010B5054C237833B9044B13B10448AFF33E
:1004200000800123237010BDD811FF1F00000000C1
:10043000A8930000084B10B51BB108490848AFF35A
:1004400000800848036803B910BD074B002BFBD0A0
:10045000BDE81040184700BF00000000DC11FF1F7E
:10046000A8930000D811FF1F00000000F0B52E4A2D
:10047000137913F0300F22D072B6937D03F0FF0092
:1004800023B9D3794023537462B618E062B6274982
:10049000274C0B782578274FDBB2EDB20C46591C60
:1004A0004029D67928BF0021A942F6B21CBF7E544C
:1004B0000B46411E11F0FF00F1D1DBB223701A4A46
:1004C000D078C0B2060621D513791D061ED519496C
:1004D00091F8405091F84130EDB2DBB2AB420CD014
:1004E0000133402B28BF00231479CC1894F84240E4
:1004F000E4B2D471147D072CF0D9DBB281F841301D
:10050000094B1A79140644BF7C22DA70410609D5DA
:10051000054B1A79520605D5064A002182F8821049
:100520003C22DA70F0BD00BF00A00640D515FF1FC9
:10053000D615FF1FF411FF1F70B50E4B0E4D93F82B
:10054000832042F0020605EBC60482F001026060DF
:1005500093F8840083F88320002814BFC8248824DB
:1005600080F0010044EA014183F8840045F8361028
:1005700070BD00BFF411FF1F0000FF1F10B5294B15
:100580001A79920620D52849DA790B782748013361
:1005900000783F2BC8BF0023834218BF2448D2B243
:1005A0001EBFC254DAB20A70224A116861B1224AEF
:1005B0001278D2B2934236BFC2F140029B1A9B1806
:1005C000272BC4BF01230B701649CA78D2B2140678
:1005D00018D50B79180615D5184B174C18782378B1
:1005E000DBB2984202D16C23CB700BE00133282B95
:1005F000134828BF00231844DBB290F88500C0B22E
:10060000C871237051060CD5064B1A79520608D5CD
:100610000C4A002111700C4A126802B111702C2290
:10062000DA7010BD00A00E40DD15FF1FDE15FF1FA4
:10063000D013FF1FCC13FF1FC913FF1FC813FF1FC9
:10064000F411FF1F2114FF1F2414FF1FFEE7F0B554
:100650002F4A137913F0300F25D072B6937D03F033
:10066000FF0023B9D3794023537462B61BE062B60E
:100670002849294C0B782578284FDBB2EDB20C467F
:10068000591C402928BF0021A942D67918BF7B18E0
:10069000F6B21CBF83F8AD600B46411E11F0FF009F
:1006A000EED1DBB223701A4AD078C0B2060621D54B
:1006B00013791D061ED5194991F8ED5091F8EE30C9
:1006C000EDB2DBB2AB420CD00133282B28BF0023A4
:1006D0001479CC1894F8EF40E4B2D471147D072C4F
:1006E000F0D9DBB281F8EE30094B1A79140644BF19
:1006F0007C22DA70410609D5054B1A79520605D5D8
:10070000064A002182F817113C22DA70F0BD00BFC2
:1007100000B00640D715FF1FD815FF1FF411FF1FAB
:10072000F0B5934D934A9449944E954F4FF0006322
:100730002B604FF080532B604FF000532B604FF035
:1007400080432B604FF000432B608E4B00244EF60D
:10075000FF701C60586028231360936013619361DD
:100760001362936213639363083202F501223360CC
:1007700013600B608B600B618B610B628B620921D4
:10078000396007F5805704373C607860BB603B6197
:1007900047F8041C07F5FE2785B03C607860BB6015
:1007A0003B6147F8041C07F580573C607860336074
:1007B000136042F8141CA2F5E122A2F5FD62283A6A
:1007C000916A41F400719162116841F00071116009
:1007D00002F5012247F6FF711460516093601361C6
:1007E000694B6A4908221A60A3F5AA2360221A708D
:1007F000E1225A70A3F56333A3F57E7339221A60A0
:1008000013230B6001F5FF2101F2FC710A60604ABD
:100810001360604BA2F5FF221C6003F50023A2F5D4
:10082000FD621C608423136002F5002232201360F5
:10083000594B01221A7002F031F972B657490B7800
:10084000802B2A4608D0564B564C702018705648BC
:100850000460802018700BE0544B5548186003F575
:10086000573303F2BD331C700B78802BFCD0EAE7C2
:1008700018780006FCD508784E4B01281B680BD170
:1008800000F1804000F5FC20602404700878802886
:10089000FCD146494848086062B648498B429CBF33
:1008A0000A214B4301AD00210A20B3FBF0F400FB09
:1008B000143330334B5523460CB10131F5E704A80E
:1008C000084400F80B4C6818CC1AA34206DAEC5C1A
:1008D0000678EE5400F801490133F5E73849002362
:1008E000E85C20B101330A2B21F8020BF8D135491D
:1008F000354801335B000B70002319461D18195051
:100900000833882B304C6960F8D13048304B01688F
:1009100041F4802101602F48016841F0407101607D
:10092000C4F307211970C4F3074119752A49230E2E
:100930000B70FF2301F8343C002001F82C3C01F837
:10094000A43C012301F8203C81F84C0001F8303C24
:10095000224B702119704FF400131360204B1022AA
:100960004FF4AF701A7005B0BDE8F04002F096B8D1
:1009700004E100E00C8003401C900B400C900B4005
:10098000008003400480034000900C400CB0034002
:100990000CB00B4020B003402914FF1F03E00740B8
:1009A000000002400000074104000240448004406F
:1009B000000017130C000240000007037F96980008
:1009C0003607FF1F3407FF1F0000FF1F348004405D
:1009D0009C20074000D80040B420074035E400E0E8
:1009E000082107402DE9F74FDFF8BC92C84699F877
:1009F0000050AD4CEDB215F0040F31D0AB4B1B786D
:100A00005BB3AB4A92F8201101F0FF0329B1013B1F
:100A1000DBB282F8203103B900BEA64E327802F074
:100A2000FF03D2B1013BDBB23370B3B9A24B1B78E9
:100A300003F0FF0A8BB9A14F386830B143880380B7
:100A400002F007F9C7F800A007E001F04FFF10B16E
:100A500002F0FFF801E001233370042388F800302E
:100A600005F0080303F0FF01002B00F08282944B95
:100A7000944D1B78DBB21F094FEA930640F0F781D3
:100A800005EBC603596855F83630C3F38303013BC1
:100A90000C2B00F2E881DFE813F0A101A101E601CF
:100AA000E601E601E601E601E601C101E601E60133
:100AB000E6010D000A687E4C4B68C4F82421C4F896
:100AC000283192B2804B45F8363040F281600023E5
:100AD00001218242C4F82C312B61AB6184F884106F
:100AE000264617D8B2F5D06F80F02881B2F5817F05
:100AF00000F0028106D8802A00F0BE80822A00F031
:100B0000C08039E140F202339A4200F00681B2F52A
:100B1000A06F1BE042F22100824200F05C810DD800
:100B2000B2F5086F00F0A280B2F5106F40F024819A
:100B30005E4A94F8261111701E460AE042F2212105
:100B40008A4200F0108142F221339A4200F018816B
:100B500012E1AB191A6A170603D5586A083801F072
:100B60003DFE0836802EF4D1584FDFF864A10026F0
:100B70005AF826004FEA860B30B14268009201F025
:100B80002DFE009A1046F7E7514B524A43F80B00EE
:100B9000514B4BF803005BF8020040B141680192F1
:100BA000009101F01BFE0099019A0846F5E74B4BB6
:100BB00042F80B0023F816003B78494A023B4BF8F9
:100BC0000200032B07D8DFE803F00204020400232D
:100BD00000E001233B700136042E07F10107C7D165
:100BE0004049394F00230B704FF0010A0E463E4A30
:100BF0003E4B0AEB0200534410F8010C9B0010F02E
:100C0000080F18704FEA8A0B21D001F06FFE38B13F
:100C100005EB4A1308305860354B45F83B3004E08B
:100C2000337845F83B000133337001F05FFE4BF041
:100C3000010338B105EBC30E0830CEF8040045F8C7
:100C4000337004E045F833003378013333704BF0F0
:100C500002000AF1010A4BF0030B0023BAF1050F61
:100C600045F8303045F83B30C1D18AE00F4B1B7856
:100C700084F818310B4687E084F8183184F819316C
:100C800081E0B4F8282102F07F02042A74D884F8A5
:100C9000183184F819319200164B9B5C9D0772D570
:100CA00084F818116FE000BF802007401814FF1F60
:100CB000F411FF1F2014FF1F1014FF1F1414FF1F37
:100CC000902007400000FF1FC80040009815FF1F3C
:100CD000BC15FF1F9C15FF1F2413FF1FCC15FF1F02
:100CE000AC15FF1F8415FF1F328A000030C80110A9
:100CF00088004000C0200740B4F8282102F07F029D
:100D0000042A39D8B4F82631002B35D1AA499200EB
:100D100011440A7822F002020EE0B4F8282102F011
:100D20007F02042A28D8B4F826312BBBA2499200AE
:100D300011440A7842F002020A7022E0B4F8262137
:100D4000B4F828119D4B5E68B6B11888904208D15E
:100D50005888884205D1120A032A0CBF33781B89B0
:100D600014E00C33EFE7964A1268C4F8402194F877
:100D7000262184F8442104E08F4B0F221A702AE0C8
:100D800000231E4602E0022306F58C76B4F82A51B1
:100D90009D4228BF1D46402D2F4628BF4027304684
:100DA0003946FFF7C9FBED1B3E4403D1402F12D15A
:100DB0002F4603E0402D2F4628BF402730463946B6
:100DC000FFF7BAFBED1B3E4401D1402F03D1C4F81D
:100DD0002C61A4F8465101227A4B43E07A4BB3F8D8
:100DE000242142F221039A4214D10023764ACC5C9A
:100DF00002F5A4701C540133072BF7D1D2F8483107
:100E00000021862B08BF0F23084608BF82F8203137
:100E1000FFF792FB6D4B45F8363024E06A4ED6F86A
:100E20002C719FB1B6F84641402C254628BF40257D
:100E300038462946FFF780FB601B80B2A6F84601C2
:100E400008B9402D00D17819C6F82C01B6F8242134
:100E50005D4BB2F5A06F06D1002283F8252193F8EF
:100E600026215B4B1A70574B01221A707DE005EB6F
:100E7000C604013F626803F00803A2F10800FFB254
:100E800003F0FF0E002B36D001F0A8FC5148524A67
:100E900050F82710E9B14B6840F8273001F10803FA
:100EA0006360D35D032B0BD8DFE803F00204060870
:100EB000032304E0022302E0052300E00423D355CA
:100EC00014F0080F0A8814BFC823882343EA02439A
:100ED00049E0D35D032B08D8DFE803F0474702045D
:100EE000002300E00123D3553FE014F0080F14BFA6
:100EF00003230223F7E755F836301B0C99B222F88A
:100F0000081C53B322F806EC42F804EC334ADFF82D
:100F1000B8E052F827304FEA870C13B942F827009F
:100F200004E00EEB0C02D2F8302150600CEB0E0303
:100F30002B4AC3F8300132F817300B4422F817302F
:100F400001F0D4FC10B10830606006E0254A45F895
:100F5000360013780133137007E0234A1B4B14F05B
:100F6000080F08BF134645F83630082388F80030CC
:100F70003DE5E80740D51348134A1B4D0223037093
:100F80001A4B82F8831002F5A87602F5C8721D602C
:100F9000DA605E609D6019619961074B0D221A70DD
:100FA000134AFF231370237011741371114B9F2286
:100FB0001A700123037032E0C020074080890000CE
:100FC0008C15FF1F94200740F411FF1FC80040003C
:100FD000982007409C15FF1F9815FF1FBC15FF1F89
:100FE000CC15FF1F8415FF1F880040000000FF1F65
:100FF0008820074084200740290604D5094B0D228C
:101000001A7080232370AA0705D5074A1378DBB22C
:10101000137002232370EB0644BF1023237003B028
:10102000BDE8F08FC02007408820074008B50B4D71
:101030002C462B68580301D5FFF7D4FC23685905CB
:1010400001D5FFF713FA23681A0501D5FFF7FFFA58
:101050002368DB04EDD501F0EFF8EAE734800440C3
:1010600008B5FFF7E3FF2DE9F8432C4B1B685A0541
:10107000064651D52A4B1B680BB101221A70294D27
:10108000294F2C78DFF8B0900134282C28BF002499
:10109000B8463B78A34232D1EFF31383A3B9EFF301
:1010A00010838BB9EFF3058222B10F2A04D91F4BAD
:1010B0009B5C01E04FF48073EFF3118212B1934215
:1010C00028BF1346402B14D899F804301B06E0D5EE
:1010D00098F80030164A0133282B28BF00231A4401
:1010E000DBB292F88520D2B289F8072088F8003068
:1010F000CFE7B3F5807FCCD101F074FEC9E70C4B8C
:101100002344F6B283F885600A4B01221A700A4B19
:10111000E4B2AC222C70DA70BDE8F8832880044079
:101120002414FF1FC813FF1FC913FF1FF0E300E0C3
:10113000F411FF1F2114FF1F00A00E4038B5044614
:101140004518AC4204D014F8010BFFF78CFFF8E708
:1011500038BD10B509B140F080000E4B9A7D904229
:1011600017D00D4C2468640512D502F07F02212AA5
:1011700002BF0A4A00241460002900F07F010CBF5E
:1011800044226022212902BF044942F440720A60CD
:10119000987510BD3407FF1F2880044060D00440BC
:1011A000184A136843F480631360174A00231370CE
:1011B000164A1370164A1370164A1370164A1370A3
:1011C000164A40F2133111604FF4517142F8041C79
:1011D0001F2898BF2020124AC0F344311170C0F379
:1011E000471100F01F0051709072937013742C23FC
:1011F000D3700C4B40221A70A3F23A3304221A60C7
:10120000704700BF28800440DD15FF1FDE15FF1F5B
:10121000C813FF1FC913FF1F2114FF1F64D0044010
:1012200000A00E4042E400E0FEE7FEE7094908B5F1
:101230008B6968B16A461844A2F50052904206D301
:1012400002F004FC0C2303604FF0FF3008BD8861FE
:10125000184608BD3407FF1F38B50A4D0024EFF3C8
:10126000108272B6286848B143692B6003B19C6153
:1012700002B962B6447783689847F0E702B962B66C
:1012800038BD00BFC413FF1F0368C9B21B681847ED
:101290000368C9B21B681847054B18795A79C0B260
:1012A000D3B298422CBF273303F1FF33181A70478B
:1012B000C413FF1F054B064A1B78DBB21370054BA6
:1012C0009B680BB100221A70704700BFDE15FF1F2C
:1012D000DD15FF1FC413FF1F30B5104B104C1B78DA
:1012E0002278D9B2D2B2914214D0531C402B0D4A6D
:1012F00028BF0023D0189268007BDDB2C0B22570F1
:1013000052B1994238BF4031CB1A1A2B04DC00236A
:10131000137030BD4FF0FF3030BD00BFDD15FF1F33
:10132000DE15FF1FC413FF1F094B1A78094B1B78EA
:10133000DBB29A4208D00133402B074A28BF002372
:101340001344187BC0B270474FF0FF30704700BFA6
:10135000DD15FF1FDE15FF1FC413FF1F054B187897
:10136000054B1A78C0B2D3B2984238BF4030C01A89
:10137000704700BFDD15FF1FDE15FF1F0C4B1868FF
:1013800010F4806011D018290A4B09D10A4A40F2A2
:10139000023111605A7B42F001025A73012004E0CD
:1013A0005A7B02F0FE025A73002000F001007047E1
:1013B0002880044000A00E4068D00440114B1868FB
:1013C00010F4806010B54FF0000218D03F290E4C89
:1013D00013D80E4B53F83100A06003EBC1034FF458
:1013E000A2745968012380F880320C600C6824F0E4
:1013F00020040C600270184601E0A260104600F064
:10140000010010BD28800440C413FF1F788B00002A
:10141000704700F10C03143003C883E803007047E1
:10142000C26803690AB9D90709D513F0010F4FEA59
:10143000630318BFC158184418BF8A581047704733
:10144000704700F10C03143003C883E803007047B1
:10145000C26803690AB9D90709D513F0010F4FEA29
:10146000630318BFC158184418BF8A581047704703
:10147000C26803690AB9D90709D513F0010F4FEA09
:10148000630318BFC158184418BF8A5810477047E3
:10149000C26803690AB9D90709D513F0010F4FEAE9
:1014A000630318BFC158184418BF8A5810477047C3
:1014B00010B5124C012384F84C30236DABB994F86D
:1014C00054201AB9002084F84C0010BD72B60C4AA2
:1014D000D26812B101335268FBE762B6072BF1D82C
:1014E00001F004FA20650028ECD0236D5888002311
:1014F00084F84C30C0F1400010BD00BFC413FF1F82
:101500009C15FF1F10B5084C94F854305BB1A06DCA
:1015100018B101F063F90023A36501F0CBFB10B112
:1015200001F05CF9F9E710BDC413FF1F10B50B4CB7
:10153000A36D13B1A26D62B902E094F8543013B9EF
:101540004FF0FF3010BD01F0B5FBA0650028F1D1D0
:10155000F6E753881344187A10BD00BFC413FF1F69
:1015600070B5104C94F85430DBB1256D012684F829
:101570004C604DB100266B8884F85C6028462B8057
:1015800001F067FB266509E001F0B0F920B184F8AD
:101590005C5001F05EFB01E084F85C60002384F89D
:1015A0004C3070BDC413FF1F01F07AB901F008B9C7
:1015B00008B50846FFF757FD012008BD38B50846B5
:1015C0000D4603F05DFD044601462846FFF7B6FDD3
:1015D000204638BD10B5044C94F85D3013B101F0CD
:1015E00001FCF9E710BD00BFC413FF1F114B1B68BE
:1015F0005B0510B500D410BD0F4C94F85D2002F0CF
:10160000FF0312B101F0EEFBF7E70C4A0421116071
:101610000B4A0C49D37040F203120A6041F8042CC3
:10162000094A1370094A1370034B9B680BB10122DE
:101630001A7010BD28800440C413FF1F88E100E029
:1016400000A00E4064D00440DD15FF1FDE15FF1F13
:1016500008461146FFF77DBD114A38B50C4692F891
:101660005D3003F0FF01002BF9D13F2C0D4D11D857
:1016700005EBC40355F834205B68012082F8800232
:101680004FF4A2721A601A6822F020021A602046F3
:1016900001F0C6F9024B55F834201A6638BD00BF78
:1016A000C413FF1F788B00001C4810B514464A086D
:1016B0001044B0FBF1F0FFF773FD194B9A7802F07C
:1016C000EC0104F003020A43610748BF42F0100234
:1016D0009A70134904F00F02042A02BF8A7942F07B
:1016E00040028A715A790E4B02F0EF02E00648BFC1
:1016F00042F010025A719A79A10602F0EF0248BF37
:1017000042F010029A71E305054906D54B780A7834
:10171000DBB242F020020A704B7010BD000E2707AA
:1017200000A00E40034B03EB5100B0FBF1F0FFF7BC
:1017300037BD00BF000E270738B590F841101D23B4
:10174000B1FBF3F203FB121290F8421080F8412033
:10175000B1FBF3F203FB1213044680F8423000257C
:1017600000F0BCFE2946013501F0CFFC082DF7D171
:10177000A36B0133FF2B88BF0023A36304F10C0389
:10178000243494E8030083E8030038BD10B5044610
:1017900000F0A4FE0378052B01BF04F10C031C34F8
:1017A00094E8030083E8030010BD10B5044600F080
:1017B00095FE037833B904F10C031C3494E803005C
:1017C00083E8030010BD10B5044600F087FE0378DF
:1017D000022B01BF04F10C031C3494E8030083E8DE
:1017E000030010BD10B5044600F078FE0378012B0D
:1017F00001BF04F10C031C3494E8030083E80300E8
:1018000010BD10B590F84020C16B0023013A43632E
:10181000836380F84230044680F84120043000F0B1
:101820001BFE04F10C03243494E8030083E8030056
:1018300010BD2DE9F041044600F050FE636B072B0C
:1018400031D82B4A52F82330B3F802800027BDB2BA
:10185000454528D294F8421094F841308AB2954216
:1018600001D3AB4212D2994203D995420ED29D4286
:101870000CD900F033FEA36B626B2902B1FBF8F1C7
:101880001944C9B201F01AFC064601E04FF0FF36D8
:1018900000F024FE606B072803D83246294600F08A
:1018A00057FC0137D3E7251D284600F0C2FD68B17B
:1018B00094F84130E16B013384F8413094F84230C0
:1018C000013384F84230284600F0C6FD636B0133D3
:1018D000072B81BF0023636304F10C032C3486BF04
:1018E00094E8030083E803006363BDE8F08100BF70
:1018F000F415FF1F2DE9F041134F0546002400F0B9
:10190000EDFD57F82430B3F802800026B3B243450A
:1019100008D200F0E3FD31460022204600F018FC1A
:101920000136F3E700F0DAFD2146013401F0EDFB6A
:10193000082CE4D105F10C03143595E8030083E885
:101940000300BDE8F08100BFF415FF1F2DE9F04151
:10195000144F0546002400F0C1FD57F82430B3F8B9
:1019600002800026B3B243450AD200F0B7FD00F072
:10197000B5FD31464269204600F0EAFB0136F1E749
:1019800000F0ACFD2146013401F0BFFB082CE2D190
:1019900005F10C03143595E8030083E80300BDE866
:1019A000F08100BFF415FF1F2DE9F041144F0546EB
:1019B000002400F093FD57F82430B3F8028000268D
:1019C000B3B243450AD200F089FD00F087FD3146ED
:1019D0000C4A204600F0BCFB0136F1E700F07EFD2A
:1019E0002146013401F091FB082CE2D105F10C03F2
:1019F000143595E8030083E80300BDE8F08100BFDB
:101A0000F415FF1F7DFFFF0010B5044606F0E4FE4D
:101A1000204610BD10B5044606F0DEFE204610BD7F
:101A200010B5044606F0D8FE204610BD15490B68D7
:101A300030B513B98360C36009E004681A68944242
:101A400007D20025121B8360C560D8601A60086049
:101A500015E002681C689968121B026061B10C688D
:101A6000A2420B46F5D28160C968C160D860C168E6
:101A7000A21A88601A6002E08160C3609860022345
:101A8000037530BD9015FF1F70477047704700BF4A
:101A900038B500F1380500F1500455F8040F03681B
:101AA0001B689847A542F8D1054B002283F8802295
:101AB00003F17C4303F5D52340F203121A6038BDCD
:101AC0000418FE4300234363836300F10C032430B6
:101AD00003C883E80300704700F10C03143003C807
:101AE00083E803007047C26803690AB9D90709D5BA
:101AF00013F0010F4FEA630318BFC158184418BF11
:101B00008A581047704790F83C30013BDBB2012BFC
:101B100080F83C309CBF012380F83D3000F10C037D
:101B2000343003C883E80300704790F83C30013339
:101B3000DBB2632B80F83C3084BF002380F83D305B
:101B400000F10C03343003C883E80300704700F150
:101B50000C03143003C883E803007047C2680369AC
:101B60000AB9D90709D513F0010F4FEA630318BF6B
:101B7000C158184418BF8A5810477047704710B5AD
:101B8000044606F029FE204610BD10B5044606F0B6
:101B900023FE204610BD10B5044606F01DFE20466B
:101BA00010BD10B5044606F017FE204610BD10B556
:101BB000044606F011FE204610BD10B5044600F0A4
:101BC0008DFC0378042B01BF04F10C031C3494E852
:101BD000030083E8030010BD10B5044600F07EFC4E
:101BE0000378032B01BF04F10C031C3494E80300B9
:101BF00083E8030010BD012310B580F83C3080F865
:101C00003D30044600F06AFCC168201D00F024FC51
:101C100004F10C03243494E8030083E8030010BDAE
:101C20002DE9F041064600F059FC804C05782378F8
:101C3000AB4206D006EB8303D86B03689B689847DA
:101C40002570237806EB8303D86B03685B6898479D
:101C5000706D00F0EEFB002800F0B080734B5B78F5
:101C6000002B70D0724A734B11680906FCD41968B6
:101C700011F08001F8D172B66378002B62D06E4B00
:101C80006E4AD3F800E004330C321B6852F80C7C27
:101C900052F8085C52F8040C126873443B442B441D
:101CA00003441344C3F34E03654A43F400431360F3
:101CB000644BD3F800E0043340321B6852F80C7CCC
:101CC00052F8085C52F8040C126873443B442B44ED
:101CD00003441344C3F34E035B4A43F400431360CD
:101CE0005A4B02F50022D3F800E0043310321B688F
:101CF00017685568906873440C323B4412682B4453
:101D000003441344C3F34E03514A43F400431360A6
:101D1000504BD3F800E0043340321B6852F80C7C7F
:101D200052F8085C52F8040C126873443B442B448C
:101D300003441344C3F34E03474A43F40043136080
:101D40003A4B597062B672B6444D0E274FF00108F7
:101D50002F6084F8028062B672B62B681B060ED51F
:101D60003F4B1D680023A37062B663681D44237A4D
:101D700065600133DBB2032B23721BD906E0A37825
:101D8000002BE5D062B601F02DF8E5E7274B2D09D1
:101D90005D6000F0A3FB077C00F0A0FB0378032B41
:101DA00005D0BB1C9D4230D2023FBD422DD900233D
:101DB000237263603C21706D00F04EFB294B2A4F6B
:101DC00093F800523B78EDB2AB4205D02821B06DBC
:101DD00000F042FB01236372B06D00F02AFB88B172
:101DE000637A7BB1114B00225A725DB900F076FB29
:101DF00003780133DBB2052B0DD900F06FFB2946C8
:101E000001F0ACF93D70BDE8F08100F067FBE9B28C
:101E100001F086F9CBE700F061FB044600F05EFBC1
:101E200001780131C9B22046EAE700BF2814FF1F3C
:101E300024B0034024B00B4038B0034040B003400E
:101E40002CB0034058B0034030B0034038B00B40D2
:101E50002CB00B4058B00B4030B00B4000B00340EA
:101E600010B003400418FE43D707FF1F38B50446DF
:101E7000002500F033FB2946013501F046F9082D15
:101E8000F7D1A36B0133FF2B88BF0023A36304F1B9
:101E90000C03243494E8030083E8030038BD0846AB
:101EA000114600F041BD07B502A800F8011D01214F
:101EB00000F03AFD03B05DF804FBF7B5324F05467C
:101EC00001AE00F07DFC002802DC05F1BB063DE020
:101ED00000F0E6FCC2B20D2AD5F8BC3101D0802B4F
:101EE0000FD1802B08BF7F232B44002283F83B2097
:101EF00005F13B01C5F8BC21D5F8C00100F0B8FAE6
:101F0000E3E7082A15D1002BDBD0013BC5F8BC3133
:101F10003A88BB783280B3700024335D8DF802308C
:101F200001210DF10200013400F0FEFC032CF4D17C
:101F3000C7E7591C02A82B44C5F8BC1100F8052DB1
:101F400083F83B20012100F0EFFCBAE7D5F8C4414B
:101F5000E368B3B162696168304601F0AFFCE368E1
:101F6000A26961680948013BE36023681A44914211
:101F70001CBF63695B1863603246054900F022FFAD
:101F8000E4E703B0F0BD00BFD4890000EC07FF1FF9
:101F9000F489000010B5084614461146FFF7CEF844
:101FA000204610BD07B5F020FFF7FAF800212120E8
:101FB000FFF7CFF81A210748FFF7C0F8064B0221B8
:101FC0001B88ADF8043001A8FFF7B8F803B05DF83E
:101FD00004FB00BFF7890000D789000008B5084658
:101FE000FFF741F8012008BD704770477047704700
:101FF0004A1CC379D2B29A4270B51ED0013B13F08D
:10200000FF0384680CD0FF291FBF110201F1FF31CB
:1020100091FBF3F39BB204BF4FF6FF7191FBF3F317
:102020002546291B868889B28E4205D929785943CD
:10203000091205F8011BF4E7C27170BD2DE9F843E0
:1020400083680446002B4BD000F008FD2369C01ABA
:10205000B0F5967FF8D372B6224B94F90620A168AA
:1020600053F832E0204AA088136843F0807313606D
:102070001E4A136843F0010313601D4B1A6808449D
:1020800002F5967298464FF0010C88421FD911F85C
:10209000019B082580261F68BF1AB7F5967FFAD3E3
:1020A00016EA090FD8F800208EF880C004D01F6807
:1020B000BF1ABF2FFBD903E01F68BF1A3B2FFBD904
:1020C000013D8EF800C14FEA5606E4D1DDE71968FC
:1020D000891AB1F5967FFAD362B600F0BFFC206191
:1020E000BDE8F883788B0000FCED00E0001000E014
:1020F000041000E0F8B5061D0446304600F099F9DA
:1021000010B300F0EBF994F83C10104F01F008F810
:1021100000F0E4F9002557F825000135FFF78EFFA0
:10212000082DF8D100F0DAF9C168304600F094F9D2
:1021300094F83D2004F10C030AB1243400E02C345F
:1021400094E8030083E80300F8BD00BFF415FF1F07
:102150001B4B53F8200043888B42F0B52FD98CB22B
:102160009C422CD2C379C2F30746C2F30725D4B2EE
:102170000BB9A64608E05E435D435C43C6F3072601
:10218000C5F30725C4F3072E077BC47BA7428768E6
:1021900003D101EB410139440AE007EB8101120E42
:1021A0000C440BB9D3B202E05343C3F307232370AB
:1021B000037BCE54437BCD54837B01F803E0F0BD19
:1021C000F415FF1F2DE9F041044600F087F9636B19
:1021D000072B1ED8174A52F823305F880025AEB26D
:1021E000BE4216D200F07AF9A36B626B3102B1FBEA
:1021F000F7F11944C9B200F061FF804600F06EF9B2
:10220000606B072803D842463146FFF7A1FF01352E
:10221000E5E7636B0133072B81BF0023636304F1A0
:102220000C032C3486BF94E8030083E80300636347
:10223000BDE8F081F415FF1F10B5204B1A79920606
:1022400010D51F49DA790B781E48013300783F2BEF
:10225000C8BF0023834218BF1B48D2B21EBFC2545E
:10226000DBB20B701548C278D2B2130619D50379C8
:102270001C0616D5144991F8404091F84130DBB264
:102280009C4202D16C23C3700BE00133282B28BF82
:102290000023CC18DBB294F84240E4B2C47181F858
:1022A0004130510609D5054B1A79520605D5064A23
:1022B000002182F86A102C22DA7010BD00C006409E
:1022C000D915FF1FDA15FF1F3414FF1F10B5214B5E
:1022D0001A79920611D52048D97903781F4A01331B
:1022E0003F2B1278C8BF00239342C9B205D01C4AC5
:1022F0001A44DBB282F86B1003701648C278D2B26F
:10230000130619D503791C0616D5154991F8AB406B
:1023100091F8AC30DBB29C4202D16C23C3700BE06D
:102320000133282B28BF0023CC18DBB294F8AD4032
:10233000E4B2C47181F8AC30510609D5054B1A7965
:10234000520605D5064A002182F8D5102C22DA70F3
:1023500010BD00BF00D00640DB15FF1FDC15FF1FBE
:102360003414FF1F10B5224B5A68920211D5214830
:10237000D9680378204A01333F2B1278C8BF002365
:10238000934206D01D4A1A44C9B2DBB282F8D61075
:10239000037017498C6823021DD54B6818021AD5A3
:1023A000164A92F8160192F81731DBB2984206D11C
:1023B000134B00221A60012243F8042C0BE0013376
:1023C000282B28BF0023D018DBB290F81801C0B228
:1023D000C86082F81731620209D5054B5B685B0261
:1023E00005D5064A002382F84031064A136010BD25
:1023F00000400C40DF15FF1FE015FF1F3414FF1FC6
:102400005C0188435801884310B5044606F0E4F99E
:10241000204610BD10B5044606F0DEF9204610BD7A
:1024200010B5044606F0D8F9204610BD7047704735
:102430007047436882B053B1064A0068126801923F
:10244000019A101A83422CBF0020012000E00120D5
:1024500002B070478C15FF1F044B416082B01B68AF
:102460000193019B036002B0704700BF8C15FF1FF2
:1024700010B50446A9B1C26803699A4213D24269F1
:10248000806801F01BFAE368A269A1680133E36088
:1024900023681A4491421CBF63695B18A360002043
:1024A00010BD012010BD072010BD70B50A4CD4F836
:1024B000445175B9882006F087F90646C0F8805067
:1024C000082006F081F9C4F8446105604560C6F84B
:1024D0008400D4F8440170BD3414FF1F38B50A4C91
:1024E000D4F848516DB9182006F06EF90423436002
:1024F00014238360C3606423057003744561C4F8CA
:102500004801D4F8480138BD3414FF1FF8B5244DF4
:10251000D5F84C71002F40D14FF4E47006F054F917
:10252000022206461F4900F0D5FB1F4B3360C6F858
:10253000BC71202006F048F9402303618023044643
:102540004361C76007774FF4005006F03DF94FF440
:10255000FC5320606060A060A36100B92061C6F8F0
:10256000C041202006F030F90023C36040230361FE
:10257000802343610123044603774FF4005006F0A3
:1025800023F94FF4FC5320606060A060A36100B9A0
:102590002061C6F8C441C5F84C61D5F84C01F8BDBE
:1025A0003414FF1F128A0000E48900002DE9F74F60
:1025B000DFF8C09082464FF000084FF00C0B5FFA36
:1025C00088F30BFB03F209EB020159F80260002EBD
:1025D00046D08A6812B901218AF83A10DAF8BC406C
:1025E000002C3AD00192002A37D0224A0BFB032359
:1025F00038205F6806F0E8F80023019A436280F80B
:10260000283080F82930C36203634363394602628D
:102610002022054606F036F93146204600F0DBFE62
:1026200063689842074618D2236853F82030A3B94C
:10263000242006F0C9F820220190314640F8045BBE
:1026400006F020F92268019B42F82730236853F8EE
:10265000273013B1A3680133A36008F10108AEE786
:10266000FFF754FF0449324603B0BDE8F04F00F0D5
:1026700053BB00BF0008FF1F3A8F000008B5FFF7EB
:1026800045FF01221D4900F047FBFFF73FFF0122F4
:102690001B4900F041FBFFF739FF0122194900F007
:1026A0003BFBFFF733FF0122174900F035FBFFF733
:1026B0002DFF0122154900F02FFBFFF727FF012214
:1026C000134900F029FBFFF721FF0122114900F017
:1026D00023FBFFF71BFF01220F4900F01DFBFFF753
:1026E00015FF01220D4900F017FBFFF70FFF012234
:1026F0000B4900F011FB002008BD00BF368A000026
:102700004A8A00006B8A0000818A00008F8A0000DC
:102710009F8A0000B18A0000DB8A0000F78A00006F
:10272000148B00002DE9F047084686B006222249A6
:1027300002F014FD00240646FFF7B7FED0F8803003
:102740009C4235D2FFF7B1FE50F8243073B326B95E
:10275000FFF7ABFE50F82430DE60FFF7D7FE0746E8
:10276000FFF7A3FE50F82450FFF79FFE50F82430E7
:10277000D3F80880FFF799FE50F82430D3F80C9076
:10278000FFF793FE50F82430D3F810A0FFF78DFE2A
:1027900050F82430094A93F83A30049319358DE8FB
:1027A000200723468021384600F0F4FA0134C3E7BD
:1027B000002006B0BDE8F0871E8B0000248B0000CF
:1027C000044B9888044B1A681AB1138852889B1AD4
:1027D00018447047CC15FF1F1C14FF1F2DE9F0474C
:1027E000274E2849DFF8B090DFF8B0A0DFF898E076
:1027F000B4464FF00008431A4821B3FBF1F10B290E
:102800003CD896F850311E4C73B399F800305BB346
:1028100072B601230AEB030212F8012C12071CD531
:102820009A00194D5EF832702FB905EB431308304A
:102830005860164B09E042F001025EF8327067B949
:1028400005EBC20308305860114B45F8323094F85C
:102850005031013B84F850310FE00133052BD9D1C1
:1028600062B68CF85081CAE772B60A4A4FF000434C
:1028700023FA01F113680B43136062B6BDE8F087D9
:102880003414FF1FD003FF1F0000FF1F880040000B
:10289000C8004000D807FF1F1814FF1F328A00002D
:1028A00010B5104C23686BB1206843885A1C034450
:1028B0001C7A03889A4211D3FFF790FF094B00223C
:1028C0001A600CE0084B1B7813B94FF0FF3010BDB5
:1028D00000F0F0F920600028E6D1F6E742802046BB
:1028E00010BD00BF1C14FF1F1814FF1F10B572B6D7
:1028F0000B480268B2FA82F10B2902DD62B60020B1
:1029000010BD4FF00043CB4022EA0302026062B6E2
:10291000044C48234B43E0180022E250426010BDB3
:10292000D807FF1FD003FF1F2DE9F74F354DDFF804
:10293000EC80012382460C462B7089464646B9F14D
:10294000000F59D0D8F800306BBB2F4FDFF8B4B070
:102950002E4B1B7803F0FF000BB928701DE072B6F8
:102960002B4BDB68002013B101305B68FBE762B6DC
:10297000072809D8012001932870FFF7B7FF3060BE
:1029800088B9019B8BF80030013F224B02D093F8AD
:10299000510128B1012283F851214FF0FF302EE080
:1029A00000F020FAD4E71B4B002083F85101306877
:1029B0004388C3F140074F4528BF4F4603EB070E3E
:1029C0000344C7EB0909A0F802E007335744BA45AE
:1029D00004D01AF801EB03F801EFF8E743883F2B26
:1029E00005D94023038000F034F9002333600A4BFB
:1029F00005221A70BA46A2E785F80090204603B077
:102A0000BDE8F08F1014FF1F81B501001814FF1FDF
:102A10009C15FF1F3414FF1F2014FF1F1414FF1FE9
:102A200010B50D4B53F8302092F880423CB1012391
:102A300011B182F8803010BD82F8003110BD03EB77
:102A4000C0035B681A6811B142F0030201E022F092
:102A500002021A6010BD00BF788B000072B60C4BEA
:102A60000C4A0D491B681268096862B6490102D513
:102A7000322B88BF0132C3F56A33F02003F27F1393
:102A8000B3FBF0F34FF47A7000FB0230704700BFE5
:102A900018E000E08C15FF1F04ED00E038B5044697
:102AA000FFF7DCFF054624B938BD013C0AD005F527
:102AB0007A75FFF7D3FF401BB0F57A7FF5D200F0AF
:102AC00091F9F6E738BD00BF2DE9F0410C468AB018
:102AD00000F10308C51D30270A2618F8013F0BB185
:102AE000212103E08DF8257021210DE00AAAB3FB16
:102AF000F6F00A4406FB1033303302F8243C034658
:102B000010B10139C9B2F1E7236801A8C1F122026D
:102B10005B68014420469847A84505D023682E21CC
:102B20001B6820469847D8E704200AB0BDE8F0812A
:102B30007047034B01221A60024BDB68184700BF45
:102B40003C710340DC07FF1F024B01221A60024B5D
:102B50009B6818472C710340DC07FF1F024B0122C2
:102B60001A60024B5B6818471C710340DC07FF1FAB
:102B7000024B01221A60024B1B6818470C7103407C
:102B8000DC07FF1F094A136843F080731360084A8B
:102B9000136843F00103136051685368054A5B1AD8
:102BA00011881B098B4288BF13807047FCED00E041
:102BB000001000E08815FF1F70B5174D6B68AC68FA
:102BC00001336B600026BCB1236813B1013B236065
:102BD00012E0A26802B1D3602069AA60036826757A
:102BE0001B6822460021984763681BB1236020467A
:102BF000FEF71CFFAC68E6E7EFF3108372B6002225
:102C0000E868EA6003B962B620B18468FEF70EFF97
:102C10002046F9E770BD00BF8815FF1F30B5A8B189
:102C20000268134602F180051C466BB1AB4208D026
:102C300013F8011B39B12029F6D10021631C217042
:102C400002E0002300E00B46036000E0024610466D
:102C500030BD72B6144AD37C032B08D8DFE803F0EA
:102C600010021204022100E00421104B0CE0116A52
:102C70000D4B09B9186201E01B6B5860106310E03E
:102C8000032100E005210A4BD17413F0080F00F175
:102C9000080201885A6014BFC822882242EA014211
:102CA0001A6062B6704700BF8815FF1F9800FF1FAB
:102CB0009000FF1F72B6064BD86B38B1426801888E
:102CC000DA63B3F84820521AA3F8482062B6704776
:102CD0008815FF1FF8B50F4B036000251423044629
:102CE00043608560C5600561082017460E4605F003
:102CF0006BFD277605604560606184F8395084F883
:102D00003A502022314604F1190005F0BBFD20465F
:102D1000F8BD00BF688B00002DE9F8430D4604465E
:102D20004FF480512846904600F0BEFE7F280646AC
:102D300014D904F1BB074FF0000929467F22384619
:102D400005F0A0FD7F3E84F83A913946D4F8C401DD
:102D5000FFF78EFB7E2E05F17F05EED89EB10B4965
:102D60000B4A04F1BB06B8F1000F18BF0A462B4608
:102D70008021304605F038FD3146D4F8C401BDE865
:102D8000F843FFF775BBBDE8F88300BFA08D0000D6
:102D9000F48900000CB437B500F23B1507AB0446CC
:102DA000074A01938021284605F0DAFD01222946D1
:102DB0002046FFF7B1FF03B0BDE8304002B07047D6
:102DC000248B00000EB403B503AA054852F8041B77
:102DD000019200F073FF02B05DF804EB03B070479E
:102DE000EC07FF1F38B51F4B93F84C201C46002AF8
:102DF00036D193F84D1083F84C2093F84E1093F889
:102E00004F1093F8501093F8511093F8521093F814
:102E1000531093F8541093F8551093F8561093F8F4
:102E2000571093F85810EFF30582CAB9EFF31082E8
:102E300072B6D86D10B193F8601011B182B962B654
:102E400038BD012384F860304369E36503B19961BB
:102E500002B962B6002545778368984784F86050C8
:102E600038BD00BF8815FF1F10B5036814465B68A6
:102E70009847204610BD016830B599B10A4B0B4404
:102E80001B1103F130025511012402F01F0204FA54
:102E900002F2064C44F82520054A064C42F823402D
:102EA00000238B6030BD00BF008FFCBF80E100E0DD
:102EB000DC07FF1F312B0000F8B501230025C37389
:102EC000037357270223837304460570C571056198
:102ED0004573878038460E4605F076FC0346A060B1
:102EE00028B13A46294600F083FD1D2300E0A0806A
:102EF00063802378A671A3B13F2E12D80A4B03EB4F
:102F0000C6030121DA699B6983F880124FF4A2732A
:102F10001360136823F02003136000213046FFF78D
:102F20007FFD2046F8BD00BF608B000083B5FFF732
:102F3000D5FA594CDFF87491804604F12007012638
:102F400054F8040F98F81010FFF752F8D4F800A0C6
:102F50009AF90630002B15DB3F2B0CDC09EBC30381
:102F6000DA699B6983F880624FF4A2731360136877
:102F700023F0200313609AF806003F2802D80021AE
:102F8000FFF74EFD8AF800602068FFF757F8BC4253
:102F90004FF00105D4D1FFF788FA404B83F88052F7
:102FA00003F17C4303F5D4234FF4A2721A601A682C
:102FB000044622F0200229461A600D20FFF730FD5A
:102FC0004FF47A71D4F88400354DFFF745FA55F87F
:102FD000043F13B9334F344E34E0FFF766FA04462A
:102FE0002868D4F880301F2BF1D844F823000368F8
:102FF0001B689847D4F880300133C4F88030E6E786
:1030000055F8043F2BBB08F10108D4F88030434544
:10301000F6D8D4F88400FFF70CFA88B196F820505F
:103020000D202946FFF7FCFC15F1FF3518BF0125DF
:103030004FF47A71D4F8840086F82050FFF70CFA28
:10304000FFF7D0FEFFF731FA4FF000080446051FE6
:10305000DBE793F83A90B9F1000FD4D15968586979
:10306000FFF7FAF9286803685B6898472B685A6984
:103070001168C2F804907A680192019A521AD968CC
:1030800091422CBFD960DA6059689A6091429EBF24
:103090001A6901321A61B6E7F015FF1F1410FE43DA
:1030A0001416FF1F8815FF1FDC07FF1F608B000031
:1030B00010B5044605F090FB204610BDC943C9B2C7
:1030C000542909D8A1EB8100013801EB4101C9B2B3
:1030D000C0B241EA00407047A92909D85539C9B2A0
:1030E00001EB4100A1EB81010139C0B2C9B209E095
:1030F0005631C9B2A1EB810001EB41010138C9B2DF
:10310000C0B2090441EA00207047072904D8034BE4
:1031100053F82100FEF792BF704700BFF415FF1F60
:10312000632970B5054601D9642302E0012902D85C
:1031300001232B7400E00174074E002456F824008C
:10314000297CFEF755FF56F824000134FEF776FF80
:10315000082CF3D170BD00BFF415FF1F00B501703E
:10316000A3B0052930D8DFE801F003080D1F24299A
:10317000FFF7CCF90122164924E0FFF7C7F9012235
:1031800014491FE04369DAB20192C3F30722802198
:103190000092C3F30743104A02A805F025FBFFF78E
:1031A000B5F9012202A90DE0FFF7B0F901220B49A0
:1031B00008E0FFF7ABF90122094903E0FFF7A6F9A0
:1031C00008490122FFF7A8FD23B05DF804FB00BF0A
:1031D000A48D0000B68D0000CA8D0000F48D0000A3
:1031E0000E8E00002A8E00002DE9F843089F164637
:1031F00098460D46002900F08B8004226849284635
:1032000001F0ACFF044618B9FFF768F9214627E042
:1032100006226449284601F0A1FF18B9FFF75EF9BC
:1032200001211DE008226049284601F097FF18B9E6
:10323000FFF754F9042113E009225C49284601F004
:103240008DFF90B93378180607D433B198F8003061
:1032500033F07F0501D1002B5DD1FFF73FF9052148
:10326000FFF77CFF0020BDE8F8830622504928467E
:1032700001F074FF88B93378190649D4002B47D080
:1032800098F800301A0643D4002B41D03B7833F035
:103290007F043DD1002B54D13AE00622454928460F
:1032A00001F05CFF48B9337833F07F0101D1002B86
:1032B0006DD1FFF713F90321D2E7FFF727F90122B8
:1032C0003D49FFF729FDFFF721F901223B49FFF7AF
:1032D00023FDFFF71BF901223949FFF71DFDFFF719
:1032E00015F901223749FFF717FDFFF70FF9012202
:1032F0003549FFF711FDFFF709F901223349FFF7BF
:103300000BFDFFF703F901223149FFF705FDA9E79E
:103310000120BDE8F88329460A22304600F092FCDD
:10332000294604460A22404600F08CFC0546FFF779
:10333000D5F81C2C28BF1C244460FFF7CFF885600B
:103340008BE70A222146304600F07CFC0A228146A7
:103350002146404600F076FC0A22214605463846C2
:1033600000F070FC4FEA094906462D02FFF7B6F857
:103370000221FFF7F3FE09F47F09FFF7AFF805F428
:103380007F4549EA0505F6B2354345616AE70A22F9
:10339000304600F057FC0446FFF7A0F8C46088E709
:1033A0004B8E00004F8E0000568E0000558E0000A0
:1033B0005E8E0000648E00006A8E0000908E000019
:1033C000998E0000A48E0000B18E0000D68E000001
:1033D000ED8E000070472DE9F041446806460F4627
:1033E0004CB32021384600F05FFB00243A46D31B43
:1033F000984205DD12F8013B83EA44135C40F6E78E
:103400007568B4FBF5F34FF0010805FB1344A542C2
:1034100011D9336853F8240068B1202239460430AA
:1034200001F09CFE38B14444A54202D908F10208DB
:10343000EDE7641BFAE77068844234BF20464FF022
:10344000FF30BDE8F0812DE9FF470546C030FEF7AB
:10345000F0FF002863D0FFF759F8D0F8C041E368C7
:10346000002B5CD015F13B0659D06269616830468B
:1034700000F024FAE368A2696168013BE360236815
:103480001A4491421CBF63695B18636004AC44F842
:10349000046D2046FFF7C2FB06462046FFF7BEFB41
:1034A00081462046FFF7BAFB80462046FFF7B6FB71
:1034B00007462046FFF7B2FBD5F8BC40824674B3FE
:1034C00031462046FFF787FF6368984219D2236888
:1034D00053F82030ABB11C68FFF718F800221149EF
:1034E000FFF71AFC206A0368CDF800A01C6842466A
:1034F0003B464946A04760B1FFF708F801220A4958
:1035000005E033782BB1FFF701F808490122FFF7F6
:1035100003FCFEF7FBFF00220549FFF7FDFB04B0AB
:10352000BDE8F087F18D0000058F0000268F0000B8
:10353000398F00002DE9F041B04EB14AB149B24D8A
:103540000023336030468023337100F073FA142077
:1035500005F03AF902210446FFF7AEFC1420B460EE
:1035600005F032F903210446FFF7A6FC1420F460AD
:1035700005F02AF904210446FFF79EFC142034616B
:1035800005F022F905210446FFF796FC142074612A
:1035900005F01AF906210446FFF78EFC1420B461E9
:1035A00005F012F907210446FFF786FC1420F461A8
:1035B00005F00AF908210446FFF77EFC1420346266
:1035C00005F002F909210446FFF776FC0420746235
:1035D00005F0FAF88D4C0560A060042005F0F4F8C1
:1035E00005F1140303606061042005F0EDF820622A
:1035F000B46A05F128030360002C40F0CF805C2002
:1036000005F0E2F805F1340107460322FFF762FBFB
:1036100005F15C033B60082005F0D6F880460460A5
:1036200044607865082005F0CFF804604460B86510
:10363000242005F0C9F805F174020260744A426161
:10364000744AC261446084608461046200F11401C0
:10365000034600F10C0203C9FB6382E80300242047
:1036600005F0B2F805F1900202606B4A42616B4AC4
:10367000C261446084608461046200F11401034605
:1036800000F10C0203C93B6482E80300242005F02A
:103690009BF805F1AC020260614A4261614AC26175
:1036A000446084608461046200F11401034600F107
:1036B0000C0203C97B6482E80300402005F084F813
:1036C00005F1C8020260012280F83C2080F83D200C
:1036D000554A4261554AC261554A4262554AC262E0
:1036E000554A426344608460846104628462046376
:1036F000846300F11401034600F10C0203C9BB64AA
:1037000082E803003C2005F05FF805F1E402026066
:103710004A4A42614A4AC2614A4A42624A4AC262CB
:1037200044608460446384638461046284620463EB
:1037300000F11401034600F10C0203C9FB6482E8A6
:103740000300442005F040F81422C263042280F8EC
:1037500040203E4A42613E4AC2613E4A426205F50D
:1037600080753D4AC262446084600560446384633E
:1037700080F8414080F842408461046284620463BE
:1037800000F11401034600F10C0203C93B6582E815
:1037900003003C214046FEF75FFEB762B36AF36266
:1037A000FEF7B4FEF36B3063002B40F08280C8203C
:1037B00005F00AF8012205462849FFF78BFA284B45
:1037C0002B600C2005F000F841240746A31E012BB6
:1037D00048D9012C0FD00323012203FB03F18C42B3
:1037E00008D3B4FBF3F103FB1141002908BF002209
:1037F0000233F2E7B2BB0234E8E700BFEC15FF1F6B
:103800003007FF1F772E00004C8F00000008FF1FBD
:10381000AB170000F5180000E5170000A91900001B
:10382000C71700004D190000D91B0000F71B00004E
:103830002B1B0000071B0000F5200000BB1B000035
:10384000C51A0000C52100006D1E00008D17000084
:1038500003180000331800003917000060900000C2
:1038600088900000B4F1FE5F4FF0000398BFA00005
:10387000BB6088BF4FF0FF3004F0A6FF002808BFF0
:103880000024002338607C6018469C424FF0000101
:1038900004D03A6842F823000133F6E7C5F8BC705B
:1038A000C5F8C010C5F8C41005F1C000FEF7D4FD7E
:1038B000F563F36B7363BDE8F08100BF844641EAB2
:1038C000000313F003036DD1403A41D351F8043B98
:1038D00040F8043B51F8043B40F8043B51F8043BEA
:1038E00040F8043B51F8043B40F8043B51F8043BDA
:1038F00040F8043B51F8043B40F8043B51F8043BCA
:1039000040F8043B51F8043B40F8043B51F8043BB9
:1039100040F8043B51F8043B40F8043B51F8043BA9
:1039200040F8043B51F8043B40F8043B51F8043B99
:1039300040F8043B51F8043B40F8043B51F8043B89
:1039400040F8043B51F8043B40F8043B403ABDD2F8
:10395000303211D351F8043B40F8043B51F8043B9A
:1039600040F8043B51F8043B40F8043B51F8043B59
:1039700040F8043B103AEDD20C3205D351F8043B29
:1039800040F8043B043AF9D2043208D0D2071CBFF5
:1039900011F8013B00F8013B01D30B88038060461E
:1039A000704700BF082A13D38B078DD010F0030394
:1039B0008AD0C3F10403D21ADB071CBF11F8013B04
:1039C00000F8013B80D331F8023B20F8023B7BE753
:1039D000043AD9D3013A11F8013B00F8013BF9D27E
:1039E0000B7803704B7843708B7883706046704718
:1039F00001B5EAB1102A17DB00F0070333B1C3F1B8
:103A00000803D21A013B00F8011BFBDCC9B241EAF2
:103A1000012141EA01418C46D308013BE0E8021C48
:103A2000FBDC12F0070203D0013A00F8011BFBDCBB
:103A300001BD00BF0B460146184600F001B800BFAB
:103A400013460A460146022000F05AB9014B186895
:103A5000704700BF580CFF1F70B50F4E0F4D761BFF
:103A6000B61018BF002405D0013455F8043B984720
:103A7000A642F9D10A4E0B4D761B05F087FCB61015
:103A800018BF002406D0013455F8043B9847A642DD
:103A9000F9D170BD70BD00BF9893000098930000ED
:103AA000A49300009893000099B103789BB110B4DF
:103AB0000144431C03E01A785C1C32B1234699424E
:103AC000F9D1081A5DF8044B7047181A5DF8044BD9
:103AD0007047084670471846704700BF2DE9F84FF9
:103AE000DDF828900E460746154698468B4600E0BE
:103AF000A3465C46484614F801AB00F0ADFA5044CA
:103B0000407800F0080000F0FF0C0028F0D151468A
:103B10002D2961D02B2904BF9BF801100BF1020461
:103B2000B8F1000F0CD0B8F1100F5CD04FF0FF339C
:103B3000B3FBF8F308FB03FA6FEA0A0AC14607E091
:103B4000302961D04FF00A083D4BC1464FF0050ABD
:103B50004FF0000E704606E02FD009FB00204FF01A
:103B6000010E14F8011BA1F13002092A05D9A1F1B7
:103B70004102192A0BD8A1F1370290450FDDBEF1A1
:103B8000FF3FEED09842E7D94FF0FF3EE9E7A1F1C1
:103B90006102192A03D8A1F157029045EFDCBEF16A
:103BA000FF3F11D0BCF1000F00D0404255B1BEF133
:103BB000000F0DD12E60BDE8F88F5245CDDD4FF0DE
:103BC000FF3ECEE7BDE8F88F22233B60704645B349
:103BD000661E2E60BDE8F88F0BF102049BF8011001
:103BE0004FF0010C9CE730291DD1237803F0DF034F
:103BF000582B1ED14FF010096178C8464FF00F0ABC
:103C000002346FF07043A3E7237803F0DF03582BEF
:103C1000F0D04FF00808C1464FF0070A6FF060433C
:103C200096E7BDE8F88F4FF00F0A6FF07043C1467A
:103C30008EE7C1464FF00F0A6FF0704388E700BF70
:103C40009999991930B5084C084B25686C6B83B06D
:103C5000002C08BF1C46009413460A46014628461D
:103C6000FFF73CFF03B030BD580CFF1F5C0CFF1F7B
:103C7000F0B5ADF5057D04AD00930F4613464FF446
:103C8000007403AA29460394064601F0B7FA88B1E6
:103C9000044602463946039B304600F01BF8AC420E
:103CA000039004D03046214600F0EEF803980DF55D
:103CB000057DF0BD4FF0FF30F9E700BF10B4044CB4
:103CC00013460A46014620685DF8044BFFF7D0BF53
:103CD000580CFF1F70B50D46084C114606461A4693
:103CE000284600232360FFF7BFF8431C00D070BDB7
:103CF0002368002BFBD0336070BD00BF6016FF1F30
:103D00002DE9F047254C2568D5F8484106468846F8
:103D100092469946C4B360681F2817DC431C76B1ED
:103D200004EB80050122C5F888A0D4F888118240F0
:103D30001143022EC4F88811C5F808911ED0023034
:103D4000636044F820800020BDE8F087144B03B383
:103D50004FF4C87004F038FD0446D0B1D5F84831AE
:103D6000002780E88800C5F8484138460123C4F898
:103D70008871C4F88C71002EE1D0D1E7D4F88C1191
:103D80000A43C4F88C21DAE705F5A674C5F8484162
:103D9000C1E74FF0FF30BDE8F08700BF00910000A1
:103DA000C9870000024B13B1024800F005B8704704
:103DB00000000000C53D0000002301461A461846D9
:103DC000FFF79EBF38B5074D074C2C1BA41005D03C
:103DD000013C55F8043D9847002CF9D1BDE8384026
:103DE00005F0E0BA0000000000000000F8B5234F25
:103DF0000C46064600F010FCBB685D6825F0030524
:103E0000291B01F6EF7121F47F6121F00F01A1F56B
:103E10008054B4F5805F07DB0021304601F002F9E1
:103E2000BB682B44984204D0304600F0F7FB0020DA
:103E3000F8BD6142304601F0F5F801300DD0104B6D
:103E4000BA6819682D1B45F001053046091B5560FD
:103E5000196000F0E3FB0120F8BD0021304601F0BD
:103E6000E1F8BA68831A0F2BDEDD064C044924689A
:103E700043F00103001B53600860D5E7C80DFF1F26
:103E80003816FF1FD411FF1F002945D02DE9F0413E
:103E90000D46804600F0C0FB55F8047C6A4927F0C7
:103EA0000103A5F10804E2188E685068B24220F0C0
:103EB000030062D0FE0750600BD455F8087CE41B69
:103EC00001F1080EA56875453B446FD0E768EF60C7
:103ED000BD6015186D68ED0742D543F001026260C0
:103EE000E350B3F5007F18D2DB085A1C4D6851F837
:103EF0003270A76001209B1000FA03F301EBC200AF
:103F00001D430838E0604D6041F83240FC60404697
:103F1000BDE8F04100F082BB70475A0A042A53D82A
:103F20009A0902F139077F0002F1380501EB870099
:103F300051F827204449083890424DD0516821F06B
:103F400003018B4202D292689042F7D1D068E060C0
:103F5000A2608460D4604046BDE8F04100F05EBBE2
:103F600095683A4FBD4203443FD0D068E86043F0C3
:103F7000010285606260E350B3E7FF07034407D4A2
:103F800055F8082CA41A1344A068E268C260906037
:103F90002F4A126843F00100934260608C60B6D3F0
:103FA0002C4B40461968FFF721FFB0E7111849680C
:103FB000C90744D49168D268CA60034443F0010041
:103FC00091606060E350A2E7142A17D802F15C0701
:103FD0007F0002F15B05A9E7AA104B68012505FAED
:103FE00002F213434B600246B1E743F001024C6119
:103FF0000C61E560A5606260E35088E7542A06D84A
:104000001A0B02F16F077F0002F16E058EE7B2F521
:10401000AA7F06D8DA0B02F178077F0002F1770554
:1040200084E740F25450824206D89A0C02F17D0790
:104030007F0002F17C0579E7FE277E2576E743F0D5
:1040400001026260E35062E7C80DFF1FD00DFF1F41
:10405000D011FF1F3416FF1FD0F8EC00704700BFCF
:10406000044A054B1268506B002808BF1846F03010
:10407000704700BF580CFF1F5C0CFF1F2DE9F04F6D
:1040800001F10B05162D83B0064640F29F8035F0F6
:10409000070500F1BF80A94200F2BC8000F0BCFA25
:1040A000B5F5FC7FC0F09C826B0A00F0BA80042B4F
:1040B00000F28381A80900F1390E4FEA4E0338302F
:1040C000C44F07EB8303A3F108015C68A14207D149
:1040D000ACE0002A80F2AC80E468A14200F0A68047
:1040E000636823F003035A1B0F2AF2DDB9493C69C8
:1040F00001F1080E744500F0B381636823F00303F7
:104100005A1B0F2A00F39981002AC1F814E0C1F864
:1041100010E080F29E80B3F5007F80F06781DB08BD
:1041200003F1010C01229B1002FA03F34A6851F8D3
:104130003C80C4F8088001EBCC091A43A9F10803BC
:10414000E3604A6041F83C40C8F80C408310012409
:104150009C40944200F28A80144206D120F0030071
:104160006400144200F10400FAD007EBC009CC4609
:104170008046DCF80C108C4507D173E1002A80F2F0
:104180008181C9688C4500F06D814B6823F0030381
:104190005A1B0F2AF2DD0C46D1F80CC054F8088FD8
:1041A0004B1945F001054D6042F00101C8F80CC003
:1041B0003046CCF808807B613B61C3F80CE0C3F863
:1041C00008E059609A5000F029FA1FE0102921D820
:1041D00000F022FA1025062302207E4F07EB83030E
:1041E000A3F108025C68944200F045816368E168CD
:1041F000A56823F00303234430465A68E96042F07F
:1042000001028D605A6000F009FA0834204603B0BC
:10421000BDE8F08F00240C232046336003B0BDE8D6
:10422000F08F80234FF0400E3F2049E770465DE756
:104230002344E1685A68A56842F00102E96030460B
:104240008D605A6000F0EAF90834204603B0BDE8FA
:10425000F08F234430465A6842F001025A6000F061
:10426000DDF90834204603B0BDE8F08FBC68636810
:1042700023F00308A84504D3C5EB08030F2B00F374
:104280008C80554BDFF860911A68D9F80030013303
:104290002A4404EB080A00F0608102F580520F32D4
:1042A00022F47F6222F00F0211463046019200F0A4
:1042B000B9FEB0F1FF3F8346019A00F05881824574
:1042C00000F2FC80454B1968DA451144196000F092
:1042D0005381D9F80000DFF810E101301BBFCAEBB1
:1042E0000B0A5144CEF800B019601BF0070100F032
:1042F0001781C1F10800C1F58051834408315A4447
:10430000C2F30B02C2EB010949463046019300F0AB
:1043100089FE431C019B00F03F81CBEB00024A4425
:1043200042F001021968C7F808B04944BC42CBF812
:1043300004201960DFF8A49016D0B8F10F0F40F2F6
:10434000FD806268A8F10C0323F00703E01802F077
:1043500001024FF0050E1A430F2B6260C0F804E013
:10436000C0F808E000F21C811D4BBC681A6891423D
:1043700088BF19601B4B1A689142626888BF196038
:1043800022F003029542A2EB050301D80F2B04DCB7
:10439000304600F043F9002438E7621943F0010386
:1043A00045F0010565603046BA60536000F036F9AB
:1043B0000834204603B0BDE8F08F142B71D9542B7C
:1043C00000F2A480280B00F16F0E4FEA4E036E300E
:1043D00076E600BFC80DFF1F3416FF1F3816FF1FFB
:1043E0003016FF1F2C16FF1FD411FF1F5A0A042A74
:1043F0005ED9142A00F2B38002F15C0149005B32FD
:1044000007EB810C57F82110DFF8DC81ACF1080CC8
:104410008C4500F088804A6822F00302934202D261
:1044200089688C45F7D1D1F80CC07A68C4F80CC003
:10443000A160CCF80840CC6088E6631942F001071F
:1044400045F00105656030464B610B61C3F80CE037
:10445000C3F808E05F609A50083400F0DFF8D5E652
:104460004A6873E608F1010818F0030F0CF1080C14
:104470007FF47FAE30E0DC68A34208BF02303FF437
:1044800035AEB3E60B440C465A68C96854F8085F69
:1044900042F001025A603046E9608D6000F0BEF8DB
:1044A000B4E603F15C0E03F15B004FEA4E0307E64E
:1044B0009A0902F1390149003832A1E7BC424A4B5E
:1044C0003FF400AF9C68626822F003025AE759F893
:1044D0000839994540F0828010F0030F00F1FF3059
:1044E000F5D17B6823EA04037B6064009C423FF6BD
:1044F000BDAE002C3FF4BAAE1C4240467FF435AE50
:1045000064001C4200F10400FAD02EE6B3F5AA7F45
:1045100018D8E80B00F1780E4FEA4E037730CFE55C
:104520004FF48051EBE60121D8F80430921001FAE3
:1045300002F21A43C8F80420614677E70123CBF85A
:10454000043025E740F25452934220D8A80C00F1E1
:104550007D0E4FEA4E037C30B2E51032A4E6542AB9
:1045600026D81A0B02F16F0149006E3248E7BC6889
:10457000626822F0030205E7CAF30B0000287FF40B
:10458000A8AE4244BB6842F001025A60ECE6FE234A
:104590004FF07F0E7E2093E501224FF00009C1E627
:1045A00004F108013046FFF76FFCD9F80010DBE694
:1045B000B2F5AA7F05D8DA0B02F17801490077320B
:1045C0001EE740F254518A4205D89A0C02F17D014F
:1045D00049007C3214E7FE217E2211E77B6884E7E4
:1045E000E808431C5B00F8E5C80DFF1F82B049B125
:1045F0005AB16BB113780B601278101C18BF0120F0
:1046000002B0704701A9002AF3D1104602B07047EA
:104610006FF00100F4E700BF704700BF704700BFB4
:10462000C36C70B505460C464BB153F8240080B1FD
:10463000026843F8242000230361C36070BD212277
:10464000042100F019FEE86403460028EDD10020A3
:1046500070BD012101FA04F6721D2846920000F097
:104660000BFE0028F3D044608660E4E731B1C36CF0
:104670004A6853F82200086043F82210704700BFD0
:10468000F0B50C6983B00D46064601F1140E002703
:10469000DEF8000081B202FB01310B0C000C02FBC2
:1046A000003389B2013701EB0341BC424EF8041BD1
:1046B0004FEA1343ECDC3BB1AA68944207DA05EBFE
:1046C0008402013453612C61284603B0F0BD69684F
:1046D000019301313046FFF7A3FF2A69023205F149
:1046E0000C01074692000C30FFF7E8F8F26C69689D
:1046F000019B52F82100286042F821503D46DEE738
:10470000030C1B04B3B90004102310F07F4F04BF47
:104710000002083310F0704F04BF0001043310F0A2
:10472000404F04BF80000233002807DB420003D45F
:10473000202070470023E8E7581C70471846704750
:10474000036813F0070207D0D90720D49A0720D4B2
:104750009B0803600220704799B209B91B0C102214
:1047600013F0FF0F04BF1B0A0832190704BF1B090F
:104770000432990704BF9B080232D90704D45B08AE
:1047800001D120207047013203601046704700209D
:1047900070475B0803600120704700BF10B50C46EE
:1047A0000121FFF73DFF01224461026110BD00BFFE
:1047B0002DE9F04F0D691769BD4283B00C461646CE
:1047C00004DA2A4634463D460E461746A368616819
:1047D00005EB07089845C8BF0131FFF721FF00F13D
:1047E000140C0CEB8809CC45009005D263460021DF
:1047F00043F8041B9945FBD806F1140202EB870A23
:1048000004F11403524503EB850E54D2CDF8049005
:10481000994652F8043B1FFA83FBBBF1000F20D0EE
:1048200000204F466646054600E01E4657F8044BFA
:104830003068A1B283B20BFB0131240C000C4B1980
:104840000BFB040000EB134099B2334641EA0041F0
:10485000BE454FEA104543F8041BE6D8756052F890
:10486000043C5FEA134B20D0DCF800306746184662
:104870004D46002100E037462C88000C0BFB04005D
:1048800001449CB23E4644EA014346F8043B786842
:1048900055F8044B83B2240C0BFB043404EB114396
:1048A000AE454FEA1341E6D87B6092450CF1040C0B
:1048B000AFD8DDF80490B8F1000F0BDD59F8043CD7
:1048C000A9F104091BB105E059F8043D13B9B8F189
:1048D0000108F9D10098C0F8108003B0BDE8F08F4E
:1048E00012F003032DE9F041144607462ED10E467F
:1048F000A4101CD0BD6C95B3E3074FF0000806D49C
:10490000641014D02868A8B10546E307F8D52A46F4
:1049100031463846FFF74CFFB6B17268FB6C641045
:1049200053F82210316043F822600646EAD130463F
:10493000BDE8F0812A4629463846FFF739FF28604E
:10494000C0F800800546E0E70646D9E75A1E0B4D41
:10495000002355F82220FFF793FE0646C8E7012101
:104960003846FFF75DFE40F27121012200234161CC
:1049700002610546B8640360BEE700BF089200000C
:104980002DE9F04791460A698B684FEA691404EBF8
:10499000020808F101059D420E468246496804DD81
:1049A0005B009D4201F10101FADC5046FFF738FE41
:1049B000002C00F1140238DD02EB8403002142F8E0
:1049C000041B9342FBD1346906F1140119F01F094D
:1049D00001EB840E21D0C9F1200200240F6807FAF0
:1049E00009FC4CEA04049C4643F8044B51F8044B80
:1049F0008E4524FA02F4F1D8CCF804400CB108F149
:104A00000205DAF84C307268013D53F82210056156
:104A1000316043F82260BDE8F087043B51F8042B75
:104A200043F8042F8E45F9D8EBE71346CBE700BFD8
:104A300002690B69D21A13D19B0014301431194446
:104A400010B4034401E098420CD253F8044D51F8DD
:104A5000042D9442F7D009D301205DF8044B704730
:104A60001046704700205DF8044B70474FF0FF3050
:104A7000F3E700BF2DE9F8430B690F4611695B1A94
:104A8000002B904617D1890007F1140208F1140594
:104A90005318294401E09A425ED253F8046D51F84C
:104AA000044DA642F7D060D23B46144647464FF02D
:104AB0000109984606E05DDB07F1140502F11404D4
:104AC0004FF000097968FFF7ABFDD8F810303E6968
:104AD000C0F80C9004EB830CA64605EB860700F1AA
:104AE000140400235EF8041B55F8048B8AB213FAF1
:104AF00088F3090C9A1AC1EB184303EB224392B2D4
:104B000042EA0342F44544F8042B4FEA2343E9D830
:104B1000AF4217D9A446294651F804EB13FA8EF296
:104B2000131403EB1E4392B242EA03428F424CF845
:104B3000042B4FEA2343EFD8ED433D4425F0030512
:104B400004352C44043C22B954F8043D013E002BAA
:104B5000FAD00661BDE8F8830021FFF761FD01226C
:104B6000002302614361BDE8F8832C464FF0000941
:104B70001546A7E73B4607F1140408F1140547461C
:104B80004FF0010998469DE72DE9F04357EC106B73
:104B900083B0884601213C46C7F30A551746FFF704
:104BA0003FFDC4F3130481460DB144F48014019415
:104BB0001EB302A840F8086DFFF7C2FD002834D1EB
:104BC0009DE80C00C9F81420002B0CBF0121022124
:104BD000C9F81830C9F81010DDB909EB8103A0F24B
:104BE0003240C8F800001869FFF78AFDC0EB411099
:104BF0003860484603B0BDE8F08301A8FFF7A0FD88
:104C0000019BC9F8143001212030C9F81010002D83
:104C1000E3D0A5F233450544C0F13500C8F8005093
:104C20003860484603B0BDE8F0839DE80C00C0F151
:104C3000200103FA01F10A43C3400193C9F814208B
:104C4000C2E700BF2DE9F04F174683B0002900F0FE
:104C5000C1800E46814607F10B05FFF7DDFC56F8D3
:104C600004EC162D2EF00304A6F1080840D81022FB
:104C70001546AF4241D8944275DAC94B996808EBA2
:104C800004008842416800F0D98021F00103034408
:104C90005B68DB077DD51EF0010F35D039464846ED
:104CA000FFF7ECF90746E0B156F8043C23F00103A6
:104CB0004344A0F108029A4200F04481221F242AB2
:104CC00000F23181132A00F2048103463246116852
:104CD00019605168596092689A6031464846FFF7FA
:104CE000D3F84846FFF79AFC384603B0BDE8F08F8A
:104CF00025F00705002D2A46BBDA0C230020C9F851
:104D0000003003B0BDE8F08F56F8083CC3EB080A4A
:104D1000DAF8043023F0030C04EB0C039342BDDB00
:104D20005746DAF80C1057F8080F221F242AC160E2
:104D3000886000F21781132A40F212813168CAF8A4
:104D400008107168CAF80C101B2A00F22B81083673
:104D50000AF110023168116071685160B1689160A8
:104D60003E461C46D046631B0F2B1DD8D8F8043096
:104D700003F0010323434444C8F80430636843F05C
:104D8000010363604846FFF749FC304603B0BDE8C5
:104D9000F08F21F003012144914221DBC368826836
:104DA0000C46D3609A60DEE7D8F8042008EB0501D2
:104DB00002F00102154343F001020B44C8F804500D
:104DC0004A605A6842F0010208315A604846FFF7CB
:104DD0005BF8D7E7114603B0BDE8F04FFFF74EB9D7
:104DE0001EF0010F7FF45AAF56F8083CC3EB080AD7
:104DF000DAF8043023F0030C01EB0C0E96458BDB44
:104E0000C36882685746D3609A6057F8081FDAF87B
:104E10000C30CB60221F242A996000F29980132A5B
:104E200062D93368CAF808307368CAF80C301B2A94
:104E300000F2A08008360AF1100356E021F0030BBF
:104E4000A34405F11000834559DA1EF0010F7FF4E9
:104E500025AF56F8081CC1EB080ADAF8041021F057
:104E6000030CE34458453FF757AF5746DAF80C10A8
:104E700057F8080F221F242AC160886000F2B4800E
:104E8000132A40F2A5803168CAF808107168CAF880
:104E90000C101B2A00F2AF8008360AF110023168AC
:104EA000116071685160B16891600AEB0501C5EB52
:104EB0000B0242F0010299604A60DAF8043003F014
:104EC00001031D434846CAF80450FFF7A7FB3846C4
:104ED0005CE733680360736843601B2A27D800F1DE
:104EE000080306F10802F2E63B4632681A6072686F
:104EF0005A60B2689A603E467446D04633E708EB83
:104F00000501C5EB0B0B4BF0010299604A6056F8A6
:104F1000043C03F001031D43484646F8045CFFF7D8
:104F20007DFB304632E7314601F084F9D5E6B368BF
:104F30008360F368C360242A28D000F1100306F1CF
:104F40001002C4E650F8043C23F003031C440AE7B3
:104F5000314638467446D04601F06CF93E4602E7C9
:104F60003A46F7E6314638461C46D04601F062F92B
:104F70003E46F8E6B368CAF81030F368CAF8143051
:104F8000242A1BD010360AF11803AEE733690361F7
:104F90007369436106F1180200F1180397E600BF38
:104FA000C80DFF1FB168CAF81010F168CAF81410D4
:104FB000242A0FD010360AF11802CBE63369CAF85A
:104FC00018307369CAF81C3018360AF120038CE7D0
:104FD0003A4664E73269CAF818207269CAF81C2098
:104FE00018360AF12002B5E631463846019301F041
:104FF00021F9019B59E7B168CAF81010F168CAF8A5
:105000001410242A03D010360AF1180247E7326937
:10501000CAF818207269CAF81C2018360AF1200252
:105020003DE700BF38B5074C00230546084623601E
:10503000FCF7FCF8431C00D038BD2368002BFBD0E4
:105040002B6038BD6016FF1FFFFFFFFFFFFFFFFF54
:10505000FFFFFFFFFFFFFFFFFFFFFFFFFFFFFFFF60
:10506000FFFFFFFFFFFFFFFFFFFFFFFFFFFFFFFF50
:10507000FFFFFFFFFFFFFFFFFFFFFFFFFFFFFFFF40
:1050800090F800F06DE9024520F007016FF0000C88
:1050900010F0070491F820F040F049804FF0000430
:1050A0006FF00700D1E9002391F840F000F108000B
:1050B00082FA4CF2A4FA8CF283FA4CF3A2FA8CF343
:1050C0004BBBD1E9022382FA4CF200F10800A4FAAA
:1050D0008CF283FA4CF3A2FA8CF3E3B9D1E90423FE
:1050E00082FA4CF200F10800A4FA8CF283FA4CF335
:1050F000A2FA8CF37BB9D1E9062301F1200182FAEF
:105100004CF200F10800A4FA8CF283FA4CF3A2FAF4
:105110008CF3002BC6D0002A04BF04301A4612BA02
:10512000B2FA82F2FDE8024500EBD2007047D1E905
:10513000002304F00305C4F100004FEAC50514F094
:10514000040F91F840F00CFA05F562EA05021CBF65
:1051500063EA050362464FF00004A9E7002A41D044
:1051600040EA010313F00303F0B425D1032A23D945
:1051700004680D68AC421FD1043A35D0A4F1013562
:1051800025EA040414F0803F31D1071D0D1D0DE008
:1051900057F8043B0E68A3F10134B34224EA030438
:1051A0000AD1043A20D014F0803F23D1032A2946A3
:1051B000384605F10405EBD803780C789C4202F1DF
:1051C000FF320CD182B114B916E06AB17BB110F88C
:1051D000013F11F8014FA34202F1FF32F5D0181B35
:1051E000F0BC7047104670471046F0BC7047184638
:1051F000F0BC70470020F3E72046F1E770B5154694
:105200009AB0146809B1002C1AD100244FF422720C
:10521000ADF80C20009404941A464FF6FF761E9BBE
:10522000029469460594ADF80E6001F069F8002813
:1052300011DB009B286000221A7004981AB070BD20
:105240004FF4C16200910491ADF80C20E4DA8B2395
:1052500003600020F2E70020F0E700BF21B1FF2A41
:1052600004D80A7001207047084670478A230360FB
:105270004FF0FF30704700BF10B502FB01F1FEF7A1
:10528000FDFE0446D8B150F8042C22F00302043A83
:10529000242A18D8132A14D900231B2A0360436038
:1052A00016D9242A8360C36011BF00F11002036184
:1052B000436100F11802002313605360936020469D
:1052C00010BD0246F7E70021FEF792FB204610BD15
:1052D00000F10802EFE700BF02690B69934200F397
:1052E0008D802DE9F04F03F1FF3801F1140700F133
:1052F000140B57F828205BF828304FEA880483B055
:105300000132B3FBF2F90BEB0403009407EB040A40
:105310000193B9F1000F39D00025BC46DE462B467B
:105320005CF8046BDEF80020B4B209FB0455360CBF
:105330002C0C09FB0644ADB25B1BA6B213FA82F338
:10534000C6EB124606EB23469BB243EA0643E24510
:105350004EF8043B4FEA14454FEA2643E0D2009B47
:105360005BF8033093B9019C231F9B450CD254F882
:10537000043C4BB9A4F1080302E01A68043B1AB9D3
:105380009B4508F1FF38F8D3C0F810800446FFF7BA
:105390004FFB00282EDB09F101095D46002357F879
:1053A000041B28688AB29A1A090C12FA80F2C1EB1F
:1053B000104303EB224391B241EA0341BA4545F859
:1053C000041B4FEA2343EAD25BF828200BEB880347
:1053D00082B91A1F93450BD253F8042C42B9083BEB
:1053E00002E01A68043B1AB99B4508F1FF38F8D36C
:1053F000C4F81080484603B0BDE8F08F0020704725
:105400002DE9F04F57EC106B9BB0046C249D00917C
:1054100081460592039310EE10AABB4654B1426C2C
:10542000626001239340A3602146FFF71FF9002328
:10543000C9F84030BBF1000F5C4634DB00232B6021
:10544000A14B1A462340934216D000220023504617
:10545000594602F0BDFF56465F46804648B3039A60
:1054600001231360259B002B00F0BE809748186035
:1054700001381BB0BDE8F08F039A42F20F7313603E
:10548000BAF1000F00F09A809148259B002BF0D0D4
:10549000C378002B00F0AA8000F10803259A13605E
:1054A0001BB0BDE8F08F01232BF000442B60A34616
:1054B000C6E718AA19A947EC106B4846FFF764FB2A
:1054C000250D0A9040F08380189D199E2E4406F207
:1054D0003243202B40F38882C3F1400306F212408E
:1054E0009C402AFA00F0204302F094FC0123741E31
:1054F000A1F1F8710F930022764B02F04DFB6CA3E3
:10550000D3E9002302F0FCFC6BA3D3E9002302F0F3
:1055100045FB064620460F4602F08CFC68A3D3E903
:10552000002302F0EDFC02460B463046394602F0FD
:1055300035FB06460F4602F093FF0022049000233D
:105540003046394602F04EFF002840F02882049E83
:10555000162E00F22182604B03EBC603D3E9000153
:1055600052465B4602F05CFF002800F04282731E48
:10557000049300230D932D1BB5F1010800F12A823D
:1055800000230793049B002BC0F21B8298440C93CA
:1055900000230693009B092B2AD8052B40F3448651
:1055A000043B00930026009B023B032B00F2238662
:1055B000DFE813F02B03240236035004444B474A20
:1055C000C4F31300002814BF184610465DE7CBF360
:1055D000130343F07F51A5F2FF345046CDF83C80D1
:1055E00041F44011189D86E73D4842E7C31C55E74A
:1055F0000021C9F8441048460C460091FFF710F806
:105600004FF0FF3308930E9301230990C9F840002F
:1056100005940B93199B002BC0F2D080049A0E2A9C
:1056200000F3CC802C4B03EBC20393ED007B059B76
:10563000002B8DED007BC0F2FE8256465F46DDE911
:1056400000AB304652465B46394602F083FD02F01D
:1056500007FF044602F0EEFB52465B4602F050FCA8
:105660000B4602463946304602F096FA099D04F18F
:1056700030032B70089B012B06460F4605F10105F0
:1056800061D00022174B02F03BFC002200230646AB
:105690000F4602F09DFE00287DD1CDF81490DDF874
:1056A00020A0DDF824B0DDE9008928E0AFF3008018
:1056B00061436F63A787D23FB3C8608B288AC63F18
:1056C000FB799F501344D33F0000F07F29930000E3
:1056D000249300000000F83F189100001893000088
:1056E000289300000000244002F00AFC002200235E
:1056F00006460F4602F06CFE002840F0AE8342469C
:105700004B463046394602F025FD02F0A9FE04461C
:1057100002F090FB42464B4602F0F2FB02460B467B
:105720003046394602F038FA04F1300E05F801EB44
:10573000CBEB050ED64506460F464FF00002AE4BAA
:10574000D2D1DDF8149032463B463046394602F05D
:1057500025FA06460F4602460B46DDE9000102F037
:1057600041FE40B932463B46DDE9000102F030FE21
:1057700088B1E3070FD515F8014C099A6B1E04E0B8
:105780009A4200F0FC8313F8014D392C03F1010516
:10579000F6D001341C700A994846FEF767FF0022D4
:1057A000049B2A70039A01331360259B002B00F0A1
:1057B0009B8309981D601BB0BDE8F08F0B9A002AEF
:1057C00000F00E81009A012A40F35782089B069A46
:1057D0005F1EBA42C0F28B83D71B089B002BC0F21E
:1057E0008084079D089B079A01211A444846079226
:1057F0009844FEF7D3FF064665B1B8F1000F09DD06
:105800004545079A2B46A8BF4346D21A0792ED1A80
:10581000C3EB0808069B002B40F3F5820B9A002A85
:1058200000F00282002F00F0FF8131463A464846E0
:10583000FFF756F80A9A014606464846FEF7B8FFB3
:105840000A9904464846FEF711FF069BDB1B0693A8
:1058500040F0E98101214846FEF7A0FF0C9B06902D
:10586000002B00F0158201461A464846FFF738F82B
:10587000009B0690012B40F3F3820027069A1369E0
:1058800002EB83031869FEF73BFFC0F120004044A0
:1058900010F01F0000F0FA81C0F12003042B40F348
:1058A000BD84C0F11C00079B03440793054480445A
:1058B000079B002B05DD21461A464846FFF760F896
:1058C0000446B8F1000F05DD424606994846FFF749
:1058D00057F806900D9B002B40F07A82089B002B16
:1058E00040F393820B9B002B40F0F481DDF824B051
:1058F000089FDDF818805D4602E0FEF7C1FE044611
:1059000041462046FFF7E8FC00F1300A05F801ABFC
:10591000CBEB0503BB424FF00A024FF000032146D8
:105920004846EADB099B089A012AACBF9B18013361
:105930001D464FF0000B214601224846FFF720F894
:1059400006990A90FFF774F8002840F3058315F8CC
:10595000012C09996B1E04E08B4200F0748213F84D
:10596000012D392A03F10105F6D001321A7006998A
:105970004846FEF77BFE002E3FF40DAFBBF1000F53
:1059800005D0B34503D059464846FEF76FFE314671
:105990004846FEF76BFEFEE601230D93EBE5DDF8CE
:1059A0001080404602F046FA02460B463046394621
:1059B00002F00EFD00287FF4CAAD08F1FF33049316
:1059C000C5E5079A049BD21A5B420693002307920F
:1059D0000C93DFE5C8F1000307934FF00008D1E511
:1059E000069F079D0B9E07E7C3F120040AFA04F007
:1059F0007AE50D90BFE500BF0000244000230B9323
:105A0000049B059A13440E930133002B089340F333
:105A10007D82089C25460021172DC9F844100BD91A
:105A2000012204235B0003F11400A842114602F195
:105A30000102F7D9C9F844104846FEF7F1FD0E2CD3
:105A40000990C9F840003FF6E5AD002E3FF4E2AD05
:105A500004990029CDE910AB40F39A82904B01F0F4
:105A60000F020E1103EBC203F006D3E9004540F12B
:105A700046828C4B50465946D3E9082302F06AFB14
:105A8000CDE9120106F00F064FF0030A86B1854FEB
:105A9000F10709D520462946D7E9002302F030FA5C
:105AA0000AF1010A04460D46761007F10807EFD106
:105AB00022462B46DDE9120102F04CFB06460F465A
:105AC0000D9B43B10022784B3046394602F08AFCE8
:105AD000002840F01A83504602F0ACF932463B46AB
