:1000000000000320D1010000FD150000C91500000B
:10001000C9150000C9150000C9150000C915000068
:10002000C9150000C9150000C9150000FD15000024
:10003000FD150000C9150000992C0000352C0000AA
:10004000FD150000FD150000FD150000FD15000068
:10005000FD150000FD150000FD150000FD15000058
:10006000FD150000FD150000FD150000FD15000048
:10007000FD150000FD150000FD150000FD15000038
:10008000FD150000FD150000FD150000FD15000028
:10009000FD150000FD150000FD150000FD15000018
:1000A000FD150000FD150000FD150000FD15000008
:1000B000FD150000FD150000FD1500000105000004
:1000C000FD150000AD060000FD1500006D040000E8
:1000D000FD15000015060000FD150000FD150000CF
:1000E000FD150000FD150000FD150000FD150000C8
:1000F000FD150000FD150000FD150000FD150000B8
:10010000052D0000F12C0000DD2C0000C92C0000A2
:10011000FD1500006D0F0000FD150000FD1500002D
:10012000FD150000FD150000FD150000FD15000087
:10013000FD150000FD150000FD150000FD15000077
:10014000192D0000FD15000025080000FD15000018
:10015000FD150000FD150000FD150000FD15000057
:10016000FD150000FD150000FD150000FD15000047
:10017000FD150000FD150000FD150000FD15000037
:10018000FD150000FD150000FD150000FD15000027
:10019000FD150000FD1500007F070000FD150000A3
:1001A000FD150000FD150000FD150000FD15000007
:1001B000FD150000FD150000FD150000FD150000F7
:1001C000FD150000FD150000FD150000FD150000E7
:1001D00008B5614B4CF220521A804DF628121A8055
:1001E00000BF00BF102223F80E2CA3F51F43DE3BF7
:1001F0004FF030621A60594A9A60594ADA60594B96
:100200004FF470021A60584B584A1A60584A1368E3
:1002100013F4807301BF57490B604FF4A853136068
:10022000554B56491A78100742BF1A7842F0080217
:100230001A70534BAA221A70524A534B8B4204D263
:1002400052F8040F43F8040BF8E7504B504A0021D2
:10025000934202D243F8041BFAE74E4A4E48002369
:1002600050F8231042F823100133742BF8D14B4B74
:100270004B4A802103F8011B9342FBD1494B454A6D
:100280001A60494B8A221A70A3F5805324225A70AF
:10029000A0221A709A799107FCD59A79D206FCD4DB
:1002A000424A937903F00C03082BFAD1404B6022A9
:1002B0001A70404A1378802BFCD13C4B00221A71F3
:1002C0004E225A719A799406FCD59979374A480694
:1002D000FBD5394B39491960082159602023137027
:1002E000937903F00C030C2BFAD1354B354A1A6085
:1002F000354B364A1A60002407225C6043F8042C10
:10030000334AC3F80C2D62B600F037FC194B1A685B
:10031000D1070AD52F4A30491C60146042F8041CEA
:1003200010221A602D4A2E4911602E4A1278520668
:100330000ED52A492A4A0868904209D12548264CF8
:1003400000221A60026040F8044C102018600A6015
:1003500003F05AFC02F04CFB0E200540823F0400E3
:100360000100002B88ED00E0002008E0030000857C
:1003700010D0034014D0034002D00740E011FF1F0B
:1003800000E007407C9800003007FF1FE011FF1FCE
:100390007416FF1F0002FF1F0000000000E400E0D1
:1003A00064E400E008ED00E0005006400040064034
:1003B00001E0074003E007404480044000000703D9
:1003C00004800440C010050014E000E07FA9030091
:1003D0000000202004D0034000DD68501CE00340F2
:1003E000A5C3945A00F00740FFFFFFFFFFFFFFFF88
:1003F000FFFFFFFFFFFFFFFFFFFFFFFFFFFFFFFF0D
:10040000FFFFFFFFFFFFFFFFFFFFFFFFDEF9FFFF23
:1004100010B5054C237833B9044B13B10448AFF33E
:1004200000800123237010BDE011FF1F00000000B9
:1004300078980000084B10B51BB108490848AFF385
:1004400000800848036803B910BD074B002BFBD0A0
:10045000BDE81040184700BF00000000E411FF1F76
:1004600078980000E011FF1F0000000010B5204B3D
:100470001A79920610D51F49DA790B781E48013394
:1004800000783F2BC8BF0023834218BF1B48D2B25D
:100490001EBFC254DBB20B701548C278D2B213062D
:1004A00019D503791C0616D5144991F8404091F8E6
:1004B0004130DBB29C4202D16C23C3700BE00133AC
:1004C000282B28BF0023CC18DBB294F84240E4B2BA
:1004D000C47181F84130510609D5054B1A7952068D
:1004E00005D5064A002182F86A102C22DA7010BD68
:1004F00000C00640D615FF1FD715FF1FFC11FF1FB8
:10050000F0B52F4A137913F0300F25D072B6937DD2
:1005100003F0FF0023B9D3794023537462B61BE084
:1005200062B62849284C0B782578284FDBB2EDB20B
:100530000C46591C402928BF0021A942D67918BF72
:100540007B18F6B21CBF83F86B600B46411E11F09E
:10055000FF00EED1DBB22370194AD078C0B2060694
:1005600021D513791D061ED5184991F8AB5091F885
:10057000AC30EDB2DBB2AB420CD00133402B28BF24
:1005800000231479CC1894F8AD40E4B2D471147DF2
:10059000072CF0D9DBB281F8AC30094B1A7914067C
:1005A00044BF7C22DA70410609D5054B1A79520600
:1005B00005D5064A002182F8ED103C22DA70F0BD24
:1005C00000A00640D215FF1FD315FF1FFC11FF1F0F
:1005D00070B50E4B0E4D93F8EE2042F0020605EB7F
:1005E000C60482F00102606093F8EF0083F8EE2009
:1005F000002814BFC824882480F0010044EA014187
:1006000083F8EF0045F8361070BD00BFFC11FF1FE6
:100610000000FF1F10B5214B1A79920611D5204812
:10062000D97903781F4A01333F2B1278C8BF0023C2
:100630009342C9B205D01C4A1A44DBB282F8F010CA
:1006400003701648C278D2B2130619D503791C0676
:1006500016D5154991F8304191F83131DBB29C4201
:1006600002D16C23C3700BE00133282B28BF002379
:10067000CC18DBB294F83241E4B2C47181F8313164
:10068000510609D5054B1A79520605D5064A0021AF
:1006900082F85A112C22DA7010BD00BF00D006403B
:1006A000D815FF1FD915FF1FFC11FF1FF0B52F4AEA
:1006B000137913F0300F25D072B6937D03F0FF004D
:1006C00023B9D3794023537462B61BE062B628493C
:1006D000284C0B782578284FDBB2EDB20C46591C1C
:1006E000402928BF0021A942D67918BF7B18F6B24D
:1006F0001CBF83F85B610B46411E11F0FF00EED179
:10070000DBB22370194AD078C0B2060621D513791E
:100710001D061ED5184991F89B5191F89C31EDB2F8
:10072000DBB2AB420CD00133282B28BF0023147955
:10073000CC1894F89D41E4B2D471147D072CF0D903
:10074000DBB281F89C31094B1A79140644BF7C2234
:10075000DA70410609D5054B1A79520605D5064AC5
:10076000002182F8C5113C22DA70F0BD00B00640CD
:10077000D415FF1FD515FF1FFC11FF1FFEE710B595
:10078000224B5A68920211D52148D9680378214A30
:1007900001333F2B1278C8BF0023934206D01E4A74
:1007A0001A44C9B2DBB282F8C611037017498C68CB
:1007B00023021DD54B6818021AD5174A92F8060273
:1007C00092F80732DBB2984206D1144B00221A602D
:1007D000012243F8042C0BE00133282B28BF00230F
:1007E000D018DBB290F80802C0B2C86082F80732B5
:1007F000620209D5054B5B685B0205D5064A0023FA
:1008000082F83032064A136010BD00BF00400C4031
:10081000DC15FF1FDD15FF1FFC11FF1F5C01884366
:100820005801884310B51E4B1A79920610D51D4900
:10083000DA790B781C48013300783F2BC8BF0023BE
:10084000834218BF1948D2B21EBFC254DBB20B702C
:100850001349CA78D2B2140616D50B79180613D5E7
:10086000134B144C18782378DBB2984202D16C23D6
:10087000CB7009E00133282B28BF00230E48C05C51
:10088000DBB2C0B2C8712370510608D5044B1A7987
:10089000520604D5094A002111702C22DA7010BDCD
:1008A00000A00E40DA15FF1FDB15FF1F0315FF1F09
:1008B0004715FF1F4815FF1F4915FF1F7115FF1F23
:1008C00010B504460846E36893B199B1626961685E
:1008D00003F0CCF8E368A2696168013BE360236838
:1008E0001A4491421CBF63695B186360002010BD0D
:1008F000082010BD012010BD436882B053B1074AE3
:10090000006812680192019A101A83422CBF0020DD
:10091000012000E0012002B0704700BF7815FF1FE2
:10092000044B416082B01B680193019B036002B0DD
:10093000704700BF7815FF1F70B50B4CD4F83452C8
:1009400075B9882008F000F80646C0F880500820E5
:1009500007F0FAFFC4F8346205604560C6F8840009
:10096000D4F8340270BD00BFFC11FF1F38B50A4C2B
:10097000D4F838526DB9202007F0E6FF0423436015
:1009800014238360C3606423057003744561C4F855
:100990003802D4F8380238BDFC11FF1FF8B5254DD8
:1009A000D5F83C72002F41D14FF4E47007F0CCFF32
:1009B00004220646204902F09BFA204B3360C6F819
:1009C000BC71202007F0C0FF4023036180234361F6
:1009D000022304460377C7604FF4005007F0B4FFCA
:1009E0004FF4FC5320606060A060A36100B92061F7
:1009F000C6F8C041202007F0A7FF0023C3604023B2
:100A00000361802343610323044603774FF40050BE
:100A100007F09AFF4FF4FC5320606060A060A36170
:100A200000B92061C6F8C441C5F83C62D5F83C0263
:100A3000F8BD00BFFC11FF1F008B0000BC9200003E
:100A4000F8B5214DD5F84072002F3AD1702007F04B
:100A50007BFF012206461D4902F04AFA1C4B336017
:100A600086F83B70202007F06FFF082303610D23F9
:100A70004361022304460377C760682007F064FFE0
:100A80005B2320606060A060A36100B92061B46551
:100A9000202007F059FF0023C360082303610D23C2
:100AA0004361032304460377682007F04DFF5B236F
:100AB00020606060A060A36100B92061F465C5F8A2
:100AC0004062D5F84002F8BDFC11FF1F208B0000EA
:100AD000D492000010B50D4B53F8302092F88042AC
:100AE0003CB1012311B182F8803010BD82F8003191
:100AF00010BD03EBC0035B681A6811B142F003023A
:100B000001E022F002021A6010BD00BF84900000D4
:100B100072B60C4B0C4A0D491B681268096862B624
:100B2000490102D5322B88BF0132C3F56A33F02068
:100B300003F27F13B3FBF0F34FF47A7000FB023043
:100B4000704700BF18E000E07815FF1F04ED00E0DB
:100B500038B50446FFF7DCFF054624B938BD013C33
:100B60000AD005F57A75FFF7D3FF401BB0F57A7F01
:100B7000F5D202F06CFAF6E738BDF0B5924D934A23
:100B80009349944E944F4FF000632B604FF0805385
:100B90002B604FF000532B604FF080432B604FF0E1
:100BA00000432B608D4B00244EF6FF701C60586094
:100BB000282313609360136193611362936213633C
:100BC0009363083202F50122336013600B608B607F
:100BD0000B618B610B628B620921396007F58057CD
:100BE00004373C607860BB603B6147F8041C07F544
:100BF000FE2785B03C607860BB603B6147F8041C11
:100C000007F580573C6078603360136042F8141C2D
:100C1000A2F5E122A2F5FD62283A916A41F4007141
:100C20009162116841F00071116002F5012247F6EE
:100C3000FF711460516093601361694B6949082228
:100C40001A60A3F5AA2360221A70E1225A70A3F554
:100C50006333A3F57E7339221A6013230B6001F509
:100C6000FF2101F2FC710A605F4A13605F4BA2F53D
:100C7000FF221C6003F50023A2F5FD621C608423A3
:100C8000136002F5002232201360594B01221A70C2
:100C9000FFF75EFF72B657490B78802B2A4608D0C3
:100CA000554B564C702018705548046080201870C1
:100CB0000BE0544B5448186003F5573303F2BD332F
:100CC0001C700B78802BFCD0EAE718780006FCD566
:100CD00008784E4B01281B680BD100F1804000F5CD
:100CE000FC206024047008788028FCD145494848DD
:100CF000086062B647498B429CBF0A214B4301AD55
:100D000000210A20B3FBF0F400FB143330334B55C1
:100D100023460CB10131F5E704A8084400F80B4C58
:100D20006818CC1AA34206DAEC5C0678EE5400F898
:100D300001490133F5E738490023E85C20B101336C
:100D40000A2B21F8020BF8D13449354801335B00F6
:100D50000B70002319461D1819500833882B304C8E
:100D60006960F8D12F48304B016841F4802101605F
:100D70002E48016841F040710160C4F307211970E9
:100D8000C4F3074119752A49230E0B70FF2301F89C
:100D9000343C002001F82C3C01F8A43C012301F86C
:100DA000203C81F84C0001F8303C224B7021197036
:100DB0004FF400131360204B10224FF4AF701A70E1
:100DC00005B0BDE8F040C3E604E100E00C8003405C
:100DD0001C900B400C900B400080034004800340AB
:100DE00000900C400CB003400CB00B4020B003400E
:100DF000F914FF1F03E00740000002400000074114
:100E00000400024044800440000017130C0002401C
:100E1000000007037F9698003607FF1F3407FF1F67
:100E20000000FF1F348004409C20074000D8004091
:100E3000B420074035E400E008210740FEE7FEE764
:100E4000094908B58B6968B16A461844A2F5005291
:100E5000904206D302F0D2FE0C2303604FF0FF3025
:100E600008BD8861184608BD3407FF1F2DE9F0470B
:100E7000274E2849DFF8B090DFF8B0A0DFF898E0FF
:100E8000B4464FF00008431A4821B3FBF1F10B2997
:100E90003CD896F844321E4C73B399F800305BB3DB
:100EA00072B601230AEB030212F8012C12071CD5BB
:100EB0009A00194D5EF832702FB905EB43130830D4
:100EC0005860164B09E042F001025EF8327067B9D3
:100ED00005EBC20308305860114B45F8323094F8E6
:100EE0004432013B84F844320FE00133052BD9D161
:100EF00062B68CF84482CAE772B60A4A4FF00043E1
:100F000023FA01F1D3690B43D36162B6BDE8F087E0
:100F1000FC11FF1FD003FF1F0000FF1F88004000CF
:100F2000C80040003407FF1F8C15FF1F408B0000D6
:100F300010B572B60B48C269B2FA82F10B2902DD14
:100F400062B6002010BD4FF00043CB4022EA0302FE
:100F5000C26162B6044C48234B43E0180022E250C1
:100F6000426010BD3407FF1FD003FF1F2DE9F74F6C
:100F7000DFF8C892B14B1D78EDB215F0040F1C4696
:100F800031D0AF4B1B785BB3AE4A92F84D1201F0F3
:100F9000FF0329B1013BDBB282F84D3203B900BE39
:100FA000A94E327802F0FF03D2B1013BDBB23370BD
:100FB000B3B9A64B1B7803F0FF088BB9A44F386870
:100FC00030B14388038001F03FFFC7F8008007E09D
:100FD000FFF7AEFF10B101F037FF01E001233370DE
:100FE000042389F8003005F0080303F0FF01002B0B
:100FF00000F08B82974B984E1B78DBB21F094FEAAB
:10100000930440F0FC8106EBC403596856F8343071
:10101000C3F38303013B0C2B00F2ED81DFE813F0F7
:10102000A601A601EB01EB01EB01EB01EB01EB01EA
:10103000C601EB01EB01EB010D000A68814D4B6825
:10104000C5F85022C5F8543292B2844B46F8343079
:1010500040F28160002301218242C5F85832336199
:10106000B36185F8EF102C4617D8B2F5D06F80F039
:101070002D81B2F5817F00F0078106D8802A00F02B
:10108000C580822A00F0C7803EE140F202339A42D6
:1010900000F00B81B2F5A06F1BE042F2210082420A
:1010A00000F061810DD8B2F5086F00F0A980B2F5AB
:1010B000106F40F02981624A95F8521211701F4654
:1010C0000AE042F221218A4200F0158142F22133E6
:1010D0009A4200F01D8117E1F219136A1B0603D52D
:1010E000506A0838FFF7C2FE0837802FF4D1DFF8C6
:1010F0009481DFF86CB100275BF827004FEA870A7C
:1011000030B142680092FFF7B1FE009A1046F7E74F
:10111000534B544A43F80A00534B4AF803005AF819
:10112000020040B1416801920091FFF79FFE0099D3
:10113000019A0846F5E74D4B42F80A0023F81700DC
:1011400098F800304A4A023B4AF80200032B08D8BC
:10115000DFE803F002040204002300E0012388F822
:1011600000300137042F08F10108C5D10023414F99
:10117000DFF8E8A085F844324FF001083E4B07EB5A
:101180000802434412F8012C9B0012F0080F1A7059
:101190004FEA880B25D0FFF7CBFE38B106EB48139A
:1011A00008305860354B46F83B3006E094F844323E
:1011B00046F83B00013384F84432FFF7B9FE4BF0A8
:1011C000010338B106EBC30E0830CEF8040046F830
:1011D00033A006E046F8330094F84432013384F833
:1011E00044324BF002004BF0030208F101080023E7
:1011F000B8F1050F46F8303046F83230BED188E0FD
:101200000F4B1B7885F845320B4685E085F8453253
:1012100085F846327FE0B5F8542202F07F02042AB6
:1012200072D885F8453285F846329200144B9B5CA3
:101230009E0770D585F845126DE000BF80200740FD
:101240008C15FF1FFC11FF1FD015FF1F8615FF1FF8
:101250008815FF1F902007400000FF1FC8004000B6
:10126000A015FF1F9015FF1F5814FF1FB015FF1F7B
:10127000C015FF1F408B000030C8011088004000DF
:10128000C0200740BC15FF1FB5F8542202F07F02B2
:10129000042A39D8B5F85232002B35D1AC49920026
:1012A00011440A7822F002020EE0B5F8542202F04E
:1012B0007F02042A28D8B5F852322BBBA4499200E9
:1012C00011440A7842F002020A7022E0B5F8522274
:1012D000B5F854129F4B5C68B4B11888904208D19D
:1012E0005888884205D1120A032A0CBF23781B892B
:1012F00014E00C33EFE7984A1168984A1160984A55
:1013000095F85212117004E0914B0F221A702AE0E6
:1013100000231C4602E0022304F24524B5F856627D
:101320009E4228BF1E46402E374628BF40272046F3
:101330003946FFF74DF9F61B3C4403D1402F12D13B
:10134000374603E0402E374628BF4027204639461F
:10135000FFF73EF9F61B3C4401D1402F03D1C5F8FD
:101360005842A5F86C6201227E4B43E07E4BB3F8F5
:10137000502242F221039A4214D100237A4ACD5CD2
:1013800002F51C701D540133072BF7D1D2F87032CF
:101390000021862B08BF0F23084608BF82F84D3274
:1013A000FFF716F9714B46F8343024E06E4ED6F84C
:1013B00058729FB1B6F86C42402C254628BF402594
:1013C00038462946FFF704F9601B80B2A6F86C0284
:1013D00008B9402D00D17819C6F85802B6F8502245
:1013E000614BB2F5A06F06D1002283F8512293F829
:1013F00052225F4B1A705B4B01221A7081E0254626
:1014000006EBC404013F626803F00803A2F1080080
:10141000FFB203F0FF0E002B36D0FFF727FD554833
:10142000554A50F82710E9B14B6840F8273001F1D0
:1014300008036360D35D032B0BD8DFE803F00204DD
:101440000608032304E0022302E0052300E004234E
:10145000D35514F0080F0A8814BFC823882343EA21
:1014600002434CE0D35D032B08D8DFE803F04A4A7F
:101470000204002300E00123D35542E014F0080FDA
:1014800014BF03230223F7E756F835301B0C99B23B
:1014900022F8081C6BB322F806EC42F804EC374A39
:1014A000DFF8C4E052F827304FEA870C13B942F84E
:1014B000270004E00EEB0C02D2F85C2250600CEB2B
:1014C0000E032F4AC3F85C0232F81730DFF8988019
:1014D000194422F81710FFF72BFD10B10830606097
:1014E00007E098F8443246F83500013388F8443272
:1014F00007E0244A1D4B14F0080F08BF134646F8B6
:101500003530082389F8003034E5E80742D515481E
:10151000154A1C4D022303701B4B82F8EE1002F596
:101520001E7602F52E721D60DA605E609D601961A4
:101530009961074B0D221A70144AFF231370237010
:1015400011741371124B9F221A700123037034E03F
:10155000C0200740448B00007815FF1FEC15FF1FCB
:10156000E815FF1F94200740FC11FF1FC800400032
:10157000982007409015FF1FBC15FF1FA015FF1FE7
:10158000B015FF1F880040000000FF1F88200740A3
:1015900084200740290604D5094B0D221A708023A8
:1015A0002370AA0705D5074A1378DBB2137002230C
:1015B0002370EB0644BF1023237003B0BDE8F08F07
:1015C000C02007408820074008B50B4D2C462B68EB
:1015D000580301D5FFF7CAFC2368590501D5FEF76A
:1015E0008FFF23681A0501D5FFF760F82368DB0435
:1015F000EDD5FEF73BFFEAE73480044008B5FFF77E
:10160000E3FF2DE9F74F364DDFF8EC8001238246EA
:101610000C462B7089464646B9F1000F59D0D8F8D0
:1016200000306BBB2F4FDFF8B8B02F4B1B7803F0A7
:10163000FF000BB928701DE072B62C4BDB68002050
:1016400013B101305B68FBE762B6072809D80120B7
:1016500001932870FFF76CFC306088B9019B8BF810
:101660000030013F224B02D093F8F80228B101224A
:1016700083F8F8224FF0FF302EE001F0E8FCD4E7C9
:101680001B4B002083F8F80230684388C3F1400701
:101690004F4528BF4F4603EB070E0344C7EB09092C
:1016A000A0F802E007335744BA4504D01AF801EB1A
:1016B00003F801EFF8E743883F2B05D94023038067
:1016C00001F0C2FB002333600A4B05221A70BA46B0
:1016D000A2E785F80090204603B0BDE8F08F00BF78
:1016E0008615FF1F81B501008C15FF1F9015FF1F88
:1016F000FC11FF1FD015FF1F8815FF1F044B988892
:10170000044B1A681AB1138852889B1A1844704700
:10171000B015FF1FB815FF1F10B5104C23686BB133
:10172000206843885A1C03441C7A03889A4211D3C8
:10173000FFF79CFB094B00221A600CE0084B1B785A
:1017400013B94FF0FF3010BD01F041FB20600028BD
:10175000E6D1F6E74280204610BD00BFB815FF1F56
:101760008C15FF1F2DE9F843089F164698460D4635
:10177000002900F08B8004226849284603F0AEFD62
:10178000044618B9FFF7F2F8214627E0062264491B
:10179000284603F0A3FD18B9FFF7E8F801211DE082
:1017A00008226049284603F099FD18B9FFF7DEF8D2
:1017B000042113E009225C49284603F08FFD90B90B
:1017C0003378180607D433B198F8003033F07F052A
:1017D00001D1002B5DD1FFF7C9F8052101F0BCFE56
:1017E0000020BDE8F88306225049284603F076FD24
:1017F00088B93378190649D4002B47D098F80030BF
:101800001A0643D4002B41D03B7833F07F043DD1FE
:10181000002B54D13AE006224549284603F05EFDEC
:1018200048B9337833F07F0101D1002B6DD1FFF738
:101830009DF80321D2E7FFF7B1F801223D4901F0FD
:1018400079FBFFF7ABF801223B4901F073FBFFF78F
:10185000A5F80122394901F06DFBFFF79FF801223D
:10186000374901F067FBFFF799F80122354901F08C
:1018700061FBFFF793F80122334901F05BFBFFF7AF
:101880008DF80122314901F055FBA9E70120BDE89F
:10189000F88329460A22304602F0ACFA294604466B
:1018A0000A22404602F0A6FA0546FFF75FF81C2C14
:1018B00028BF1C244460FFF759F885608BE70A2293
:1018C0002146304602F096FA0A22814621464046D9
:1018D00002F090FA0A2221460546384602F08AFABA
:1018E0004FEA094906462D02FFF740F8022101F0B0
:1018F00033FE09F47F09FFF739F805F47F4549EA1B
:101900000505F6B2354345616AE70A22304602F022
:1019100071FA0446FFF72AF8C46088E7988B000044
:101920009C8B0000A38B0000A28B0000AB8B0000FF
:10193000B18B0000B78B0000DD8B0000E68B000050
:10194000F18B0000FE8B0000238C00003A8C00001D
:1019500010B5044607F000F8204610BD10B5044647
:1019600006F0FAFF204610BD10B5044606F0F4FF5D
:10197000204610BD10B5044606F0EEFF204610BD0F
:101980002DE9F041446806460F464CB32021384605
:1019900002F062F900243A46D31B984205DD12F8A2
:1019A000013B83EA44135C40F6E77568B4FBF5F34A
:1019B0004FF0010805FB1344A54211D9336853F8D1
:1019C000240068B120223946043003F087FC38B186
:1019D0004444A54202D908F10208EDE7641BFAE786
:1019E0007068844234BF20464FF0FF30BDE8F0817C
:1019F0002DE9F04F054685B0C030FEF77DFF002889
:101A000054D0FEF7CBFF05F13B063146D0F8C001BC
:101A1000FEF756FF0746002848D104AC44F8046D91
:101A2000204601F0B9F90646204601F0B5F9804696
:101A3000204601F0B1F98146204601F0ADF9824619
:101A4000204601F0A9F9D5F8BC40834674B331466D
:101A50002046FFF795FF6368984219D2236853F830
:101A60002030ABB11C68FEF799FF3A46114901F0EE
:101A700061FA206A0368CDF800B01C684A465346F4
:101A80004146A04760B1FEF789FF01220A4905E0FF
:101A900033782BB1FEF782FF0849012201F04AFAA0
:101AA000FEF77CFF0022064901F044FA05B0BDE8CC
:101AB000F08F00BF4C930000528C0000738C00002C
:101AC000868C00002DE9F74FDFF8C09082464FF07A
:101AD00000084FF00C0B5FFA88F30BFB03F209EBE5
:101AE000020159F80260002E46D08A6812B901211D
:101AF0008AF83A10DAF8BC40002C3AD00192002A59
:101B000037D0224A0BFB032338205F6806F01CFF06
:101B10000023019A436280F8283080F82930C3629C
:101B200003634363394602622022054606F06AFFDA
:101B300031462046FFF724FF63689842074618D2D3
:101B4000236853F82030A3B9242006F0FDFE20229C
:101B50000190314640F8045B06F054FF2268019B77
:101B600042F82730236853F8273013B1A3680133B4
:101B7000A36008F10108AEE7FEF710FF0449324602
:101B800003B0BDE8F04F01F0D5B900BF0408FF1F56
:101B9000878C000000B5A3B0FEF700FF01222649A4
:101BA00001F0C8F9254B0093254A264B802102A855
:101BB00006F0DAFEFEF7F2FE02AB234A802101F0C6
:101BC000F7F9FEF7EBFE0122204901F0B3F9FEF729
:101BD000E5FE01221E4901F0ADF9FEF7DFFE01220C
:101BE0001C4901F0A7F9FEF7D9FE01221A4901F0BC
:101BF000A1F9FEF7D3FE0122184901F09BF9FEF787
:101C0000CDFE0122164901F095F9FEF7C7FE01222B
:101C1000144901F08FF9FEF7C1FE0122124901F0CB
:101C200089F9FEF7BBFE0122104901F083F900207B
:101C300023B05DF804FB00BF8F8C0000BE8C000059
:101C4000AF8C0000A38C0000C78C0000CA8C000081
:101C5000EB8C0000018D00000F8D00001F8D000037
:101C6000318D00005B8D0000778D0000948D0000A9
:101C70002DE9F047084686B00622224903F02EFBE4
:101C800000240646FEF758FED0F880309C4235D23C
:101C9000FEF752FE50F8243073B326B9FEF74CFE1F
:101CA00050F82430DE60FEF779FE0746FEF744FE6A
:101CB00050F82450FEF740FE50F82430D3F8088046
:101CC000FEF73AFE50F82430D3F80C90FEF734FEBD
:101CD00050F82430D3F810A0FEF72EFE50F8243030
:101CE000094A93F83A30049319358DE820072346C2
:101CF0008021384601F05CF90134C3E7002006B0CA
:101D0000BDE8F0879E8D0000A48D000070477047ED
:101D10007047704710B50446A9B1C26803699A427A
:101D200013D24269806801F0A1FEE368A269A1684C
:101D30000133E36023681A4491421CBF63695B1856
:101D4000A360002010BD012010BD072010BD00BF02
:101D500038B500F1380500F1540455F8040F036854
:101D60001B689847A542F8D1054B002283F88022D2
:101D700003F17C4303F5D52340F203121A6038BD0A
:101D80000418FE4300234363836300F10C032430F3
:101D900003C883E80300704700F10C03143003C844
:101DA00083E803007047C26803690AB9D90709D5F7
:101DB00013F0010F4FEA630318BFC158184418BF4E
:101DC0008A581047704790F83C30013BDBB2012B3A
:101DD00080F83C309CBF012380F83D3000F10C03BB
:101DE000343003C883E80300704790F83C30013377
:101DF000DBB2632B80F83C3084BF002380F83D3099
:101E000000F10C03343003C883E80300704700F18D
:101E10000C03143003C883E803007047C2680369E9
:101E20000AB9D90709D513F0010F4FEA630318BFA8
:101E3000C158184418BF8A581047704710B5044657
:101E4000FEF794FD0378042B01BF04F10C031C344E
:101E500094E8030083E8030010BD10B50446FEF7C4
:101E600085FD0378032B01BF04F10C031C3494E8B7
:101E7000030083E8030010BD012310B580F83C3057
:101E800080F83D300446FEF771FDC168201DFEF765
:101E900047FD04F10C03243494E8030083E80300B5
:101EA00010BD2DE9F0410646FEF760FD7F4C057838
:101EB0002378AB4206D006EB8303D86B03689B689C
:101EC00098472570237806EB8303D86B03685B681B
:101ED0009847B06DFEF710FD002800F0B080734BFE
:101EE0005B78002B70D0724A724B11680906FCD4E3
:101EF000196811F08001F8D172B66378002B62D0B6
:101F00006D4B6E4AD3F800E004330C321B6852F874
:101F10000C7C52F8085C52F8040C126873443B4481
:101F20002B4403441344C3F34E03654A43F4004374
:101F30001360644BD3F800E0043340321B6852F85E
:101F40000C7C52F8085C52F8040C126873443B4451
:101F50002B4403441344C3F34E035B4A43F400434E
:101F600013605A4B02F50022D3F800E0043310321C
:101F70001B6817685568906873440C323B441268BC
:101F80002B4403441344C3F34E03514A43F4004328
:101F90001360504BD3F800E0043340321B6852F812
:101FA0000C7C52F8085C52F8040C126873443B44F1
:101FB0002B4403441344C3F34E03474A43F4004302
:101FC00013603A4B597062B672B6444D0E274FF00B
:101FD00001082F6084F8028062B672B62B681B0677
:101FE0000ED53F4B1D680023A37062B663681D4485
:101FF000237A65600133DBB2032B23721BD906E021
:10200000A378002BE5D062B601F021F8E5E7274B75
:102010002D095D60FEF7AAFC077CFEF7A7FC03789C
:10202000032B05D0BB1C9D4230D2023FBD422DD9AF
:102030000023237263603C21B06DFEF771FC294BD5
:10204000294F93F800523B78EDB2AB4205D02821DE
:10205000F06DFEF765FC01236372F06DFEF74CFC3A
:1020600088B1637A7BB1114B00225A725DB9FEF7D9
:102070007DFC03780133DBB2062B0DD9FEF776FC2D
:10208000294601F069FA3D70BDE8F081FEF76EFC6B
:10209000E9B201F043FACBE7FEF768FC0446FEF72D
:1020A00065FC01780131C9B22046EAE7F814FF1F48
:1020B00024B0034024B00B4038B0034040B003408C
:1020C0002CB0034058B0034030B0034038B00B4050
:1020D0002CB00B4058B00B4030B00B4000B0034068
:1020E00010B003400418FE43DB07FF1F10B5044681
:1020F00006F032FC204610BD10B5044606F02CFC5C
:10210000204610BD10B5044606F026FC204610BD42
:1021100038B504460025FEF729FC2946013501F0B3
:10212000F4F9082DF7D1A36B0133FF2B88BF0023EF
:10213000A36304F10C03243494E8030083E8030050
:1021400038BD2DE9F0410446FEF710FC636B072B08
:102150001ED8184A52F823305F880025AEB2BE421E
:1021600016D2FEF703FCA36B626B3102B1FBF7F1F1
:102170001944C9B201F0A2F98046FEF7F7FB606B83
:10218000072803D84246314601F05EF90135E5E7FC
:10219000636B0133072B81BF0023636304F10C03DE
:1021A0002C3486BF94E8030083E803006363BDE832
:1021B000F08100BFF815FF1FF8B5061D0446304634
:1021C000FEF79AFB10B3FEF7D1FB94F83C10104FCA
:1021D00001F0A4F9FEF7CAFB002557F825000135E8
:1021E00001F0D5F8082DF8D1FEF7C0FBC1683046E4
:1021F000FEF796FB94F83D2004F10C030AB1243459
:1022000000E02C3494E8030083E80300F8BD00BF2D
:10221000F815FF1F2DE9F04FDFF8108387B0054652
:10222000C246DFF8D89298F8003099F80020D9B269
:10223000D3B2994238BF4031CB1A002BAF4A25DDCB
:10224000AF4CA37A27460BBB80E0EE2E0AD1B4F840
:102250004C305A1C2B44A4F84C2083F860600123B6
:1022600085F83B30B4F84C30A54E0D2B40F2EC8095
:10227000FEF794FB0122A34900F05CFE002385F8E1
:102280003B3086F84E30A6F84C30B37205F1490663
:102290009D4CE86DC368002B00F02C813146FEF7A1
:1022A0000FFB0028F5D123685A05F2D5944F95F815
:1022B000499097F84F40DFF854820134282C28BF0A
:1022C000002497F850208E4BA2420CD01A19E4B289
:1022D00082F85190012283F8792083F84F408B4B8C
:1022E000AC22DA70D4E7EFF3138313B9EFF3108362
:1022F0009BB198F804301B06E3D597F850300133B2
:10230000282B28BF0023FA18DBB292F85120D2B252
:1023100088F8072087F85030D3E7EFF3058282B9B9
:102320004FF48073EFF311823AB9402BE1D9B3F542
:10233000807FC6D100F08BFEC3E7934228BF1346CF
:10234000F3E70F2AEED9724B9B5CEBE79AF800108B
:102350001378DBB2994208D00133402B28BF002309
:10236000F918DBB2CE7A137001E04FF0FF36FEF7BA
:1023700015FB01220292B4F84C2095F83B300192F3
:10238000F6B20096634A802100F012FE95F83B30C9
:10239000052B50D801A252F823F000BF4B220000B9
:1023A000B5230000D1230000E52300000524000030
:1023B00019240000B4F84C20531C2A449BB282F824
:1023C00060601E44A4F84C3084F84E60022347E756
:1023D000B4F84C305A1C2B44A4F84C2083F86060AD
:1023E00003233DE7B4F84C20531C2A449BB282F8E7
:1023F000606094F84E20A4F84C309A42BFF432AF9B
:1024000004232DE7B4F84C305A1C2B44A4F84C207C
:1024100083F86060052323E7B4F84C305A1C2B4442
:10242000A4F84C2083F86060002385F83B3084F8E2
:102430004E30012306E0002385F83B3084F84E300F
:10244000A4F84C30A3720DE7B37A002B3FF4EBAE47
:10245000FEF7A4FA0122304900F06CFDB6F84C30CA
:10246000DA1E0A2A41D803F15E0105F160069A1EC0
:1024700035F80190DFF8B8E0324430464FF6FF748B
:10248000904209D010F8011B81EA14213EF8111086
:1024900081EA0424A4B2F3E74FF0010B0593FEF7A1
:1024A0007DFACDF800B0059B1C4A802100F080FD2C
:1024B000A14511D1FEF772FA19495A4600F03AFDCA
:1024C0003146A86DFFF726FC78B1FEF767FA5A4649
:1024D000144900F02FFD08E0FEF760FA8DE8000ACD
:1024E0002346114A802100F063FD0023BB72A7F848
:1024F0004C3096E607B0BDE8F08F00BFDB15FF1F3C
:10250000F814FF1F079000002880044000A00E4030
:10251000F0E300E0E88F0000219000002C90000024
:102520003A9000004590000052900000DA15FF1F1D
:10253000E08D0000704770477047704700F10C0352
:10254000143003C883E803007047C26803690AB9FE
:10255000D90709D513F0010F4FEA630318BFC1581B
:10256000184418BF8A5810477047704700F10C0391
:10257000143003C883E803007047C26803690AB9CE
:10258000D90709D513F0010F4FEA630318BFC158EB
:10259000184418BF8A5810477047C26803690AB9BF
:1025A000D90709D513F0010F4FEA630318BFC158CB
:1025B000184418BF8A58104770470023436300F13E
:1025C0000C03243003C883E80300704700F10C03B8
:1025D000143003C883E803007047C26803690AB96E
:1025E000D90709D513F0010F4FEA630318BFC1588B
:1025F000184418BF8A5810477047C26803690AB95F
:10260000D90709D513F0010F4FEA630318BFC1586A
:10261000184418BF8A581047704710B590F84020EA
:10262000C16B0023013A4363836380F84230044660
:1026300080F841200430FEF773F904F10C032434D0
:1026400094E8030083E8030010BD10B50446FEF7CC
:102650008DF90378052B01BF04F10C031C3494E8B9
:10266000030083E8030010BD10B50446FEF77EF9B1
:10267000037833B904F10C031C3494E8030083E8B5
:10268000030010BD10B50446FEF770F90378022B65
:1026900001BF04F10C031C3494E8030083E8030039
:1026A00010BD10B50446FEF761F90378062B01BF93
:1026B00004F10C031C3494E8030083E8030010BD0C
:1026C00010B50446FEF752F90378012B01BF04F15F
:1026D0000C031C3494E8030083E8030010BD38B5F4
:1026E00090F841101D23B1FBF3F203FB121290F896
:1026F000421080F84120B1FBF3F203FB12130446B1
:1027000080F842300025FEF731F92946013500F006
:10271000FCFE082DF7D1A36B0133FF2B88BF0023EC
:10272000A36304F10C03243494E8030083E803005A
:1027300038BD38B504460025FEF718F9294601359D
:1027400000F0E3FE082DF7D104F10C03243494E8E3
:10275000030083E8030038BD2DE9F0410446FEF78D
:1027600005F9636B072B31D82A4A52F82330B3F8A6
:1027700002800027BDB2454528D294F8421094F853
:1027800041308AB2954201D3AB4212D2994203D969
:1027900095420ED29D420CD9FEF7E8F8A36B626B0E
:1027A0002902B1FBF8F11944C9B200F087FE0646D0
:1027B00001E04FF0FF36FEF7D9F8606B072803D829
:1027C0003246294600F040FE0137D3E7251D284652
:1027D000FEF792F868B194F84130E16B013384F868
:1027E000413094F84230013384F842302846FEF7F5
:1027F00097F8636B0133072B81BF0023636304F1F8
:102800000C032C3486BF94E8030083E80300636361
:10281000BDE8F081F815FF1F2DE9F041134F054683
:102820000024FEF7A3F857F82430B3F802800026FE
:10283000B3B2434508D2FEF799F83146002220464C
:1028400000F002FE0136F3E7FEF790F8214601346E
:1028500000F05BFE082CE4D105F10C03143595E87B
:10286000030083E80300BDE8F08100BFF815FF1FF7
:102870002DE9F041144F05460024FEF777F857F88C
:102880002430B3F802800026B3B243450AD2FEF7E3
:102890006DF8FEF76BF831464269204600F0D4FD32
:1028A0000136F1E7FEF762F82146013400F02DFE13
:1028B000082CE2D105F10C03143595E8030083E8F8
:1028C0000300BDE8F08100BFF815FF1F2DE9F041BE
:1028D0000446FEF74BF8636B072B23D81A4A52F8CD
:1028E0002330B3F802800025AEB2B0451AD9FEF706
:1028F0003DF894F83430072B96BF1B1800231B7E3D
:102900009E4203D2FEF732F8476900E00027FEF747
:102910002DF8606B072803D83A46314600F094FD45
:102920000135E1E7636B0133072B81BF002363634C
:1029300004F10C032C3486BF94E8030083E8030001
:102940006363BDE8F08100BFF815FF1F2DE9F0417A
:10295000144F05460024FEF709F857F82430B3F861
:1029600002800026B3B243450AD2FDF7FFFFFDF710
:10297000FDFF31460C4A204600F066FD0136F1E7C6
:10298000FDF7F4FF2146013400F0BFFD082CE2D131
:1029900005F10C03143595E8030083E80300BDE856
:1029A000F08100BFF815FF1F7DFFFF0010B5044642
:1029B00005F0D2FF204610BD10B5044605F0CCFF4F
:1029C000204610BD10B5044605F0C6FF204610BDD8
:1029D00010B5044605F0C0FF204610BD10B50446F2
:1029E00005F0BAFF204610BD70477047704770472A
:1029F00083B5FDF7BBFF574CDFF86C81824604F1CD
:102A00002009012754F8040F9AF8101000F099FCDF
:102A1000256895F90630002B15DB3F2B0DDC08EB04
:102A2000C30258F83330526883F880724FF4A273AF
:102A30001360136823F020031360A8793F2802D89D
:102A40000021FEF747F82F70206800F0A0FC4C45ED
:102A50004FF00106D6D1FDF76FFF3F4B3F4D83F896
:102A6000806203F17C4303F5D4234FF4A2721A6011
:102A70001A68044622F020021A6031460D20FEF743
:102A800029F84FF47A71D4F88400FDF749FF55F81E
:102A9000043F13B9324F334E32E0FDF74DFF044689
:102AA0002868D4F880301F2BF1D844F8230003683D
:102AB0001B689847D4F880300133C4F88030E6E7CB
:102AC00055F8043F1BBB08F10108D4F8803043459A
:102AD000F6D8D4F88400FDF70FFF78B135780D20D3
:102AE0002946FDF7F7FF15F1FF3518BF01254FF413
:102AF0007A71D4F884003570FDF712FF00F0A7FA60
:102B0000FDF71AFF4FF000080446051FDDE793F8B4
:102B10003A90B9F1000FD6D159685869FDF700FF16
:102B2000286803685B6898472B685A691168C2F87F
:102B300004903A680192019A521AD96891422CBFC6
:102B4000D960DA6059689A6091429EBF1A69013271
:102B50001A61B8E7F415FF1F1410FE431816FF1F83
:102B60007815FF1FDC07FF1F8490000070472DE9D8
:102B7000F0410C468AB000F10308C51D30270A2633
:102B800018F8013F0BB1212103E08DF825702121B8
:102B90000DE00AAAB3FBF6F00A4406FB103330330B
:102BA00002F8243C034610B10139C9B2F1E72368A9
:102BB00001A8C1F122025B68014420469847A8455C
:102BC00005D023682E211B6820469847D8E70420AB
:102BD0000AB0BDE8F08116490B6830B513B98360BF
:102BE000C36009E004681A68944207D20025121BEA
:102BF0008360C560D8601A60086015E002681C68D0
:102C00009968121B026061B10C68A2420B46F5D2B2
:102C10008160C968C160D860C168A21A88601A6002
:102C200002E08160C36098600223037530BD00BF7D
:102C30007415FF1F70B5174D6B682C6801336B60FE
:102C40000026BCB1236813B1013B236012E0A268E7
:102C500002B1D36020692A60036826751B6822468A
:102C60000021984763681BB123602046FFF7B3FF3C
:102C70002C68E6E7EFF3108372B60022A868AA601A
:102C800003B962B620B18468FFF7A5FF2046F9E7D3
:102C900070BD00BF7415FF1F38B50A4D0024EFF357
:102CA000108272B6E86848B14369EB6003B19C6179
:102CB00002B962B6447783689847F0E702B962B612
:102CC00038BD00BF7415FF1F024B01221A60024B72
:102CD000DB6818473C710340E007FF1F024B0122ED
:102CE0001A60024B9B6818472C710340E007FF1FD6
:102CF000024B01221A60024B5B6818471C710340AB
:102D0000E007FF1F024B01221A60024B1B681847A5
:102D10000C710340E007FF1F094A136843F08073FA
:102D20001360084A136843F0010313605168536845
:102D3000054A5B1A118A1B098B4288BF13827047B0
:102D4000FCED00E0001000E07415FF1F10B50F4C03
:102D50000123A374636993B9227E12B90020A07481
:102D600010BD72B6A26A12B101335268FBE762B6B7
:102D7000072BF3D8FEF7DCF860610028EED063691A
:102D800058880023A374C0F1400010BD7415FF1FC4
:102D9000FEF7C2BCFEF7B2BC30B5A8B1026813465C
:102DA00002F180051C466BB1AB4208D013F8011B41
:102DB00039B12029F6D10021631C217002E00023E3
:102DC00000E00B46036000E00246104630BD72B6DC
:102DD000064B586B38B1426801885A63B3F84020FB
:102DE000521AA3F8402062B6704700BF7415FF1F47
:102DF00010B5084C237E5BB1606C18B1FEF736F855
:102E000000236364FFF7E3FF10B1FEF72FF8F9E743
:102E100010BD00BF7415FF1F10B50A4C636C13B1D1
:102E2000626C5AB901E0237E13B94FF0FF3010BD38
:102E3000FFF7CDFF60640028F2D1F6E75388134412
:102E4000187A10BD7415FF1F72B6154A92F84B30F0
:102E5000032B08D8DFE803F010021204022100E07F
:102E60000421104B0CE0916A0D4B09B9986201E006
:102E70009B6D5860906511E0032100E005210A4B2D
:102E800082F84B1013F0080F00F1080201885A6015
:102E900014BFC822882242EA01421A6062B6704713
:102EA0007415FF1F9800FF1F9000FF1F70B50F4C97
:102EB000237ECBB165690126A6744DB100266B88CF
:102EC00084F85C6028462B80FFF7BEFF666109E04E
:102ED000FEF72EF820B184F85C50FFF7B5FF01E053
:102EE00084F85C600023A37470BD00BF7415FF1FDD
:102EF000F8B50F4B0360002514230446436085603A
:102F0000C5600561082017460E4605F01DFD2776B1
:102F100005604560606184F8395084F83A50202299
:102F2000314604F1190005F06DFD2046F8BD00BFE3
:102F3000749000002DE9F8430D4604464FF480518B
:102F40002846904600F088FE7F28064614D904F1F2
:102F5000BB074FF0000929467F22384605F052FD95
:102F60007F3E84F83A913946D4F8C401FEF7D2FE88
:102F70007E2E05F17F05EED89EB10B490B4A04F178
:102F8000BB06B8F1000F18BF0A462B468021304619
:102F900005F0EAFC3146D4F8C401BDE8F843FEF779
:102FA000B9BEBDE8F88300BFB98C0000C78C000033
:102FB0000CB437B506AB00F23B1553F8042B019364
:102FC00004468021284605F08BFD01222946204633
:102FD000FFF7B0FF03B0BDE8304002B070470EB459
:102FE00003B503AA054852F8041B019200F03EFF06
:102FF00002B05DF804EB03B0704700BFF007FF1F9D
:10300000016830B599B10A4B0B441B1103F1300232
:103010005511012402F01F0204FA02F2054C44F893
:103020002520054A054C42F8234000238B6030BD23
:10303000008FFCBF80E100E0E007FF1F6D2B000068
:1030400010B5036814465B689847204610BD38B534
:103050001E4B93F85D201C46002A36D193F85E1073
:1030600083F85D2093F85F1093F8601093F8611077
:1030700093F8621093F8631093F8641093F8651056
:1030800093F8661093F8671093F8681093F8691036
:10309000EFF30582CAB9EFF3108272B6D86E10B1A1
:1030A00093F8701011B182B962B638BD012384F86B
:1030B00070304369E36603B1996102B962B60025D5
:1030C00045778368984784F8705038BD7415FF1FA2
:1030D000F8B501230025C3730373572702238373B5
:1030E00004460570C57105614573878038460E46F4
:1030F00005F02AFC0346A06028B13A46294600F0B4
:103100004FFD1D2300E0A08063802378A671A3B14A
:103110003F2E12D80A4B03EBC6030121DA699B69E3
:1031200083F880124FF4A2731360136823F0200316
:10313000136000213046FDF7CDFC2046F8BD00BFEE
:103140006C90000030B51E4D1E4A2B6843F480631E
:103150002B60002313701C4A13701C4A13701C4A06
:1031600013701C4A13701C4A40F2133111601B4942
:103170004FF451720A601A4A0720137050701020E1
:1031800090722C2093701374D070164A40201070E7
:10319000A2F23A320420106013480478212C0A4627
:1031A0000CD02968490507D504F07F04212C08BFFD
:1031B00013604FF4517313602123037030BD00BFBF
:1031C00028800440DA15FF1FDB15FF1F4715FF1F7E
:1031D0004815FF1F7115FF1F64D0044060D00440E4
:1031E00000A00E4042E400E00008FF1F7047704757
:1031F00010B5044605F0B0FB204610BD10B50446DE
:1032000005F0AAFB204610BD10B5044605F0A4FB4E
:10321000204610BD08461146FEF7F3B937B50E4AF1
:103220000E4D0F4C10462B78002BFCD013789B07CB
:10323000F9D0236841685B1A182BF4D91A21094880
:10324000FEF7DFF9084B02211B88ADF8043001A816
:10325000FEF7D7F903B030BDE815FF1F8C15FF1F2F
:103260007815FF1FE4920000AC92000007B502A899
:1032700000F8011D0121FEF7C4F903B05DF804FB5D
:10328000F7B52C4F044601AEFEF738FA002802DCF1
:1032900004F1BB0546E0FEF73FFAC2B20D2AD4F8AE
:1032A000BC3101D0802B0FD1802B08BF7F2323445A
:1032B000002283F83B2004F13B01C4F8BC21D4F880
:1032C000C001FEF727FDE3E7082A15D1002BDBD06C
:1032D000013BC4F8BC313A88BB783280B37000251A
:1032E000735D8DF8023001210DF102000135FEF70A
:1032F00088F9032DF4D1C7E7591C02A82344C4F868
:10330000BC1100F8052D83F83B200121FEF779F967
:10331000BAE72946FDF7D4FA20B92A4606490748F4
:10332000FFF75DFED4F8C401C368002BF1D103B0F0
:10333000F0BD00BFAE920000C78C0000F007FF1F79
:1033400070474A1CC379D2B29A4270B51ED0013B75
:1033500013F0FF0384680CD0FF291FBF110201F195
:10336000FF3191FBF3F39BB204BF4FF6FF7191FB6A
:10337000F3F32546291B868889B28E4205D9297820
:103380005943091205F8011BF4E7C27170BD2DE91C
:10339000F84383680446002B4BD0FDF7B9FB236943
:1033A000C01AB0F5967FF8D372B6234B94F9062075
:1033B000A16853F832E0214AA088136843F0807373
:1033C00013601F4A136843F0010313601D4B1A6812
:1033D000084402F5967298464FF0010C88421FD9B6
:1033E00011F8019B082580261F68BF1AB7F5967F44
:1033F000FAD316EA090FD8F800208EF880C004D05E
:103400001F68BF1ABF2FFBD903E01F68BF1A3B2FED
:10341000FBD9013D8EF800C14FEA5606E4D1DDE745
:103420001968891AB1F5967FFAD362B6FDF770FB79
:103430002061BDE8F88300BF84900000FCED00E04F
:10344000001000E0041000E01B4B53F820004388FC
:103450008B42F0B52FD98CB29C422CD2C379C2F3E7
:103460000746C2F30725D4B20BB9A64608E05E436F
:103470005D435C43C6F30726C5F30725C4F3072E57
:10348000077BC47BA742876803D101EB4101394424
:103490000AE007EB8101120E0C440BB9D3B202E033
:1034A0005343C3F307232370037BCE54437BCD5494
:1034B000837B01F803E0F0BDF815FF1FC943C9B2D3
:1034C000542909D8A1EB8100013801EB4101C9B2AF
:1034D000C0B241EA00407047A92909D85539C9B29C
:1034E00001EB4100A1EB81010139C0B2C9B209E091
:1034F0005631C9B2A1EB810001EB41010138C9B2DB
:10350000C0B2090441EA00207047072903D8024BE2
:1035100053F821003BE77047F815FF1F632970B58A
:10352000054601D9642302E0012902D801232B7446
:1035300000E00174074E002456F82400297CFFF7B0
:1035400000FF56F824000134FFF721FF082CF3D1C7
:1035500070BD00BFF815FF1F00B50170A3B00629AC
:1035600036D8DFE801F004090E20252A2F00FDF7E8
:1035700015FA0122184929E0FDF710FA012217492E
:1035800024E04369DAB20192C3F30722802100925A
:10359000C3F30743124A02A805F0E6F9FDF7FEF966
:1035A000012202A912E0FDF7F9F901220D490DE00F
:1035B000FDF7F4F901220C4908E0FDF7EFF90122CB
:1035C0000A4903E0FDF7EAF909490122FFF7B2FCD5
:1035D00023B05DF804FB00BFFF92000011930000D0
:1035E000259300004F93000069930000859300002D
:1035F000A693000038B50446FDF722FA04F13B011A
:10360000806DFDF75DF970BB94F83D30012B08D05B
:1036100002D3022B16D038BDFDF7A8F994F83E105E
:103620001EE0FDF7A3F994F83F3094F83E201B020A
:1036300043EA024394F8402013434361FDF796F9AF
:1036400002210DE03D340546FDF790F9284401358F
:1036500014F8013F0376082DF6D1FDF787F906210E
:10366000BDE8384078E738BD2DE9F041B24DB34AA6
:10367000B349B44E00232B60284680232B7100F001
:10368000B1FA142005F060F902210446FFF720FD8D
:103690001420AC6005F058F903210446FFF718FD2B
:1036A0001420EC6005F050F904210446FFF710FDEA
:1036B00014202C6105F048F905210446FFF708FDA8
:1036C00014206C6105F040F906210446FFF700FD67
:1036D0001420AC6105F038F907210446FFF7F8FC27
:1036E0001420EC6105F030F908210446FFF7F0FCE6
:1036F00014202C6205F028F909210446FFF7E8FCA4
:1037000004206C6205F020F98F4C0660A060042054
:1037100005F01AF906F1140303606061042005F056
:1037200013F92062AC6A06F128030360002C40F014
:10373000ED80602005F008F906F134010746052206
:10374000FFF7D6FB06F15C033B60082005F0FCF8B0
:10375000804604604460B865082005F0F5F8046010
:103760004460F865242005F0EFF806F17402026069
:10377000764A4261764AC261446084608461046230
:1037800000F11401034600F10C0203C9FB6382E857
:103790000300242005F0D8F806F1900202606D4A7B
:1037A00042616D4AC261446084608461046200F1D8
:1037B0001401034600F10C0203C93B6482E80300D4
:1037C000242005F0C1F806F1AC020260634A4261B0
:1037D000634AC261446084608461046200F1140140
:1037E000034600F10C0203C97B6482E80300402019
:1037F00005F0AAF806F1C8020260012280F83C2018
:1038000080F83D20574A4261574AC261574A426296
:10381000574AC262574A42634460846084610462CA
:1038200084620463846300F11401034600F10C0216
:1038300003C9BB6482E803003C2005F085F806F16B
:10384000E40202604C4A42614C4AC2614C4A426204
:103850004C4AC2624460846044638463846104624D
:103860008462046300F11401034600F10C0203C9F1
:10387000FB6482E80300442005F066F806F58072D8
:1038800002601422C263042280F840203E4A426152
:103890003E4AC2613E4A42623E4AC262446084601D
:1038A0004463846380F8414080F84240846104624C
:1038B0008462046300F11401034600F10C0203C9A1
:1038C0003B6582E80300382005F03EF8324A426149
:1038D000324AC261324A426206F58E76314AC2628B
:1038E00044608460066044638461046284620463AB
:1038F00000F11401034600F10C0203C97B6582E864
:1039000003003C214046FDF70BF8AF62AB6AEB6267
:10391000FDF796F86B6C2863002B49D1482005F021
:1039200013F8022204462049FFF7E2FA1F4B2360F6
:10393000014B5C643CE000BFF015FF1F3007FF1F28
:1039400001300000C89300000408FF1F6926000032
:1039500019280000C12600004D290000852600001E
:10396000712800005B1E0000791E0000EB1D0000A6
:10397000C71D0000B92100003D1E0000851D00008C
:1039800043210000112100004B2600001B260000EF
:1039900059270000DF260000A3260000BB250000F9
:1039A000CD28000033270000F89400002095000087
:1039B0006B6C6B63FCF7F2FFAB6CA863002B4CD114
:1039C000C82004F0C1FF032206462649FFF790FAFB
:1039D000254B33600C2004F0B7FF41240746A31E9B
:1039E000012B13D9012C0FD00323012203FB03F178
:1039F0008C4208D3B4FBF3F103FB1141002908BF4B
:103A000000220233F2E70AB90234E8E7B4F1FE5FBC
:103A10004FF0000398BFA000BB6088BF4FF0FF309D
:103A200004F092FF002808BF0024002338607C6067
:103A300018469C424FF0000104D03A6842F8230037
:103A40000133F6E7C6F8BC70C6F8C010C6F8C4105B
:103A500006F1C000FCF764FFAE64AB6CEB63BDE83D
:103A6000F08100BF3095000058950000844641EA7F
:103A7000000313F003036DD1403A41D351F8043BE6
:103A800040F8043B51F8043B40F8043B51F8043B38
:103A900040F8043B51F8043B40F8043B51F8043B28
:103AA00040F8043B51F8043B40F8043B51F8043B18
:103AB00040F8043B51F8043B40F8043B51F8043B08
:103AC00040F8043B51F8043B40F8043B51F8043BF8
:103AD00040F8043B51F8043B40F8043B51F8043BE8
:103AE00040F8043B51F8043B40F8043B51F8043BD8
:103AF00040F8043B51F8043B40F8043B403ABDD247
:103B0000303211D351F8043B40F8043B51F8043BE8
:103B100040F8043B51F8043B40F8043B51F8043BA7
:103B200040F8043B103AEDD20C3205D351F8043B77
:103B300040F8043B043AF9D2043208D0D2071CBF43
:103B400011F8013B00F8013B01D30B88038060466C
:103B5000704700BF082A13D38B078DD010F00303E2
:103B60008AD0C3F10403D21ADB071CBF11F8013B52
:103B700000F8013B80D331F8023B20F8023B7BE7A1
:103B8000043AD9D3013A11F8013B00F8013BF9D2CC
:103B90000B7803704B7843708B7883706046704766
:103BA00001B5EAB1102A17DB00F0070333B1C3F106
:103BB0000803D21A013B00F8011BFBDCC9B241EA41
:103BC000012141EA01418C46D308013BE0E8021C97
:103BD000FBDC12F0070203D0013A00F8011BFBDC0A
:103BE00001BD00BF0B460146184600F001B800BFFA
:103BF00013460A460146022000F05AB9014B1868E4
:103C0000704700BF600CFF1F70B50F4E0F4D761B45
:103C1000B61018BF002405D0013455F8043B98476E
:103C2000A642F9D10A4E0B4D761B05F017FEB610D1
:103C300018BF002406D0013455F8043B9847A6422B
:103C4000F9D170BD70BD00BF689800006898000091
:103C5000749800006898000099B103789BB110B483
:103C60000144431C03E01A785C1C32B1234699429C
:103C7000F9D1081A5DF8044B7047181A5DF8044B27
:103C80007047084670471846704700BF2DE9F84F47
:103C9000DDF828900E460746154698468B4600E00C
:103CA000A3465C46484614F801AB00F0ADFA504418
:103CB000407800F0080000F0FF0C0028F0D15146D9
:103CC0002D2961D02B2904BF9BF801100BF10204B0
:103CD000B8F1000F0CD0B8F1100F5CD04FF0FF33EB
:103CE000B3FBF8F308FB03FA6FEA0A0AC14607E0E0
:103CF000302961D04FF00A083D4BC1464FF0050A0C
:103D00004FF0000E704606E02FD009FB00204FF068
:103D1000010E14F8011BA1F13002092A05D9A1F105
:103D20004102192A0BD8A1F1370290450FDDBEF1EF
:103D3000FF3FEED09842E7D94FF0FF3EE9E7A1F10F
:103D40006102192A03D8A1F157029045EFDCBEF1B8
:103D5000FF3F11D0BCF1000F00D0404255B1BEF181
:103D6000000F0DD12E60BDE8F88F5245CDDD4FF02C
:103D7000FF3ECEE7BDE8F88F22233B60704645B397
:103D8000661E2E60BDE8F88F0BF102049BF801104F
:103D90004FF0010C9CE730291DD1237803F0DF039D
:103DA000582B1ED14FF010096178C8464FF00F0A0A
:103DB00002346FF07043A3E7237803F0DF03582B3E
:103DC000F0D04FF00808C1464FF0070A6FF060438B
:103DD00096E7BDE8F88F4FF00F0A6FF07043C146C9
:103DE0008EE7C1464FF00F0A6FF0704388E700BFBF
:103DF0009999991930B5084C084B25686C6B83B0BC
:103E0000002C08BF1C46009413460A46014628466B
:103E1000FFF73CFF03B030BD600CFF1F640CFF1FB9
:103E2000F0B5ADF5057D04AD00930F4613464FF494
:103E3000007403AA29460394064601F09FFA88B14C
:103E4000044602463946039B304600F01BF8AC425C
:103E5000039004D03046214600F0EEF803980DF5AB
:103E6000057DF0BD4FF0FF30F9E700BF10B4044C02
:103E700013460A46014620685DF8044BFFF7D0BFA1
:103E8000600CFF1F70B50D46084C114606461A46D9
:103E9000284600232360FFF7D3F8431C00D070BDF1
:103EA0002368002BFBD0336070BD00BF7016FF1F6E
:103EB0002DE9F047254C2568D5F848410646884647
:103EC00092469946C4B360681F2817DC431C76B13C
:103ED00004EB80050122C5F888A0D4F8881182403F
:103EE0001143022EC4F88811C5F808911ED0023083
:103EF000636044F820800020BDE8F087144B03B3D2
:103F00004FF4C87004F020FD0446D0B1D5F8483114
:103F1000002780E88800C5F8484138460123C4F8E6
:103F20008871C4F88C71002EE1D0D1E7D4F88C11DF
:103F30000A43C4F88C21DAE705F5A674C5F84841B0
:103F4000C1E74FF0FF30BDE8F08700BFD09500001B
:103F500049890000024B13B1024800F005B87047D0
:103F600000000000753F0000002301461A46184675
:103F7000FFF79EBF38B5074D074C2C1BA41005D08A
:103F8000013C55F8043D9847002CF9D1BDE8384074
:103F900005F070BC0000000000000000F8B5234FE1
:103FA0000C46064600F010FCBB685D6825F0030572
:103FB000291B01F6EF7121F47F6121F00F01A1F5BA
:103FC0008054B4F5805F07DB0021304601F002F930
:103FD000BB682B44984204D0304600F0F7FB002029
:103FE000F8BD6142304601F0F5F801300DD0104BBC
:103FF000BA6819682D1B45F001053046091B55604C
:10400000196000F0E3FB0120F8BD0021304601F00B
:10401000E1F8BA68831A0F2BDEDD064C04492468E8
:1040200043F00103001B53600860D5E7D00DFF1F6C
:104030004816FF1FDC11FF1F002945D02DE9F04174
:104040000D46804600F0C0FB55F8047C6A4927F015
:104050000103A5F10804E2188E685068B24220F00E
:10406000030062D0FE0750600BD455F8087CE41BB7
:1040700001F1080EA56875453B446FD0E768EF6015
:10408000BD6015186D68ED0742D543F0010262600E
:10409000E350B3F5007F18D2DB085A1C4D6851F885
:1040A0003270A76001209B1000FA03F301EBC200FD
:1040B0001D430838E0604D6041F83240FC604046E6
:1040C000BDE8F04100F082BB70475A0A042A53D879
:1040D0009A0902F139077F0002F1380501EB8700E8
:1040E00051F827204449083890424DD0516821F0BA
:1040F00003018B4202D292689042F7D1D068E0600F
:10410000A2608460D4604046BDE8F04100F05EBB30
:1041100095683A4FBD4203443FD0D068E86043F011
:10412000010285606260E350B3E7FF07034407D4F0
:1041300055F8082CA41A1344A068E268C260906085
:104140002F4A126843F00100934260608C60B6D33E
:104150002C4B40461968FFF721FFB0E7111849685A
:10416000C90744D49168D268CA60034443F001008F
:1041700091606060E350A2E7142A17D802F15C074F
:104180007F0002F15B05A9E7AA104B68012505FA3B
:1041900002F213434B600246B1E743F001024C6167
:1041A0000C61E560A5606260E35088E7542A06D898
:1041B0001A0B02F16F077F0002F16E058EE7B2F570
:1041C000AA7F06D8DA0B02F178077F0002F17705A3
:1041D00084E740F25450824206D89A0C02F17D07DF
:1041E0007F0002F17C0579E7FE277E2576E743F024
:1041F00001026260E35062E7D00DFF1FD80DFF1F80
:10420000D811FF1F4416FF1FD0F8EC00704700BF05
:10421000044A054B1268506B002808BF1846F0305E
:10422000704700BF600CFF1F640CFF1F2DE9F04FAB
:1042300001F10B05162D83B0064640F29F8035F044
:10424000070500F1BF80A94200F2BC8000F0BCFA73
:10425000B5F5FC7FC0F09C826B0A00F0BA80042B9D
:1042600000F28381A80900F1390E4FEA4E0338307D
:10427000C44F07EB8303A3F108015C68A14207D197
:10428000ACE0002A80F2AC80E468A14200F0A68095
:10429000636823F003035A1B0F2AF2DDB9493C6916
:1042A00001F1080E744500F0B381636823F0030345
:1042B0005A1B0F2A00F39981002AC1F814E0C1F8B3
:1042C00010E080F29E80B3F5007F80F06781DB080C
:1042D00003F1010C01229B1002FA03F34A6851F822
:1042E0003C80C4F8088001EBCC091A43A9F108030B
:1042F000E3604A6041F83C40C8F80C408310012458
:104300009C40944200F28A80144206D120F00300BF
:104310006400144200F10400FAD007EBC009CC4657
:104320008046DCF80C108C4507D173E1002A80F23E
:104330008181C9688C4500F06D814B6823F00303CF
:104340005A1B0F2AF2DD0C46D1F80CC054F8088F26
:104350004B1945F001054D6042F00101C8F80CC051
:104360003046CCF808807B613B61C3F80CE0C3F8B1
:1043700008E059609A5000F029FA1FE0102921D86E
:1043800000F022FA1025062302207E4F07EB83035C
:10439000A3F108025C68944200F045816368E1681B
:1043A000A56823F00303234430465A68E96042F0CD
:1043B00001028D605A6000F009FA0834204603B00B
:1043C000BDE8F08F00240C232046336003B0BDE825
:1043D000F08F80234FF0400E3F2049E770465DE7A5
:1043E0002344E1685A68A56842F00102E96030465A
:1043F0008D605A6000F0EAF90834204603B0BDE849
:10440000F08F234430465A6842F001025A6000F0AF
:10441000DDF90834204603B0BDE8F08FBC6863685E
:1044200023F00308A84504D3C5EB08030F2B00F3C2
:104430008C80554BDFF860911A68D9F80030013351
:104440002A4404EB080A00F0608102F580520F3222
:1044500022F47F6222F00F0211463046019200F0F2
:10446000B9FEB0F1FF3F8346019A00F058818245C2
:1044700000F2FC80454B1968DA451144196000F0E0
:104480005381D9F80000DFF810E101301BBFCAEBFF
:104490000B0A5144CEF800B019601BF0070100F080
:1044A0001781C1F10800C1F58051834408315A4495
:1044B000C2F30B02C2EB010949463046019300F0FA
:1044C00089FE431C019B00F03F81CBEB00024A4474
:1044D00042F001021968C7F808B04944BC42CBF861
:1044E00004201960DFF8A49016D0B8F10F0F40F245
:1044F000FD806268A8F10C0323F00703E01802F0C6
:1045000001024FF0050E1A430F2B6260C0F804E061
:10451000C0F808E000F21C811D4BBC681A6891428B
:1045200088BF19601B4B1A689142626888BF196086
:1045300022F003029542A2EB050301D80F2B04DC05
:10454000304600F043F9002438E7621943F00103D4
:1045500045F0010565603046BA60536000F036F9F9
:104560000834204603B0BDE8F08F142B71D9542BCA
:1045700000F2A480280B00F16F0E4FEA4E036E305C
:1045800076E600BFD00DFF1F4416FF1F4816FF1F21
:104590004016FF1F3C16FF1FDC11FF1F5A0A042A9A
:1045A0005ED9142A00F2B38002F15C0149005B324B
:1045B00007EB810C57F82110DFF8DC81ACF1080C17
:1045C0008C4500F088804A6822F00302934202D2B0
:1045D00089688C45F7D1D1F80CC07A68C4F80CC052
:1045E000A160CCF80840CC6088E6631942F001076E
:1045F00045F00105656030464B610B61C3F80CE086
:10460000C3F808E05F609A50083400F0DFF8D5E6A0
:104610004A6873E608F1010818F0030F0CF1080C62
:104620007FF47FAE30E0DC68A34208BF02303FF485
:1046300035AEB3E60B440C465A68C96854F8085FB7
:1046400042F001025A603046E9608D6000F0BEF829
:10465000B4E603F15C0E03F15B004FEA4E0307E69C
:104660009A0902F1390149003832A1E7BC424A4BAC
:104670003FF400AF9C68626822F003025AE759F8E1
:104680000839994540F0828010F0030F00F1FF30A7
:10469000F5D17B6823EA04037B6064009C423FF60B
:1046A000BDAE002C3FF4BAAE1C4240467FF435AE9E
:1046B00064001C4200F10400FAD02EE6B3F5AA7F94
:1046C00018D8E80B00F1780E4FEA4E037730CFE5AB
:1046D0004FF48051EBE60121D8F80430921001FA32
:1046E00002F21A43C8F80420614677E70123CBF8A9
:1046F000043025E740F25452934220D8A80C00F130
:104700007D0E4FEA4E037C30B2E51032A4E6542A07
:1047100026D81A0B02F16F0149006E3248E7BC68D7
:10472000626822F0030205E7CAF30B0000287FF459
:10473000A8AE4244BB6842F001025A60ECE6FE2398
:104740004FF07F0E7E2093E501224FF00009C1E675
:1047500004F108013046FFF76FFCD9F80010DBE6E2
:10476000B2F5AA7F05D8DA0B02F178014900773259
:104770001EE740F254518A4205D89A0C02F17D019D
:1047800049007C3214E7FE217E2211E77B6884E732
:10479000E808431C5B00F8E5D00DFF1F82B049B16B
:1047A0005AB16BB113780B601278101C18BF01203E
:1047B00002B0704701A9002AF3D1104602B0704739
:1047C0006FF00100F4E700BF704700BF704700BF03
:1047D000C36C70B505460C464BB153F8240080B14C
:1047E000026843F8242000230361C36070BD2122C6
:1047F000042100F001FEE86403460028EDD100200A
:1048000070BD012101FA04F6721D2846920000F0E5
:10481000F3FD0028F3D044608660E4E731B1C36C57
:104820004A6853F82200086043F82210704700BF1E
:10483000F0B50C6983B00D46064601F1140E002751
:10484000DEF8000081B202FB01310B0C000C02FB10
:10485000003389B2013701EB0341BC424EF8041B1F
:104860004FEA1343ECDC3BB1AA68944207DA05EB4C
:104870008402013453612C61284603B0F0BD69689D
:10488000019301313046FFF7A3FF2A69023205F197
:104890000C01074692000C30FFF7E8F8F26C6968EB
:1048A000019B52F82100286042F821503D46DEE786
:1048B000030C1B04B3B90004102310F07F4F04BF96
:1048C0000002083310F0704F04BF0001043310F0F1
:1048D000404F04BF80000233002807DB420003D4AE
:1048E000202070470023E8E7581C7047184670479F
:1048F000036813F0070207D0D90720D49A0720D401
:104900009B0803600220704799B209B91B0C102262
:1049100013F0FF0F04BF1B0A0832190704BF1B095D
:104920000432990704BF9B080232D90704D45B08FC
:1049300001D12020704701320360104670470020EB
:1049400070475B0803600120704700BF10B50C463C
:104950000121FFF73DFF01224461026110BD00BF4C
:104960002DE9F04F0D691769BD4283B00C4616461C
:1049700004DA2A4634463D460E461746A368616867
:1049800005EB07089845C8BF0131FFF721FF00F18B
:10499000140C0CEB8809CC45009005D2634600212D
:1049A00043F8041B9945FBD806F1140202EB870A71
:1049B00004F11403524503EB850E54D2CDF8049054
:1049C000994652F8043B1FFA83FBBBF1000F20D03D
:1049D00000204F466646054600E01E4657F8044B49
:1049E0003068A1B283B20BFB0131240C000C4B19CF
:1049F0000BFB040000EB134099B2334641EA00413F
:104A0000BE454FEA104543F8041BE6D8756052F8DE
:104A1000043C5FEA134B20D0DCF8003067461846B0
:104A20004D46002100E037462C88000C0BFB0400AB
:104A300001449CB23E4644EA014346F8043B786890
:104A400055F8044B83B2240C0BFB043404EB1143E4
:104A5000AE454FEA1341E6D87B6092450CF1040C59
:104A6000AFD8DDF80490B8F1000F0BDD59F8043C25
:104A7000A9F104091BB105E059F8043D13B9B8F1D7
:104A80000108F9D10098C0F8108003B0BDE8F08F9C
:104A900012F003032DE9F041144607462ED10E46CD
:104AA000A4101CD0BD6C95B3E3074FF0000806D4EA
:104AB000641014D02868A8B10546E307F8D52A4643
:104AC00031463846FFF74CFFB6B17268FB6C641094
:104AD00053F82210316043F822600646EAD130468E
:104AE000BDE8F0812A4629463846FFF739FF28609D
:104AF000C0F800800546E0E70646D9E75A1E0B4D90
:104B0000002355F82220FFF793FE0646C8E701214F
:104B10003846FFF75DFE40F271210122002341611A
:104B200002610546B8640360BEE700BFD896000086
:104B30002DE9F04791460A698B684FEA691404EB46
:104B4000020808F101059D420E468246496804DDCF
:104B50005B009D4201F10101FADC5046FFF738FE8F
:104B6000002C00F1140238DD02EB8403002142F82E
:104B7000041B9342FBD1346906F1140119F01F099B
:104B800001EB840E21D0C9F1200200240F6807FA3E
:104B900009FC4CEA04049C4643F8044B51F8044BCE
:104BA0008E4524FA02F4F1D8CCF804400CB108F197
:104BB0000205DAF84C307268013D53F822100561A5
:104BC000316043F82260BDE8F087043B51F8042BC4
:104BD00043F8042F8E45F9D8EBE71346CBE700BF27
:104BE00002690B69D21A13D19B0014301431194495
:104BF00010B4034401E098420CD253F8044D51F82C
:104C0000042D9442F7D009D301205DF8044B70477E
:104C10001046704700205DF8044B70474FF0FF309E
:104C2000F3E700BF2DE9F8430B690F4611695B1AE2
:104C3000002B904617D1890007F1140208F11405E2
:104C40005318294401E09A425ED253F8046D51F89A
:104C5000044DA642F7D060D23B46144647464FF07B
:104C60000109984606E05DDB07F1140502F1140422
:104C70004FF000097968FFF7ABFDD8F810303E69B6
:104C8000C0F80C9004EB830CA64605EB860700F1F8
:104C9000140400235EF8041B55F8048B8AB213FA3F
:104CA00088F3090C9A1AC1EB184303EB224392B222
:104CB00042EA0342F44544F8042B4FEA2343E9D87F
:104CC000AF4217D9A446294651F804EB13FA8EF2E5
:104CD000131403EB1E4392B242EA03428F424CF894
:104CE000042B4FEA2343EFD8ED433D4425F0030561
:104CF00004352C44043C22B954F8043D013E002BF9
:104D0000FAD00661BDE8F8830021FFF761FD0122BA
:104D1000002302614361BDE8F8832C464FF000098F
:104D20001546A7E73B4607F1140408F1140547466A
:104D30004FF0010998469DE72DE9F04357EC106BC1
:104D400083B0884601213C46C7F30A551746FFF752
:104D50003FFDC4F3130481460DB144F48014019463
:104D60001EB302A840F8086DFFF7C2FD002834D139
:104D70009DE80C00C9F81420002B0CBF0121022172
:104D8000C9F81830C9F81010DDB909EB8103A0F299
:104D90003240C8F800001869FFF78AFDC0EB4110E7
:104DA0003860484603B0BDE8F08301A8FFF7A0FDD6
:104DB000019BC9F8143001212030C9F81010002DD2
:104DC000E3D0A5F233450544C0F13500C8F80050E2
:104DD0003860484603B0BDE8F0839DE80C00C0F1A0
:104DE000200103FA01F10A43C3400193C9F81420DA
:104DF000C2E700BF2DE9F04F174683B0002900F04D
:104E0000C1800E46814607F10B05FFF7DDFC56F821
:104E100004EC162D2EF00304A6F1080840D8102249
:104E20001546AF4241D8944275DAC94B996808EBF0
:104E300004008842416800F0D98021F00103034456
:104E40005B68DB077DD51EF0010F35D0394648463B
:104E5000FFF7ECF90746E0B156F8043C23F00103F4
:104E60004344A0F108029A4200F04481221F242A00
:104E700000F23181132A00F20481034632461168A0
:104E800019605168596092689A6031464846FFF748
:104E9000D3F84846FFF79AFC384603B0BDE8F08FD8
:104EA00025F00705002D2A46BBDA0C230020C9F89F
:104EB000003003B0BDE8F08F56F8083CC3EB080A99
:104EC000DAF8043023F0030C04EB0C039342BDDB4F
:104ED0005746DAF80C1057F8080F221F242AC16031
:104EE000886000F21781132A40F212813168CAF8F3
:104EF00008107168CAF80C101B2A00F22B810836C2
:104F00000AF110023168116071685160B1689160F6
:104F10003E461C46D046631B0F2B1DD8D8F80430E4
:104F200003F0010323434444C8F80430636843F0AA
:104F3000010363604846FFF749FC304603B0BDE813
:104F4000F08F21F003012144914221DBC368826884
:104F50000C46D3609A60DEE7D8F8042008EB050120
:104F600002F00102154343F001020B44C8F804505B
:104F70004A605A6842F0010208315A604846FFF719
:104F80005BF8D7E7114603B0BDE8F04FFFF74EB925
:104F90001EF0010F7FF45AAF56F8083CC3EB080A25
:104FA000DAF8043023F0030C01EB0C0E96458BDB92
:104FB000C36882685746D3609A6057F8081FDAF8CA
:104FC0000C30CB60221F242A996000F29980132AAA
:104FD00062D93368CAF808307368CAF80C301B2AE3
:104FE00000F2A08008360AF1100356E021F0030B0E
:104FF000A34405F11000834559DA1EF0010F7FF438
:1050000025AF56F8081CC1EB080ADAF8041021F0A5
:10501000030CE34458453FF757AF5746DAF80C10F6
:1050200057F8080F221F242AC160886000F2B4805C
:10503000132A40F2A5803168CAF808107168CAF8CE
:105040000C101B2A00F2AF8008360AF110023168FA
:10505000116071685160B16891600AEB0501C5EBA0
:105060000B0242F0010299604A60DAF8043003F062
:1050700001031D434846CAF80450FFF7A7FB384612
:105080005CE733680360736843601B2A27D800F12C
:10509000080306F10802F2E63B4632681A607268BD
:1050A0005A60B2689A603E467446D04633E708EBD1
:1050B0000501C5EB0B0B4BF0010299604A6056F8F5
:1050C000043C03F001031D43484646F8045CFFF727
:1050D0007DFB304632E7314601F06CF9D5E6B36826
:1050E0008360F368C360242A28D000F1100306F11E
:1050F0001002C4E650F8043C23F003031C440AE702
:10510000314638467446D04601F054F93E4602E72F
:105110003A46F7E6314638461C46D04601F04AF991
:105120003E46F8E6B368CAF81030F368CAF814309F
:10513000242A1BD010360AF11803AEE73369036145
:105140007369436106F1180200F1180397E600BF86
:10515000D00DFF1FB168CAF81010F168CAF814101A
:10516000242A0FD010360AF11802CBE63369CAF8A8
:1051700018307369CAF81C3018360AF120038CE71E
:105180003A4664E73269CAF818207269CAF81C20E6
:1051900018360AF12002B5E631463846019301F08F
:1051A00009F9019B59E7B168CAF81010F168CAF80B
:1051B0001410242A03D010360AF1180247E7326986
:1051C000CAF818207269CAF81C2018360AF12002A1
:1051D0003DE700BF38B5074C00230546084623606D
:1051E000FBF72EFE431C00D038BD2368002BFBD0FC
:1051F0002B6038BD7016FF1FFFFFFFFFFFFFFFFF93
:1052000090F800F06DE9024520F007016FF0000C06
:1052100010F0070491F820F040F049804FF00004AE
:105220006FF00700D1E9002391F840F000F1080089
:1052300082FA4CF2A4FA8CF283FA4CF3A2FA8CF3C1
:105240004BBBD1E9022382FA4CF200F10800A4FA28
:105250008CF283FA4CF3A2FA8CF3E3B9D1E904237C
:1052600082FA4CF200F10800A4FA8CF283FA4CF3B3
:10527000A2FA8CF37BB9D1E9062301F1200182FA6D
:105280004CF200F10800A4FA8CF283FA4CF3A2FA73
:105290008CF3002BC6D0002A04BF04301A4612BA81
:1052A000B2FA82F2FDE8024500EBD2007047D1E984
:1052B000002304F00305C4F100004FEAC50514F013
:1052C000040F91F840F00CFA05F562EA05021CBFE4
:1052D00063EA050362464FF00004A9E7002A41D0C3
:1052E00040EA010313F00303F0B425D1032A23D9C4
:1052F00004680D68AC421FD1043A35D0A4F10135E1
:1053000025EA040414F0803F31D1071D0D1D0DE086
:1053100057F8043B0E68A3F10134B34224EA0304B6
:105320000AD1043A20D014F0803F23D1032A294621
:10533000384605F10405EBD803780C789C4202F15D
:10534000FF320CD182B114B916E06AB17BB110F80A
:10535000013F11F8014FA34202F1FF32F5D0181BB3
:10536000F0BC7047104670471046F0BC70471846B6
:10537000F0BC70470020F3E72046F1E770B5154612
:105380009AB0146809B1002C1AD100244FF422728B
:10539000ADF80C20009404941A464FF6FF761E9B3D
:1053A000029469460594ADF80E6001F069F8002892
:1053B00011DB009B286000221A7004981AB070BD9F
:1053C0004FF4C16200910491ADF80C20E4DA8B2314
:1053D00003600020F2E70020F0E700BF21B1FF2AC0
:1053E00004D80A7001207047084670478A2303607A
:1053F0004FF0FF30704700BF10B502FB01F1FEF720
:1054000015FF0446D8B150F8042C22F00302043AE8
:10541000242A18D8132A14D900231B2A03604360B6
:1054200016D9242A8360C36011BF00F11002036102
:10543000436100F11802002313605360936020461B
:1054400010BD0246F7E70021FEF7AAFB204610BD7B
:1054500000F10802EFE700BF02690B69934200F315
:105460008D802DE9F04F03F1FF3801F1140700F1B1
:10547000140B57F828205BF828304FEA880483B0D3
:105480000132B3FBF2F90BEB0403009407EB040ABF
:105490000193B9F1000F39D00025BC46DE462B46FA
:1054A0005CF8046BDEF80020B4B209FB0455360C3E
:1054B0002C0C09FB0644ADB25B1BA6B213FA82F3B7
:1054C000C6EB124606EB23469BB243EA0643E2458F
:1054D0004EF8043B4FEA14454FEA2643E0D2009BC6
:1054E0005BF8033093B9019C231F9B450CD254F801
:1054F000043C4BB9A4F1080302E01A68043B1AB952
:105500009B4508F1FF38F8D3C0F810800446FFF738
:1055100067FB00282EDB09F101095D46002357F8DF
:10552000041B28688AB29A1A090C12FA80F2C1EB9D
:10553000104303EB224391B241EA0341BA4545F8D7
:10554000041B4FEA2343EAD25BF828200BEB8803C5
:1055500082B91A1F93450BD253F8042C42B9083B69
:1055600002E01A68043B1AB99B4508F1FF38F8D3EA
:10557000C4F81080484603B0BDE8F08F00207047A3
:105580002DE9F04F57EC106B9BB0046C249D0091FB
:1055900081460592039310EE10AABB4654B1426CAB
:1055A000626001239340A3602146FFF737F900238F
:1055B000C9F84030BBF1000F5C4634DB00232B60A0
:1055C000A14B1A462340934216D000220023504696
:1055D000594602F0BDFF56465F46804648B3039ADF
:1055E00001231360259B002B00F0BE8097481860B4
:1055F00001381BB0BDE8F08F039A42F20F731360BD
:10560000BAF1000F00F09A809148259B002BF0D052
:10561000C378002B00F0AA8000F10803259A1360DC
:105620001BB0BDE8F08F01232BF000442B60A34694
:10563000C6E718AA19A947EC106B4846FFF77CFB90
:10564000250D0A9040F08380189D199E2E4406F285
:105650003243202B40F38882C3F1400306F212400C
:105660009C402AFA00F0204302F094FC0123741EAF
:10567000A1F1F8710F930022764B02F04DFB6CA361
:10568000D3E9002302F0FCFC6BA3D3E9002302F072
:1056900045FB064620460F4602F08CFC68A3D3E982
:1056A000002302F0EDFC02460B463046394602F07C
:1056B00035FB06460F4602F093FF002204900023BC
:1056C0003046394602F04EFF002840F02882049E02
:1056D000162E00F22182604B03EBC603D3E90001D2
:1056E00052465B4602F05CFF002800F04282731EC7
:1056F000049300230D932D1BB5F1010800F12A82BC
:1057000000230793049B002BC0F21B8298440C9348
:1057100000230693009B092B2AD8052B40F34486CF
:10572000043B00930026009B023B032B00F22386E0
:10573000DFE813F02B03240236035004444B474A9E
:10574000C4F31300002814BF184610465DE7CBF3DE
:10575000130343F07F51A5F2FF345046CDF83C804F
:1057600041F44011189D86E73D4842E7C31C55E7C8
:105770000021C9F8441048460C460091FFF728F86C
:105780004FF0FF3308930E9301230990C9F84000AE
:1057900005940B93199B002BC0F2D080049A0E2A1B
:1057A00000F3CC802C4B03EBC20393ED007B059BF5
:1057B000002B8DED007BC0F2FE8256465F46DDE990
:1057C00000AB304652465B46394602F083FD02F09C
:1057D00007FF044602F0EEFB52465B4602F050FC27
:1057E0000B4602463946304602F096FA099D04F10E
:1057F00030032B70089B012B06460F4605F101056F
:1058000061D00022174B02F03BFC00220023064629
:105810000F4602F09DFE00287DD1CDF81490DDF8F2
:1058200020A0DDF824B0DDE9008928E0AFF3008096
:1058300061436F63A787D23FB3C8608B288AC63F96
:10584000FB799F501344D33F0000F07FF99700008D
:10585000F49700000000F83FE8950000E89700008A
:10586000F89700000000244002F00AFC0022002308
:1058700006460F4602F06CFE002840F0AE8342461A
:105880004B463046394602F025FD02F0A9FE04469B
:1058900002F090FB42464B4602F0F2FB02460B46FA
:1058A0003046394602F038FA04F1300E05F801EBC3
:1058B000CBEB050ED64506460F464FF00002AE4B29
:1058C000D2D1DDF8149032463B463046394602F0DC
:1058D00025FA06460F4602460B46DDE9000102F0B6
:1058E00041FE40B932463B46DDE9000102F030FEA0
:1058F00088B1E3070FD515F8014C099A6B1E04E037
:105900009A4200F0FC8313F8014D392C03F1010594
:10591000F6D001341C700A994846FEF77FFF00223A
:10592000049B2A70039A01331360259B002B00F01F
:105930009B8309981D601BB0BDE8F08F0B9A002A6D
:1059400000F00E81009A012A40F35782089B069AC4
:105950005F1EBA42C0F28B83D71B089B002BC0F29C
:105960008084079D089B079A01211A4448460792A4
:105970009844FEF7EBFF064665B1B8F1000F09DD6C
:105980004545079A2B46A8BF4346D21A0792ED1AFF
:10599000C3EB0808069B002B40F3F5820B9A002A04
:1059A00000F00282002F00F0FF8131463A4648465F
:1059B000FFF76EF80A9A014606464846FEF7D0FF02
:1059C0000A9904464846FEF729FF069BDB1B06930F
:1059D00040F0E98101214846FEF7B8FF0C9B069094
:1059E000002B00F0158201461A464846FFF750F892
:1059F000009B0690012B40F3F3820027069A13695F
:105A000002EB83031869FEF753FFC0F12000404406
:105A100010F01F0000F0FA81C0F12003042B40F3C6
:105A2000BD84C0F11C00079B0344079305448044D8
:105A3000079B002B05DD21461A464846FFF778F8FC
:105A40000446B8F1000F05DD424606994846FFF7C7
:105A50006FF806900D9B002B40F07A82089B002B7C
:105A600040F393820B9B002B40F0F481DDF824B0CF
:105A7000089FDDF818805D4602E0FEF7D9FE044677
:105A800041462046FFF7E8FC00F1300A05F801AB7B
:105A9000CBEB0503BB424FF00A024FF00003214657
:105AA0004846EADB099B089A012AACBF9B180133E0
:105AB0001D464FF0000B214601224846FFF738F8FB
:105AC00006990A90FFF78CF8002840F3058315F833
:105AD000012C09996B1E04E08B4200F0748213F8CC
